{
  "_format": "hh-sol-artifact-1",
  "contractName": "meddata",
  "sourceName": "contracts/meddata.sol",
  "abi": [
    {
      "inputs": [],
      "stateMutability": "payable",
      "type": "constructor"
    },
    {
      "inputs": [
        {
          "internalType": "string",
          "name": "_title",
          "type": "string"
        },
        {
          "internalType": "string",
          "name": "_description",
          "type": "string"
        },
        {
          "internalType": "string",
          "name": "_imageURI",
          "type": "string"
        }
      ],
      "name": "NewRrecord",
      "outputs": [],
      "stateMutability": "payable",
      "type": "function"
    },
    {
      "inputs": [],
      "name": "firstOwner",
      "outputs": [],
      "stateMutability": "nonpayable",
      "type": "function"
    },
    {
      "inputs": [],
      "name": "getAllRecords",
      "outputs": [
        {
          "components": [
            {
              "internalType": "uint256",
              "name": "id",
              "type": "uint256"
            },
            {
              "internalType": "string",
              "name": "title",
              "type": "string"
            },
            {
              "internalType": "string",
              "name": "description",
              "type": "string"
            },
            {
              "internalType": "bool",
              "name": "islisted",
              "type": "bool"
            },
            {
              "internalType": "string",
              "name": "imageURI",
              "type": "string"
            },
            {
              "internalType": "address[]",
              "name": "owners",
              "type": "address[]"
            },
            {
              "internalType": "uint256",
              "name": "timestamp",
              "type": "uint256"
            }
          ],
          "internalType": "struct meddata.Record[]",
          "name": "",
          "type": "tuple[]"
        }
      ],
      "stateMutability": "view",
      "type": "function"
    },
    {
      "inputs": [
        {
          "internalType": "address",
          "name": "_newOwner",
          "type": "address"
        }
      ],
      "name": "newOwner",
      "outputs": [],
      "stateMutability": "payable",
      "type": "function"
    },
    {
      "inputs": [
        {
          "internalType": "uint256",
          "name": "",
          "type": "uint256"
        }
      ],
      "name": "records",
      "outputs": [
        {
          "internalType": "uint256",
          "name": "id",
          "type": "uint256"
        },
        {
          "internalType": "string",
          "name": "title",
          "type": "string"
        },
        {
          "internalType": "string",
          "name": "description",
          "type": "string"
        },
        {
          "internalType": "bool",
          "name": "islisted",
          "type": "bool"
        },
        {
          "internalType": "string",
          "name": "imageURI",
          "type": "string"
        },
        {
          "internalType": "uint256",
          "name": "timestamp",
          "type": "uint256"
        }
      ],
      "stateMutability": "view",
      "type": "function"
    },
    {
      "inputs": [
        {
          "internalType": "address",
          "name": "_removeOwner",
          "type": "address"
        }
      ],
      "name": "removeOwner",
      "outputs": [
        {
          "components": [
            {
              "internalType": "uint256",
              "name": "id",
              "type": "uint256"
            },
            {
              "internalType": "string",
              "name": "title",
              "type": "string"
            },
            {
              "internalType": "string",
              "name": "description",
              "type": "string"
            },
            {
              "internalType": "bool",
              "name": "islisted",
              "type": "bool"
            },
            {
              "internalType": "string",
              "name": "imageURI",
              "type": "string"
            },
            {
              "internalType": "address[]",
              "name": "owners",
              "type": "address[]"
            },
            {
              "internalType": "uint256",
              "name": "timestamp",
              "type": "uint256"
            }
          ],
          "internalType": "struct meddata.Record[]",
          "name": "",
          "type": "tuple[]"
        }
      ],
      "stateMutability": "payable",
      "type": "function"
    },
    {
      "inputs": [
        {
          "internalType": "uint256",
          "name": "",
          "type": "uint256"
        }
      ],
      "name": "temp",
      "outputs": [
        {
          "internalType": "address",
          "name": "",
          "type": "address"
        }
      ],
      "stateMutability": "view",
      "type": "function"
    },
    {
      "inputs": [],
      "name": "totalRecord",
      "outputs": [
        {
          "internalType": "uint256",
          "name": "",
          "type": "uint256"
        }
      ],
      "stateMutability": "view",
      "type": "function"
    }
  ],
  "bytecode": "0x6080604052611f84806100136000396000f3fe60806040526004361061007b5760003560e01c80636c3755ad1161004e5780636c3755ad146101255780638595245414610162578063a7f9fe721461017e578063ff35700c146101a95761007b565b8063173825d9146100805780631cda164f146100b057806334461067146100cc5780636bc287811461010e575b600080fd5b61009a6004803603810190610095919061142b565b6101d4565b6040516100a7919061174d565b60405180910390f35b6100ca60048036038101906100c591906118a4565b61080c565b005b3480156100d857600080fd5b506100f360048036038101906100ee9190611977565b6109ae565b60405161010596959493929190611a0c565b60405180910390f35b34801561011a57600080fd5b50610123610b9f565b005b34801561013157600080fd5b5061014c60048036038101906101479190611977565b610c4d565b6040516101599190611a91565b60405180910390f35b61017c6004803603810190610177919061142b565b610c8c565b005b34801561018a57600080fd5b50610193610e61565b6040516101a0919061174d565b60405180910390f35b3480156101b557600080fd5b506101be6112cd565b6040516101cb9190611aac565b60405180910390f35b606060006001805490501161021e576040517f08c379a000000000000000000000000000000000000000000000000000000000815260040161021590611b13565b60405180910390fd5b60005b6001805490508110156105395760005b6001828154811061024557610244611b33565b5b906000526020600020906007020160050180549050811015610525578373ffffffffffffffffffffffffffffffffffffffff166001838154811061028c5761028b611b33565b5b906000526020600020906007020160050182815481106102af576102ae611b33565b5b9060005260206000200160009054906101000a900473ffffffffffffffffffffffffffffffffffffffff1673ffffffffffffffffffffffffffffffffffffffff1614801561038a57503373ffffffffffffffffffffffffffffffffffffffff166001838154811061032357610322611b33565b5b906000526020600020906007020160050160008154811061034757610346611b33565b5b9060005260206000200160009054906101000a900473ffffffffffffffffffffffffffffffffffffffff1673ffffffffffffffffffffffffffffffffffffffff16145b1561051257600182815481106103a3576103a2611b33565b5b906000526020600020906007020160050160018084815481106103c9576103c8611b33565b5b9060005260206000209060070201600501805490506103e89190611b91565b815481106103f9576103f8611b33565b5b9060005260206000200160009054906101000a900473ffffffffffffffffffffffffffffffffffffffff166001838154811061043857610437611b33565b5b9060005260206000209060070201600501828154811061045b5761045a611b33565b5b9060005260206000200160006101000a81548173ffffffffffffffffffffffffffffffffffffffff021916908373ffffffffffffffffffffffffffffffffffffffff160217905550600182815481106104b7576104b6611b33565b5b90600052602060002090600702016005018054806104d8576104d7611bc5565b5b6001900381819060005260206000200160006101000a81549073ffffffffffffffffffffffffffffffffffffffff02191690559055610525565b808061051d90611bf4565b915050610231565b50808061053190611bf4565b915050610221565b506001805480602002602001604051908101604052809291908181526020016000905b8282101561080157838290600052602060002090600702016040518060e00160405290816000820154815260200160018201805461059990611c6b565b80601f01602080910402602001604051908101604052809291908181526020018280546105c590611c6b565b80156106125780601f106105e757610100808354040283529160200191610612565b820191906000526020600020905b8154815290600101906020018083116105f557829003601f168201915b5050505050815260200160028201805461062b90611c6b565b80601f016020809104026020016040519081016040528092919081815260200182805461065790611c6b565b80156106a45780601f10610679576101008083540402835291602001916106a4565b820191906000526020600020905b81548152906001019060200180831161068757829003601f168201915b505050505081526020016003820160009054906101000a900460ff161515151581526020016004820180546106d890611c6b565b80601f016020809104026020016040519081016040528092919081815260200182805461070490611c6b565b80156107515780601f1061072657610100808354040283529160200191610751565b820191906000526020600020905b81548152906001019060200180831161073457829003601f168201915b50505050508152602001600582018054806020026020016040519081016040528092919081815260200182805480156107df57602002820191906000526020600020905b8160009054906101000a900473ffffffffffffffffffffffffffffffffffffffff1673ffffffffffffffffffffffffffffffffffffffff1681526020019060010190808311610795575b505050505081526020016006820154815250508152602001906001019061055c565b505050509050919050565b610814610b9f565b60016040518060e0016040528042815260200185815260200184815260200160011515815260200183815260200160038054806020026020016040519081016040528092919081815260200182805480156108c457602002820191906000526020600020905b8160009054906101000a900473ffffffffffffffffffffffffffffffffffffffff1673ffffffffffffffffffffffffffffffffffffffff168152602001906001019080831161087a575b5050505050815260200142815250908060018154018082558091505060019003906000526020600020906007020160009091909190915060008201518160000155602082015181600101908161091a9190611e48565b5060408201518160020190816109309190611e48565b5060608201518160030160006101000a81548160ff02191690831515021790555060808201518160040190816109669190611e48565b5060a08201518160050190805190602001906109839291906112d3565b5060c08201518160060155505060016000808282546109a29190611f1a565b92505081905550505050565b600181815481106109be57600080fd5b90600052602060002090600702016000915090508060000154908060010180546109e790611c6b565b80601f0160208091040260200160405190810160405280929190818152602001828054610a1390611c6b565b8015610a605780601f10610a3557610100808354040283529160200191610a60565b820191906000526020600020905b815481529060010190602001808311610a4357829003601f168201915b505050505090806002018054610a7590611c6b565b80601f0160208091040260200160405190810160405280929190818152602001828054610aa190611c6b565b8015610aee5780601f10610ac357610100808354040283529160200191610aee565b820191906000526020600020905b815481529060010190602001808311610ad157829003601f168201915b5050505050908060030160009054906101000a900460ff1690806004018054610b1690611c6b565b80601f0160208091040260200160405190810160405280929190818152602001828054610b4290611c6b565b8015610b8f5780601f10610b6457610100808354040283529160200191610b8f565b820191906000526020600020905b815481529060010190602001808311610b7257829003601f168201915b5050505050908060060154905086565b6003339080600181540180825580915050600190039060005260206000200160009091909190916101000a81548173ffffffffffffffffffffffffffffffffffffffff021916908373ffffffffffffffffffffffffffffffffffffffff160217905550600180549050600260003373ffffffffffffffffffffffffffffffffffffffff1673ffffffffffffffffffffffffffffffffffffffff16815260200190815260200160002081905550565b60038181548110610c5d57600080fd5b906000526020600020016000915054906101000a900473ffffffffffffffffffffffffffffffffffffffff1681565b600060018054905011610cd4576040517f08c379a0000000000000000000000000000000000000000000000000000000008152600401610ccb90611b13565b60405180910390fd5b60005b600180549050811015610e5d5760005b60018281548110610cfb57610cfa611b33565b5b906000526020600020906007020160050180549050811015610e49573373ffffffffffffffffffffffffffffffffffffffff1660018381548110610d4257610d41611b33565b5b90600052602060002090600702016005018281548110610d6557610d64611b33565b5b9060005260206000200160009054906101000a900473ffffffffffffffffffffffffffffffffffffffff1673ffffffffffffffffffffffffffffffffffffffff1603610e365760018281548110610dbf57610dbe611b33565b5b9060005260206000209060070201600501839080600181540180825580915050600190039060005260206000200160009091909190916101000a81548173ffffffffffffffffffffffffffffffffffffffff021916908373ffffffffffffffffffffffffffffffffffffffff160217905550610e49565b8080610e4190611bf4565b915050610ce7565b508080610e5590611bf4565b915050610cd7565b5050565b6060600060018054905011610eab576040517f08c379a0000000000000000000000000000000000000000000000000000000008152600401610ea290611b13565b60405180910390fd5b600060018054905067ffffffffffffffff811115610ecc57610ecb611779565b5b604051908082528060200260200182016040528015610f0557816020015b610ef261135d565b815260200190600190039081610eea5790505b50905060005b6001805490508110156112c55760005b60018281548110610f2f57610f2e611b33565b5b9060005260206000209060070201600501805490508110156112b1573373ffffffffffffffffffffffffffffffffffffffff1660018381548110610f7657610f75611b33565b5b90600052602060002090600702016005018281548110610f9957610f98611b33565b5b9060005260206000200160009054906101000a900473ffffffffffffffffffffffffffffffffffffffff1673ffffffffffffffffffffffffffffffffffffffff160361129e5760018281548110610ff357610ff2611b33565b5b90600052602060002090600702016040518060e00160405290816000820154815260200160018201805461102690611c6b565b80601f016020809104026020016040519081016040528092919081815260200182805461105290611c6b565b801561109f5780601f106110745761010080835404028352916020019161109f565b820191906000526020600020905b81548152906001019060200180831161108257829003601f168201915b505050505081526020016002820180546110b890611c6b565b80601f01602080910402602001604051908101604052809291908181526020018280546110e490611c6b565b80156111315780601f1061110657610100808354040283529160200191611131565b820191906000526020600020905b81548152906001019060200180831161111457829003601f168201915b505050505081526020016003820160009054906101000a900460ff1615151515815260200160048201805461116590611c6b565b80601f016020809104026020016040519081016040528092919081815260200182805461119190611c6b565b80156111de5780601f106111b3576101008083540402835291602001916111de565b820191906000526020600020905b8154815290600101906020018083116111c157829003601f168201915b505050505081526020016005820180548060200260200160405190810160405280929190818152602001828054801561126c57602002820191906000526020600020905b8160009054906101000a900473ffffffffffffffffffffffffffffffffffffffff1673ffffffffffffffffffffffffffffffffffffffff1681526020019060010190808311611222575b5050505050815260200160068201548152505083838151811061129257611291611b33565b5b60200260200101819052505b80806112a990611bf4565b915050610f1b565b5080806112bd90611bf4565b915050610f0b565b508091505090565b60005481565b82805482825590600052602060002090810192821561134c579160200282015b8281111561134b5782518260006101000a81548173ffffffffffffffffffffffffffffffffffffffff021916908373ffffffffffffffffffffffffffffffffffffffff160217905550916020019190600101906112f3565b5b509050611359919061139c565b5090565b6040518060e001604052806000815260200160608152602001606081526020016000151581526020016060815260200160608152602001600081525090565b5b808211156113b557600081600090555060010161139d565b5090565b6000604051905090565b600080fd5b600080fd5b600073ffffffffffffffffffffffffffffffffffffffff82169050919050565b60006113f8826113cd565b9050919050565b611408816113ed565b811461141357600080fd5b50565b600081359050611425816113ff565b92915050565b600060208284031215611441576114406113c3565b5b600061144f84828501611416565b91505092915050565b600081519050919050565b600082825260208201905092915050565b6000819050602082019050919050565b6000819050919050565b61149781611484565b82525050565b600081519050919050565b600082825260208201905092915050565b60005b838110156114d75780820151818401526020810190506114bc565b60008484015250505050565b6000601f19601f8301169050919050565b60006114ff8261149d565b61150981856114a8565b93506115198185602086016114b9565b611522816114e3565b840191505092915050565b60008115159050919050565b6115428161152d565b82525050565b600081519050919050565b600082825260208201905092915050565b6000819050602082019050919050565b61157d816113ed565b82525050565b600061158f8383611574565b60208301905092915050565b6000602082019050919050565b60006115b382611548565b6115bd8185611553565b93506115c883611564565b8060005b838110156115f95781516115e08882611583565b97506115eb8361159b565b9250506001810190506115cc565b5085935050505092915050565b600060e08301600083015161161e600086018261148e565b506020830151848203602086015261163682826114f4565b9150506040830151848203604086015261165082826114f4565b91505060608301516116656060860182611539565b506080830151848203608086015261167d82826114f4565b91505060a083015184820360a086015261169782826115a8565b91505060c08301516116ac60c086018261148e565b508091505092915050565b60006116c38383611606565b905092915050565b6000602082019050919050565b60006116e382611458565b6116ed8185611463565b9350836020820285016116ff85611474565b8060005b8581101561173b578484038952815161171c85826116b7565b9450611727836116cb565b925060208a01995050600181019050611703565b50829750879550505050505092915050565b6000602082019050818103600083015261176781846116d8565b905092915050565b600080fd5b600080fd5b7f4e487b7100000000000000000000000000000000000000000000000000000000600052604160045260246000fd5b6117b1826114e3565b810181811067ffffffffffffffff821117156117d0576117cf611779565b5b80604052505050565b60006117e36113b9565b90506117ef82826117a8565b919050565b600067ffffffffffffffff82111561180f5761180e611779565b5b611818826114e3565b9050602081019050919050565b82818337600083830152505050565b6000611847611842846117f4565b6117d9565b90508281526020810184848401111561186357611862611774565b5b61186e848285611825565b509392505050565b600082601f83011261188b5761188a61176f565b5b813561189b848260208601611834565b91505092915050565b6000806000606084860312156118bd576118bc6113c3565b5b600084013567ffffffffffffffff8111156118db576118da6113c8565b5b6118e786828701611876565b935050602084013567ffffffffffffffff811115611908576119076113c8565b5b61191486828701611876565b925050604084013567ffffffffffffffff811115611935576119346113c8565b5b61194186828701611876565b9150509250925092565b61195481611484565b811461195f57600080fd5b50565b6000813590506119718161194b565b92915050565b60006020828403121561198d5761198c6113c3565b5b600061199b84828501611962565b91505092915050565b6119ad81611484565b82525050565b600082825260208201905092915050565b60006119cf8261149d565b6119d981856119b3565b93506119e98185602086016114b9565b6119f2816114e3565b840191505092915050565b611a068161152d565b82525050565b600060c082019050611a2160008301896119a4565b8181036020830152611a3381886119c4565b90508181036040830152611a4781876119c4565b9050611a5660608301866119fd565b8181036080830152611a6881856119c4565b9050611a7760a08301846119a4565b979650505050505050565b611a8b816113ed565b82525050565b6000602082019050611aa66000830184611a82565b92915050565b6000602082019050611ac160008301846119a4565b92915050565b7f6e6f207265636f72647300000000000000000000000000000000000000000000600082015250565b6000611afd600a836119b3565b9150611b0882611ac7565b602082019050919050565b60006020820190508181036000830152611b2c81611af0565b9050919050565b7f4e487b7100000000000000000000000000000000000000000000000000000000600052603260045260246000fd5b7f4e487b7100000000000000000000000000000000000000000000000000000000600052601160045260246000fd5b6000611b9c82611484565b9150611ba783611484565b9250828203905081811115611bbf57611bbe611b62565b5b92915050565b7f4e487b7100000000000000000000000000000000000000000000000000000000600052603160045260246000fd5b6000611bff82611484565b91507fffffffffffffffffffffffffffffffffffffffffffffffffffffffffffffffff8203611c3157611c30611b62565b5b600182019050919050565b7f4e487b7100000000000000000000000000000000000000000000000000000000600052602260045260246000fd5b60006002820490506001821680611c8357607f821691505b602082108103611c9657611c95611c3c565b5b50919050565b60008190508160005260206000209050919050565b60006020601f8301049050919050565b600082821b905092915050565b600060088302611cfe7fffffffffffffffffffffffffffffffffffffffffffffffffffffffffffffffff82611cc1565b611d088683611cc1565b95508019841693508086168417925050509392505050565b6000819050919050565b6000611d45611d40611d3b84611484565b611d20565b611484565b9050919050565b6000819050919050565b611d5f83611d2a565b611d73611d6b82611d4c565b848454611cce565b825550505050565b600090565b611d88611d7b565b611d93818484611d56565b505050565b5b81811015611db757611dac600082611d80565b600181019050611d99565b5050565b601f821115611dfc57611dcd81611c9c565b611dd684611cb1565b81016020851015611de5578190505b611df9611df185611cb1565b830182611d98565b50505b505050565b600082821c905092915050565b6000611e1f60001984600802611e01565b1980831691505092915050565b6000611e388383611e0e565b9150826002028217905092915050565b611e518261149d565b67ffffffffffffffff811115611e6a57611e69611779565b5b611e748254611c6b565b611e7f828285611dbb565b600060209050601f831160018114611eb25760008415611ea0578287015190505b611eaa8582611e2c565b865550611f12565b601f198416611ec086611c9c565b60005b82811015611ee857848901518255600182019150602085019450602081019050611ec3565b86831015611f055784890151611f01601f891682611e0e565b8355505b6001600288020188555050505b505050505050565b6000611f2582611484565b9150611f3083611484565b9250828201905080821115611f4857611f47611b62565b5b9291505056fea2646970667358221220a0f8d6f1b2de82a129f6bfa597dcbe103c249691b1207aa81ca9b788dc60711b64736f6c63430008130033",
  "linkReferences": {},
  "deployedLinkReferences": {}
}