{
  "_format": "hh-sol-artifact-1",
  "contractName": "meddata",
  "sourceName": "contracts/meddata.sol",
  "abi": [
    {
      "inputs": [],
      "stateMutability": "payable",
      "type": "constructor"
    },
    {
      "anonymous": false,
      "inputs": [
        {
          "indexed": false,
          "internalType": "string",
          "name": "code",
          "type": "string"
        },
        {
          "indexed": false,
          "internalType": "uint256",
          "name": "value",
          "type": "uint256"
        },
        {
          "indexed": false,
          "internalType": "uint256",
          "name": "expiryTime",
          "type": "uint256"
        }
      ],
      "name": "CouponGenerated",
      "type": "event"
    },
    {
      "anonymous": false,
      "inputs": [
        {
          "indexed": false,
          "internalType": "string",
          "name": "code",
          "type": "string"
        },
        {
          "indexed": false,
          "internalType": "address",
          "name": "user",
          "type": "address"
        },
        {
          "indexed": false,
          "internalType": "uint256",
          "name": "redeemedTime",
          "type": "uint256"
        }
      ],
      "name": "CouponRedeemed",
      "type": "event"
    },
    {
      "inputs": [
        {
          "internalType": "string",
          "name": "_title",
          "type": "string"
        },
        {
          "internalType": "string",
          "name": "_description",
          "type": "string"
        },
        {
          "internalType": "string",
          "name": "_imageURL",
          "type": "string"
        }
      ],
      "name": "NewRrecord",
      "outputs": [],
      "stateMutability": "payable",
      "type": "function"
    },
    {
      "inputs": [],
      "name": "addToContractBalance",
      "outputs": [],
      "stateMutability": "payable",
      "type": "function"
    },
    {
      "inputs": [
        {
          "internalType": "uint256",
          "name": "id",
          "type": "uint256"
        }
      ],
      "name": "buyFileId",
      "outputs": [],
      "stateMutability": "payable",
      "type": "function"
    },
    {
      "inputs": [
        {
          "internalType": "uint256",
          "name": "",
          "type": "uint256"
        }
      ],
      "name": "coupons",
      "outputs": [
        {
          "internalType": "string",
          "name": "code",
          "type": "string"
        },
        {
          "internalType": "uint256",
          "name": "value",
          "type": "uint256"
        },
        {
          "internalType": "uint256",
          "name": "expiryTime",
          "type": "uint256"
        }
      ],
      "stateMutability": "view",
      "type": "function"
    },
    {
      "inputs": [
        {
          "internalType": "uint256",
          "name": "id",
          "type": "uint256"
        },
        {
          "internalType": "string",
          "name": "code",
          "type": "string"
        },
        {
          "internalType": "uint256",
          "name": "value",
          "type": "uint256"
        },
        {
          "internalType": "uint256",
          "name": "expiryTime",
          "type": "uint256"
        }
      ],
      "name": "generateCoupon",
      "outputs": [],
      "stateMutability": "nonpayable",
      "type": "function"
    },
    {
      "inputs": [
        {
          "internalType": "uint256",
          "name": "id",
          "type": "uint256"
        }
      ],
      "name": "getAccessList",
      "outputs": [
        {
          "internalType": "address[]",
          "name": "",
          "type": "address[]"
        }
      ],
      "stateMutability": "view",
      "type": "function"
    },
    {
      "inputs": [],
      "name": "getAllRecords",
      "outputs": [
        {
          "components": [
            {
              "internalType": "uint256",
              "name": "id",
              "type": "uint256"
            },
            {
              "internalType": "string",
              "name": "title",
              "type": "string"
            },
            {
              "internalType": "string",
              "name": "description",
              "type": "string"
            },
            {
              "internalType": "bool",
              "name": "islisted",
              "type": "bool"
            },
            {
              "internalType": "string",
              "name": "imageURL",
              "type": "string"
            },
            {
              "internalType": "address",
              "name": "owner",
              "type": "address"
            },
            {
              "internalType": "address[]",
              "name": "accessibleBy",
              "type": "address[]"
            },
            {
              "internalType": "uint256",
              "name": "timestamp",
              "type": "uint256"
            },
            {
              "internalType": "uint256",
              "name": "price",
              "type": "uint256"
            },
            {
              "internalType": "string",
              "name": "preview",
              "type": "string"
            }
          ],
          "internalType": "struct meddata.Record[]",
          "name": "",
          "type": "tuple[]"
        }
      ],
      "stateMutability": "view",
      "type": "function"
    },
    {
      "inputs": [
        {
          "internalType": "uint256",
          "name": "_id",
          "type": "uint256"
        }
      ],
      "name": "getOneRecord",
      "outputs": [
        {
          "components": [
            {
              "internalType": "uint256",
              "name": "id",
              "type": "uint256"
            },
            {
              "internalType": "string",
              "name": "title",
              "type": "string"
            },
            {
              "internalType": "string",
              "name": "description",
              "type": "string"
            },
            {
              "internalType": "bool",
              "name": "islisted",
              "type": "bool"
            },
            {
              "internalType": "string",
              "name": "imageURL",
              "type": "string"
            },
            {
              "internalType": "address",
              "name": "owner",
              "type": "address"
            },
            {
              "internalType": "address[]",
              "name": "accessibleBy",
              "type": "address[]"
            },
            {
              "internalType": "uint256",
              "name": "timestamp",
              "type": "uint256"
            },
            {
              "internalType": "uint256",
              "name": "price",
              "type": "uint256"
            },
            {
              "internalType": "string",
              "name": "preview",
              "type": "string"
            }
          ],
          "internalType": "struct meddata.Record",
          "name": "",
          "type": "tuple"
        }
      ],
      "stateMutability": "view",
      "type": "function"
    },
    {
      "inputs": [],
      "name": "getSellingRecord",
      "outputs": [
        {
          "components": [
            {
              "internalType": "uint256",
              "name": "id",
              "type": "uint256"
            },
            {
              "internalType": "string",
              "name": "title",
              "type": "string"
            },
            {
              "internalType": "string",
              "name": "description",
              "type": "string"
            },
            {
              "internalType": "bool",
              "name": "islisted",
              "type": "bool"
            },
            {
              "internalType": "string",
              "name": "imageURL",
              "type": "string"
            },
            {
              "internalType": "address",
              "name": "owner",
              "type": "address"
            },
            {
              "internalType": "address[]",
              "name": "accessibleBy",
              "type": "address[]"
            },
            {
              "internalType": "uint256",
              "name": "timestamp",
              "type": "uint256"
            },
            {
              "internalType": "uint256",
              "name": "price",
              "type": "uint256"
            },
            {
              "internalType": "string",
              "name": "preview",
              "type": "string"
            }
          ],
          "internalType": "struct meddata.Record[]",
          "name": "",
          "type": "tuple[]"
        }
      ],
      "stateMutability": "view",
      "type": "function"
    },
    {
      "inputs": [],
      "name": "giveContractBalance",
      "outputs": [
        {
          "internalType": "uint256",
          "name": "",
          "type": "uint256"
        }
      ],
      "stateMutability": "view",
      "type": "function"
    },
    {
      "inputs": [
        {
          "internalType": "address",
          "name": "_newOwner",
          "type": "address"
        },
        {
          "internalType": "uint256",
          "name": "id",
          "type": "uint256"
        }
      ],
      "name": "newOwner",
      "outputs": [],
      "stateMutability": "nonpayable",
      "type": "function"
    },
    {
      "inputs": [
        {
          "internalType": "uint256",
          "name": "",
          "type": "uint256"
        }
      ],
      "name": "records",
      "outputs": [
        {
          "internalType": "uint256",
          "name": "id",
          "type": "uint256"
        },
        {
          "internalType": "string",
          "name": "title",
          "type": "string"
        },
        {
          "internalType": "string",
          "name": "description",
          "type": "string"
        },
        {
          "internalType": "bool",
          "name": "islisted",
          "type": "bool"
        },
        {
          "internalType": "string",
          "name": "imageURL",
          "type": "string"
        },
        {
          "internalType": "address",
          "name": "owner",
          "type": "address"
        },
        {
          "internalType": "uint256",
          "name": "timestamp",
          "type": "uint256"
        },
        {
          "internalType": "uint256",
          "name": "price",
          "type": "uint256"
        },
        {
          "internalType": "string",
          "name": "preview",
          "type": "string"
        }
      ],
      "stateMutability": "view",
      "type": "function"
    },
    {
      "inputs": [
        {
          "internalType": "uint256",
          "name": "id",
          "type": "uint256"
        },
        {
          "internalType": "string",
          "name": "code",
          "type": "string"
        }
      ],
      "name": "redeemCoupon",
      "outputs": [],
      "stateMutability": "nonpayable",
      "type": "function"
    },
    {
      "inputs": [
        {
          "internalType": "address",
          "name": "_removeOwner",
          "type": "address"
        },
        {
          "internalType": "uint256",
          "name": "id",
          "type": "uint256"
        }
      ],
      "name": "removeOwner",
      "outputs": [],
      "stateMutability": "nonpayable",
      "type": "function"
    },
    {
      "inputs": [
        {
          "internalType": "uint256",
          "name": "id",
          "type": "uint256"
        },
        {
          "internalType": "string",
          "name": "preview",
          "type": "string"
        },
        {
          "internalType": "uint256",
          "name": "price",
          "type": "uint256"
        }
      ],
      "name": "sellTheFile",
      "outputs": [],
      "stateMutability": "nonpayable",
      "type": "function"
    },
    {
      "inputs": [
        {
          "internalType": "uint256",
          "name": "",
          "type": "uint256"
        }
      ],
      "name": "sellingFileId",
      "outputs": [
        {
          "internalType": "uint256",
          "name": "",
          "type": "uint256"
        }
      ],
      "stateMutability": "view",
      "type": "function"
    }
  ],
  "bytecode": "0x6080604052600067ffffffffffffffff81111562000022576200002162000184565b5b604051908082528060200260200182016040528015620000515781602001602082028036833780820191505090505b506009908051906020019062000069929190620000d6565b50600067ffffffffffffffff81111562000088576200008762000184565b5b604051908082528060200260200182016040528015620000b75781602001602082028036833780820191505090505b50600a9080519060200190620000cf929190620000d6565b50620001b3565b82805482825590600052602060002090810192821562000152579160200282015b82811115620001515782518260006101000a81548173ffffffffffffffffffffffffffffffffffffffff021916908373ffffffffffffffffffffffffffffffffffffffff16021790555091602001919060010190620000f7565b5b50905062000161919062000165565b5090565b5b808211156200018057600081600090555060010162000166565b5090565b7f4e487b7100000000000000000000000000000000000000000000000000000000600052604160045260246000fd5b6147b780620001c36000396000f3fe6080604052600436106100f35760003560e01c8063773d79dc1161008a578063c7fb53eb11610059578063c7fb53eb1461032a578063e1dc63f014610334578063e3e18cc51461035d578063f31bb17714610386576100f3565b8063773d79dc1461028f578063878e688e146102ba578063a7f9fe72146102d6578063bfd2b3a314610301576100f3565b806334461067116100c657806334461067146101b957806340ed6403146101fe578063653467c4146102295780636f587e3b14610266576100f3565b80631cda164f146100f8578063298ba2be1461011457806330828e921461015157806332be364014610190575b600080fd5b610112600480360381019061010d9190613349565b6103c3565b005b34801561012057600080fd5b5061013b60048036038101906101369190613426565b610771565b60405161014891906136e2565b60405180910390f35b34801561015d57600080fd5b5061017860048036038101906101739190613426565b610d02565b6040516101879392919061375d565b60405180910390f35b34801561019c57600080fd5b506101b760048036038101906101b291906137c7565b610db4565b005b3480156101c557600080fd5b506101e060048036038101906101db9190613426565b611156565b6040516101f599989796959493929190613825565b60405180910390f35b34801561020a57600080fd5b50610213611401565b60405161022091906138ce565b60405180910390f35b34801561023557600080fd5b50610250600480360381019061024b9190613426565b611409565b60405161025d91906138ce565b60405180910390f35b34801561027257600080fd5b5061028d600480360381019061028891906138e9565b61142d565b005b34801561029b57600080fd5b506102a46114d8565b6040516102b19190613b24565b60405180910390f35b6102d460048036038101906102cf9190613426565b611a7f565b005b3480156102e257600080fd5b506102eb611e23565b6040516102f89190613b24565b60405180910390f35b34801561030d57600080fd5b50610328600480360381019061032391906137c7565b6123b8565b005b610332612aba565b005b34801561034057600080fd5b5061035b60048036038101906103569190613b46565b612b09565b005b34801561036957600080fd5b50610384600480360381019061037f9190613ba2565b612d4d565b005b34801561039257600080fd5b506103ad60048036038101906103a89190613426565b612fa3565b6040516103ba9190613c80565b60405180910390f35b600360003373ffffffffffffffffffffffffffffffffffffffff1673ffffffffffffffffffffffffffffffffffffffff1681526020019081526020016000206002805490509080600181540180825580915050600190039060005260206000200160009091909190915055600460003373ffffffffffffffffffffffffffffffffffffffff1673ffffffffffffffffffffffffffffffffffffffff1681526020019081526020016000206002805490509080600181540180825580915050600190039060005260206000200160009091909190915055600060028054905090506009339080600181540180825580915050600190039060005260206000200160009091909190916101000a81548173ffffffffffffffffffffffffffffffffffffffff021916908373ffffffffffffffffffffffffffffffffffffffff16021790555060026040518061014001604052808381526020018681526020018581526020016001151581526020018481526020013373ffffffffffffffffffffffffffffffffffffffff16815260200160098054806020026020016040519081016040528092919081815260200182805480156105d357602002820191906000526020600020905b8160009054906101000a900473ffffffffffffffffffffffffffffffffffffffff1673ffffffffffffffffffffffffffffffffffffffff1681526020019060010190808311610589575b50505050508152602001428152602001600081526020016040518060200160405280600081525081525090806001815401808255809150506001900390600052602060002090600a02016000909190919091506000820151816000015560208201518160010190816106459190613eae565b50604082015181600201908161065b9190613eae565b5060608201518160030160006101000a81548160ff02191690831515021790555060808201518160040190816106919190613eae565b5060a08201518160050160006101000a81548173ffffffffffffffffffffffffffffffffffffffff021916908373ffffffffffffffffffffffffffffffffffffffff16021790555060c08201518160060190805190602001906106f592919061309d565b5060e0820151816007015561010082015181600801556101208201518160090190816107219190613eae565b505050600980548061073657610735613f80565b5b6001900381819060005260206000200160006101000a81549073ffffffffffffffffffffffffffffffffffffffff0219169055905550505050565b610779613127565b60028054905082106107c0576040517f08c379a00000000000000000000000000000000000000000000000000000000081526004016107b790613ffb565b60405180910390fd5b6000600283815481106107d6576107d561401b565b5b90600052602060002090600a0201604051806101400160405290816000820154815260200160018201805461080a90613cd1565b80601f016020809104026020016040519081016040528092919081815260200182805461083690613cd1565b80156108835780601f1061085857610100808354040283529160200191610883565b820191906000526020600020905b81548152906001019060200180831161086657829003601f168201915b5050505050815260200160028201805461089c90613cd1565b80601f01602080910402602001604051908101604052809291908181526020018280546108c890613cd1565b80156109155780601f106108ea57610100808354040283529160200191610915565b820191906000526020600020905b8154815290600101906020018083116108f857829003601f168201915b505050505081526020016003820160009054906101000a900460ff1615151515815260200160048201805461094990613cd1565b80601f016020809104026020016040519081016040528092919081815260200182805461097590613cd1565b80156109c25780601f10610997576101008083540402835291602001916109c2565b820191906000526020600020905b8154815290600101906020018083116109a557829003601f168201915b505050505081526020016005820160009054906101000a900473ffffffffffffffffffffffffffffffffffffffff1673ffffffffffffffffffffffffffffffffffffffff1673ffffffffffffffffffffffffffffffffffffffff16815260200160068201805480602002602001604051908101604052809291908181526020018280548015610aa657602002820191906000526020600020905b8160009054906101000a900473ffffffffffffffffffffffffffffffffffffffff1673ffffffffffffffffffffffffffffffffffffffff1681526020019060010190808311610a5c575b505050505081526020016007820154815260200160088201548152602001600982018054610ad390613cd1565b80601f0160208091040260200160405190810160405280929190818152602001828054610aff90613cd1565b8015610b4c5780601f10610b2157610100808354040283529160200191610b4c565b820191906000526020600020905b815481529060010190602001808311610b2f57829003601f168201915b50505050508152505090506000805b60028581548110610b6f57610b6e61401b565b5b90600052602060002090600a020160060180549050811015610c37573373ffffffffffffffffffffffffffffffffffffffff1660028681548110610bb657610bb561401b565b5b90600052602060002090600a02016006018281548110610bd957610bd861401b565b5b9060005260206000200160009054906101000a900473ffffffffffffffffffffffffffffffffffffffff1673ffffffffffffffffffffffffffffffffffffffff1603610c2457600191505b8080610c2f90614079565b915050610b5b565b5080151560001515148015610c525750816101000151600014155b15610cb857600560003373ffffffffffffffffffffffffffffffffffffffff1673ffffffffffffffffffffffffffffffffffffffff168152602001908152602001600020600085815260200190815260200160002060009054906101000a900460ff1690505b80610cf8576040517f08c379a0000000000000000000000000000000000000000000000000000000008152600401610cef90614133565b60405180910390fd5b8192505050919050565b6000602052806000526040600020600091509050806000018054610d2590613cd1565b80601f0160208091040260200160405190810160405280929190818152602001828054610d5190613cd1565b8015610d9e5780601f10610d7357610100808354040283529160200191610d9e565b820191906000526020600020905b815481529060010190602001808311610d8157829003601f168201915b5050505050908060010154908060020154905083565b6002805490508110610dfb576040517f08c379a0000000000000000000000000000000000000000000000000000000008152600401610df29061419f565b60405180910390fd5b60028181548110610e0f57610e0e61401b565b5b90600052602060002090600a020160050160009054906101000a900473ffffffffffffffffffffffffffffffffffffffff1673ffffffffffffffffffffffffffffffffffffffff163373ffffffffffffffffffffffffffffffffffffffff1614610eae576040517f08c379a0000000000000000000000000000000000000000000000000000000008152600401610ea59061420b565b60405180910390fd5b60028181548110610ec257610ec161401b565b5b90600052602060002090600a020160050160009054906101000a900473ffffffffffffffffffffffffffffffffffffffff1673ffffffffffffffffffffffffffffffffffffffff168273ffffffffffffffffffffffffffffffffffffffff1603610f61576040517f08c379a0000000000000000000000000000000000000000000000000000000008152600401610f589061429d565b60405180910390fd5b60005b600360008473ffffffffffffffffffffffffffffffffffffffff1673ffffffffffffffffffffffffffffffffffffffff1681526020019081526020016000208054905081101561106557600360008473ffffffffffffffffffffffffffffffffffffffff1673ffffffffffffffffffffffffffffffffffffffff1681526020019081526020016000208181548110610fff57610ffe61401b565b5b90600052602060002001548203611052576000611051576040517f08c379a00000000000000000000000000000000000000000000000000000000081526004016110489061432f565b60405180910390fd5b5b808061105d90614079565b915050610f64565b50600360008373ffffffffffffffffffffffffffffffffffffffff1673ffffffffffffffffffffffffffffffffffffffff168152602001908152602001600020819080600181540180825580915050600190039060005260206000200160009091909190915055600281815481106110e0576110df61401b565b5b90600052602060002090600a0201600601829080600181540180825580915050600190039060005260206000200160009091909190916101000a81548173ffffffffffffffffffffffffffffffffffffffff021916908373ffffffffffffffffffffffffffffffffffffffff1602179055505050565b6002818154811061116657600080fd5b90600052602060002090600a020160009150905080600001549080600101805461118f90613cd1565b80601f01602080910402602001604051908101604052809291908181526020018280546111bb90613cd1565b80156112085780601f106111dd57610100808354040283529160200191611208565b820191906000526020600020905b8154815290600101906020018083116111eb57829003601f168201915b50505050509080600201805461121d90613cd1565b80601f016020809104026020016040519081016040528092919081815260200182805461124990613cd1565b80156112965780601f1061126b57610100808354040283529160200191611296565b820191906000526020600020905b81548152906001019060200180831161127957829003601f168201915b5050505050908060030160009054906101000a900460ff16908060040180546112be90613cd1565b80601f01602080910402602001604051908101604052809291908181526020018280546112ea90613cd1565b80156113375780601f1061130c57610100808354040283529160200191611337565b820191906000526020600020905b81548152906001019060200180831161131a57829003601f168201915b5050505050908060050160009054906101000a900473ffffffffffffffffffffffffffffffffffffffff169080600701549080600801549080600901805461137e90613cd1565b80601f01602080910402602001604051908101604052809291908181526020018280546113aa90613cd1565b80156113f75780601f106113cc576101008083540402835291602001916113f7565b820191906000526020600020905b8154815290600101906020018083116113da57829003601f168201915b5050505050905089565b600047905090565b6001818154811061141957600080fd5b906000526020600020016000915090505481565b610e104261143b919061434f565b9050604051806060016040528084815260200183815260200182815250600080868152602001908152602001600020600082015181600001908161147f9190613eae565b5060208201518160010155604082015181600201559050507f506c1c7dd360506da713451f9275b3cfa046b07a1318ba73623d3b27d6acff7d8383836040516114ca9392919061375d565b60405180910390a150505050565b60606000805b60018054905081101561159557600560003373ffffffffffffffffffffffffffffffffffffffff1673ffffffffffffffffffffffffffffffffffffffff1681526020019081526020016000206000600183815481106115405761153f61401b565b5b9060005260206000200154815260200190815260200160002060009054906101000a900460ff16151560001515036115825760018261157f919061434f565b91505b808061158d90614079565b9150506114de565b5060008167ffffffffffffffff8111156115b2576115b161321e565b5b6040519080825280602002602001820160405280156115eb57816020015b6115d8613127565b8152602001906001900390816115d05790505b5090506000805b600180549050811015611a7557600560003373ffffffffffffffffffffffffffffffffffffffff1673ffffffffffffffffffffffffffffffffffffffff1681526020019081526020016000206000600183815481106116545761165361401b565b5b9060005260206000200154815260200190815260200160002060009054906101000a900460ff1615156000151503611a625760026001828154811061169c5761169b61401b565b5b9060005260206000200154815481106116b8576116b761401b565b5b90600052602060002090600a020160405180610140016040529081600082015481526020016001820180546116ec90613cd1565b80601f016020809104026020016040519081016040528092919081815260200182805461171890613cd1565b80156117655780601f1061173a57610100808354040283529160200191611765565b820191906000526020600020905b81548152906001019060200180831161174857829003601f168201915b5050505050815260200160028201805461177e90613cd1565b80601f01602080910402602001604051908101604052809291908181526020018280546117aa90613cd1565b80156117f75780601f106117cc576101008083540402835291602001916117f7565b820191906000526020600020905b8154815290600101906020018083116117da57829003601f168201915b505050505081526020016003820160009054906101000a900460ff1615151515815260200160048201805461182b90613cd1565b80601f016020809104026020016040519081016040528092919081815260200182805461185790613cd1565b80156118a45780601f10611879576101008083540402835291602001916118a4565b820191906000526020600020905b81548152906001019060200180831161188757829003601f168201915b505050505081526020016005820160009054906101000a900473ffffffffffffffffffffffffffffffffffffffff1673ffffffffffffffffffffffffffffffffffffffff1673ffffffffffffffffffffffffffffffffffffffff1681526020016006820180548060200260200160405190810160405280929190818152602001828054801561198857602002820191906000526020600020905b8160009054906101000a900473ffffffffffffffffffffffffffffffffffffffff1673ffffffffffffffffffffffffffffffffffffffff168152602001906001019080831161193e575b5050505050815260200160078201548152602001600882015481526020016009820180546119b590613cd1565b80601f01602080910402602001604051908101604052809291908181526020018280546119e190613cd1565b8015611a2e5780601f10611a0357610100808354040283529160200191611a2e565b820191906000526020600020905b815481529060010190602001808311611a1157829003601f168201915b505050505081525050838380611a4390614079565b945081518110611a5657611a5561401b565b5b60200260200101819052505b8080611a6d90614079565b9150506115f2565b5081935050505090565b6002805490508110611ac6576040517f08c379a0000000000000000000000000000000000000000000000000000000008152600401611abd9061419f565b60405180910390fd5b60005b600180549050811015611e1e5760018181548110611aea57611ae961401b565b5b90600052602060002001548203611e0b57600560003373ffffffffffffffffffffffffffffffffffffffff1673ffffffffffffffffffffffffffffffffffffffff168152602001908152602001600020600083815260200190815260200160002060009054906101000a900460ff1615611ba4576000611b9f576040517f08c379a0000000000000000000000000000000000000000000000000000000008152600401611b96906143cf565b60405180910390fd5b611e0a565b60028281548110611bb857611bb761401b565b5b90600052602060002090600a0201600801543373ffffffffffffffffffffffffffffffffffffffff16311015611c23576040517f08c379a0000000000000000000000000000000000000000000000000000000008152600401611c1a9061443b565b60405180910390fd5b60028281548110611c3757611c3661401b565b5b90600052602060002090600a020160050160009054906101000a900473ffffffffffffffffffffffffffffffffffffffff1673ffffffffffffffffffffffffffffffffffffffff166108fc349081150290604051600060405180830381858888f19350505050158015611cae573d6000803e3d6000fd5b506001600560003373ffffffffffffffffffffffffffffffffffffffff1673ffffffffffffffffffffffffffffffffffffffff168152602001908152602001600020600084815260200190815260200160002060006101000a81548160ff02191690831515021790555060028281548110611d2c57611d2b61401b565b5b90600052602060002090600a0201600601339080600181540180825580915050600190039060005260206000200160009091909190916101000a81548173ffffffffffffffffffffffffffffffffffffffff021916908373ffffffffffffffffffffffffffffffffffffffff160217905550600360003373ffffffffffffffffffffffffffffffffffffffff1673ffffffffffffffffffffffffffffffffffffffff16815260200190815260200160002082908060018154018082558091505060019003906000526020600020016000909190919091505550611e20565b5b8080611e1690614079565b915050611ac9565b505b50565b60606000600360003373ffffffffffffffffffffffffffffffffffffffff1673ffffffffffffffffffffffffffffffffffffffff1681526020019081526020016000208054905011611eaa576040517f08c379a0000000000000000000000000000000000000000000000000000000008152600401611ea1906144a7565b60405180910390fd5b6000600360003373ffffffffffffffffffffffffffffffffffffffff1673ffffffffffffffffffffffffffffffffffffffff1681526020019081526020016000208054905067ffffffffffffffff811115611f0857611f0761321e565b5b604051908082528060200260200182016040528015611f4157816020015b611f2e613127565b815260200190600190039081611f265790505b50905060005b600360003373ffffffffffffffffffffffffffffffffffffffff1673ffffffffffffffffffffffffffffffffffffffff168152602001908152602001600020805490508110156123b0576002600360003373ffffffffffffffffffffffffffffffffffffffff1673ffffffffffffffffffffffffffffffffffffffff1681526020019081526020016000208281548110611fe457611fe361401b565b5b90600052602060002001548154811061200057611fff61401b565b5b90600052602060002090600a0201604051806101400160405290816000820154815260200160018201805461203490613cd1565b80601f016020809104026020016040519081016040528092919081815260200182805461206090613cd1565b80156120ad5780601f10612082576101008083540402835291602001916120ad565b820191906000526020600020905b81548152906001019060200180831161209057829003601f168201915b505050505081526020016002820180546120c690613cd1565b80601f01602080910402602001604051908101604052809291908181526020018280546120f290613cd1565b801561213f5780601f106121145761010080835404028352916020019161213f565b820191906000526020600020905b81548152906001019060200180831161212257829003601f168201915b505050505081526020016003820160009054906101000a900460ff1615151515815260200160048201805461217390613cd1565b80601f016020809104026020016040519081016040528092919081815260200182805461219f90613cd1565b80156121ec5780601f106121c1576101008083540402835291602001916121ec565b820191906000526020600020905b8154815290600101906020018083116121cf57829003601f168201915b505050505081526020016005820160009054906101000a900473ffffffffffffffffffffffffffffffffffffffff1673ffffffffffffffffffffffffffffffffffffffff1673ffffffffffffffffffffffffffffffffffffffff168152602001600682018054806020026020016040519081016040528092919081815260200182805480156122d057602002820191906000526020600020905b8160009054906101000a900473ffffffffffffffffffffffffffffffffffffffff1673ffffffffffffffffffffffffffffffffffffffff1681526020019060010190808311612286575b5050505050815260200160078201548152602001600882015481526020016009820180546122fd90613cd1565b80601f016020809104026020016040519081016040528092919081815260200182805461232990613cd1565b80156123765780601f1061234b57610100808354040283529160200191612376565b820191906000526020600020905b81548152906001019060200180831161235957829003601f168201915b5050505050815250508282815181106123925761239161401b565b5b602002602001018190525080806123a890614079565b915050611f47565b508091505090565b60028054905081106123ff576040517f08c379a00000000000000000000000000000000000000000000000000000000081526004016123f69061419f565b60405180910390fd5b600281815481106124135761241261401b565b5b90600052602060002090600a020160050160009054906101000a900473ffffffffffffffffffffffffffffffffffffffff1673ffffffffffffffffffffffffffffffffffffffff163373ffffffffffffffffffffffffffffffffffffffff16146124b2576040517f08c379a00000000000000000000000000000000000000000000000000000000081526004016124a99061420b565b60405180910390fd5b3373ffffffffffffffffffffffffffffffffffffffff168273ffffffffffffffffffffffffffffffffffffffff1603612520576040517f08c379a00000000000000000000000000000000000000000000000000000000081526004016125179061455f565b60405180910390fd5b6000600360008473ffffffffffffffffffffffffffffffffffffffff1673ffffffffffffffffffffffffffffffffffffffff16815260200190815260200160002080549050905060005b600360008573ffffffffffffffffffffffffffffffffffffffff1673ffffffffffffffffffffffffffffffffffffffff16815260200190815260200160002080549050811015612a7257600360008573ffffffffffffffffffffffffffffffffffffffff1673ffffffffffffffffffffffffffffffffffffffff16815260200190815260200160002081815481106126055761260461401b565b5b90600052602060002001548303612a5f57600360008573ffffffffffffffffffffffffffffffffffffffff1673ffffffffffffffffffffffffffffffffffffffff168152602001908152602001600020805490506001036126ca57600360008573ffffffffffffffffffffffffffffffffffffffff1673ffffffffffffffffffffffffffffffffffffffff1681526020019081526020016000208054806126af576126ae613f80565b5b600190038181906000526020600020016000905590556127f7565b600360008573ffffffffffffffffffffffffffffffffffffffff1673ffffffffffffffffffffffffffffffffffffffff168152602001908152602001600020600183612716919061457f565b815481106127275761272661401b565b5b9060005260206000200154600360008673ffffffffffffffffffffffffffffffffffffffff1673ffffffffffffffffffffffffffffffffffffffff16815260200190815260200160002082815481106127835761278261401b565b5b9060005260206000200181905550600360008573ffffffffffffffffffffffffffffffffffffffff1673ffffffffffffffffffffffffffffffffffffffff1681526020019081526020016000208054806127e0576127df613f80565b5b600190038181906000526020600020016000905590555b60006002848154811061280d5761280c61401b565b5b90600052602060002090600a020160060180549050905060005b6002858154811061283b5761283a61401b565b5b90600052602060002090600a020160060180549050811015612a56576002858154811061286b5761286a61401b565b5b90600052602060002090600a0201600601818154811061288e5761288d61401b565b5b9060005260206000200160009054906101000a900473ffffffffffffffffffffffffffffffffffffffff1673ffffffffffffffffffffffffffffffffffffffff168673ffffffffffffffffffffffffffffffffffffffff1603612a4357600285815481106128ff576128fe61401b565b5b90600052602060002090600a020160060160018361291d919061457f565b8154811061292e5761292d61401b565b5b9060005260206000200160009054906101000a900473ffffffffffffffffffffffffffffffffffffffff166002868154811061296d5761296c61401b565b5b90600052602060002090600a020160060182815481106129905761298f61401b565b5b9060005260206000200160006101000a81548173ffffffffffffffffffffffffffffffffffffffff021916908373ffffffffffffffffffffffffffffffffffffffff160217905550600285815481106129ec576129eb61401b565b5b90600052602060002090600a0201600601805480612a0d57612a0c613f80565b5b6001900381819060005260206000200160006101000a81549073ffffffffffffffffffffffffffffffffffffffff021916905590555b8080612a4e90614079565b915050612827565b50505050612ab6565b8080612a6a90614079565b91505061256a565b506000612ab4576040517f08c379a0000000000000000000000000000000000000000000000000000000008152600401612aab90614625565b60405180910390fd5b505b5050565b60003090508073ffffffffffffffffffffffffffffffffffffffff166108fc349081150290604051600060405180830381858888f19350505050158015612b05573d6000803e3d6000fd5b5050565b426000808481526020019081526020016000206002015411612b60576040517f08c379a0000000000000000000000000000000000000000000000000000000008152600401612b5790614691565b60405180910390fd5b42600080848152602001908152602001600020600201541115612d49576001600560003373ffffffffffffffffffffffffffffffffffffffff1673ffffffffffffffffffffffffffffffffffffffff168152602001908152602001600020600084815260200190815260200160002060006101000a81548160ff02191690831515021790555060028281548110612bfa57612bf961401b565b5b90600052602060002090600a0201600601339080600181540180825580915050600190039060005260206000200160009091909190916101000a81548173ffffffffffffffffffffffffffffffffffffffff021916908373ffffffffffffffffffffffffffffffffffffffff160217905550600360003373ffffffffffffffffffffffffffffffffffffffff1673ffffffffffffffffffffffffffffffffffffffff168152602001908152602001600020829080600181540180825580915050600190039060005260206000200160009091909190915055600042905060008084815260200190815260200160002060008082016000612cfa9190613192565b6001820160009055600282016000905550507fa7c1773722c3780482de45e0e6cdbb7395909d386fccd19d7b2aac127a796ac3823383604051612d3f939291906146b1565b60405180910390a1505b5050565b6002805490508310612d94576040517f08c379a0000000000000000000000000000000000000000000000000000000008152600401612d8b9061419f565b60405180910390fd5b3373ffffffffffffffffffffffffffffffffffffffff1660028481548110612dbf57612dbe61401b565b5b90600052602060002090600a020160050160009054906101000a900473ffffffffffffffffffffffffffffffffffffffff1673ffffffffffffffffffffffffffffffffffffffff1614612e47576040517f08c379a0000000000000000000000000000000000000000000000000000000008152600401612e3e9061420b565b60405180910390fd5b600060028481548110612e5d57612e5c61401b565b5b90600052602060002090600a02016008015414612eaf576040517f08c379a0000000000000000000000000000000000000000000000000000000008152600401612ea690614761565b60405180910390fd5b6001600560003373ffffffffffffffffffffffffffffffffffffffff1673ffffffffffffffffffffffffffffffffffffffff168152602001908152602001600020600085815260200190815260200160002060006101000a81548160ff02191690831515021790555060018390806001815401808255809150506001900390600052602060002001600090919091909150558160028481548110612f5657612f5561401b565b5b90600052602060002090600a02016009019081612f739190613eae565b508060028481548110612f8957612f8861401b565b5b90600052602060002090600a020160080181905550505050565b60606002805490508210612fec576040517f08c379a0000000000000000000000000000000000000000000000000000000008152600401612fe39061419f565b60405180910390fd5b6002828154811061300057612fff61401b565b5b90600052602060002090600a020160060180548060200260200160405190810160405280929190818152602001828054801561309157602002820191906000526020600020905b8160009054906101000a900473ffffffffffffffffffffffffffffffffffffffff1673ffffffffffffffffffffffffffffffffffffffff1681526020019060010190808311613047575b50505050509050919050565b828054828255906000526020600020908101928215613116579160200282015b828111156131155782518260006101000a81548173ffffffffffffffffffffffffffffffffffffffff021916908373ffffffffffffffffffffffffffffffffffffffff160217905550916020019190600101906130bd565b5b50905061312391906131d2565b5090565b60405180610140016040528060008152602001606081526020016060815260200160001515815260200160608152602001600073ffffffffffffffffffffffffffffffffffffffff168152602001606081526020016000815260200160008152602001606081525090565b50805461319e90613cd1565b6000825580601f106131b057506131cf565b601f0160209004906000526020600020908101906131ce91906131d2565b5b50565b5b808211156131eb5760008160009055506001016131d3565b5090565b6000604051905090565b600080fd5b600080fd5b600080fd5b600080fd5b6000601f19601f8301169050919050565b7f4e487b7100000000000000000000000000000000000000000000000000000000600052604160045260246000fd5b6132568261320d565b810181811067ffffffffffffffff821117156132755761327461321e565b5b80604052505050565b60006132886131ef565b9050613294828261324d565b919050565b600067ffffffffffffffff8211156132b4576132b361321e565b5b6132bd8261320d565b9050602081019050919050565b82818337600083830152505050565b60006132ec6132e784613299565b61327e565b90508281526020810184848401111561330857613307613208565b5b6133138482856132ca565b509392505050565b600082601f8301126133305761332f613203565b5b81356133408482602086016132d9565b91505092915050565b600080600060608486031215613362576133616131f9565b5b600084013567ffffffffffffffff8111156133805761337f6131fe565b5b61338c8682870161331b565b935050602084013567ffffffffffffffff8111156133ad576133ac6131fe565b5b6133b98682870161331b565b925050604084013567ffffffffffffffff8111156133da576133d96131fe565b5b6133e68682870161331b565b9150509250925092565b6000819050919050565b613403816133f0565b811461340e57600080fd5b50565b600081359050613420816133fa565b92915050565b60006020828403121561343c5761343b6131f9565b5b600061344a84828501613411565b91505092915050565b61345c816133f0565b82525050565b600081519050919050565b600082825260208201905092915050565b60005b8381101561349c578082015181840152602081019050613481565b60008484015250505050565b60006134b382613462565b6134bd818561346d565b93506134cd81856020860161347e565b6134d68161320d565b840191505092915050565b60008115159050919050565b6134f6816134e1565b82525050565b600073ffffffffffffffffffffffffffffffffffffffff82169050919050565b6000613527826134fc565b9050919050565b6135378161351c565b82525050565b600081519050919050565b600082825260208201905092915050565b6000819050602082019050919050565b6000613575838361352e565b60208301905092915050565b6000602082019050919050565b60006135998261353d565b6135a38185613548565b93506135ae83613559565b8060005b838110156135df5781516135c68882613569565b97506135d183613581565b9250506001810190506135b2565b5085935050505092915050565b6000610140830160008301516136056000860182613453565b506020830151848203602086015261361d82826134a8565b9150506040830151848203604086015261363782826134a8565b915050606083015161364c60608601826134ed565b506080830151848203608086015261366482826134a8565b91505060a083015161367960a086018261352e565b5060c083015184820360c0860152613691828261358e565b91505060e08301516136a660e0860182613453565b506101008301516136bb610100860182613453565b506101208301518482036101208601526136d582826134a8565b9150508091505092915050565b600060208201905081810360008301526136fc81846135ec565b905092915050565b600082825260208201905092915050565b600061372082613462565b61372a8185613704565b935061373a81856020860161347e565b6137438161320d565b840191505092915050565b613757816133f0565b82525050565b600060608201905081810360008301526137778186613715565b9050613786602083018561374e565b613793604083018461374e565b949350505050565b6137a48161351c565b81146137af57600080fd5b50565b6000813590506137c18161379b565b92915050565b600080604083850312156137de576137dd6131f9565b5b60006137ec858286016137b2565b92505060206137fd85828601613411565b9150509250929050565b613810816134e1565b82525050565b61381f8161351c565b82525050565b60006101208201905061383b600083018c61374e565b818103602083015261384d818b613715565b90508181036040830152613861818a613715565b90506138706060830189613807565b81810360808301526138828188613715565b905061389160a0830187613816565b61389e60c083018661374e565b6138ab60e083018561374e565b8181036101008301526138be8184613715565b90509a9950505050505050505050565b60006020820190506138e3600083018461374e565b92915050565b60008060008060808587031215613903576139026131f9565b5b600061391187828801613411565b945050602085013567ffffffffffffffff811115613932576139316131fe565b5b61393e8782880161331b565b935050604061394f87828801613411565b925050606061396087828801613411565b91505092959194509250565b600081519050919050565b600082825260208201905092915050565b6000819050602082019050919050565b6000610140830160008301516139b16000860182613453565b50602083015184820360208601526139c982826134a8565b915050604083015184820360408601526139e382826134a8565b91505060608301516139f860608601826134ed565b5060808301518482036080860152613a1082826134a8565b91505060a0830151613a2560a086018261352e565b5060c083015184820360c0860152613a3d828261358e565b91505060e0830151613a5260e0860182613453565b50610100830151613a67610100860182613453565b50610120830151848203610120860152613a8182826134a8565b9150508091505092915050565b6000613a9a8383613998565b905092915050565b6000602082019050919050565b6000613aba8261396c565b613ac48185613977565b935083602082028501613ad685613988565b8060005b85811015613b125784840389528151613af38582613a8e565b9450613afe83613aa2565b925060208a01995050600181019050613ada565b50829750879550505050505092915050565b60006020820190508181036000830152613b3e8184613aaf565b905092915050565b60008060408385031215613b5d57613b5c6131f9565b5b6000613b6b85828601613411565b925050602083013567ffffffffffffffff811115613b8c57613b8b6131fe565b5b613b988582860161331b565b9150509250929050565b600080600060608486031215613bbb57613bba6131f9565b5b6000613bc986828701613411565b935050602084013567ffffffffffffffff811115613bea57613be96131fe565b5b613bf68682870161331b565b9250506040613c0786828701613411565b9150509250925092565b600082825260208201905092915050565b6000613c2d8261353d565b613c378185613c11565b9350613c4283613559565b8060005b83811015613c73578151613c5a8882613569565b9750613c6583613581565b925050600181019050613c46565b5085935050505092915050565b60006020820190508181036000830152613c9a8184613c22565b905092915050565b7f4e487b7100000000000000000000000000000000000000000000000000000000600052602260045260246000fd5b60006002820490506001821680613ce957607f821691505b602082108103613cfc57613cfb613ca2565b5b50919050565b60008190508160005260206000209050919050565b60006020601f8301049050919050565b600082821b905092915050565b600060088302613d647fffffffffffffffffffffffffffffffffffffffffffffffffffffffffffffffff82613d27565b613d6e8683613d27565b95508019841693508086168417925050509392505050565b6000819050919050565b6000613dab613da6613da1846133f0565b613d86565b6133f0565b9050919050565b6000819050919050565b613dc583613d90565b613dd9613dd182613db2565b848454613d34565b825550505050565b600090565b613dee613de1565b613df9818484613dbc565b505050565b5b81811015613e1d57613e12600082613de6565b600181019050613dff565b5050565b601f821115613e6257613e3381613d02565b613e3c84613d17565b81016020851015613e4b578190505b613e5f613e5785613d17565b830182613dfe565b50505b505050565b600082821c905092915050565b6000613e8560001984600802613e67565b1980831691505092915050565b6000613e9e8383613e74565b9150826002028217905092915050565b613eb782613462565b67ffffffffffffffff811115613ed057613ecf61321e565b5b613eda8254613cd1565b613ee5828285613e21565b600060209050601f831160018114613f185760008415613f06578287015190505b613f108582613e92565b865550613f78565b601f198416613f2686613d02565b60005b82811015613f4e57848901518255600182019150602085019450602081019050613f29565b86831015613f6b5784890151613f67601f891682613e74565b8355505b6001600288020188555050505b505050505050565b7f4e487b7100000000000000000000000000000000000000000000000000000000600052603160045260246000fd5b7f676976656e2066696c65206964206973206e6f74206578697374730000000000600082015250565b6000613fe5601b83613704565b9150613ff082613faf565b602082019050919050565b6000602082019050818103600083015261401481613fd8565b9050919050565b7f4e487b7100000000000000000000000000000000000000000000000000000000600052603260045260246000fd5b7f4e487b7100000000000000000000000000000000000000000000000000000000600052601160045260246000fd5b6000614084826133f0565b91507fffffffffffffffffffffffffffffffffffffffffffffffffffffffffffffffff82036140b6576140b561404a565b5b600182019050919050565b7f796f7520646f6e277420686176652061636365737320746f207468697320666960008201527f6c65000000000000000000000000000000000000000000000000000000000000602082015250565b600061411d602283613704565b9150614128826140c1565b604082019050919050565b6000602082019050818103600083015261414c81614110565b9050919050565b7f676976652066696c6520696420697320696e76616c6964000000000000000000600082015250565b6000614189601783613704565b915061419482614153565b602082019050919050565b600060208201905081810360008301526141b88161417c565b9050919050565b7f796f7520617265206e6f74206f776e6572206f6620746869732066696c650000600082015250565b60006141f5601e83613704565b9150614200826141bf565b602082019050919050565b60006020820190508181036000830152614224816141e8565b9050919050565b7f6173206f776e6572206f6620746869732066696c6520796f7520616c7265616460008201527f2068617665206120616363657373000000000000000000000000000000000000602082015250565b6000614287602e83613704565b91506142928261422b565b604082019050919050565b600060208201905081810360008301526142b68161427a565b9050919050565b7f74686973206164647265737320616c726561647920686176652061206163636560008201527f737320746f20746869732066696c650000000000000000000000000000000000602082015250565b6000614319602f83613704565b9150614324826142bd565b604082019050919050565b600060208201905081810360008301526143488161430c565b9050919050565b600061435a826133f0565b9150614365836133f0565b925082820190508082111561437d5761437c61404a565b5b92915050565b7f796f7520616c726561647920626f7567687420746869732066696c6500000000600082015250565b60006143b9601c83613704565b91506143c482614383565b602082019050919050565b600060208201905081810360008301526143e8816143ac565b9050919050565b7f496e73756666696369656e742062616c616e6365000000000000000000000000600082015250565b6000614425601483613704565b9150614430826143ef565b602082019050919050565b6000602082019050818103600083015261445481614418565b9050919050565b7f6e6f207265636f72647300000000000000000000000000000000000000000000600082015250565b6000614491600a83613704565b915061449c8261445b565b602082019050919050565b600060208201905081810360008301526144c081614484565b9050919050565b7f6173206f776e6572206f66207468652066696c6520616e6420796f752063616e60008201527f27742072656d6f766520796f75722073656c662066726f6d206163636573732060208201527f746f20746869732066696c650000000000000000000000000000000000000000604082015250565b6000614549604c83613704565b9150614554826144c7565b606082019050919050565b600060208201905081810360008301526145788161453c565b9050919050565b600061458a826133f0565b9150614595836133f0565b92508282039050818111156145ad576145ac61404a565b5b92915050565b7f796f7520646f65736e277420676976652061636365737320746f20746869732060008201527f6164647265737320617420616c6c212100000000000000000000000000000000602082015250565b600061460f603083613704565b915061461a826145b3565b604082019050919050565b6000602082019050818103600083015261463e81614602565b9050919050565b7f436f75706f6e20636f6465206861732065787069726564000000000000000000600082015250565b600061467b601783613704565b915061468682614645565b602082019050919050565b600060208201905081810360008301526146aa8161466e565b9050919050565b600060608201905081810360008301526146cb8186613715565b90506146da6020830185613816565b6146e7604083018461374e565b949350505050565b7f796f752061726520616c726561647920616464656420746869732066696c652060008201527f746f2073656c6c00000000000000000000000000000000000000000000000000602082015250565b600061474b602783613704565b9150614756826146ef565b604082019050919050565b6000602082019050818103600083015261477a8161473e565b905091905056fea26469706673582212206929621388149dbe48e146d496813c4df5c10ad627059581241c426ba50a8fe864736f6c63430008130033",
  "linkReferences": {},
  "deployedLinkReferences": {}
}