{
  "_format": "hh-sol-artifact-1",
  "contractName": "meddata",
  "sourceName": "contracts/meddata.sol",
  "abi": [
    {
      "inputs": [],
      "stateMutability": "payable",
      "type": "constructor"
    },
    {
      "inputs": [
        {
          "internalType": "string",
          "name": "_title",
          "type": "string"
        },
        {
          "internalType": "string",
          "name": "_description",
          "type": "string"
        },
        {
          "internalType": "string",
          "name": "_imageURL",
          "type": "string"
        }
      ],
      "name": "NewRrecord",
      "outputs": [],
      "stateMutability": "payable",
      "type": "function"
    },
    {
      "inputs": [
        {
          "internalType": "uint256",
          "name": "id",
          "type": "uint256"
        }
      ],
      "name": "getAccessList",
      "outputs": [
        {
          "internalType": "address[]",
          "name": "",
          "type": "address[]"
        }
      ],
      "stateMutability": "view",
      "type": "function"
    },
    {
      "inputs": [],
      "name": "getAllRecords",
      "outputs": [
        {
          "components": [
            {
              "internalType": "uint256",
              "name": "id",
              "type": "uint256"
            },
            {
              "internalType": "string",
              "name": "title",
              "type": "string"
            },
            {
              "internalType": "string",
              "name": "description",
              "type": "string"
            },
            {
              "internalType": "bool",
              "name": "islisted",
              "type": "bool"
            },
            {
              "internalType": "string",
              "name": "imageURL",
              "type": "string"
            },
            {
              "internalType": "address[]",
              "name": "owners",
              "type": "address[]"
            },
            {
              "internalType": "uint256",
              "name": "timestamp",
              "type": "uint256"
            }
          ],
          "internalType": "struct meddata.Record[]",
          "name": "",
          "type": "tuple[]"
        }
      ],
      "stateMutability": "view",
      "type": "function"
    },
    {
      "inputs": [
        {
          "internalType": "uint256",
          "name": "_id",
          "type": "uint256"
        }
      ],
      "name": "getOneRecord",
      "outputs": [
        {
          "components": [
            {
              "internalType": "uint256",
              "name": "id",
              "type": "uint256"
            },
            {
              "internalType": "string",
              "name": "title",
              "type": "string"
            },
            {
              "internalType": "string",
              "name": "description",
              "type": "string"
            },
            {
              "internalType": "bool",
              "name": "islisted",
              "type": "bool"
            },
            {
              "internalType": "string",
              "name": "imageURL",
              "type": "string"
            },
            {
              "internalType": "address[]",
              "name": "owners",
              "type": "address[]"
            },
            {
              "internalType": "uint256",
              "name": "timestamp",
              "type": "uint256"
            }
          ],
          "internalType": "struct meddata.Record",
          "name": "",
          "type": "tuple"
        }
      ],
      "stateMutability": "view",
      "type": "function"
    },
    {
      "inputs": [
        {
          "internalType": "address",
          "name": "_newOwner",
          "type": "address"
        },
        {
          "internalType": "uint256",
          "name": "id",
          "type": "uint256"
        }
      ],
      "name": "newOwner",
      "outputs": [],
      "stateMutability": "nonpayable",
      "type": "function"
    },
    {
      "inputs": [
        {
          "internalType": "uint256",
          "name": "",
          "type": "uint256"
        }
      ],
      "name": "records",
      "outputs": [
        {
          "internalType": "uint256",
          "name": "id",
          "type": "uint256"
        },
        {
          "internalType": "string",
          "name": "title",
          "type": "string"
        },
        {
          "internalType": "string",
          "name": "description",
          "type": "string"
        },
        {
          "internalType": "bool",
          "name": "islisted",
          "type": "bool"
        },
        {
          "internalType": "string",
          "name": "imageURL",
          "type": "string"
        },
        {
          "internalType": "uint256",
          "name": "timestamp",
          "type": "uint256"
        }
      ],
      "stateMutability": "view",
      "type": "function"
    },
    {
      "inputs": [
        {
          "internalType": "address",
          "name": "_removeOwner",
          "type": "address"
        },
        {
          "internalType": "uint256",
          "name": "id",
          "type": "uint256"
        }
      ],
      "name": "removeOwner",
      "outputs": [],
      "stateMutability": "nonpayable",
      "type": "function"
    },
    {
      "inputs": [
        {
          "internalType": "uint256",
          "name": "",
          "type": "uint256"
        }
      ],
      "name": "temp",
      "outputs": [
        {
          "internalType": "address",
          "name": "",
          "type": "address"
        }
      ],
      "stateMutability": "view",
      "type": "function"
    }
  ],
  "bytecode": "0x6080604052612da2806100136000396000f3fe60806040526004361061007b5760003560e01c80636c3755ad1161004e5780636c3755ad14610144578063a7f9fe7214610181578063bfd2b3a3146101ac578063f31bb177146101d55761007b565b80631cda164f14610080578063298ba2be1461009c57806332be3640146100d95780633446106714610102575b600080fd5b61009a60048036038101906100959190611dc5565b610212565b005b3480156100a857600080fd5b506100c360048036038101906100be9190611ea2565b6104eb565b6040516100d09190612119565b60405180910390f35b3480156100e557600080fd5b5061010060048036038101906100fb9190612167565b610984565b005b34801561010e57600080fd5b5061012960048036038101906101249190611ea2565b610d2a565b60405161013b9695949392919061220f565b60405180910390f35b34801561015057600080fd5b5061016b60048036038101906101669190611ea2565b610f1b565b6040516101789190612294565b60405180910390f35b34801561018d57600080fd5b50610196610f5a565b6040516101a39190612422565b60405180910390f35b3480156101b857600080fd5b506101d360048036038101906101ce9190612167565b6113fc565b005b3480156101e157600080fd5b506101fc60048036038101906101f79190611ea2565b611a9d565b60405161020991906124b3565b60405180910390f35b600160003373ffffffffffffffffffffffffffffffffffffffff1673ffffffffffffffffffffffffffffffffffffffff1681526020019081526020016000206000805490509080600181540180825580915050600190039060005260206000200160009091909190915055600260003373ffffffffffffffffffffffffffffffffffffffff1673ffffffffffffffffffffffffffffffffffffffff16815260200190815260200160002060008054905090806001815401808255809150506001900390600052602060002001600090919091909150556003600080805490508152602001908152602001600020339080600181540180825580915050600190039060005260206000200160009091909190916101000a81548173ffffffffffffffffffffffffffffffffffffffff021916908373ffffffffffffffffffffffffffffffffffffffff16021790555060008080549050905060006040518060e00160405280838152602001868152602001858152602001600115158152602001848152602001600480548060200260200160405190810160405280929190818152602001828054801561041957602002820191906000526020600020905b8160009054906101000a900473ffffffffffffffffffffffffffffffffffffffff1673ffffffffffffffffffffffffffffffffffffffff16815260200190600101908083116103cf575b5050505050815260200142815250908060018154018082558091505060019003906000526020600020906007020160009091909190915060008201518160000155602082015181600101908161046f91906126e1565b50604082015181600201908161048591906126e1565b5060608201518160030160006101000a81548160ff02191690831515021790555060808201518160040190816104bb91906126e1565b5060a08201518160050190805190602001906104d8929190611b85565b5060c08201518160060155505050505050565b6104f3611c0f565b600080549050821061053a576040517f08c379a0000000000000000000000000000000000000000000000000000000008152600401610531906127ff565b60405180910390fd5b600080838154811061054f5761054e61281f565b5b90600052602060002090600702016040518060e00160405290816000820154815260200160018201805461058290612504565b80601f01602080910402602001604051908101604052809291908181526020018280546105ae90612504565b80156105fb5780601f106105d0576101008083540402835291602001916105fb565b820191906000526020600020905b8154815290600101906020018083116105de57829003601f168201915b5050505050815260200160028201805461061490612504565b80601f016020809104026020016040519081016040528092919081815260200182805461064090612504565b801561068d5780601f106106625761010080835404028352916020019161068d565b820191906000526020600020905b81548152906001019060200180831161067057829003601f168201915b505050505081526020016003820160009054906101000a900460ff161515151581526020016004820180546106c190612504565b80601f01602080910402602001604051908101604052809291908181526020018280546106ed90612504565b801561073a5780601f1061070f5761010080835404028352916020019161073a565b820191906000526020600020905b81548152906001019060200180831161071d57829003601f168201915b50505050508152602001600582018054806020026020016040519081016040528092919081815260200182805480156107c857602002820191906000526020600020905b8160009054906101000a900473ffffffffffffffffffffffffffffffffffffffff1673ffffffffffffffffffffffffffffffffffffffff168152602001906001019080831161077e575b5050505050815260200160068201548152505090506003600084815260200190815260200160002080548060200260200160405190810160405280929190818152602001828054801561087057602002820191906000526020600020905b8160009054906101000a900473ffffffffffffffffffffffffffffffffffffffff1673ffffffffffffffffffffffffffffffffffffffff1681526020019060010190808311610826575b50505050508160a001819052506000805b6003600086815260200190815260200160002080549050811015610939573373ffffffffffffffffffffffffffffffffffffffff166003600087815260200190815260200160002082815481106108db576108da61281f565b5b9060005260206000200160009054906101000a900473ffffffffffffffffffffffffffffffffffffffff1673ffffffffffffffffffffffffffffffffffffffff160361092657600191505b80806109319061287d565b915050610881565b508061097a576040517f08c379a000000000000000000000000000000000000000000000000000000000815260040161097190612937565b60405180910390fd5b8192505050919050565b60008054905081106109cb576040517f08c379a00000000000000000000000000000000000000000000000000000000081526004016109c2906129a3565b60405180910390fd5b600360008281526020019081526020016000206000815481106109f1576109f061281f565b5b9060005260206000200160009054906101000a900473ffffffffffffffffffffffffffffffffffffffff1673ffffffffffffffffffffffffffffffffffffffff163373ffffffffffffffffffffffffffffffffffffffff1614610a89576040517f08c379a0000000000000000000000000000000000000000000000000000000008152600401610a8090612a0f565b60405180910390fd5b60036000828152602001908152602001600020600081548110610aaf57610aae61281f565b5b9060005260206000200160009054906101000a900473ffffffffffffffffffffffffffffffffffffffff1673ffffffffffffffffffffffffffffffffffffffff168273ffffffffffffffffffffffffffffffffffffffff1603610b47576040517f08c379a0000000000000000000000000000000000000000000000000000000008152600401610b3e90612aa1565b60405180910390fd5b60005b600160008473ffffffffffffffffffffffffffffffffffffffff1673ffffffffffffffffffffffffffffffffffffffff16815260200190815260200160002080549050811015610c4b57600160008473ffffffffffffffffffffffffffffffffffffffff1673ffffffffffffffffffffffffffffffffffffffff1681526020019081526020016000208181548110610be557610be461281f565b5b90600052602060002001548203610c38576000610c37576040517f08c379a0000000000000000000000000000000000000000000000000000000008152600401610c2e90612b33565b60405180910390fd5b5b8080610c439061287d565b915050610b4a565b50600160008373ffffffffffffffffffffffffffffffffffffffff1673ffffffffffffffffffffffffffffffffffffffff16815260200190815260200160002081908060018154018082558091505060019003906000526020600020016000909190919091505560036000828152602001908152602001600020829080600181540180825580915050600190039060005260206000200160009091909190916101000a81548173ffffffffffffffffffffffffffffffffffffffff021916908373ffffffffffffffffffffffffffffffffffffffff1602179055505050565b60008181548110610d3a57600080fd5b9060005260206000209060070201600091509050806000015490806001018054610d6390612504565b80601f0160208091040260200160405190810160405280929190818152602001828054610d8f90612504565b8015610ddc5780601f10610db157610100808354040283529160200191610ddc565b820191906000526020600020905b815481529060010190602001808311610dbf57829003601f168201915b505050505090806002018054610df190612504565b80601f0160208091040260200160405190810160405280929190818152602001828054610e1d90612504565b8015610e6a5780601f10610e3f57610100808354040283529160200191610e6a565b820191906000526020600020905b815481529060010190602001808311610e4d57829003601f168201915b5050505050908060030160009054906101000a900460ff1690806004018054610e9290612504565b80601f0160208091040260200160405190810160405280929190818152602001828054610ebe90612504565b8015610f0b5780601f10610ee057610100808354040283529160200191610f0b565b820191906000526020600020905b815481529060010190602001808311610eee57829003601f168201915b5050505050908060060154905086565b60048181548110610f2b57600080fd5b906000526020600020016000915054906101000a900473ffffffffffffffffffffffffffffffffffffffff1681565b60606000600160003373ffffffffffffffffffffffffffffffffffffffff1673ffffffffffffffffffffffffffffffffffffffff1681526020019081526020016000208054905011610fe1576040517f08c379a0000000000000000000000000000000000000000000000000000000008152600401610fd890612b9f565b60405180910390fd5b6000600160003373ffffffffffffffffffffffffffffffffffffffff1673ffffffffffffffffffffffffffffffffffffffff1681526020019081526020016000208054905067ffffffffffffffff81111561103f5761103e611c9a565b5b60405190808252806020026020018201604052801561107857816020015b611065611c0f565b81526020019060019003908161105d5790505b50905060005b600160003373ffffffffffffffffffffffffffffffffffffffff1673ffffffffffffffffffffffffffffffffffffffff168152602001908152602001600020805490508110156113f4576000600160003373ffffffffffffffffffffffffffffffffffffffff1673ffffffffffffffffffffffffffffffffffffffff168152602001908152602001600020828154811061111b5761111a61281f565b5b9060005260206000200154815481106111375761113661281f565b5b90600052602060002090600702016040518060e00160405290816000820154815260200160018201805461116a90612504565b80601f016020809104026020016040519081016040528092919081815260200182805461119690612504565b80156111e35780601f106111b8576101008083540402835291602001916111e3565b820191906000526020600020905b8154815290600101906020018083116111c657829003601f168201915b505050505081526020016002820180546111fc90612504565b80601f016020809104026020016040519081016040528092919081815260200182805461122890612504565b80156112755780601f1061124a57610100808354040283529160200191611275565b820191906000526020600020905b81548152906001019060200180831161125857829003601f168201915b505050505081526020016003820160009054906101000a900460ff161515151581526020016004820180546112a990612504565b80601f01602080910402602001604051908101604052809291908181526020018280546112d590612504565b80156113225780601f106112f757610100808354040283529160200191611322565b820191906000526020600020905b81548152906001019060200180831161130557829003601f168201915b50505050508152602001600582018054806020026020016040519081016040528092919081815260200182805480156113b057602002820191906000526020600020905b8160009054906101000a900473ffffffffffffffffffffffffffffffffffffffff1673ffffffffffffffffffffffffffffffffffffffff1681526020019060010190808311611366575b505050505081526020016006820154815250508282815181106113d6576113d561281f565b5b602002602001018190525080806113ec9061287d565b91505061107e565b508091505090565b6000805490508110611443576040517f08c379a000000000000000000000000000000000000000000000000000000000815260040161143a906129a3565b60405180910390fd5b600360008281526020019081526020016000206000815481106114695761146861281f565b5b9060005260206000200160009054906101000a900473ffffffffffffffffffffffffffffffffffffffff1673ffffffffffffffffffffffffffffffffffffffff163373ffffffffffffffffffffffffffffffffffffffff1614611501576040517f08c379a00000000000000000000000000000000000000000000000000000000081526004016114f890612a0f565b60405180910390fd5b3373ffffffffffffffffffffffffffffffffffffffff168273ffffffffffffffffffffffffffffffffffffffff160361156f576040517f08c379a000000000000000000000000000000000000000000000000000000000815260040161156690612c57565b60405180910390fd5b6000600160008473ffffffffffffffffffffffffffffffffffffffff1673ffffffffffffffffffffffffffffffffffffffff16815260200190815260200160002080549050905060005b600160008573ffffffffffffffffffffffffffffffffffffffff1673ffffffffffffffffffffffffffffffffffffffff16815260200190815260200160002080549050811015611a5557600160008573ffffffffffffffffffffffffffffffffffffffff1673ffffffffffffffffffffffffffffffffffffffff16815260200190815260200160002081815481106116545761165361281f565b5b90600052602060002001548303611a4257600160008573ffffffffffffffffffffffffffffffffffffffff1673ffffffffffffffffffffffffffffffffffffffff1681526020019081526020016000208054905060010361171957600160008573ffffffffffffffffffffffffffffffffffffffff1673ffffffffffffffffffffffffffffffffffffffff1681526020019081526020016000208054806116fe576116fd612c77565b5b60019003818190600052602060002001600090559055611846565b600160008573ffffffffffffffffffffffffffffffffffffffff1673ffffffffffffffffffffffffffffffffffffffff1681526020019081526020016000206001836117659190612ca6565b815481106117765761177561281f565b5b9060005260206000200154600160008673ffffffffffffffffffffffffffffffffffffffff1673ffffffffffffffffffffffffffffffffffffffff16815260200190815260200160002082815481106117d2576117d161281f565b5b9060005260206000200181905550600160008573ffffffffffffffffffffffffffffffffffffffff1673ffffffffffffffffffffffffffffffffffffffff16815260200190815260200160002080548061182f5761182e612c77565b5b600190038181906000526020600020016000905590555b60006003600085815260200190815260200160002080549050905060005b6003600086815260200190815260200160002080549050811015611a39576003600086815260200190815260200160002081815481106118a7576118a661281f565b5b9060005260206000200160009054906101000a900473ffffffffffffffffffffffffffffffffffffffff1673ffffffffffffffffffffffffffffffffffffffff168673ffffffffffffffffffffffffffffffffffffffff1603611a2657600360008681526020019081526020016000206001836119249190612ca6565b815481106119355761193461281f565b5b9060005260206000200160009054906101000a900473ffffffffffffffffffffffffffffffffffffffff166003600087815260200190815260200160002082815481106119855761198461281f565b5b9060005260206000200160006101000a81548173ffffffffffffffffffffffffffffffffffffffff021916908373ffffffffffffffffffffffffffffffffffffffff160217905550600360008681526020019081526020016000208054806119f0576119ef612c77565b5b6001900381819060005260206000200160006101000a81549073ffffffffffffffffffffffffffffffffffffffff021916905590555b8080611a319061287d565b915050611864565b50505050611a99565b8080611a4d9061287d565b9150506115b9565b506000611a97576040517f08c379a0000000000000000000000000000000000000000000000000000000008152600401611a8e90612d4c565b60405180910390fd5b505b5050565b60606000805490508210611ae6576040517f08c379a0000000000000000000000000000000000000000000000000000000008152600401611add906129a3565b60405180910390fd5b60036000838152602001908152602001600020805480602002602001604051908101604052809291908181526020018280548015611b7957602002820191906000526020600020905b8160009054906101000a900473ffffffffffffffffffffffffffffffffffffffff1673ffffffffffffffffffffffffffffffffffffffff1681526020019060010190808311611b2f575b50505050509050919050565b828054828255906000526020600020908101928215611bfe579160200282015b82811115611bfd5782518260006101000a81548173ffffffffffffffffffffffffffffffffffffffff021916908373ffffffffffffffffffffffffffffffffffffffff16021790555091602001919060010190611ba5565b5b509050611c0b9190611c4e565b5090565b6040518060e001604052806000815260200160608152602001606081526020016000151581526020016060815260200160608152602001600081525090565b5b80821115611c67576000816000905550600101611c4f565b5090565b6000604051905090565b600080fd5b600080fd5b600080fd5b600080fd5b6000601f19601f8301169050919050565b7f4e487b7100000000000000000000000000000000000000000000000000000000600052604160045260246000fd5b611cd282611c89565b810181811067ffffffffffffffff82111715611cf157611cf0611c9a565b5b80604052505050565b6000611d04611c6b565b9050611d108282611cc9565b919050565b600067ffffffffffffffff821115611d3057611d2f611c9a565b5b611d3982611c89565b9050602081019050919050565b82818337600083830152505050565b6000611d68611d6384611d15565b611cfa565b905082815260208101848484011115611d8457611d83611c84565b5b611d8f848285611d46565b509392505050565b600082601f830112611dac57611dab611c7f565b5b8135611dbc848260208601611d55565b91505092915050565b600080600060608486031215611dde57611ddd611c75565b5b600084013567ffffffffffffffff811115611dfc57611dfb611c7a565b5b611e0886828701611d97565b935050602084013567ffffffffffffffff811115611e2957611e28611c7a565b5b611e3586828701611d97565b925050604084013567ffffffffffffffff811115611e5657611e55611c7a565b5b611e6286828701611d97565b9150509250925092565b6000819050919050565b611e7f81611e6c565b8114611e8a57600080fd5b50565b600081359050611e9c81611e76565b92915050565b600060208284031215611eb857611eb7611c75565b5b6000611ec684828501611e8d565b91505092915050565b611ed881611e6c565b82525050565b600081519050919050565b600082825260208201905092915050565b60005b83811015611f18578082015181840152602081019050611efd565b60008484015250505050565b6000611f2f82611ede565b611f398185611ee9565b9350611f49818560208601611efa565b611f5281611c89565b840191505092915050565b60008115159050919050565b611f7281611f5d565b82525050565b600081519050919050565b600082825260208201905092915050565b6000819050602082019050919050565b600073ffffffffffffffffffffffffffffffffffffffff82169050919050565b6000611fcf82611fa4565b9050919050565b611fdf81611fc4565b82525050565b6000611ff18383611fd6565b60208301905092915050565b6000602082019050919050565b600061201582611f78565b61201f8185611f83565b935061202a83611f94565b8060005b8381101561205b5781516120428882611fe5565b975061204d83611ffd565b92505060018101905061202e565b5085935050505092915050565b600060e0830160008301516120806000860182611ecf565b50602083015184820360208601526120988282611f24565b915050604083015184820360408601526120b28282611f24565b91505060608301516120c76060860182611f69565b50608083015184820360808601526120df8282611f24565b91505060a083015184820360a08601526120f9828261200a565b91505060c083015161210e60c0860182611ecf565b508091505092915050565b600060208201905081810360008301526121338184612068565b905092915050565b61214481611fc4565b811461214f57600080fd5b50565b6000813590506121618161213b565b92915050565b6000806040838503121561217e5761217d611c75565b5b600061218c85828601612152565b925050602061219d85828601611e8d565b9150509250929050565b6121b081611e6c565b82525050565b600082825260208201905092915050565b60006121d282611ede565b6121dc81856121b6565b93506121ec818560208601611efa565b6121f581611c89565b840191505092915050565b61220981611f5d565b82525050565b600060c08201905061222460008301896121a7565b818103602083015261223681886121c7565b9050818103604083015261224a81876121c7565b90506122596060830186612200565b818103608083015261226b81856121c7565b905061227a60a08301846121a7565b979650505050505050565b61228e81611fc4565b82525050565b60006020820190506122a96000830184612285565b92915050565b600081519050919050565b600082825260208201905092915050565b6000819050602082019050919050565b600060e0830160008301516122f36000860182611ecf565b506020830151848203602086015261230b8282611f24565b915050604083015184820360408601526123258282611f24565b915050606083015161233a6060860182611f69565b50608083015184820360808601526123528282611f24565b91505060a083015184820360a086015261236c828261200a565b91505060c083015161238160c0860182611ecf565b508091505092915050565b600061239883836122db565b905092915050565b6000602082019050919050565b60006123b8826122af565b6123c281856122ba565b9350836020820285016123d4856122cb565b8060005b8581101561241057848403895281516123f1858261238c565b94506123fc836123a0565b925060208a019950506001810190506123d8565b50829750879550505050505092915050565b6000602082019050818103600083015261243c81846123ad565b905092915050565b600082825260208201905092915050565b600061246082611f78565b61246a8185612444565b935061247583611f94565b8060005b838110156124a657815161248d8882611fe5565b975061249883611ffd565b925050600181019050612479565b5085935050505092915050565b600060208201905081810360008301526124cd8184612455565b905092915050565b7f4e487b7100000000000000000000000000000000000000000000000000000000600052602260045260246000fd5b6000600282049050600182168061251c57607f821691505b60208210810361252f5761252e6124d5565b5b50919050565b60008190508160005260206000209050919050565b60006020601f8301049050919050565b600082821b905092915050565b6000600883026125977fffffffffffffffffffffffffffffffffffffffffffffffffffffffffffffffff8261255a565b6125a1868361255a565b95508019841693508086168417925050509392505050565b6000819050919050565b60006125de6125d96125d484611e6c565b6125b9565b611e6c565b9050919050565b6000819050919050565b6125f8836125c3565b61260c612604826125e5565b848454612567565b825550505050565b600090565b612621612614565b61262c8184846125ef565b505050565b5b8181101561265057612645600082612619565b600181019050612632565b5050565b601f8211156126955761266681612535565b61266f8461254a565b8101602085101561267e578190505b61269261268a8561254a565b830182612631565b50505b505050565b600082821c905092915050565b60006126b86000198460080261269a565b1980831691505092915050565b60006126d183836126a7565b9150826002028217905092915050565b6126ea82611ede565b67ffffffffffffffff81111561270357612702611c9a565b5b61270d8254612504565b612718828285612654565b600060209050601f83116001811461274b5760008415612739578287015190505b61274385826126c5565b8655506127ab565b601f19841661275986612535565b60005b828110156127815784890151825560018201915060208501945060208101905061275c565b8683101561279e578489015161279a601f8916826126a7565b8355505b6001600288020188555050505b505050505050565b7f676976656e2066696c65206964206973206e6f74206578697374730000000000600082015250565b60006127e9601b836121b6565b91506127f4826127b3565b602082019050919050565b60006020820190508181036000830152612818816127dc565b9050919050565b7f4e487b7100000000000000000000000000000000000000000000000000000000600052603260045260246000fd5b7f4e487b7100000000000000000000000000000000000000000000000000000000600052601160045260246000fd5b600061288882611e6c565b91507fffffffffffffffffffffffffffffffffffffffffffffffffffffffffffffffff82036128ba576128b961284e565b5b600182019050919050565b7f796f7520646f6e277420686176652061636365737320746f207468697320666960008201527f6c65000000000000000000000000000000000000000000000000000000000000602082015250565b60006129216022836121b6565b915061292c826128c5565b604082019050919050565b6000602082019050818103600083015261295081612914565b9050919050565b7f676976652066696c6520696420697320696e76616c6964000000000000000000600082015250565b600061298d6017836121b6565b915061299882612957565b602082019050919050565b600060208201905081810360008301526129bc81612980565b9050919050565b7f796f7520617265206e6f74206f776e6572206f6620746869732066696c650000600082015250565b60006129f9601e836121b6565b9150612a04826129c3565b602082019050919050565b60006020820190508181036000830152612a28816129ec565b9050919050565b7f6173206f776e6572206f6620746869732066696c6520796f7520616c7265616460008201527f2068617665206120616363657373000000000000000000000000000000000000602082015250565b6000612a8b602e836121b6565b9150612a9682612a2f565b604082019050919050565b60006020820190508181036000830152612aba81612a7e565b9050919050565b7f74686973206164647265737320616c726561647920686176652061206163636560008201527f737320746f20746869732066696c650000000000000000000000000000000000602082015250565b6000612b1d602f836121b6565b9150612b2882612ac1565b604082019050919050565b60006020820190508181036000830152612b4c81612b10565b9050919050565b7f6e6f207265636f72647300000000000000000000000000000000000000000000600082015250565b6000612b89600a836121b6565b9150612b9482612b53565b602082019050919050565b60006020820190508181036000830152612bb881612b7c565b9050919050565b7f796f7520617265206f776e6572206f66207468652066696c6520616e6420796f60008201527f752063616e27742072656d6f766520796f75722073656c662066726f6d20616360208201527f63657373696e672074686973206669656c000000000000000000000000000000604082015250565b6000612c416051836121b6565b9150612c4c82612bbf565b606082019050919050565b60006020820190508181036000830152612c7081612c34565b9050919050565b7f4e487b7100000000000000000000000000000000000000000000000000000000600052603160045260246000fd5b6000612cb182611e6c565b9150612cbc83611e6c565b9250828203905081811115612cd457612cd361284e565b5b92915050565b7f796f7520646f65736e277420676976652061636365737320746f20746869732060008201527f6164647265737320617420616c6c212100000000000000000000000000000000602082015250565b6000612d366030836121b6565b9150612d4182612cda565b604082019050919050565b60006020820190508181036000830152612d6581612d29565b905091905056fea26469706673582212206794c529755cc7c2c078e3e83992e260b1f064f8400334ebf6f4875ff5a4be2364736f6c63430008130033",
  "linkReferences": {},
  "deployedLinkReferences": {}
}