{
  "_format": "hh-sol-artifact-1",
  "contractName": "meddata",
  "sourceName": "contracts/meddata.sol",
  "abi": [
    {
      "inputs": [],
      "stateMutability": "payable",
      "type": "constructor"
    },
    {
      "inputs": [
        {
          "internalType": "string",
          "name": "_title",
          "type": "string"
        },
        {
          "internalType": "string",
          "name": "_description",
          "type": "string"
        },
        {
          "internalType": "string",
          "name": "_imageURI",
          "type": "string"
        }
      ],
      "name": "NewRrecord",
      "outputs": [],
      "stateMutability": "payable",
      "type": "function"
    },
    {
      "inputs": [],
      "name": "firstOwner",
      "outputs": [],
      "stateMutability": "nonpayable",
      "type": "function"
    },
    {
      "inputs": [],
      "name": "getAllRecords",
      "outputs": [
        {
          "components": [
            {
              "internalType": "uint256",
              "name": "id",
              "type": "uint256"
            },
            {
              "internalType": "string",
              "name": "title",
              "type": "string"
            },
            {
              "internalType": "string",
              "name": "description",
              "type": "string"
            },
            {
              "internalType": "bool",
              "name": "islisted",
              "type": "bool"
            },
            {
              "internalType": "string",
              "name": "imageURI",
              "type": "string"
            },
            {
              "internalType": "address[]",
              "name": "owners",
              "type": "address[]"
            },
            {
              "internalType": "uint256",
              "name": "timestamp",
              "type": "uint256"
            }
          ],
          "internalType": "struct meddata.Record[]",
          "name": "",
          "type": "tuple[]"
        }
      ],
      "stateMutability": "view",
      "type": "function"
    },
    {
      "inputs": [
        {
          "internalType": "uint256",
          "name": "_id",
          "type": "uint256"
        }
      ],
      "name": "getOneRecord",
      "outputs": [
        {
          "components": [
            {
              "internalType": "uint256",
              "name": "id",
              "type": "uint256"
            },
            {
              "internalType": "string",
              "name": "title",
              "type": "string"
            },
            {
              "internalType": "string",
              "name": "description",
              "type": "string"
            },
            {
              "internalType": "bool",
              "name": "islisted",
              "type": "bool"
            },
            {
              "internalType": "string",
              "name": "imageURI",
              "type": "string"
            },
            {
              "internalType": "address[]",
              "name": "owners",
              "type": "address[]"
            },
            {
              "internalType": "uint256",
              "name": "timestamp",
              "type": "uint256"
            }
          ],
          "internalType": "struct meddata.Record",
          "name": "",
          "type": "tuple"
        }
      ],
      "stateMutability": "view",
      "type": "function"
    },
    {
      "inputs": [
        {
          "internalType": "address",
          "name": "_newOwner",
          "type": "address"
        }
      ],
      "name": "newOwner",
      "outputs": [],
      "stateMutability": "payable",
      "type": "function"
    },
    {
      "inputs": [
        {
          "internalType": "uint256",
          "name": "",
          "type": "uint256"
        }
      ],
      "name": "records",
      "outputs": [
        {
          "internalType": "uint256",
          "name": "id",
          "type": "uint256"
        },
        {
          "internalType": "string",
          "name": "title",
          "type": "string"
        },
        {
          "internalType": "string",
          "name": "description",
          "type": "string"
        },
        {
          "internalType": "bool",
          "name": "islisted",
          "type": "bool"
        },
        {
          "internalType": "string",
          "name": "imageURI",
          "type": "string"
        },
        {
          "internalType": "uint256",
          "name": "timestamp",
          "type": "uint256"
        }
      ],
      "stateMutability": "view",
      "type": "function"
    },
    {
      "inputs": [
        {
          "internalType": "address",
          "name": "_removeOwner",
          "type": "address"
        }
      ],
      "name": "removeOwner",
      "outputs": [
        {
          "components": [
            {
              "internalType": "uint256",
              "name": "id",
              "type": "uint256"
            },
            {
              "internalType": "string",
              "name": "title",
              "type": "string"
            },
            {
              "internalType": "string",
              "name": "description",
              "type": "string"
            },
            {
              "internalType": "bool",
              "name": "islisted",
              "type": "bool"
            },
            {
              "internalType": "string",
              "name": "imageURI",
              "type": "string"
            },
            {
              "internalType": "address[]",
              "name": "owners",
              "type": "address[]"
            },
            {
              "internalType": "uint256",
              "name": "timestamp",
              "type": "uint256"
            }
          ],
          "internalType": "struct meddata.Record[]",
          "name": "",
          "type": "tuple[]"
        }
      ],
      "stateMutability": "payable",
      "type": "function"
    },
    {
      "inputs": [
        {
          "internalType": "uint256",
          "name": "",
          "type": "uint256"
        }
      ],
      "name": "temp",
      "outputs": [
        {
          "internalType": "address",
          "name": "",
          "type": "address"
        }
      ],
      "stateMutability": "view",
      "type": "function"
    },
    {
      "inputs": [],
      "name": "totalRecord",
      "outputs": [
        {
          "internalType": "uint256",
          "name": "",
          "type": "uint256"
        }
      ],
      "stateMutability": "view",
      "type": "function"
    }
  ],
  "bytecode": "0x608060405261254a806100136000396000f3fe6080604052600436106100865760003560e01c80636bc28781116100595780636bc28781146101565780636c3755ad1461016d57806385952454146101aa578063a7f9fe72146101c6578063ff35700c146101f157610086565b8063173825d91461008b5780631cda164f146100bb578063298ba2be146100d75780633446106714610114575b600080fd5b6100a560048036038101906100a091906118b2565b61021c565b6040516100b29190611bd4565b60405180910390f35b6100d560048036038101906100d09190611d2b565b610854565b005b3480156100e357600080fd5b506100fe60048036038101906100f99190611dfe565b6109f6565b60405161010b9190611edc565b60405180910390f35b34801561012057600080fd5b5061013b60048036038101906101369190611dfe565b610e35565b60405161014d96959493929190611f66565b60405180910390f35b34801561016257600080fd5b5061016b611026565b005b34801561017957600080fd5b50610194600480360381019061018f9190611dfe565b6110d4565b6040516101a19190611feb565b60405180910390f35b6101c460048036038101906101bf91906118b2565b611113565b005b3480156101d257600080fd5b506101db6112e8565b6040516101e89190611bd4565b60405180910390f35b3480156101fd57600080fd5b50610206611754565b6040516102139190612006565b60405180910390f35b6060600060018054905011610266576040517f08c379a000000000000000000000000000000000000000000000000000000000815260040161025d9061206d565b60405180910390fd5b60005b6001805490508110156105815760005b6001828154811061028d5761028c61208d565b5b90600052602060002090600702016005018054905081101561056d578373ffffffffffffffffffffffffffffffffffffffff16600183815481106102d4576102d361208d565b5b906000526020600020906007020160050182815481106102f7576102f661208d565b5b9060005260206000200160009054906101000a900473ffffffffffffffffffffffffffffffffffffffff1673ffffffffffffffffffffffffffffffffffffffff161480156103d257503373ffffffffffffffffffffffffffffffffffffffff166001838154811061036b5761036a61208d565b5b906000526020600020906007020160050160008154811061038f5761038e61208d565b5b9060005260206000200160009054906101000a900473ffffffffffffffffffffffffffffffffffffffff1673ffffffffffffffffffffffffffffffffffffffff16145b1561055a57600182815481106103eb576103ea61208d565b5b906000526020600020906007020160050160018084815481106104115761041061208d565b5b90600052602060002090600702016005018054905061043091906120eb565b815481106104415761044061208d565b5b9060005260206000200160009054906101000a900473ffffffffffffffffffffffffffffffffffffffff16600183815481106104805761047f61208d565b5b906000526020600020906007020160050182815481106104a3576104a261208d565b5b9060005260206000200160006101000a81548173ffffffffffffffffffffffffffffffffffffffff021916908373ffffffffffffffffffffffffffffffffffffffff160217905550600182815481106104ff576104fe61208d565b5b90600052602060002090600702016005018054806105205761051f61211f565b5b6001900381819060005260206000200160006101000a81549073ffffffffffffffffffffffffffffffffffffffff0219169055905561056d565b80806105659061214e565b915050610279565b5080806105799061214e565b915050610269565b506001805480602002602001604051908101604052809291908181526020016000905b8282101561084957838290600052602060002090600702016040518060e0016040529081600082015481526020016001820180546105e1906121c5565b80601f016020809104026020016040519081016040528092919081815260200182805461060d906121c5565b801561065a5780601f1061062f5761010080835404028352916020019161065a565b820191906000526020600020905b81548152906001019060200180831161063d57829003601f168201915b50505050508152602001600282018054610673906121c5565b80601f016020809104026020016040519081016040528092919081815260200182805461069f906121c5565b80156106ec5780601f106106c1576101008083540402835291602001916106ec565b820191906000526020600020905b8154815290600101906020018083116106cf57829003601f168201915b505050505081526020016003820160009054906101000a900460ff16151515158152602001600482018054610720906121c5565b80601f016020809104026020016040519081016040528092919081815260200182805461074c906121c5565b80156107995780601f1061076e57610100808354040283529160200191610799565b820191906000526020600020905b81548152906001019060200180831161077c57829003601f168201915b505050505081526020016005820180548060200260200160405190810160405280929190818152602001828054801561082757602002820191906000526020600020905b8160009054906101000a900473ffffffffffffffffffffffffffffffffffffffff1673ffffffffffffffffffffffffffffffffffffffff16815260200190600101908083116107dd575b50505050508152602001600682015481525050815260200190600101906105a4565b505050509050919050565b61085c611026565b60016040518060e00160405280428152602001858152602001848152602001600115158152602001838152602001600380548060200260200160405190810160405280929190818152602001828054801561090c57602002820191906000526020600020905b8160009054906101000a900473ffffffffffffffffffffffffffffffffffffffff1673ffffffffffffffffffffffffffffffffffffffff16815260200190600101908083116108c2575b5050505050815260200142815250908060018154018082558091505060019003906000526020600020906007020160009091909190915060008201518160000155602082015181600101908161096291906123a2565b50604082015181600201908161097891906123a2565b5060608201518160030160006101000a81548160ff02191690831515021790555060808201518160040190816109ae91906123a2565b5060a08201518160050190805190602001906109cb92919061175a565b5060c08201518160060155505060016000808282546109ea9190612474565b92505081905550505050565b6109fe6117e4565b600060018054905011610a46576040517f08c379a0000000000000000000000000000000000000000000000000000000008152600401610a3d9061206d565b60405180910390fd5b60005b600180549050811015610d3d578260018281548110610a6b57610a6a61208d565b5b90600052602060002090600702016000015403610d2a5760018181548110610a9657610a9561208d565b5b90600052602060002090600702016040518060e001604052908160008201548152602001600182018054610ac9906121c5565b80601f0160208091040260200160405190810160405280929190818152602001828054610af5906121c5565b8015610b425780601f10610b1757610100808354040283529160200191610b42565b820191906000526020600020905b815481529060010190602001808311610b2557829003601f168201915b50505050508152602001600282018054610b5b906121c5565b80601f0160208091040260200160405190810160405280929190818152602001828054610b87906121c5565b8015610bd45780601f10610ba957610100808354040283529160200191610bd4565b820191906000526020600020905b815481529060010190602001808311610bb757829003601f168201915b505050505081526020016003820160009054906101000a900460ff16151515158152602001600482018054610c08906121c5565b80601f0160208091040260200160405190810160405280929190818152602001828054610c34906121c5565b8015610c815780601f10610c5657610100808354040283529160200191610c81565b820191906000526020600020905b815481529060010190602001808311610c6457829003601f168201915b5050505050815260200160058201805480602002602001604051908101604052809291908181526020018280548015610d0f57602002820191906000526020600020905b8160009054906101000a900473ffffffffffffffffffffffffffffffffffffffff1673ffffffffffffffffffffffffffffffffffffffff1681526020019060010190808311610cc5575b50505050508152602001600682015481525050915050610e30565b8080610d359061214e565b915050610a49565b506001610d7f576040517f08c379a0000000000000000000000000000000000000000000000000000000008152600401610d76906124f4565b60405180910390fd5b6040518060e0016040528060008152602001604051806020016040528060008152508152602001604051806020016040528060008152508152602001600015158152602001604051806020016040528060008152508152602001600067ffffffffffffffff811115610df457610df3611c00565b5b604051908082528060200260200182016040528015610e225781602001602082028036833780820191505090505b508152602001600081525090505b919050565b60018181548110610e4557600080fd5b9060005260206000209060070201600091509050806000015490806001018054610e6e906121c5565b80601f0160208091040260200160405190810160405280929190818152602001828054610e9a906121c5565b8015610ee75780601f10610ebc57610100808354040283529160200191610ee7565b820191906000526020600020905b815481529060010190602001808311610eca57829003601f168201915b505050505090806002018054610efc906121c5565b80601f0160208091040260200160405190810160405280929190818152602001828054610f28906121c5565b8015610f755780601f10610f4a57610100808354040283529160200191610f75565b820191906000526020600020905b815481529060010190602001808311610f5857829003601f168201915b5050505050908060030160009054906101000a900460ff1690806004018054610f9d906121c5565b80601f0160208091040260200160405190810160405280929190818152602001828054610fc9906121c5565b80156110165780601f10610feb57610100808354040283529160200191611016565b820191906000526020600020905b815481529060010190602001808311610ff957829003601f168201915b5050505050908060060154905086565b6003339080600181540180825580915050600190039060005260206000200160009091909190916101000a81548173ffffffffffffffffffffffffffffffffffffffff021916908373ffffffffffffffffffffffffffffffffffffffff160217905550600180549050600260003373ffffffffffffffffffffffffffffffffffffffff1673ffffffffffffffffffffffffffffffffffffffff16815260200190815260200160002081905550565b600381815481106110e457600080fd5b906000526020600020016000915054906101000a900473ffffffffffffffffffffffffffffffffffffffff1681565b60006001805490501161115b576040517f08c379a00000000000000000000000000000000000000000000000000000000081526004016111529061206d565b60405180910390fd5b60005b6001805490508110156112e45760005b600182815481106111825761118161208d565b5b9060005260206000209060070201600501805490508110156112d0573373ffffffffffffffffffffffffffffffffffffffff16600183815481106111c9576111c861208d565b5b906000526020600020906007020160050182815481106111ec576111eb61208d565b5b9060005260206000200160009054906101000a900473ffffffffffffffffffffffffffffffffffffffff1673ffffffffffffffffffffffffffffffffffffffff16036112bd57600182815481106112465761124561208d565b5b9060005260206000209060070201600501839080600181540180825580915050600190039060005260206000200160009091909190916101000a81548173ffffffffffffffffffffffffffffffffffffffff021916908373ffffffffffffffffffffffffffffffffffffffff1602179055506112d0565b80806112c89061214e565b91505061116e565b5080806112dc9061214e565b91505061115e565b5050565b6060600060018054905011611332576040517f08c379a00000000000000000000000000000000000000000000000000000000081526004016113299061206d565b60405180910390fd5b600060018054905067ffffffffffffffff81111561135357611352611c00565b5b60405190808252806020026020018201604052801561138c57816020015b6113796117e4565b8152602001906001900390816113715790505b50905060005b60018054905081101561174c5760005b600182815481106113b6576113b561208d565b5b906000526020600020906007020160050180549050811015611738573373ffffffffffffffffffffffffffffffffffffffff16600183815481106113fd576113fc61208d565b5b906000526020600020906007020160050182815481106114205761141f61208d565b5b9060005260206000200160009054906101000a900473ffffffffffffffffffffffffffffffffffffffff1673ffffffffffffffffffffffffffffffffffffffff1603611725576001828154811061147a5761147961208d565b5b90600052602060002090600702016040518060e0016040529081600082015481526020016001820180546114ad906121c5565b80601f01602080910402602001604051908101604052809291908181526020018280546114d9906121c5565b80156115265780601f106114fb57610100808354040283529160200191611526565b820191906000526020600020905b81548152906001019060200180831161150957829003601f168201915b5050505050815260200160028201805461153f906121c5565b80601f016020809104026020016040519081016040528092919081815260200182805461156b906121c5565b80156115b85780601f1061158d576101008083540402835291602001916115b8565b820191906000526020600020905b81548152906001019060200180831161159b57829003601f168201915b505050505081526020016003820160009054906101000a900460ff161515151581526020016004820180546115ec906121c5565b80601f0160208091040260200160405190810160405280929190818152602001828054611618906121c5565b80156116655780601f1061163a57610100808354040283529160200191611665565b820191906000526020600020905b81548152906001019060200180831161164857829003601f168201915b50505050508152602001600582018054806020026020016040519081016040528092919081815260200182805480156116f357602002820191906000526020600020905b8160009054906101000a900473ffffffffffffffffffffffffffffffffffffffff1673ffffffffffffffffffffffffffffffffffffffff16815260200190600101908083116116a9575b505050505081526020016006820154815250508383815181106117195761171861208d565b5b60200260200101819052505b80806117309061214e565b9150506113a2565b5080806117449061214e565b915050611392565b508091505090565b60005481565b8280548282559060005260206000209081019282156117d3579160200282015b828111156117d25782518260006101000a81548173ffffffffffffffffffffffffffffffffffffffff021916908373ffffffffffffffffffffffffffffffffffffffff1602179055509160200191906001019061177a565b5b5090506117e09190611823565b5090565b6040518060e001604052806000815260200160608152602001606081526020016000151581526020016060815260200160608152602001600081525090565b5b8082111561183c576000816000905550600101611824565b5090565b6000604051905090565b600080fd5b600080fd5b600073ffffffffffffffffffffffffffffffffffffffff82169050919050565b600061187f82611854565b9050919050565b61188f81611874565b811461189a57600080fd5b50565b6000813590506118ac81611886565b92915050565b6000602082840312156118c8576118c761184a565b5b60006118d68482850161189d565b91505092915050565b600081519050919050565b600082825260208201905092915050565b6000819050602082019050919050565b6000819050919050565b61191e8161190b565b82525050565b600081519050919050565b600082825260208201905092915050565b60005b8381101561195e578082015181840152602081019050611943565b60008484015250505050565b6000601f19601f8301169050919050565b600061198682611924565b611990818561192f565b93506119a0818560208601611940565b6119a98161196a565b840191505092915050565b60008115159050919050565b6119c9816119b4565b82525050565b600081519050919050565b600082825260208201905092915050565b6000819050602082019050919050565b611a0481611874565b82525050565b6000611a1683836119fb565b60208301905092915050565b6000602082019050919050565b6000611a3a826119cf565b611a4481856119da565b9350611a4f836119eb565b8060005b83811015611a80578151611a678882611a0a565b9750611a7283611a22565b925050600181019050611a53565b5085935050505092915050565b600060e083016000830151611aa56000860182611915565b5060208301518482036020860152611abd828261197b565b91505060408301518482036040860152611ad7828261197b565b9150506060830151611aec60608601826119c0565b5060808301518482036080860152611b04828261197b565b91505060a083015184820360a0860152611b1e8282611a2f565b91505060c0830151611b3360c0860182611915565b508091505092915050565b6000611b4a8383611a8d565b905092915050565b6000602082019050919050565b6000611b6a826118df565b611b7481856118ea565b935083602082028501611b86856118fb565b8060005b85811015611bc25784840389528151611ba38582611b3e565b9450611bae83611b52565b925060208a01995050600181019050611b8a565b50829750879550505050505092915050565b60006020820190508181036000830152611bee8184611b5f565b905092915050565b600080fd5b600080fd5b7f4e487b7100000000000000000000000000000000000000000000000000000000600052604160045260246000fd5b611c388261196a565b810181811067ffffffffffffffff82111715611c5757611c56611c00565b5b80604052505050565b6000611c6a611840565b9050611c768282611c2f565b919050565b600067ffffffffffffffff821115611c9657611c95611c00565b5b611c9f8261196a565b9050602081019050919050565b82818337600083830152505050565b6000611cce611cc984611c7b565b611c60565b905082815260208101848484011115611cea57611ce9611bfb565b5b611cf5848285611cac565b509392505050565b600082601f830112611d1257611d11611bf6565b5b8135611d22848260208601611cbb565b91505092915050565b600080600060608486031215611d4457611d4361184a565b5b600084013567ffffffffffffffff811115611d6257611d6161184f565b5b611d6e86828701611cfd565b935050602084013567ffffffffffffffff811115611d8f57611d8e61184f565b5b611d9b86828701611cfd565b925050604084013567ffffffffffffffff811115611dbc57611dbb61184f565b5b611dc886828701611cfd565b9150509250925092565b611ddb8161190b565b8114611de657600080fd5b50565b600081359050611df881611dd2565b92915050565b600060208284031215611e1457611e1361184a565b5b6000611e2284828501611de9565b91505092915050565b600060e083016000830151611e436000860182611915565b5060208301518482036020860152611e5b828261197b565b91505060408301518482036040860152611e75828261197b565b9150506060830151611e8a60608601826119c0565b5060808301518482036080860152611ea2828261197b565b91505060a083015184820360a0860152611ebc8282611a2f565b91505060c0830151611ed160c0860182611915565b508091505092915050565b60006020820190508181036000830152611ef68184611e2b565b905092915050565b611f078161190b565b82525050565b600082825260208201905092915050565b6000611f2982611924565b611f338185611f0d565b9350611f43818560208601611940565b611f4c8161196a565b840191505092915050565b611f60816119b4565b82525050565b600060c082019050611f7b6000830189611efe565b8181036020830152611f8d8188611f1e565b90508181036040830152611fa18187611f1e565b9050611fb06060830186611f57565b8181036080830152611fc28185611f1e565b9050611fd160a0830184611efe565b979650505050505050565b611fe581611874565b82525050565b60006020820190506120006000830184611fdc565b92915050565b600060208201905061201b6000830184611efe565b92915050565b7f6e6f207265636f72647300000000000000000000000000000000000000000000600082015250565b6000612057600a83611f0d565b915061206282612021565b602082019050919050565b600060208201905081810360008301526120868161204a565b9050919050565b7f4e487b7100000000000000000000000000000000000000000000000000000000600052603260045260246000fd5b7f4e487b7100000000000000000000000000000000000000000000000000000000600052601160045260246000fd5b60006120f68261190b565b91506121018361190b565b9250828203905081811115612119576121186120bc565b5b92915050565b7f4e487b7100000000000000000000000000000000000000000000000000000000600052603160045260246000fd5b60006121598261190b565b91507fffffffffffffffffffffffffffffffffffffffffffffffffffffffffffffffff820361218b5761218a6120bc565b5b600182019050919050565b7f4e487b7100000000000000000000000000000000000000000000000000000000600052602260045260246000fd5b600060028204905060018216806121dd57607f821691505b6020821081036121f0576121ef612196565b5b50919050565b60008190508160005260206000209050919050565b60006020601f8301049050919050565b600082821b905092915050565b6000600883026122587fffffffffffffffffffffffffffffffffffffffffffffffffffffffffffffffff8261221b565b612262868361221b565b95508019841693508086168417925050509392505050565b6000819050919050565b600061229f61229a6122958461190b565b61227a565b61190b565b9050919050565b6000819050919050565b6122b983612284565b6122cd6122c5826122a6565b848454612228565b825550505050565b600090565b6122e26122d5565b6122ed8184846122b0565b505050565b5b81811015612311576123066000826122da565b6001810190506122f3565b5050565b601f82111561235657612327816121f6565b6123308461220b565b8101602085101561233f578190505b61235361234b8561220b565b8301826122f2565b50505b505050565b600082821c905092915050565b60006123796000198460080261235b565b1980831691505092915050565b60006123928383612368565b9150826002028217905092915050565b6123ab82611924565b67ffffffffffffffff8111156123c4576123c3611c00565b5b6123ce82546121c5565b6123d9828285612315565b600060209050601f83116001811461240c57600084156123fa578287015190505b6124048582612386565b86555061246c565b601f19841661241a866121f6565b60005b828110156124425784890151825560018201915060208501945060208101905061241d565b8683101561245f578489015161245b601f891682612368565b8355505b6001600288020188555050505b505050505050565b600061247f8261190b565b915061248a8361190b565b92508282019050808211156124a2576124a16120bc565b5b92915050565b7f5265636f7264206e6f7420666f756e6400000000000000000000000000000000600082015250565b60006124de601083611f0d565b91506124e9826124a8565b602082019050919050565b6000602082019050818103600083015261250d816124d1565b905091905056fea2646970667358221220fb86a4bc23213493ce3a35d0b913b4c6d1f68aec38a1999c50c49cc17d7c8a4e64736f6c63430008130033",
  "linkReferences": {},
  "deployedLinkReferences": {}
}