{
  "_format": "hh-sol-artifact-1",
  "contractName": "meddata",
  "sourceName": "contracts/meddata.sol",
  "abi": [
    {
      "inputs": [],
      "stateMutability": "payable",
      "type": "constructor"
    },
    {
      "inputs": [
        {
          "internalType": "string",
          "name": "_title",
          "type": "string"
        },
        {
          "internalType": "string",
          "name": "_description",
          "type": "string"
        },
        {
          "internalType": "string",
          "name": "_imageURI",
          "type": "string"
        }
      ],
      "name": "NewRrecord",
      "outputs": [],
      "stateMutability": "payable",
      "type": "function"
    },
    {
      "inputs": [],
      "name": "firstOwner",
      "outputs": [],
      "stateMutability": "nonpayable",
      "type": "function"
    },
    {
      "inputs": [],
      "name": "getAllRecords",
      "outputs": [
        {
          "components": [
            {
              "internalType": "uint256",
              "name": "id",
              "type": "uint256"
            },
            {
              "internalType": "string",
              "name": "title",
              "type": "string"
            },
            {
              "internalType": "string",
              "name": "description",
              "type": "string"
            },
            {
              "internalType": "bool",
              "name": "islisted",
              "type": "bool"
            },
            {
              "internalType": "string",
              "name": "imageURI",
              "type": "string"
            },
            {
              "internalType": "address[]",
              "name": "owners",
              "type": "address[]"
            },
            {
              "internalType": "uint256",
              "name": "timestamp",
              "type": "uint256"
            }
          ],
          "internalType": "struct meddata.Record[]",
          "name": "",
          "type": "tuple[]"
        }
      ],
      "stateMutability": "view",
      "type": "function"
    },
    {
      "inputs": [
        {
          "internalType": "address",
          "name": "_newOwner",
          "type": "address"
        }
      ],
      "name": "newOwner",
      "outputs": [],
      "stateMutability": "payable",
      "type": "function"
    },
    {
      "inputs": [
        {
          "internalType": "uint256",
          "name": "",
          "type": "uint256"
        }
      ],
      "name": "records",
      "outputs": [
        {
          "internalType": "uint256",
          "name": "id",
          "type": "uint256"
        },
        {
          "internalType": "string",
          "name": "title",
          "type": "string"
        },
        {
          "internalType": "string",
          "name": "description",
          "type": "string"
        },
        {
          "internalType": "bool",
          "name": "islisted",
          "type": "bool"
        },
        {
          "internalType": "string",
          "name": "imageURI",
          "type": "string"
        },
        {
          "internalType": "uint256",
          "name": "timestamp",
          "type": "uint256"
        }
      ],
      "stateMutability": "view",
      "type": "function"
    },
    {
      "inputs": [
        {
          "internalType": "address",
          "name": "_removeOwner",
          "type": "address"
        }
      ],
      "name": "removeOwner",
      "outputs": [],
      "stateMutability": "payable",
      "type": "function"
    },
    {
      "inputs": [
        {
          "internalType": "uint256",
          "name": "",
          "type": "uint256"
        }
      ],
      "name": "temp",
      "outputs": [
        {
          "internalType": "address",
          "name": "",
          "type": "address"
        }
      ],
      "stateMutability": "view",
      "type": "function"
    },
    {
      "inputs": [],
      "name": "totalRecord",
      "outputs": [
        {
          "internalType": "uint256",
          "name": "",
          "type": "uint256"
        }
      ],
      "stateMutability": "view",
      "type": "function"
    }
  ],
  "bytecode": "0x6080604052611c9e806100136000396000f3fe60806040526004361061007b5760003560e01c80636c3755ad1161004e5780636c3755ad14610111578063859524541461014e578063a7f9fe721461016a578063ff35700c146101955761007b565b8063173825d9146100805780631cda164f1461009c57806334461067146100b85780636bc28781146100fa575b600080fd5b61009a60048036038101906100959190611145565b6101c0565b005b6100b660048036038101906100b191906112b8565b610526565b005b3480156100c457600080fd5b506100df60048036038101906100da9190611395565b6106c8565b6040516100f19695949392919061146b565b60405180910390f35b34801561010657600080fd5b5061010f6108b9565b005b34801561011d57600080fd5b5061013860048036038101906101339190611395565b610967565b60405161014591906114f0565b60405180910390f35b61016860048036038101906101639190611145565b6109a6565b005b34801561017657600080fd5b5061017f610b7b565b60405161018c91906117a4565b60405180910390f35b3480156101a157600080fd5b506101aa610fe7565b6040516101b791906117c6565b60405180910390f35b600060018054905011610208576040517f08c379a00000000000000000000000000000000000000000000000000000000081526004016101ff9061182d565b60405180910390fd5b60005b6001805490508110156105225760005b6001828154811061022f5761022e61184d565b5b90600052602060002090600702016005018054905081101561050e578273ffffffffffffffffffffffffffffffffffffffff16600183815481106102765761027561184d565b5b906000526020600020906007020160050182815481106102995761029861184d565b5b9060005260206000200160009054906101000a900473ffffffffffffffffffffffffffffffffffffffff1673ffffffffffffffffffffffffffffffffffffffff1614801561037357503373ffffffffffffffffffffffffffffffffffffffff166001838154811061030d5761030c61184d565b5b906000526020600020906007020160050182815481106103305761032f61184d565b5b9060005260206000200160009054906101000a900473ffffffffffffffffffffffffffffffffffffffff1673ffffffffffffffffffffffffffffffffffffffff16145b156104fb576001828154811061038c5761038b61184d565b5b906000526020600020906007020160050160018084815481106103b2576103b161184d565b5b9060005260206000209060070201600501805490506103d191906118ab565b815481106103e2576103e161184d565b5b9060005260206000200160009054906101000a900473ffffffffffffffffffffffffffffffffffffffff16600183815481106104215761042061184d565b5b906000526020600020906007020160050182815481106104445761044361184d565b5b9060005260206000200160006101000a81548173ffffffffffffffffffffffffffffffffffffffff021916908373ffffffffffffffffffffffffffffffffffffffff160217905550600182815481106104a05761049f61184d565b5b90600052602060002090600702016005018054806104c1576104c06118df565b5b6001900381819060005260206000200160006101000a81549073ffffffffffffffffffffffffffffffffffffffff0219169055905561050e565b80806105069061190e565b91505061021b565b50808061051a9061190e565b91505061020b565b5050565b61052e6108b9565b60016040518060e0016040528042815260200185815260200184815260200160011515815260200183815260200160038054806020026020016040519081016040528092919081815260200182805480156105de57602002820191906000526020600020905b8160009054906101000a900473ffffffffffffffffffffffffffffffffffffffff1673ffffffffffffffffffffffffffffffffffffffff1681526020019060010190808311610594575b505050505081526020014281525090806001815401808255809150506001900390600052602060002090600702016000909190919091506000820151816000015560208201518160010190816106349190611b62565b50604082015181600201908161064a9190611b62565b5060608201518160030160006101000a81548160ff02191690831515021790555060808201518160040190816106809190611b62565b5060a082015181600501908051906020019061069d929190610fed565b5060c08201518160060155505060016000808282546106bc9190611c34565b92505081905550505050565b600181815481106106d857600080fd5b906000526020600020906007020160009150905080600001549080600101805461070190611985565b80601f016020809104026020016040519081016040528092919081815260200182805461072d90611985565b801561077a5780601f1061074f5761010080835404028352916020019161077a565b820191906000526020600020905b81548152906001019060200180831161075d57829003601f168201915b50505050509080600201805461078f90611985565b80601f01602080910402602001604051908101604052809291908181526020018280546107bb90611985565b80156108085780601f106107dd57610100808354040283529160200191610808565b820191906000526020600020905b8154815290600101906020018083116107eb57829003601f168201915b5050505050908060030160009054906101000a900460ff169080600401805461083090611985565b80601f016020809104026020016040519081016040528092919081815260200182805461085c90611985565b80156108a95780601f1061087e576101008083540402835291602001916108a9565b820191906000526020600020905b81548152906001019060200180831161088c57829003601f168201915b5050505050908060060154905086565b6003339080600181540180825580915050600190039060005260206000200160009091909190916101000a81548173ffffffffffffffffffffffffffffffffffffffff021916908373ffffffffffffffffffffffffffffffffffffffff160217905550600180549050600260003373ffffffffffffffffffffffffffffffffffffffff1673ffffffffffffffffffffffffffffffffffffffff16815260200190815260200160002081905550565b6003818154811061097757600080fd5b906000526020600020016000915054906101000a900473ffffffffffffffffffffffffffffffffffffffff1681565b6000600180549050116109ee576040517f08c379a00000000000000000000000000000000000000000000000000000000081526004016109e59061182d565b60405180910390fd5b60005b600180549050811015610b775760005b60018281548110610a1557610a1461184d565b5b906000526020600020906007020160050180549050811015610b63573373ffffffffffffffffffffffffffffffffffffffff1660018381548110610a5c57610a5b61184d565b5b90600052602060002090600702016005018281548110610a7f57610a7e61184d565b5b9060005260206000200160009054906101000a900473ffffffffffffffffffffffffffffffffffffffff1673ffffffffffffffffffffffffffffffffffffffff1603610b505760018281548110610ad957610ad861184d565b5b9060005260206000209060070201600501839080600181540180825580915050600190039060005260206000200160009091909190916101000a81548173ffffffffffffffffffffffffffffffffffffffff021916908373ffffffffffffffffffffffffffffffffffffffff160217905550610b63565b8080610b5b9061190e565b915050610a01565b508080610b6f9061190e565b9150506109f1565b5050565b6060600060018054905011610bc5576040517f08c379a0000000000000000000000000000000000000000000000000000000008152600401610bbc9061182d565b60405180910390fd5b600060018054905067ffffffffffffffff811115610be657610be561118d565b5b604051908082528060200260200182016040528015610c1f57816020015b610c0c611077565b815260200190600190039081610c045790505b50905060005b600180549050811015610fdf5760005b60018281548110610c4957610c4861184d565b5b906000526020600020906007020160050180549050811015610fcb573373ffffffffffffffffffffffffffffffffffffffff1660018381548110610c9057610c8f61184d565b5b90600052602060002090600702016005018281548110610cb357610cb261184d565b5b9060005260206000200160009054906101000a900473ffffffffffffffffffffffffffffffffffffffff1673ffffffffffffffffffffffffffffffffffffffff1603610fb85760018281548110610d0d57610d0c61184d565b5b90600052602060002090600702016040518060e001604052908160008201548152602001600182018054610d4090611985565b80601f0160208091040260200160405190810160405280929190818152602001828054610d6c90611985565b8015610db95780601f10610d8e57610100808354040283529160200191610db9565b820191906000526020600020905b815481529060010190602001808311610d9c57829003601f168201915b50505050508152602001600282018054610dd290611985565b80601f0160208091040260200160405190810160405280929190818152602001828054610dfe90611985565b8015610e4b5780601f10610e2057610100808354040283529160200191610e4b565b820191906000526020600020905b815481529060010190602001808311610e2e57829003601f168201915b505050505081526020016003820160009054906101000a900460ff16151515158152602001600482018054610e7f90611985565b80601f0160208091040260200160405190810160405280929190818152602001828054610eab90611985565b8015610ef85780601f10610ecd57610100808354040283529160200191610ef8565b820191906000526020600020905b815481529060010190602001808311610edb57829003601f168201915b5050505050815260200160058201805480602002602001604051908101604052809291908181526020018280548015610f8657602002820191906000526020600020905b8160009054906101000a900473ffffffffffffffffffffffffffffffffffffffff1673ffffffffffffffffffffffffffffffffffffffff1681526020019060010190808311610f3c575b50505050508152602001600682015481525050838381518110610fac57610fab61184d565b5b60200260200101819052505b8080610fc39061190e565b915050610c35565b508080610fd79061190e565b915050610c25565b508091505090565b60005481565b828054828255906000526020600020908101928215611066579160200282015b828111156110655782518260006101000a81548173ffffffffffffffffffffffffffffffffffffffff021916908373ffffffffffffffffffffffffffffffffffffffff1602179055509160200191906001019061100d565b5b50905061107391906110b6565b5090565b6040518060e001604052806000815260200160608152602001606081526020016000151581526020016060815260200160608152602001600081525090565b5b808211156110cf5760008160009055506001016110b7565b5090565b6000604051905090565b600080fd5b600080fd5b600073ffffffffffffffffffffffffffffffffffffffff82169050919050565b6000611112826110e7565b9050919050565b61112281611107565b811461112d57600080fd5b50565b60008135905061113f81611119565b92915050565b60006020828403121561115b5761115a6110dd565b5b600061116984828501611130565b91505092915050565b600080fd5b600080fd5b6000601f19601f8301169050919050565b7f4e487b7100000000000000000000000000000000000000000000000000000000600052604160045260246000fd5b6111c58261117c565b810181811067ffffffffffffffff821117156111e4576111e361118d565b5b80604052505050565b60006111f76110d3565b905061120382826111bc565b919050565b600067ffffffffffffffff8211156112235761122261118d565b5b61122c8261117c565b9050602081019050919050565b82818337600083830152505050565b600061125b61125684611208565b6111ed565b90508281526020810184848401111561127757611276611177565b5b611282848285611239565b509392505050565b600082601f83011261129f5761129e611172565b5b81356112af848260208601611248565b91505092915050565b6000806000606084860312156112d1576112d06110dd565b5b600084013567ffffffffffffffff8111156112ef576112ee6110e2565b5b6112fb8682870161128a565b935050602084013567ffffffffffffffff81111561131c5761131b6110e2565b5b6113288682870161128a565b925050604084013567ffffffffffffffff811115611349576113486110e2565b5b6113558682870161128a565b9150509250925092565b6000819050919050565b6113728161135f565b811461137d57600080fd5b50565b60008135905061138f81611369565b92915050565b6000602082840312156113ab576113aa6110dd565b5b60006113b984828501611380565b91505092915050565b6113cb8161135f565b82525050565b600081519050919050565b600082825260208201905092915050565b60005b8381101561140b5780820151818401526020810190506113f0565b60008484015250505050565b6000611422826113d1565b61142c81856113dc565b935061143c8185602086016113ed565b6114458161117c565b840191505092915050565b60008115159050919050565b61146581611450565b82525050565b600060c08201905061148060008301896113c2565b81810360208301526114928188611417565b905081810360408301526114a68187611417565b90506114b5606083018661145c565b81810360808301526114c78185611417565b90506114d660a08301846113c2565b979650505050505050565b6114ea81611107565b82525050565b600060208201905061150560008301846114e1565b92915050565b600081519050919050565b600082825260208201905092915050565b6000819050602082019050919050565b6115408161135f565b82525050565b600082825260208201905092915050565b6000611562826113d1565b61156c8185611546565b935061157c8185602086016113ed565b6115858161117c565b840191505092915050565b61159981611450565b82525050565b600081519050919050565b600082825260208201905092915050565b6000819050602082019050919050565b6115d481611107565b82525050565b60006115e683836115cb565b60208301905092915050565b6000602082019050919050565b600061160a8261159f565b61161481856115aa565b935061161f836115bb565b8060005b8381101561165057815161163788826115da565b9750611642836115f2565b925050600181019050611623565b5085935050505092915050565b600060e0830160008301516116756000860182611537565b506020830151848203602086015261168d8282611557565b915050604083015184820360408601526116a78282611557565b91505060608301516116bc6060860182611590565b50608083015184820360808601526116d48282611557565b91505060a083015184820360a08601526116ee82826115ff565b91505060c083015161170360c0860182611537565b508091505092915050565b600061171a838361165d565b905092915050565b6000602082019050919050565b600061173a8261150b565b6117448185611516565b93508360208202850161175685611527565b8060005b858110156117925784840389528151611773858261170e565b945061177e83611722565b925060208a0199505060018101905061175a565b50829750879550505050505092915050565b600060208201905081810360008301526117be818461172f565b905092915050565b60006020820190506117db60008301846113c2565b92915050565b7f6e6f207265636f72647300000000000000000000000000000000000000000000600082015250565b6000611817600a836113dc565b9150611822826117e1565b602082019050919050565b600060208201905081810360008301526118468161180a565b9050919050565b7f4e487b7100000000000000000000000000000000000000000000000000000000600052603260045260246000fd5b7f4e487b7100000000000000000000000000000000000000000000000000000000600052601160045260246000fd5b60006118b68261135f565b91506118c18361135f565b92508282039050818111156118d9576118d861187c565b5b92915050565b7f4e487b7100000000000000000000000000000000000000000000000000000000600052603160045260246000fd5b60006119198261135f565b91507fffffffffffffffffffffffffffffffffffffffffffffffffffffffffffffffff820361194b5761194a61187c565b5b600182019050919050565b7f4e487b7100000000000000000000000000000000000000000000000000000000600052602260045260246000fd5b6000600282049050600182168061199d57607f821691505b6020821081036119b0576119af611956565b5b50919050565b60008190508160005260206000209050919050565b60006020601f8301049050919050565b600082821b905092915050565b600060088302611a187fffffffffffffffffffffffffffffffffffffffffffffffffffffffffffffffff826119db565b611a2286836119db565b95508019841693508086168417925050509392505050565b6000819050919050565b6000611a5f611a5a611a558461135f565b611a3a565b61135f565b9050919050565b6000819050919050565b611a7983611a44565b611a8d611a8582611a66565b8484546119e8565b825550505050565b600090565b611aa2611a95565b611aad818484611a70565b505050565b5b81811015611ad157611ac6600082611a9a565b600181019050611ab3565b5050565b601f821115611b1657611ae7816119b6565b611af0846119cb565b81016020851015611aff578190505b611b13611b0b856119cb565b830182611ab2565b50505b505050565b600082821c905092915050565b6000611b3960001984600802611b1b565b1980831691505092915050565b6000611b528383611b28565b9150826002028217905092915050565b611b6b826113d1565b67ffffffffffffffff811115611b8457611b8361118d565b5b611b8e8254611985565b611b99828285611ad5565b600060209050601f831160018114611bcc5760008415611bba578287015190505b611bc48582611b46565b865550611c2c565b601f198416611bda866119b6565b60005b82811015611c0257848901518255600182019150602085019450602081019050611bdd565b86831015611c1f5784890151611c1b601f891682611b28565b8355505b6001600288020188555050505b505050505050565b6000611c3f8261135f565b9150611c4a8361135f565b9250828201905080821115611c6257611c6161187c565b5b9291505056fea2646970667358221220da1bd1783690c4d2109d056d39f70fe4229a9a8df71aecfd2bd20ad0c1178ee364736f6c63430008130033",
  "linkReferences": {},
  "deployedLinkReferences": {}
}