{
  "_format": "hh-sol-artifact-1",
  "contractName": "meddata",
  "sourceName": "contracts/meddata.sol",
  "abi": [
    {
      "inputs": [],
      "stateMutability": "payable",
      "type": "constructor"
    },
    {
      "inputs": [
        {
          "internalType": "string",
          "name": "_title",
          "type": "string"
        },
        {
          "internalType": "string",
          "name": "_description",
          "type": "string"
        },
        {
          "internalType": "string",
          "name": "_imageURL",
          "type": "string"
        }
      ],
      "name": "NewRrecord",
      "outputs": [],
      "stateMutability": "payable",
      "type": "function"
    },
    {
      "inputs": [
        {
          "internalType": "uint256",
          "name": "id",
          "type": "uint256"
        }
      ],
      "name": "getAccessList",
      "outputs": [
        {
          "internalType": "address[]",
          "name": "",
          "type": "address[]"
        }
      ],
      "stateMutability": "view",
      "type": "function"
    },
    {
      "inputs": [],
      "name": "getAllRecords",
      "outputs": [
        {
          "components": [
            {
              "internalType": "uint256",
              "name": "id",
              "type": "uint256"
            },
            {
              "internalType": "string",
              "name": "title",
              "type": "string"
            },
            {
              "internalType": "string",
              "name": "description",
              "type": "string"
            },
            {
              "internalType": "bool",
              "name": "islisted",
              "type": "bool"
            },
            {
              "internalType": "string",
              "name": "imageURL",
              "type": "string"
            },
            {
              "internalType": "address",
              "name": "owner",
              "type": "address"
            },
            {
              "internalType": "address[]",
              "name": "accessibleBy",
              "type": "address[]"
            },
            {
              "internalType": "uint256",
              "name": "timestamp",
              "type": "uint256"
            }
          ],
          "internalType": "struct meddata.Record[]",
          "name": "",
          "type": "tuple[]"
        }
      ],
      "stateMutability": "view",
      "type": "function"
    },
    {
      "inputs": [
        {
          "internalType": "uint256",
          "name": "_id",
          "type": "uint256"
        }
      ],
      "name": "getOneRecord",
      "outputs": [
        {
          "components": [
            {
              "internalType": "uint256",
              "name": "id",
              "type": "uint256"
            },
            {
              "internalType": "string",
              "name": "title",
              "type": "string"
            },
            {
              "internalType": "string",
              "name": "description",
              "type": "string"
            },
            {
              "internalType": "bool",
              "name": "islisted",
              "type": "bool"
            },
            {
              "internalType": "string",
              "name": "imageURL",
              "type": "string"
            },
            {
              "internalType": "address",
              "name": "owner",
              "type": "address"
            },
            {
              "internalType": "address[]",
              "name": "accessibleBy",
              "type": "address[]"
            },
            {
              "internalType": "uint256",
              "name": "timestamp",
              "type": "uint256"
            }
          ],
          "internalType": "struct meddata.Record",
          "name": "",
          "type": "tuple"
        }
      ],
      "stateMutability": "view",
      "type": "function"
    },
    {
      "inputs": [
        {
          "internalType": "address",
          "name": "_newOwner",
          "type": "address"
        },
        {
          "internalType": "uint256",
          "name": "id",
          "type": "uint256"
        }
      ],
      "name": "newOwner",
      "outputs": [],
      "stateMutability": "nonpayable",
      "type": "function"
    },
    {
      "inputs": [
        {
          "internalType": "uint256",
          "name": "",
          "type": "uint256"
        }
      ],
      "name": "records",
      "outputs": [
        {
          "internalType": "uint256",
          "name": "id",
          "type": "uint256"
        },
        {
          "internalType": "string",
          "name": "title",
          "type": "string"
        },
        {
          "internalType": "string",
          "name": "description",
          "type": "string"
        },
        {
          "internalType": "bool",
          "name": "islisted",
          "type": "bool"
        },
        {
          "internalType": "string",
          "name": "imageURL",
          "type": "string"
        },
        {
          "internalType": "address",
          "name": "owner",
          "type": "address"
        },
        {
          "internalType": "uint256",
          "name": "timestamp",
          "type": "uint256"
        }
      ],
      "stateMutability": "view",
      "type": "function"
    },
    {
      "inputs": [
        {
          "internalType": "address",
          "name": "_removeOwner",
          "type": "address"
        },
        {
          "internalType": "uint256",
          "name": "id",
          "type": "uint256"
        }
      ],
      "name": "removeOwner",
      "outputs": [],
      "stateMutability": "nonpayable",
      "type": "function"
    }
  ],
  "bytecode": "0x6080604052600067ffffffffffffffff8111156200002257620000216200011e565b5b604051908082528060200260200182016040528015620000515781602001602082028036833780820191505090505b50600390805190602001906200006992919062000070565b506200014d565b828054828255906000526020600020908101928215620000ec579160200282015b82811115620000eb5782518260006101000a81548173ffffffffffffffffffffffffffffffffffffffff021916908373ffffffffffffffffffffffffffffffffffffffff1602179055509160200191906001019062000091565b5b509050620000fb9190620000ff565b5090565b5b808211156200011a57600081600090555060010162000100565b5090565b7f4e487b7100000000000000000000000000000000000000000000000000000000600052604160045260246000fd5b612eb1806200015d6000396000f3fe6080604052600436106100705760003560e01c8063344610671161004e57806334461067146100f7578063a7f9fe721461013a578063bfd2b3a314610165578063f31bb1771461018e57610070565b80631cda164f14610075578063298ba2be1461009157806332be3640146100ce575b600080fd5b61008f600480360381019061008a9190611eb9565b6101cb565b005b34801561009d57600080fd5b506100b860048036038101906100b39190611f96565b61053a565b6040516100c59190612221565b60405180910390f35b3480156100da57600080fd5b506100f560048036038101906100f0919061226f565b6109ae565b005b34801561010357600080fd5b5061011e60048036038101906101199190611f96565b610d50565b6040516101319796959493929190612326565b60405180910390f35b34801561014657600080fd5b5061014f610f67565b60405161015c9190612531565b60405180910390f35b34801561017157600080fd5b5061018c6004803603810190610187919061226f565b611460565b005b34801561019a57600080fd5b506101b560048036038101906101b09190611f96565b611b61565b6040516101c291906125c2565b60405180910390f35b600160003373ffffffffffffffffffffffffffffffffffffffff1673ffffffffffffffffffffffffffffffffffffffff1681526020019081526020016000206000805490509080600181540180825580915050600190039060005260206000200160009091909190915055600260003373ffffffffffffffffffffffffffffffffffffffff1673ffffffffffffffffffffffffffffffffffffffff16815260200190815260200160002060008054905090806001815401808255809150506001900390600052602060002001600090919091909150556000808054905090506003339080600181540180825580915050600190039060005260206000200160009091909190916101000a81548173ffffffffffffffffffffffffffffffffffffffff021916908373ffffffffffffffffffffffffffffffffffffffff16021790555060006040518061010001604052808381526020018681526020018581526020016001151581526020018481526020013373ffffffffffffffffffffffffffffffffffffffff16815260200160038054806020026020016040519081016040528092919081815260200182805480156103da57602002820191906000526020600020905b8160009054906101000a900473ffffffffffffffffffffffffffffffffffffffff1673ffffffffffffffffffffffffffffffffffffffff1681526020019060010190808311610390575b5050505050815260200142815250908060018154018082558091505060019003906000526020600020906008020160009091909190915060008201518160000155602082015181600101908161043091906127f0565b50604082015181600201908161044691906127f0565b5060608201518160030160006101000a81548160ff021916908315150217905550608082015181600401908161047c91906127f0565b5060a08201518160050160006101000a81548173ffffffffffffffffffffffffffffffffffffffff021916908373ffffffffffffffffffffffffffffffffffffffff16021790555060c08201518160060190805190602001906104e0929190611c5b565b5060e08201518160070155505060038054806104ff576104fe6128c2565b5b6001900381819060005260206000200160006101000a81549073ffffffffffffffffffffffffffffffffffffffff0219169055905550505050565b610542611ce5565b6000805490508210610589576040517f08c379a00000000000000000000000000000000000000000000000000000000081526004016105809061293d565b60405180910390fd5b600080838154811061059e5761059d61295d565b5b906000526020600020906008020160405180610100016040529081600082015481526020016001820180546105d290612613565b80601f01602080910402602001604051908101604052809291908181526020018280546105fe90612613565b801561064b5780601f106106205761010080835404028352916020019161064b565b820191906000526020600020905b81548152906001019060200180831161062e57829003601f168201915b5050505050815260200160028201805461066490612613565b80601f016020809104026020016040519081016040528092919081815260200182805461069090612613565b80156106dd5780601f106106b2576101008083540402835291602001916106dd565b820191906000526020600020905b8154815290600101906020018083116106c057829003601f168201915b505050505081526020016003820160009054906101000a900460ff1615151515815260200160048201805461071190612613565b80601f016020809104026020016040519081016040528092919081815260200182805461073d90612613565b801561078a5780601f1061075f5761010080835404028352916020019161078a565b820191906000526020600020905b81548152906001019060200180831161076d57829003601f168201915b505050505081526020016005820160009054906101000a900473ffffffffffffffffffffffffffffffffffffffff1673ffffffffffffffffffffffffffffffffffffffff1673ffffffffffffffffffffffffffffffffffffffff1681526020016006820180548060200260200160405190810160405280929190818152602001828054801561086e57602002820191906000526020600020905b8160009054906101000a900473ffffffffffffffffffffffffffffffffffffffff1673ffffffffffffffffffffffffffffffffffffffff1681526020019060010190808311610824575b5050505050815260200160078201548152505090506000805b6000858154811061089b5761089a61295d565b5b906000526020600020906008020160060180549050811015610963573373ffffffffffffffffffffffffffffffffffffffff16600086815481106108e2576108e161295d565b5b906000526020600020906008020160060182815481106109055761090461295d565b5b9060005260206000200160009054906101000a900473ffffffffffffffffffffffffffffffffffffffff1673ffffffffffffffffffffffffffffffffffffffff160361095057600191505b808061095b906129bb565b915050610887565b50806109a4576040517f08c379a000000000000000000000000000000000000000000000000000000000815260040161099b90612a75565b60405180910390fd5b8192505050919050565b60008054905081106109f5576040517f08c379a00000000000000000000000000000000000000000000000000000000081526004016109ec90612ae1565b60405180910390fd5b60008181548110610a0957610a0861295d565b5b906000526020600020906008020160050160009054906101000a900473ffffffffffffffffffffffffffffffffffffffff1673ffffffffffffffffffffffffffffffffffffffff163373ffffffffffffffffffffffffffffffffffffffff1614610aa8576040517f08c379a0000000000000000000000000000000000000000000000000000000008152600401610a9f90612b4d565b60405180910390fd5b60008181548110610abc57610abb61295d565b5b906000526020600020906008020160050160009054906101000a900473ffffffffffffffffffffffffffffffffffffffff1673ffffffffffffffffffffffffffffffffffffffff168273ffffffffffffffffffffffffffffffffffffffff1603610b5b576040517f08c379a0000000000000000000000000000000000000000000000000000000008152600401610b5290612bdf565b60405180910390fd5b60005b600160008473ffffffffffffffffffffffffffffffffffffffff1673ffffffffffffffffffffffffffffffffffffffff16815260200190815260200160002080549050811015610c5f57600160008473ffffffffffffffffffffffffffffffffffffffff1673ffffffffffffffffffffffffffffffffffffffff1681526020019081526020016000208181548110610bf957610bf861295d565b5b90600052602060002001548203610c4c576000610c4b576040517f08c379a0000000000000000000000000000000000000000000000000000000008152600401610c4290612c71565b60405180910390fd5b5b8080610c57906129bb565b915050610b5e565b50600160008373ffffffffffffffffffffffffffffffffffffffff1673ffffffffffffffffffffffffffffffffffffffff16815260200190815260200160002081908060018154018082558091505060019003906000526020600020016000909190919091505560008181548110610cda57610cd961295d565b5b9060005260206000209060080201600601829080600181540180825580915050600190039060005260206000200160009091909190916101000a81548173ffffffffffffffffffffffffffffffffffffffff021916908373ffffffffffffffffffffffffffffffffffffffff1602179055505050565b60008181548110610d6057600080fd5b9060005260206000209060080201600091509050806000015490806001018054610d8990612613565b80601f0160208091040260200160405190810160405280929190818152602001828054610db590612613565b8015610e025780601f10610dd757610100808354040283529160200191610e02565b820191906000526020600020905b815481529060010190602001808311610de557829003601f168201915b505050505090806002018054610e1790612613565b80601f0160208091040260200160405190810160405280929190818152602001828054610e4390612613565b8015610e905780601f10610e6557610100808354040283529160200191610e90565b820191906000526020600020905b815481529060010190602001808311610e7357829003601f168201915b5050505050908060030160009054906101000a900460ff1690806004018054610eb890612613565b80601f0160208091040260200160405190810160405280929190818152602001828054610ee490612613565b8015610f315780601f10610f0657610100808354040283529160200191610f31565b820191906000526020600020905b815481529060010190602001808311610f1457829003601f168201915b5050505050908060050160009054906101000a900473ffffffffffffffffffffffffffffffffffffffff16908060070154905087565b60606000600160003373ffffffffffffffffffffffffffffffffffffffff1673ffffffffffffffffffffffffffffffffffffffff1681526020019081526020016000208054905011610fee576040517f08c379a0000000000000000000000000000000000000000000000000000000008152600401610fe590612cdd565b60405180910390fd5b6000600160003373ffffffffffffffffffffffffffffffffffffffff1673ffffffffffffffffffffffffffffffffffffffff1681526020019081526020016000208054905067ffffffffffffffff81111561104c5761104b611d8e565b5b60405190808252806020026020018201604052801561108557816020015b611072611ce5565b81526020019060019003908161106a5790505b50905060005b600160003373ffffffffffffffffffffffffffffffffffffffff1673ffffffffffffffffffffffffffffffffffffffff16815260200190815260200160002080549050811015611458576000600160003373ffffffffffffffffffffffffffffffffffffffff1673ffffffffffffffffffffffffffffffffffffffff16815260200190815260200160002082815481106111285761112761295d565b5b9060005260206000200154815481106111445761114361295d565b5b9060005260206000209060080201604051806101000160405290816000820154815260200160018201805461117890612613565b80601f01602080910402602001604051908101604052809291908181526020018280546111a490612613565b80156111f15780601f106111c6576101008083540402835291602001916111f1565b820191906000526020600020905b8154815290600101906020018083116111d457829003601f168201915b5050505050815260200160028201805461120a90612613565b80601f016020809104026020016040519081016040528092919081815260200182805461123690612613565b80156112835780601f1061125857610100808354040283529160200191611283565b820191906000526020600020905b81548152906001019060200180831161126657829003601f168201915b505050505081526020016003820160009054906101000a900460ff161515151581526020016004820180546112b790612613565b80601f01602080910402602001604051908101604052809291908181526020018280546112e390612613565b80156113305780601f1061130557610100808354040283529160200191611330565b820191906000526020600020905b81548152906001019060200180831161131357829003601f168201915b505050505081526020016005820160009054906101000a900473ffffffffffffffffffffffffffffffffffffffff1673ffffffffffffffffffffffffffffffffffffffff1673ffffffffffffffffffffffffffffffffffffffff1681526020016006820180548060200260200160405190810160405280929190818152602001828054801561141457602002820191906000526020600020905b8160009054906101000a900473ffffffffffffffffffffffffffffffffffffffff1673ffffffffffffffffffffffffffffffffffffffff16815260200190600101908083116113ca575b5050505050815260200160078201548152505082828151811061143a5761143961295d565b5b60200260200101819052508080611450906129bb565b91505061108b565b508091505090565b60008054905081106114a7576040517f08c379a000000000000000000000000000000000000000000000000000000000815260040161149e90612ae1565b60405180910390fd5b600081815481106114bb576114ba61295d565b5b906000526020600020906008020160050160009054906101000a900473ffffffffffffffffffffffffffffffffffffffff1673ffffffffffffffffffffffffffffffffffffffff163373ffffffffffffffffffffffffffffffffffffffff161461155a576040517f08c379a000000000000000000000000000000000000000000000000000000000815260040161155190612b4d565b60405180910390fd5b3373ffffffffffffffffffffffffffffffffffffffff168273ffffffffffffffffffffffffffffffffffffffff16036115c8576040517f08c379a00000000000000000000000000000000000000000000000000000000081526004016115bf90612d95565b60405180910390fd5b6000600160008473ffffffffffffffffffffffffffffffffffffffff1673ffffffffffffffffffffffffffffffffffffffff16815260200190815260200160002080549050905060005b600160008573ffffffffffffffffffffffffffffffffffffffff1673ffffffffffffffffffffffffffffffffffffffff16815260200190815260200160002080549050811015611b1957600160008573ffffffffffffffffffffffffffffffffffffffff1673ffffffffffffffffffffffffffffffffffffffff16815260200190815260200160002081815481106116ad576116ac61295d565b5b90600052602060002001548303611b0657600160008573ffffffffffffffffffffffffffffffffffffffff1673ffffffffffffffffffffffffffffffffffffffff1681526020019081526020016000208054905060010361177257600160008573ffffffffffffffffffffffffffffffffffffffff1673ffffffffffffffffffffffffffffffffffffffff168152602001908152602001600020805480611757576117566128c2565b5b6001900381819060005260206000200160009055905561189f565b600160008573ffffffffffffffffffffffffffffffffffffffff1673ffffffffffffffffffffffffffffffffffffffff1681526020019081526020016000206001836117be9190612db5565b815481106117cf576117ce61295d565b5b9060005260206000200154600160008673ffffffffffffffffffffffffffffffffffffffff1673ffffffffffffffffffffffffffffffffffffffff168152602001908152602001600020828154811061182b5761182a61295d565b5b9060005260206000200181905550600160008573ffffffffffffffffffffffffffffffffffffffff1673ffffffffffffffffffffffffffffffffffffffff168152602001908152602001600020805480611888576118876128c2565b5b600190038181906000526020600020016000905590555b60008084815481106118b4576118b361295d565b5b906000526020600020906008020160060180549050905060005b600085815481106118e2576118e161295d565b5b906000526020600020906008020160060180549050811015611afd57600085815481106119125761191161295d565b5b906000526020600020906008020160060181815481106119355761193461295d565b5b9060005260206000200160009054906101000a900473ffffffffffffffffffffffffffffffffffffffff1673ffffffffffffffffffffffffffffffffffffffff168673ffffffffffffffffffffffffffffffffffffffff1603611aea57600085815481106119a6576119a561295d565b5b90600052602060002090600802016006016001836119c49190612db5565b815481106119d5576119d461295d565b5b9060005260206000200160009054906101000a900473ffffffffffffffffffffffffffffffffffffffff1660008681548110611a1457611a1361295d565b5b90600052602060002090600802016006018281548110611a3757611a3661295d565b5b9060005260206000200160006101000a81548173ffffffffffffffffffffffffffffffffffffffff021916908373ffffffffffffffffffffffffffffffffffffffff16021790555060008581548110611a9357611a9261295d565b5b9060005260206000209060080201600601805480611ab457611ab36128c2565b5b6001900381819060005260206000200160006101000a81549073ffffffffffffffffffffffffffffffffffffffff021916905590555b8080611af5906129bb565b9150506118ce565b50505050611b5d565b8080611b11906129bb565b915050611612565b506000611b5b576040517f08c379a0000000000000000000000000000000000000000000000000000000008152600401611b5290612e5b565b60405180910390fd5b505b5050565b60606000805490508210611baa576040517f08c379a0000000000000000000000000000000000000000000000000000000008152600401611ba190612ae1565b60405180910390fd5b60008281548110611bbe57611bbd61295d565b5b9060005260206000209060080201600601805480602002602001604051908101604052809291908181526020018280548015611c4f57602002820191906000526020600020905b8160009054906101000a900473ffffffffffffffffffffffffffffffffffffffff1673ffffffffffffffffffffffffffffffffffffffff1681526020019060010190808311611c05575b50505050509050919050565b828054828255906000526020600020908101928215611cd4579160200282015b82811115611cd35782518260006101000a81548173ffffffffffffffffffffffffffffffffffffffff021916908373ffffffffffffffffffffffffffffffffffffffff16021790555091602001919060010190611c7b565b5b509050611ce19190611d42565b5090565b60405180610100016040528060008152602001606081526020016060815260200160001515815260200160608152602001600073ffffffffffffffffffffffffffffffffffffffff16815260200160608152602001600081525090565b5b80821115611d5b576000816000905550600101611d43565b5090565b6000604051905090565b600080fd5b600080fd5b600080fd5b600080fd5b6000601f19601f8301169050919050565b7f4e487b7100000000000000000000000000000000000000000000000000000000600052604160045260246000fd5b611dc682611d7d565b810181811067ffffffffffffffff82111715611de557611de4611d8e565b5b80604052505050565b6000611df8611d5f565b9050611e048282611dbd565b919050565b600067ffffffffffffffff821115611e2457611e23611d8e565b5b611e2d82611d7d565b9050602081019050919050565b82818337600083830152505050565b6000611e5c611e5784611e09565b611dee565b905082815260208101848484011115611e7857611e77611d78565b5b611e83848285611e3a565b509392505050565b600082601f830112611ea057611e9f611d73565b5b8135611eb0848260208601611e49565b91505092915050565b600080600060608486031215611ed257611ed1611d69565b5b600084013567ffffffffffffffff811115611ef057611eef611d6e565b5b611efc86828701611e8b565b935050602084013567ffffffffffffffff811115611f1d57611f1c611d6e565b5b611f2986828701611e8b565b925050604084013567ffffffffffffffff811115611f4a57611f49611d6e565b5b611f5686828701611e8b565b9150509250925092565b6000819050919050565b611f7381611f60565b8114611f7e57600080fd5b50565b600081359050611f9081611f6a565b92915050565b600060208284031215611fac57611fab611d69565b5b6000611fba84828501611f81565b91505092915050565b611fcc81611f60565b82525050565b600081519050919050565b600082825260208201905092915050565b60005b8381101561200c578082015181840152602081019050611ff1565b60008484015250505050565b600061202382611fd2565b61202d8185611fdd565b935061203d818560208601611fee565b61204681611d7d565b840191505092915050565b60008115159050919050565b61206681612051565b82525050565b600073ffffffffffffffffffffffffffffffffffffffff82169050919050565b60006120978261206c565b9050919050565b6120a78161208c565b82525050565b600081519050919050565b600082825260208201905092915050565b6000819050602082019050919050565b60006120e5838361209e565b60208301905092915050565b6000602082019050919050565b6000612109826120ad565b61211381856120b8565b935061211e836120c9565b8060005b8381101561214f57815161213688826120d9565b9750612141836120f1565b925050600181019050612122565b5085935050505092915050565b6000610100830160008301516121756000860182611fc3565b506020830151848203602086015261218d8282612018565b915050604083015184820360408601526121a78282612018565b91505060608301516121bc606086018261205d565b50608083015184820360808601526121d48282612018565b91505060a08301516121e960a086018261209e565b5060c083015184820360c086015261220182826120fe565b91505060e083015161221660e0860182611fc3565b508091505092915050565b6000602082019050818103600083015261223b818461215c565b905092915050565b61224c8161208c565b811461225757600080fd5b50565b60008135905061226981612243565b92915050565b6000806040838503121561228657612285611d69565b5b60006122948582860161225a565b92505060206122a585828601611f81565b9150509250929050565b6122b881611f60565b82525050565b600082825260208201905092915050565b60006122da82611fd2565b6122e481856122be565b93506122f4818560208601611fee565b6122fd81611d7d565b840191505092915050565b61231181612051565b82525050565b6123208161208c565b82525050565b600060e08201905061233b600083018a6122af565b818103602083015261234d81896122cf565b9050818103604083015261236181886122cf565b90506123706060830187612308565b818103608083015261238281866122cf565b905061239160a0830185612317565b61239e60c08301846122af565b98975050505050505050565b600081519050919050565b600082825260208201905092915050565b6000819050602082019050919050565b6000610100830160008301516123ef6000860182611fc3565b50602083015184820360208601526124078282612018565b915050604083015184820360408601526124218282612018565b9150506060830151612436606086018261205d565b506080830151848203608086015261244e8282612018565b91505060a083015161246360a086018261209e565b5060c083015184820360c086015261247b82826120fe565b91505060e083015161249060e0860182611fc3565b508091505092915050565b60006124a783836123d6565b905092915050565b6000602082019050919050565b60006124c7826123aa565b6124d181856123b5565b9350836020820285016124e3856123c6565b8060005b8581101561251f5784840389528151612500858261249b565b945061250b836124af565b925060208a019950506001810190506124e7565b50829750879550505050505092915050565b6000602082019050818103600083015261254b81846124bc565b905092915050565b600082825260208201905092915050565b600061256f826120ad565b6125798185612553565b9350612584836120c9565b8060005b838110156125b557815161259c88826120d9565b97506125a7836120f1565b925050600181019050612588565b5085935050505092915050565b600060208201905081810360008301526125dc8184612564565b905092915050565b7f4e487b7100000000000000000000000000000000000000000000000000000000600052602260045260246000fd5b6000600282049050600182168061262b57607f821691505b60208210810361263e5761263d6125e4565b5b50919050565b60008190508160005260206000209050919050565b60006020601f8301049050919050565b600082821b905092915050565b6000600883026126a67fffffffffffffffffffffffffffffffffffffffffffffffffffffffffffffffff82612669565b6126b08683612669565b95508019841693508086168417925050509392505050565b6000819050919050565b60006126ed6126e86126e384611f60565b6126c8565b611f60565b9050919050565b6000819050919050565b612707836126d2565b61271b612713826126f4565b848454612676565b825550505050565b600090565b612730612723565b61273b8184846126fe565b505050565b5b8181101561275f57612754600082612728565b600181019050612741565b5050565b601f8211156127a45761277581612644565b61277e84612659565b8101602085101561278d578190505b6127a161279985612659565b830182612740565b50505b505050565b600082821c905092915050565b60006127c7600019846008026127a9565b1980831691505092915050565b60006127e083836127b6565b9150826002028217905092915050565b6127f982611fd2565b67ffffffffffffffff81111561281257612811611d8e565b5b61281c8254612613565b612827828285612763565b600060209050601f83116001811461285a5760008415612848578287015190505b61285285826127d4565b8655506128ba565b601f19841661286886612644565b60005b828110156128905784890151825560018201915060208501945060208101905061286b565b868310156128ad57848901516128a9601f8916826127b6565b8355505b6001600288020188555050505b505050505050565b7f4e487b7100000000000000000000000000000000000000000000000000000000600052603160045260246000fd5b7f676976656e2066696c65206964206973206e6f74206578697374730000000000600082015250565b6000612927601b836122be565b9150612932826128f1565b602082019050919050565b600060208201905081810360008301526129568161291a565b9050919050565b7f4e487b7100000000000000000000000000000000000000000000000000000000600052603260045260246000fd5b7f4e487b7100000000000000000000000000000000000000000000000000000000600052601160045260246000fd5b60006129c682611f60565b91507fffffffffffffffffffffffffffffffffffffffffffffffffffffffffffffffff82036129f8576129f761298c565b5b600182019050919050565b7f796f7520646f6e277420686176652061636365737320746f207468697320666960008201527f6c65000000000000000000000000000000000000000000000000000000000000602082015250565b6000612a5f6022836122be565b9150612a6a82612a03565b604082019050919050565b60006020820190508181036000830152612a8e81612a52565b9050919050565b7f676976652066696c6520696420697320696e76616c6964000000000000000000600082015250565b6000612acb6017836122be565b9150612ad682612a95565b602082019050919050565b60006020820190508181036000830152612afa81612abe565b9050919050565b7f796f7520617265206e6f74206f776e6572206f6620746869732066696c650000600082015250565b6000612b37601e836122be565b9150612b4282612b01565b602082019050919050565b60006020820190508181036000830152612b6681612b2a565b9050919050565b7f6173206f776e6572206f6620746869732066696c6520796f7520616c7265616460008201527f2068617665206120616363657373000000000000000000000000000000000000602082015250565b6000612bc9602e836122be565b9150612bd482612b6d565b604082019050919050565b60006020820190508181036000830152612bf881612bbc565b9050919050565b7f74686973206164647265737320616c726561647920686176652061206163636560008201527f737320746f20746869732066696c650000000000000000000000000000000000602082015250565b6000612c5b602f836122be565b9150612c6682612bff565b604082019050919050565b60006020820190508181036000830152612c8a81612c4e565b9050919050565b7f6e6f207265636f72647300000000000000000000000000000000000000000000600082015250565b6000612cc7600a836122be565b9150612cd282612c91565b602082019050919050565b60006020820190508181036000830152612cf681612cba565b9050919050565b7f796f7520617265206f776e6572206f66207468652066696c6520616e6420796f60008201527f752063616e27742072656d6f766520796f75722073656c662066726f6d20616360208201527f63657373696e672074686973206669656c000000000000000000000000000000604082015250565b6000612d7f6051836122be565b9150612d8a82612cfd565b606082019050919050565b60006020820190508181036000830152612dae81612d72565b9050919050565b6000612dc082611f60565b9150612dcb83611f60565b9250828203905081811115612de357612de261298c565b5b92915050565b7f796f7520646f65736e277420676976652061636365737320746f20746869732060008201527f6164647265737320617420616c6c212100000000000000000000000000000000602082015250565b6000612e456030836122be565b9150612e5082612de9565b604082019050919050565b60006020820190508181036000830152612e7481612e38565b905091905056fea26469706673582212205ea4d920bc764268e6bebfc0978cc7e8c4f590261e31305c7aaed93d3a8016ea64736f6c63430008130033",
  "linkReferences": {},
  "deployedLinkReferences": {}
}