{
  "_format": "hh-sol-artifact-1",
  "contractName": "meddata",
  "sourceName": "contracts/meddata.sol",
  "abi": [
    {
      "inputs": [],
      "stateMutability": "payable",
      "type": "constructor"
    },
    {
      "inputs": [
        {
          "internalType": "string",
          "name": "_title",
          "type": "string"
        },
        {
          "internalType": "string",
          "name": "_description",
          "type": "string"
        },
        {
          "internalType": "string",
          "name": "_imageURL",
          "type": "string"
        }
      ],
      "name": "NewRrecord",
      "outputs": [],
      "stateMutability": "payable",
      "type": "function"
    },
    {
      "inputs": [],
      "name": "addToContractBalance",
      "outputs": [],
      "stateMutability": "payable",
      "type": "function"
    },
    {
      "inputs": [
        {
          "internalType": "uint256",
          "name": "id",
          "type": "uint256"
        }
      ],
      "name": "buyFileId",
      "outputs": [],
      "stateMutability": "payable",
      "type": "function"
    },
    {
      "inputs": [
        {
          "internalType": "uint256",
          "name": "id",
          "type": "uint256"
        }
      ],
      "name": "getAccessList",
      "outputs": [
        {
          "internalType": "address[]",
          "name": "",
          "type": "address[]"
        }
      ],
      "stateMutability": "view",
      "type": "function"
    },
    {
      "inputs": [],
      "name": "getAllRecords",
      "outputs": [
        {
          "components": [
            {
              "internalType": "uint256",
              "name": "id",
              "type": "uint256"
            },
            {
              "internalType": "string",
              "name": "title",
              "type": "string"
            },
            {
              "internalType": "string",
              "name": "description",
              "type": "string"
            },
            {
              "internalType": "bool",
              "name": "islisted",
              "type": "bool"
            },
            {
              "internalType": "string",
              "name": "imageURL",
              "type": "string"
            },
            {
              "internalType": "address",
              "name": "owner",
              "type": "address"
            },
            {
              "internalType": "address[]",
              "name": "accessibleBy",
              "type": "address[]"
            },
            {
              "internalType": "uint256",
              "name": "timestamp",
              "type": "uint256"
            },
            {
              "internalType": "uint256",
              "name": "price",
              "type": "uint256"
            },
            {
              "internalType": "string",
              "name": "preview",
              "type": "string"
            }
          ],
          "internalType": "struct meddata.Record[]",
          "name": "",
          "type": "tuple[]"
        }
      ],
      "stateMutability": "view",
      "type": "function"
    },
    {
      "inputs": [
        {
          "internalType": "uint256",
          "name": "_id",
          "type": "uint256"
        }
      ],
      "name": "getOneRecord",
      "outputs": [
        {
          "components": [
            {
              "internalType": "uint256",
              "name": "id",
              "type": "uint256"
            },
            {
              "internalType": "string",
              "name": "title",
              "type": "string"
            },
            {
              "internalType": "string",
              "name": "description",
              "type": "string"
            },
            {
              "internalType": "bool",
              "name": "islisted",
              "type": "bool"
            },
            {
              "internalType": "string",
              "name": "imageURL",
              "type": "string"
            },
            {
              "internalType": "address",
              "name": "owner",
              "type": "address"
            },
            {
              "internalType": "address[]",
              "name": "accessibleBy",
              "type": "address[]"
            },
            {
              "internalType": "uint256",
              "name": "timestamp",
              "type": "uint256"
            },
            {
              "internalType": "uint256",
              "name": "price",
              "type": "uint256"
            },
            {
              "internalType": "string",
              "name": "preview",
              "type": "string"
            }
          ],
          "internalType": "struct meddata.Record",
          "name": "",
          "type": "tuple"
        }
      ],
      "stateMutability": "view",
      "type": "function"
    },
    {
      "inputs": [],
      "name": "getSellingRecord",
      "outputs": [
        {
          "components": [
            {
              "internalType": "uint256",
              "name": "id",
              "type": "uint256"
            },
            {
              "internalType": "string",
              "name": "title",
              "type": "string"
            },
            {
              "internalType": "string",
              "name": "description",
              "type": "string"
            },
            {
              "internalType": "bool",
              "name": "islisted",
              "type": "bool"
            },
            {
              "internalType": "string",
              "name": "imageURL",
              "type": "string"
            },
            {
              "internalType": "address",
              "name": "owner",
              "type": "address"
            },
            {
              "internalType": "address[]",
              "name": "accessibleBy",
              "type": "address[]"
            },
            {
              "internalType": "uint256",
              "name": "timestamp",
              "type": "uint256"
            },
            {
              "internalType": "uint256",
              "name": "price",
              "type": "uint256"
            },
            {
              "internalType": "string",
              "name": "preview",
              "type": "string"
            }
          ],
          "internalType": "struct meddata.Record[]",
          "name": "",
          "type": "tuple[]"
        }
      ],
      "stateMutability": "view",
      "type": "function"
    },
    {
      "inputs": [],
      "name": "giveContractBalance",
      "outputs": [
        {
          "internalType": "uint256",
          "name": "",
          "type": "uint256"
        }
      ],
      "stateMutability": "view",
      "type": "function"
    },
    {
      "inputs": [
        {
          "internalType": "address",
          "name": "_newOwner",
          "type": "address"
        },
        {
          "internalType": "uint256",
          "name": "id",
          "type": "uint256"
        }
      ],
      "name": "newOwner",
      "outputs": [],
      "stateMutability": "nonpayable",
      "type": "function"
    },
    {
      "inputs": [
        {
          "internalType": "uint256",
          "name": "",
          "type": "uint256"
        }
      ],
      "name": "records",
      "outputs": [
        {
          "internalType": "uint256",
          "name": "id",
          "type": "uint256"
        },
        {
          "internalType": "string",
          "name": "title",
          "type": "string"
        },
        {
          "internalType": "string",
          "name": "description",
          "type": "string"
        },
        {
          "internalType": "bool",
          "name": "islisted",
          "type": "bool"
        },
        {
          "internalType": "string",
          "name": "imageURL",
          "type": "string"
        },
        {
          "internalType": "address",
          "name": "owner",
          "type": "address"
        },
        {
          "internalType": "uint256",
          "name": "timestamp",
          "type": "uint256"
        },
        {
          "internalType": "uint256",
          "name": "price",
          "type": "uint256"
        },
        {
          "internalType": "string",
          "name": "preview",
          "type": "string"
        }
      ],
      "stateMutability": "view",
      "type": "function"
    },
    {
      "inputs": [
        {
          "internalType": "address",
          "name": "_removeOwner",
          "type": "address"
        },
        {
          "internalType": "uint256",
          "name": "id",
          "type": "uint256"
        }
      ],
      "name": "removeOwner",
      "outputs": [],
      "stateMutability": "nonpayable",
      "type": "function"
    },
    {
      "inputs": [
        {
          "internalType": "uint256",
          "name": "id",
          "type": "uint256"
        },
        {
          "internalType": "string",
          "name": "preview",
          "type": "string"
        },
        {
          "internalType": "uint256",
          "name": "price",
          "type": "uint256"
        }
      ],
      "name": "sellTheFile",
      "outputs": [],
      "stateMutability": "nonpayable",
      "type": "function"
    },
    {
      "inputs": [
        {
          "internalType": "uint256",
          "name": "",
          "type": "uint256"
        }
      ],
      "name": "sellingFileId",
      "outputs": [
        {
          "internalType": "uint256",
          "name": "",
          "type": "uint256"
        }
      ],
      "stateMutability": "view",
      "type": "function"
    }
  ],
  "bytecode": "0x6080604052600067ffffffffffffffff81111562000022576200002162000184565b5b604051908082528060200260200182016040528015620000515781602001602082028036833780820191505090505b506007908051906020019062000069929190620000d6565b50600067ffffffffffffffff81111562000088576200008762000184565b5b604051908082528060200260200182016040528015620000b75781602001602082028036833780820191505090505b5060089080519060200190620000cf929190620000d6565b50620001b3565b82805482825590600052602060002090810192821562000152579160200282015b82811115620001515782518260006101000a81548173ffffffffffffffffffffffffffffffffffffffff021916908373ffffffffffffffffffffffffffffffffffffffff16021790555091602001919060010190620000f7565b5b50905062000161919062000165565b5090565b5b808211156200018057600081600090555060010162000166565b5090565b7f4e487b7100000000000000000000000000000000000000000000000000000000600052604160045260246000fd5b61412f80620001c36000396000f3fe6080604052600436106100c25760003560e01c8063773d79dc1161007f578063bfd2b3a311610059578063bfd2b3a314610268578063c7fb53eb14610291578063e3e18cc51461029b578063f31bb177146102c4576100c2565b8063773d79dc146101f6578063878e688e14610221578063a7f9fe721461023d576100c2565b80631cda164f146100c7578063298ba2be146100e357806332be364014610120578063344610671461014957806340ed64031461018e578063653467c4146101b9575b600080fd5b6100e160048036038101906100dc9190612e88565b610301565b005b3480156100ef57600080fd5b5061010a60048036038101906101059190612f65565b6106af565b6040516101179190613221565b60405180910390f35b34801561012c57600080fd5b506101476004803603810190610142919061326f565b610c40565b005b34801561015557600080fd5b50610170600480360381019061016b9190612f65565b610fe2565b60405161018599989796959493929190613326565b60405180910390f35b34801561019a57600080fd5b506101a361128d565b6040516101b091906133cf565b60405180910390f35b3480156101c557600080fd5b506101e060048036038101906101db9190612f65565b611295565b6040516101ed91906133cf565b60405180910390f35b34801561020257600080fd5b5061020b6112b9565b60405161021891906135a2565b60405180910390f35b61023b60048036038101906102369190612f65565b61185e565b005b34801561024957600080fd5b50610252611b7c565b60405161025f91906135a2565b60405180910390f35b34801561027457600080fd5b5061028f600480360381019061028a919061326f565b612111565b005b610299612813565b005b3480156102a757600080fd5b506102c260048036038101906102bd91906135c4565b612862565b005b3480156102d057600080fd5b506102eb60048036038101906102e69190612f65565b612b22565b6040516102f891906136a2565b60405180910390f35b600260003373ffffffffffffffffffffffffffffffffffffffff1673ffffffffffffffffffffffffffffffffffffffff1681526020019081526020016000206001805490509080600181540180825580915050600190039060005260206000200160009091909190915055600360003373ffffffffffffffffffffffffffffffffffffffff1673ffffffffffffffffffffffffffffffffffffffff1681526020019081526020016000206001805490509080600181540180825580915050600190039060005260206000200160009091909190915055600060018054905090506007339080600181540180825580915050600190039060005260206000200160009091909190916101000a81548173ffffffffffffffffffffffffffffffffffffffff021916908373ffffffffffffffffffffffffffffffffffffffff16021790555060016040518061014001604052808381526020018681526020018581526020016001151581526020018481526020013373ffffffffffffffffffffffffffffffffffffffff168152602001600780548060200260200160405190810160405280929190818152602001828054801561051157602002820191906000526020600020905b8160009054906101000a900473ffffffffffffffffffffffffffffffffffffffff1673ffffffffffffffffffffffffffffffffffffffff16815260200190600101908083116104c7575b50505050508152602001428152602001600081526020016040518060200160405280600081525081525090806001815401808255809150506001900390600052602060002090600a020160009091909190915060008201518160000155602082015181600101908161058391906138d0565b50604082015181600201908161059991906138d0565b5060608201518160030160006101000a81548160ff02191690831515021790555060808201518160040190816105cf91906138d0565b5060a08201518160050160006101000a81548173ffffffffffffffffffffffffffffffffffffffff021916908373ffffffffffffffffffffffffffffffffffffffff16021790555060c0820151816006019080519060200190610633929190612c1c565b5060e08201518160070155610100820151816008015561012082015181600901908161065f91906138d0565b5050506007805480610674576106736139a2565b5b6001900381819060005260206000200160006101000a81549073ffffffffffffffffffffffffffffffffffffffff0219169055905550505050565b6106b7612ca6565b60018054905082106106fe576040517f08c379a00000000000000000000000000000000000000000000000000000000081526004016106f590613a1d565b60405180910390fd5b60006001838154811061071457610713613a3d565b5b90600052602060002090600a02016040518061014001604052908160008201548152602001600182018054610748906136f3565b80601f0160208091040260200160405190810160405280929190818152602001828054610774906136f3565b80156107c15780601f10610796576101008083540402835291602001916107c1565b820191906000526020600020905b8154815290600101906020018083116107a457829003601f168201915b505050505081526020016002820180546107da906136f3565b80601f0160208091040260200160405190810160405280929190818152602001828054610806906136f3565b80156108535780601f1061082857610100808354040283529160200191610853565b820191906000526020600020905b81548152906001019060200180831161083657829003601f168201915b505050505081526020016003820160009054906101000a900460ff16151515158152602001600482018054610887906136f3565b80601f01602080910402602001604051908101604052809291908181526020018280546108b3906136f3565b80156109005780601f106108d557610100808354040283529160200191610900565b820191906000526020600020905b8154815290600101906020018083116108e357829003601f168201915b505050505081526020016005820160009054906101000a900473ffffffffffffffffffffffffffffffffffffffff1673ffffffffffffffffffffffffffffffffffffffff1673ffffffffffffffffffffffffffffffffffffffff168152602001600682018054806020026020016040519081016040528092919081815260200182805480156109e457602002820191906000526020600020905b8160009054906101000a900473ffffffffffffffffffffffffffffffffffffffff1673ffffffffffffffffffffffffffffffffffffffff168152602001906001019080831161099a575b505050505081526020016007820154815260200160088201548152602001600982018054610a11906136f3565b80601f0160208091040260200160405190810160405280929190818152602001828054610a3d906136f3565b8015610a8a5780601f10610a5f57610100808354040283529160200191610a8a565b820191906000526020600020905b815481529060010190602001808311610a6d57829003601f168201915b50505050508152505090506000805b60018581548110610aad57610aac613a3d565b5b90600052602060002090600a020160060180549050811015610b75573373ffffffffffffffffffffffffffffffffffffffff1660018681548110610af457610af3613a3d565b5b90600052602060002090600a02016006018281548110610b1757610b16613a3d565b5b9060005260206000200160009054906101000a900473ffffffffffffffffffffffffffffffffffffffff1673ffffffffffffffffffffffffffffffffffffffff1603610b6257600191505b8080610b6d90613a9b565b915050610a99565b5080151560001515148015610b905750816101000151600014155b15610bf657600460003373ffffffffffffffffffffffffffffffffffffffff1673ffffffffffffffffffffffffffffffffffffffff168152602001908152602001600020600085815260200190815260200160002060009054906101000a900460ff1690505b80610c36576040517f08c379a0000000000000000000000000000000000000000000000000000000008152600401610c2d90613b55565b60405180910390fd5b8192505050919050565b6001805490508110610c87576040517f08c379a0000000000000000000000000000000000000000000000000000000008152600401610c7e90613bc1565b60405180910390fd5b60018181548110610c9b57610c9a613a3d565b5b90600052602060002090600a020160050160009054906101000a900473ffffffffffffffffffffffffffffffffffffffff1673ffffffffffffffffffffffffffffffffffffffff163373ffffffffffffffffffffffffffffffffffffffff1614610d3a576040517f08c379a0000000000000000000000000000000000000000000000000000000008152600401610d3190613c2d565b60405180910390fd5b60018181548110610d4e57610d4d613a3d565b5b90600052602060002090600a020160050160009054906101000a900473ffffffffffffffffffffffffffffffffffffffff1673ffffffffffffffffffffffffffffffffffffffff168273ffffffffffffffffffffffffffffffffffffffff1603610ded576040517f08c379a0000000000000000000000000000000000000000000000000000000008152600401610de490613cbf565b60405180910390fd5b60005b600260008473ffffffffffffffffffffffffffffffffffffffff1673ffffffffffffffffffffffffffffffffffffffff16815260200190815260200160002080549050811015610ef157600260008473ffffffffffffffffffffffffffffffffffffffff1673ffffffffffffffffffffffffffffffffffffffff1681526020019081526020016000208181548110610e8b57610e8a613a3d565b5b90600052602060002001548203610ede576000610edd576040517f08c379a0000000000000000000000000000000000000000000000000000000008152600401610ed490613d51565b60405180910390fd5b5b8080610ee990613a9b565b915050610df0565b50600260008373ffffffffffffffffffffffffffffffffffffffff1673ffffffffffffffffffffffffffffffffffffffff16815260200190815260200160002081908060018154018082558091505060019003906000526020600020016000909190919091505560018181548110610f6c57610f6b613a3d565b5b90600052602060002090600a0201600601829080600181540180825580915050600190039060005260206000200160009091909190916101000a81548173ffffffffffffffffffffffffffffffffffffffff021916908373ffffffffffffffffffffffffffffffffffffffff1602179055505050565b60018181548110610ff257600080fd5b90600052602060002090600a020160009150905080600001549080600101805461101b906136f3565b80601f0160208091040260200160405190810160405280929190818152602001828054611047906136f3565b80156110945780601f1061106957610100808354040283529160200191611094565b820191906000526020600020905b81548152906001019060200180831161107757829003601f168201915b5050505050908060020180546110a9906136f3565b80601f01602080910402602001604051908101604052809291908181526020018280546110d5906136f3565b80156111225780601f106110f757610100808354040283529160200191611122565b820191906000526020600020905b81548152906001019060200180831161110557829003601f168201915b5050505050908060030160009054906101000a900460ff169080600401805461114a906136f3565b80601f0160208091040260200160405190810160405280929190818152602001828054611176906136f3565b80156111c35780601f10611198576101008083540402835291602001916111c3565b820191906000526020600020905b8154815290600101906020018083116111a657829003601f168201915b5050505050908060050160009054906101000a900473ffffffffffffffffffffffffffffffffffffffff169080600701549080600801549080600901805461120a906136f3565b80601f0160208091040260200160405190810160405280929190818152602001828054611236906136f3565b80156112835780601f1061125857610100808354040283529160200191611283565b820191906000526020600020905b81548152906001019060200180831161126657829003601f168201915b5050505050905089565b600047905090565b600081815481106112a557600080fd5b906000526020600020016000915090505481565b60606000805b60008054905081101561137557600460003373ffffffffffffffffffffffffffffffffffffffff1673ffffffffffffffffffffffffffffffffffffffff16815260200190815260200160002060008083815481106113205761131f613a3d565b5b9060005260206000200154815260200190815260200160002060009054906101000a900460ff16151560001515036113625760018261135f9190613d71565b91505b808061136d90613a9b565b9150506112bf565b5060008167ffffffffffffffff81111561139257611391612d5d565b5b6040519080825280602002602001820160405280156113cb57816020015b6113b8612ca6565b8152602001906001900390816113b05790505b5090506000805b60008054905081101561185457600460003373ffffffffffffffffffffffffffffffffffffffff1673ffffffffffffffffffffffffffffffffffffffff168152602001908152602001600020600080838154811061143357611432613a3d565b5b9060005260206000200154815260200190815260200160002060009054906101000a900460ff16151560001515036118415760016000828154811061147b5761147a613a3d565b5b90600052602060002001548154811061149757611496613a3d565b5b90600052602060002090600a020160405180610140016040529081600082015481526020016001820180546114cb906136f3565b80601f01602080910402602001604051908101604052809291908181526020018280546114f7906136f3565b80156115445780601f1061151957610100808354040283529160200191611544565b820191906000526020600020905b81548152906001019060200180831161152757829003601f168201915b5050505050815260200160028201805461155d906136f3565b80601f0160208091040260200160405190810160405280929190818152602001828054611589906136f3565b80156115d65780601f106115ab576101008083540402835291602001916115d6565b820191906000526020600020905b8154815290600101906020018083116115b957829003601f168201915b505050505081526020016003820160009054906101000a900460ff1615151515815260200160048201805461160a906136f3565b80601f0160208091040260200160405190810160405280929190818152602001828054611636906136f3565b80156116835780601f1061165857610100808354040283529160200191611683565b820191906000526020600020905b81548152906001019060200180831161166657829003601f168201915b505050505081526020016005820160009054906101000a900473ffffffffffffffffffffffffffffffffffffffff1673ffffffffffffffffffffffffffffffffffffffff1673ffffffffffffffffffffffffffffffffffffffff1681526020016006820180548060200260200160405190810160405280929190818152602001828054801561176757602002820191906000526020600020905b8160009054906101000a900473ffffffffffffffffffffffffffffffffffffffff1673ffffffffffffffffffffffffffffffffffffffff168152602001906001019080831161171d575b505050505081526020016007820154815260200160088201548152602001600982018054611794906136f3565b80601f01602080910402602001604051908101604052809291908181526020018280546117c0906136f3565b801561180d5780601f106117e25761010080835404028352916020019161180d565b820191906000526020600020905b8154815290600101906020018083116117f057829003601f168201915b50505050508152505083838061182290613a9b565b94508151811061183557611834613a3d565b5b60200260200101819052505b808061184c90613a9b565b9150506113d2565b5081935050505090565b60018054905081106118a5576040517f08c379a000000000000000000000000000000000000000000000000000000000815260040161189c90613bc1565b60405180910390fd5b60005b600080549050811015611b7757600081815481106118c9576118c8613a3d565b5b90600052602060002001548203611b6457600460003373ffffffffffffffffffffffffffffffffffffffff1673ffffffffffffffffffffffffffffffffffffffff168152602001908152602001600020600083815260200190815260200160002060009054906101000a900460ff161561198357600061197e576040517f08c379a000000000000000000000000000000000000000000000000000000000815260040161197590613df1565b60405180910390fd5b611b63565b6001828154811061199757611996613a3d565b5b90600052602060002090600a0201600801543373ffffffffffffffffffffffffffffffffffffffff16311015611a02576040517f08c379a00000000000000000000000000000000000000000000000000000000081526004016119f990613e5d565b60405180910390fd5b60018281548110611a1657611a15613a3d565b5b90600052602060002090600a020160050160009054906101000a900473ffffffffffffffffffffffffffffffffffffffff1673ffffffffffffffffffffffffffffffffffffffff166108fc349081150290604051600060405180830381858888f19350505050158015611a8d573d6000803e3d6000fd5b506001600460003373ffffffffffffffffffffffffffffffffffffffff1673ffffffffffffffffffffffffffffffffffffffff168152602001908152602001600020600084815260200190815260200160002060006101000a81548160ff021916908315150217905550600260003373ffffffffffffffffffffffffffffffffffffffff1673ffffffffffffffffffffffffffffffffffffffff16815260200190815260200160002082908060018154018082558091505060019003906000526020600020016000909190919091505550611b79565b5b8080611b6f90613a9b565b9150506118a8565b505b50565b60606000600260003373ffffffffffffffffffffffffffffffffffffffff1673ffffffffffffffffffffffffffffffffffffffff1681526020019081526020016000208054905011611c03576040517f08c379a0000000000000000000000000000000000000000000000000000000008152600401611bfa90613ec9565b60405180910390fd5b6000600260003373ffffffffffffffffffffffffffffffffffffffff1673ffffffffffffffffffffffffffffffffffffffff1681526020019081526020016000208054905067ffffffffffffffff811115611c6157611c60612d5d565b5b604051908082528060200260200182016040528015611c9a57816020015b611c87612ca6565b815260200190600190039081611c7f5790505b50905060005b600260003373ffffffffffffffffffffffffffffffffffffffff1673ffffffffffffffffffffffffffffffffffffffff16815260200190815260200160002080549050811015612109576001600260003373ffffffffffffffffffffffffffffffffffffffff1673ffffffffffffffffffffffffffffffffffffffff1681526020019081526020016000208281548110611d3d57611d3c613a3d565b5b906000526020600020015481548110611d5957611d58613a3d565b5b90600052602060002090600a02016040518061014001604052908160008201548152602001600182018054611d8d906136f3565b80601f0160208091040260200160405190810160405280929190818152602001828054611db9906136f3565b8015611e065780601f10611ddb57610100808354040283529160200191611e06565b820191906000526020600020905b815481529060010190602001808311611de957829003601f168201915b50505050508152602001600282018054611e1f906136f3565b80601f0160208091040260200160405190810160405280929190818152602001828054611e4b906136f3565b8015611e985780601f10611e6d57610100808354040283529160200191611e98565b820191906000526020600020905b815481529060010190602001808311611e7b57829003601f168201915b505050505081526020016003820160009054906101000a900460ff16151515158152602001600482018054611ecc906136f3565b80601f0160208091040260200160405190810160405280929190818152602001828054611ef8906136f3565b8015611f455780601f10611f1a57610100808354040283529160200191611f45565b820191906000526020600020905b815481529060010190602001808311611f2857829003601f168201915b505050505081526020016005820160009054906101000a900473ffffffffffffffffffffffffffffffffffffffff1673ffffffffffffffffffffffffffffffffffffffff1673ffffffffffffffffffffffffffffffffffffffff1681526020016006820180548060200260200160405190810160405280929190818152602001828054801561202957602002820191906000526020600020905b8160009054906101000a900473ffffffffffffffffffffffffffffffffffffffff1673ffffffffffffffffffffffffffffffffffffffff1681526020019060010190808311611fdf575b505050505081526020016007820154815260200160088201548152602001600982018054612056906136f3565b80601f0160208091040260200160405190810160405280929190818152602001828054612082906136f3565b80156120cf5780601f106120a4576101008083540402835291602001916120cf565b820191906000526020600020905b8154815290600101906020018083116120b257829003601f168201915b5050505050815250508282815181106120eb576120ea613a3d565b5b6020026020010181905250808061210190613a9b565b915050611ca0565b508091505090565b6001805490508110612158576040517f08c379a000000000000000000000000000000000000000000000000000000000815260040161214f90613bc1565b60405180910390fd5b6001818154811061216c5761216b613a3d565b5b90600052602060002090600a020160050160009054906101000a900473ffffffffffffffffffffffffffffffffffffffff1673ffffffffffffffffffffffffffffffffffffffff163373ffffffffffffffffffffffffffffffffffffffff161461220b576040517f08c379a000000000000000000000000000000000000000000000000000000000815260040161220290613c2d565b60405180910390fd5b3373ffffffffffffffffffffffffffffffffffffffff168273ffffffffffffffffffffffffffffffffffffffff1603612279576040517f08c379a000000000000000000000000000000000000000000000000000000000815260040161227090613f81565b60405180910390fd5b6000600260008473ffffffffffffffffffffffffffffffffffffffff1673ffffffffffffffffffffffffffffffffffffffff16815260200190815260200160002080549050905060005b600260008573ffffffffffffffffffffffffffffffffffffffff1673ffffffffffffffffffffffffffffffffffffffff168152602001908152602001600020805490508110156127cb57600260008573ffffffffffffffffffffffffffffffffffffffff1673ffffffffffffffffffffffffffffffffffffffff168152602001908152602001600020818154811061235e5761235d613a3d565b5b906000526020600020015483036127b857600260008573ffffffffffffffffffffffffffffffffffffffff1673ffffffffffffffffffffffffffffffffffffffff1681526020019081526020016000208054905060010361242357600260008573ffffffffffffffffffffffffffffffffffffffff1673ffffffffffffffffffffffffffffffffffffffff168152602001908152602001600020805480612408576124076139a2565b5b60019003818190600052602060002001600090559055612550565b600260008573ffffffffffffffffffffffffffffffffffffffff1673ffffffffffffffffffffffffffffffffffffffff16815260200190815260200160002060018361246f9190613fa1565b815481106124805761247f613a3d565b5b9060005260206000200154600260008673ffffffffffffffffffffffffffffffffffffffff1673ffffffffffffffffffffffffffffffffffffffff16815260200190815260200160002082815481106124dc576124db613a3d565b5b9060005260206000200181905550600260008573ffffffffffffffffffffffffffffffffffffffff1673ffffffffffffffffffffffffffffffffffffffff168152602001908152602001600020805480612539576125386139a2565b5b600190038181906000526020600020016000905590555b60006001848154811061256657612565613a3d565b5b90600052602060002090600a020160060180549050905060005b6001858154811061259457612593613a3d565b5b90600052602060002090600a0201600601805490508110156127af57600185815481106125c4576125c3613a3d565b5b90600052602060002090600a020160060181815481106125e7576125e6613a3d565b5b9060005260206000200160009054906101000a900473ffffffffffffffffffffffffffffffffffffffff1673ffffffffffffffffffffffffffffffffffffffff168673ffffffffffffffffffffffffffffffffffffffff160361279c576001858154811061265857612657613a3d565b5b90600052602060002090600a02016006016001836126769190613fa1565b8154811061268757612686613a3d565b5b9060005260206000200160009054906101000a900473ffffffffffffffffffffffffffffffffffffffff16600186815481106126c6576126c5613a3d565b5b90600052602060002090600a020160060182815481106126e9576126e8613a3d565b5b9060005260206000200160006101000a81548173ffffffffffffffffffffffffffffffffffffffff021916908373ffffffffffffffffffffffffffffffffffffffff1602179055506001858154811061274557612744613a3d565b5b90600052602060002090600a0201600601805480612766576127656139a2565b5b6001900381819060005260206000200160006101000a81549073ffffffffffffffffffffffffffffffffffffffff021916905590555b80806127a790613a9b565b915050612580565b5050505061280f565b80806127c390613a9b565b9150506122c3565b50600061280d576040517f08c379a000000000000000000000000000000000000000000000000000000000815260040161280490614047565b60405180910390fd5b505b5050565b60003090508073ffffffffffffffffffffffffffffffffffffffff166108fc349081150290604051600060405180830381858888f1935050505015801561285e573d6000803e3d6000fd5b5050565b60018054905083106128a9576040517f08c379a00000000000000000000000000000000000000000000000000000000081526004016128a090613bc1565b60405180910390fd5b3373ffffffffffffffffffffffffffffffffffffffff16600184815481106128d4576128d3613a3d565b5b90600052602060002090600a020160050160009054906101000a900473ffffffffffffffffffffffffffffffffffffffff1673ffffffffffffffffffffffffffffffffffffffff161461295c576040517f08c379a000000000000000000000000000000000000000000000000000000000815260040161295390613c2d565b60405180910390fd5b60006001848154811061297257612971613a3d565b5b90600052602060002090600a020160080154146129c4576040517f08c379a00000000000000000000000000000000000000000000000000000000081526004016129bb906140d9565b60405180910390fd5b6001600460003373ffffffffffffffffffffffffffffffffffffffff1673ffffffffffffffffffffffffffffffffffffffff168152602001908152602001600020600085815260200190815260200160002060006101000a81548160ff02191690831515021790555060018381548110612a4157612a40613a3d565b5b90600052602060002090600a0201600601805480612a6257612a616139a2565b5b6001900381819060005260206000200160006101000a81549073ffffffffffffffffffffffffffffffffffffffff0219169055905560008390806001815401808255809150506001900390600052602060002001600090919091909150558160018481548110612ad557612ad4613a3d565b5b90600052602060002090600a02016009019081612af291906138d0565b508060018481548110612b0857612b07613a3d565b5b90600052602060002090600a020160080181905550505050565b60606001805490508210612b6b576040517f08c379a0000000000000000000000000000000000000000000000000000000008152600401612b6290613bc1565b60405180910390fd5b60018281548110612b7f57612b7e613a3d565b5b90600052602060002090600a0201600601805480602002602001604051908101604052809291908181526020018280548015612c1057602002820191906000526020600020905b8160009054906101000a900473ffffffffffffffffffffffffffffffffffffffff1673ffffffffffffffffffffffffffffffffffffffff1681526020019060010190808311612bc6575b50505050509050919050565b828054828255906000526020600020908101928215612c95579160200282015b82811115612c945782518260006101000a81548173ffffffffffffffffffffffffffffffffffffffff021916908373ffffffffffffffffffffffffffffffffffffffff16021790555091602001919060010190612c3c565b5b509050612ca29190612d11565b5090565b60405180610140016040528060008152602001606081526020016060815260200160001515815260200160608152602001600073ffffffffffffffffffffffffffffffffffffffff168152602001606081526020016000815260200160008152602001606081525090565b5b80821115612d2a576000816000905550600101612d12565b5090565b6000604051905090565b600080fd5b600080fd5b600080fd5b600080fd5b6000601f19601f8301169050919050565b7f4e487b7100000000000000000000000000000000000000000000000000000000600052604160045260246000fd5b612d9582612d4c565b810181811067ffffffffffffffff82111715612db457612db3612d5d565b5b80604052505050565b6000612dc7612d2e565b9050612dd38282612d8c565b919050565b600067ffffffffffffffff821115612df357612df2612d5d565b5b612dfc82612d4c565b9050602081019050919050565b82818337600083830152505050565b6000612e2b612e2684612dd8565b612dbd565b905082815260208101848484011115612e4757612e46612d47565b5b612e52848285612e09565b509392505050565b600082601f830112612e6f57612e6e612d42565b5b8135612e7f848260208601612e18565b91505092915050565b600080600060608486031215612ea157612ea0612d38565b5b600084013567ffffffffffffffff811115612ebf57612ebe612d3d565b5b612ecb86828701612e5a565b935050602084013567ffffffffffffffff811115612eec57612eeb612d3d565b5b612ef886828701612e5a565b925050604084013567ffffffffffffffff811115612f1957612f18612d3d565b5b612f2586828701612e5a565b9150509250925092565b6000819050919050565b612f4281612f2f565b8114612f4d57600080fd5b50565b600081359050612f5f81612f39565b92915050565b600060208284031215612f7b57612f7a612d38565b5b6000612f8984828501612f50565b91505092915050565b612f9b81612f2f565b82525050565b600081519050919050565b600082825260208201905092915050565b60005b83811015612fdb578082015181840152602081019050612fc0565b60008484015250505050565b6000612ff282612fa1565b612ffc8185612fac565b935061300c818560208601612fbd565b61301581612d4c565b840191505092915050565b60008115159050919050565b61303581613020565b82525050565b600073ffffffffffffffffffffffffffffffffffffffff82169050919050565b60006130668261303b565b9050919050565b6130768161305b565b82525050565b600081519050919050565b600082825260208201905092915050565b6000819050602082019050919050565b60006130b4838361306d565b60208301905092915050565b6000602082019050919050565b60006130d88261307c565b6130e28185613087565b93506130ed83613098565b8060005b8381101561311e57815161310588826130a8565b9750613110836130c0565b9250506001810190506130f1565b5085935050505092915050565b6000610140830160008301516131446000860182612f92565b506020830151848203602086015261315c8282612fe7565b915050604083015184820360408601526131768282612fe7565b915050606083015161318b606086018261302c565b50608083015184820360808601526131a38282612fe7565b91505060a08301516131b860a086018261306d565b5060c083015184820360c08601526131d082826130cd565b91505060e08301516131e560e0860182612f92565b506101008301516131fa610100860182612f92565b506101208301518482036101208601526132148282612fe7565b9150508091505092915050565b6000602082019050818103600083015261323b818461312b565b905092915050565b61324c8161305b565b811461325757600080fd5b50565b60008135905061326981613243565b92915050565b6000806040838503121561328657613285612d38565b5b60006132948582860161325a565b92505060206132a585828601612f50565b9150509250929050565b6132b881612f2f565b82525050565b600082825260208201905092915050565b60006132da82612fa1565b6132e481856132be565b93506132f4818560208601612fbd565b6132fd81612d4c565b840191505092915050565b61331181613020565b82525050565b6133208161305b565b82525050565b60006101208201905061333c600083018c6132af565b818103602083015261334e818b6132cf565b90508181036040830152613362818a6132cf565b90506133716060830189613308565b818103608083015261338381886132cf565b905061339260a0830187613317565b61339f60c08301866132af565b6133ac60e08301856132af565b8181036101008301526133bf81846132cf565b90509a9950505050505050505050565b60006020820190506133e460008301846132af565b92915050565b600081519050919050565b600082825260208201905092915050565b6000819050602082019050919050565b60006101408301600083015161342f6000860182612f92565b50602083015184820360208601526134478282612fe7565b915050604083015184820360408601526134618282612fe7565b9150506060830151613476606086018261302c565b506080830151848203608086015261348e8282612fe7565b91505060a08301516134a360a086018261306d565b5060c083015184820360c08601526134bb82826130cd565b91505060e08301516134d060e0860182612f92565b506101008301516134e5610100860182612f92565b506101208301518482036101208601526134ff8282612fe7565b9150508091505092915050565b60006135188383613416565b905092915050565b6000602082019050919050565b6000613538826133ea565b61354281856133f5565b93508360208202850161355485613406565b8060005b858110156135905784840389528151613571858261350c565b945061357c83613520565b925060208a01995050600181019050613558565b50829750879550505050505092915050565b600060208201905081810360008301526135bc818461352d565b905092915050565b6000806000606084860312156135dd576135dc612d38565b5b60006135eb86828701612f50565b935050602084013567ffffffffffffffff81111561360c5761360b612d3d565b5b61361886828701612e5a565b925050604061362986828701612f50565b9150509250925092565b600082825260208201905092915050565b600061364f8261307c565b6136598185613633565b935061366483613098565b8060005b8381101561369557815161367c88826130a8565b9750613687836130c0565b925050600181019050613668565b5085935050505092915050565b600060208201905081810360008301526136bc8184613644565b905092915050565b7f4e487b7100000000000000000000000000000000000000000000000000000000600052602260045260246000fd5b6000600282049050600182168061370b57607f821691505b60208210810361371e5761371d6136c4565b5b50919050565b60008190508160005260206000209050919050565b60006020601f8301049050919050565b600082821b905092915050565b6000600883026137867fffffffffffffffffffffffffffffffffffffffffffffffffffffffffffffffff82613749565b6137908683613749565b95508019841693508086168417925050509392505050565b6000819050919050565b60006137cd6137c86137c384612f2f565b6137a8565b612f2f565b9050919050565b6000819050919050565b6137e7836137b2565b6137fb6137f3826137d4565b848454613756565b825550505050565b600090565b613810613803565b61381b8184846137de565b505050565b5b8181101561383f57613834600082613808565b600181019050613821565b5050565b601f8211156138845761385581613724565b61385e84613739565b8101602085101561386d578190505b61388161387985613739565b830182613820565b50505b505050565b600082821c905092915050565b60006138a760001984600802613889565b1980831691505092915050565b60006138c08383613896565b9150826002028217905092915050565b6138d982612fa1565b67ffffffffffffffff8111156138f2576138f1612d5d565b5b6138fc82546136f3565b613907828285613843565b600060209050601f83116001811461393a5760008415613928578287015190505b61393285826138b4565b86555061399a565b601f19841661394886613724565b60005b828110156139705784890151825560018201915060208501945060208101905061394b565b8683101561398d5784890151613989601f891682613896565b8355505b6001600288020188555050505b505050505050565b7f4e487b7100000000000000000000000000000000000000000000000000000000600052603160045260246000fd5b7f676976656e2066696c65206964206973206e6f74206578697374730000000000600082015250565b6000613a07601b836132be565b9150613a12826139d1565b602082019050919050565b60006020820190508181036000830152613a36816139fa565b9050919050565b7f4e487b7100000000000000000000000000000000000000000000000000000000600052603260045260246000fd5b7f4e487b7100000000000000000000000000000000000000000000000000000000600052601160045260246000fd5b6000613aa682612f2f565b91507fffffffffffffffffffffffffffffffffffffffffffffffffffffffffffffffff8203613ad857613ad7613a6c565b5b600182019050919050565b7f796f7520646f6e277420686176652061636365737320746f207468697320666960008201527f6c65000000000000000000000000000000000000000000000000000000000000602082015250565b6000613b3f6022836132be565b9150613b4a82613ae3565b604082019050919050565b60006020820190508181036000830152613b6e81613b32565b9050919050565b7f676976652066696c6520696420697320696e76616c6964000000000000000000600082015250565b6000613bab6017836132be565b9150613bb682613b75565b602082019050919050565b60006020820190508181036000830152613bda81613b9e565b9050919050565b7f796f7520617265206e6f74206f776e6572206f6620746869732066696c650000600082015250565b6000613c17601e836132be565b9150613c2282613be1565b602082019050919050565b60006020820190508181036000830152613c4681613c0a565b9050919050565b7f6173206f776e6572206f6620746869732066696c6520796f7520616c7265616460008201527f2068617665206120616363657373000000000000000000000000000000000000602082015250565b6000613ca9602e836132be565b9150613cb482613c4d565b604082019050919050565b60006020820190508181036000830152613cd881613c9c565b9050919050565b7f74686973206164647265737320616c726561647920686176652061206163636560008201527f737320746f20746869732066696c650000000000000000000000000000000000602082015250565b6000613d3b602f836132be565b9150613d4682613cdf565b604082019050919050565b60006020820190508181036000830152613d6a81613d2e565b9050919050565b6000613d7c82612f2f565b9150613d8783612f2f565b9250828201905080821115613d9f57613d9e613a6c565b5b92915050565b7f796f7520616c726561647920626f7567687420746869732066696c6500000000600082015250565b6000613ddb601c836132be565b9150613de682613da5565b602082019050919050565b60006020820190508181036000830152613e0a81613dce565b9050919050565b7f496e73756666696369656e742062616c616e6365000000000000000000000000600082015250565b6000613e476014836132be565b9150613e5282613e11565b602082019050919050565b60006020820190508181036000830152613e7681613e3a565b9050919050565b7f6e6f207265636f72647300000000000000000000000000000000000000000000600082015250565b6000613eb3600a836132be565b9150613ebe82613e7d565b602082019050919050565b60006020820190508181036000830152613ee281613ea6565b9050919050565b7f6173206f776e6572206f66207468652066696c6520616e6420796f752063616e60008201527f27742072656d6f766520796f75722073656c662066726f6d206163636573732060208201527f746f20746869732066696c650000000000000000000000000000000000000000604082015250565b6000613f6b604c836132be565b9150613f7682613ee9565b606082019050919050565b60006020820190508181036000830152613f9a81613f5e565b9050919050565b6000613fac82612f2f565b9150613fb783612f2f565b9250828203905081811115613fcf57613fce613a6c565b5b92915050565b7f796f7520646f65736e277420676976652061636365737320746f20746869732060008201527f6164647265737320617420616c6c212100000000000000000000000000000000602082015250565b60006140316030836132be565b915061403c82613fd5565b604082019050919050565b6000602082019050818103600083015261406081614024565b9050919050565b7f796f752061726520616c726561647920616464656420746869732066696c652060008201527f746f2073656c6c00000000000000000000000000000000000000000000000000602082015250565b60006140c36027836132be565b91506140ce82614067565b604082019050919050565b600060208201905081810360008301526140f2816140b6565b905091905056fea26469706673582212208ff0a93a69a628f36f014dd7e689185ae4dc676d498524cd1a3eed69417a524964736f6c63430008130033",
  "linkReferences": {},
  "deployedLinkReferences": {}
}