{
  "_format": "hh-sol-artifact-1",
  "contractName": "syncdata",
  "sourceName": "contracts/meddata.sol",
  "abi": [
    {
      "inputs": [],
      "stateMutability": "payable",
      "type": "constructor"
    },
    {
      "anonymous": false,
      "inputs": [
        {
          "indexed": false,
          "internalType": "string",
          "name": "code",
          "type": "string"
        },
        {
          "indexed": false,
          "internalType": "uint256",
          "name": "value",
          "type": "uint256"
        },
        {
          "indexed": false,
          "internalType": "uint256",
          "name": "expiryTime",
          "type": "uint256"
        }
      ],
      "name": "CouponGenerated",
      "type": "event"
    },
    {
      "anonymous": false,
      "inputs": [
        {
          "indexed": false,
          "internalType": "string",
          "name": "code",
          "type": "string"
        },
        {
          "indexed": false,
          "internalType": "address",
          "name": "user",
          "type": "address"
        },
        {
          "indexed": false,
          "internalType": "uint256",
          "name": "redeemedTime",
          "type": "uint256"
        }
      ],
      "name": "CouponRedeemed",
      "type": "event"
    },
    {
      "inputs": [
        {
          "internalType": "string",
          "name": "_title",
          "type": "string"
        },
        {
          "internalType": "string",
          "name": "_description",
          "type": "string"
        },
        {
          "internalType": "string",
          "name": "_imageURL",
          "type": "string"
        },
        {
          "internalType": "string",
          "name": "_tags",
          "type": "string"
        }
      ],
      "name": "NewRrecord",
      "outputs": [],
      "stateMutability": "payable",
      "type": "function"
    },
    {
      "inputs": [],
      "name": "addToContractBalance",
      "outputs": [],
      "stateMutability": "payable",
      "type": "function"
    },
    {
      "inputs": [
        {
          "internalType": "uint256",
          "name": "id",
          "type": "uint256"
        }
      ],
      "name": "buyFileId",
      "outputs": [],
      "stateMutability": "payable",
      "type": "function"
    },
    {
      "inputs": [
        {
          "internalType": "uint256",
          "name": "",
          "type": "uint256"
        }
      ],
      "name": "coupons",
      "outputs": [
        {
          "internalType": "string",
          "name": "code",
          "type": "string"
        },
        {
          "internalType": "uint256",
          "name": "value",
          "type": "uint256"
        },
        {
          "internalType": "uint256",
          "name": "expiryTime",
          "type": "uint256"
        }
      ],
      "stateMutability": "view",
      "type": "function"
    },
    {
      "inputs": [
        {
          "internalType": "uint256",
          "name": "id",
          "type": "uint256"
        },
        {
          "internalType": "string",
          "name": "code",
          "type": "string"
        },
        {
          "internalType": "uint256",
          "name": "value",
          "type": "uint256"
        },
        {
          "internalType": "uint256",
          "name": "expiryTime",
          "type": "uint256"
        }
      ],
      "name": "generateCoupon",
      "outputs": [
        {
          "internalType": "string",
          "name": "",
          "type": "string"
        }
      ],
      "stateMutability": "nonpayable",
      "type": "function"
    },
    {
      "inputs": [
        {
          "internalType": "uint256",
          "name": "id",
          "type": "uint256"
        }
      ],
      "name": "getAccessList",
      "outputs": [
        {
          "internalType": "string[]",
          "name": "",
          "type": "string[]"
        }
      ],
      "stateMutability": "view",
      "type": "function"
    },
    {
      "inputs": [
        {
          "internalType": "string",
          "name": "_tags",
          "type": "string"
        }
      ],
      "name": "getBookRecord",
      "outputs": [
        {
          "components": [
            {
              "internalType": "uint256",
              "name": "id",
              "type": "uint256"
            },
            {
              "internalType": "string",
              "name": "title",
              "type": "string"
            },
            {
              "internalType": "string",
              "name": "description",
              "type": "string"
            },
            {
              "internalType": "bool",
              "name": "islisted",
              "type": "bool"
            },
            {
              "internalType": "string",
              "name": "imageURL",
              "type": "string"
            },
            {
              "internalType": "address",
              "name": "owner",
              "type": "address"
            },
            {
              "internalType": "address[]",
              "name": "accessibleBy",
              "type": "address[]"
            },
            {
              "internalType": "uint256",
              "name": "timestamp",
              "type": "uint256"
            },
            {
              "internalType": "uint256",
              "name": "price",
              "type": "uint256"
            },
            {
              "internalType": "string",
              "name": "tags",
              "type": "string"
            },
            {
              "internalType": "string",
              "name": "preview",
              "type": "string"
            }
          ],
          "internalType": "struct syncdata.Record[]",
          "name": "",
          "type": "tuple[]"
        }
      ],
      "stateMutability": "view",
      "type": "function"
    },
    {
      "inputs": [
        {
          "internalType": "uint256",
          "name": "_id",
          "type": "uint256"
        }
      ],
      "name": "getOneRecord",
      "outputs": [
        {
          "components": [
            {
              "internalType": "uint256",
              "name": "id",
              "type": "uint256"
            },
            {
              "internalType": "string",
              "name": "title",
              "type": "string"
            },
            {
              "internalType": "string",
              "name": "description",
              "type": "string"
            },
            {
              "internalType": "bool",
              "name": "islisted",
              "type": "bool"
            },
            {
              "internalType": "string",
              "name": "imageURL",
              "type": "string"
            },
            {
              "internalType": "address",
              "name": "owner",
              "type": "address"
            },
            {
              "internalType": "address[]",
              "name": "accessibleBy",
              "type": "address[]"
            },
            {
              "internalType": "uint256",
              "name": "timestamp",
              "type": "uint256"
            },
            {
              "internalType": "uint256",
              "name": "price",
              "type": "uint256"
            },
            {
              "internalType": "string",
              "name": "tags",
              "type": "string"
            },
            {
              "internalType": "string",
              "name": "preview",
              "type": "string"
            }
          ],
          "internalType": "struct syncdata.Record",
          "name": "",
          "type": "tuple"
        }
      ],
      "stateMutability": "view",
      "type": "function"
    },
    {
      "inputs": [],
      "name": "getOwnersRecords",
      "outputs": [
        {
          "components": [
            {
              "internalType": "uint256",
              "name": "id",
              "type": "uint256"
            },
            {
              "internalType": "string",
              "name": "title",
              "type": "string"
            },
            {
              "internalType": "string",
              "name": "description",
              "type": "string"
            },
            {
              "internalType": "bool",
              "name": "islisted",
              "type": "bool"
            },
            {
              "internalType": "string",
              "name": "imageURL",
              "type": "string"
            },
            {
              "internalType": "address",
              "name": "owner",
              "type": "address"
            },
            {
              "internalType": "address[]",
              "name": "accessibleBy",
              "type": "address[]"
            },
            {
              "internalType": "uint256",
              "name": "timestamp",
              "type": "uint256"
            },
            {
              "internalType": "uint256",
              "name": "price",
              "type": "uint256"
            },
            {
              "internalType": "string",
              "name": "tags",
              "type": "string"
            },
            {
              "internalType": "string",
              "name": "preview",
              "type": "string"
            }
          ],
          "internalType": "struct syncdata.Record[]",
          "name": "",
          "type": "tuple[]"
        }
      ],
      "stateMutability": "view",
      "type": "function"
    },
    {
      "inputs": [],
      "name": "getSellingRecord",
      "outputs": [
        {
          "components": [
            {
              "internalType": "uint256",
              "name": "id",
              "type": "uint256"
            },
            {
              "internalType": "string",
              "name": "title",
              "type": "string"
            },
            {
              "internalType": "string",
              "name": "description",
              "type": "string"
            },
            {
              "internalType": "bool",
              "name": "islisted",
              "type": "bool"
            },
            {
              "internalType": "string",
              "name": "imageURL",
              "type": "string"
            },
            {
              "internalType": "address",
              "name": "owner",
              "type": "address"
            },
            {
              "internalType": "address[]",
              "name": "accessibleBy",
              "type": "address[]"
            },
            {
              "internalType": "uint256",
              "name": "timestamp",
              "type": "uint256"
            },
            {
              "internalType": "uint256",
              "name": "price",
              "type": "uint256"
            },
            {
              "internalType": "string",
              "name": "tags",
              "type": "string"
            },
            {
              "internalType": "string",
              "name": "preview",
              "type": "string"
            }
          ],
          "internalType": "struct syncdata.Record[]",
          "name": "",
          "type": "tuple[]"
        }
      ],
      "stateMutability": "view",
      "type": "function"
    },
    {
      "inputs": [],
      "name": "getUserName",
      "outputs": [
        {
          "internalType": "string",
          "name": "",
          "type": "string"
        }
      ],
      "stateMutability": "view",
      "type": "function"
    },
    {
      "inputs": [],
      "name": "giveContractBalance",
      "outputs": [
        {
          "internalType": "uint256",
          "name": "",
          "type": "uint256"
        }
      ],
      "stateMutability": "view",
      "type": "function"
    },
    {
      "inputs": [
        {
          "internalType": "string",
          "name": "temp2",
          "type": "string"
        }
      ],
      "name": "helper",
      "outputs": [
        {
          "internalType": "address",
          "name": "",
          "type": "address"
        }
      ],
      "stateMutability": "view",
      "type": "function"
    },
    {
      "inputs": [
        {
          "internalType": "string",
          "name": "_newOwnerUserName",
          "type": "string"
        },
        {
          "internalType": "uint256",
          "name": "id",
          "type": "uint256"
        }
      ],
      "name": "newOwner",
      "outputs": [],
      "stateMutability": "nonpayable",
      "type": "function"
    },
    {
      "inputs": [
        {
          "internalType": "uint256",
          "name": "",
          "type": "uint256"
        }
      ],
      "name": "records",
      "outputs": [
        {
          "internalType": "uint256",
          "name": "id",
          "type": "uint256"
        },
        {
          "internalType": "string",
          "name": "title",
          "type": "string"
        },
        {
          "internalType": "string",
          "name": "description",
          "type": "string"
        },
        {
          "internalType": "bool",
          "name": "islisted",
          "type": "bool"
        },
        {
          "internalType": "string",
          "name": "imageURL",
          "type": "string"
        },
        {
          "internalType": "address",
          "name": "owner",
          "type": "address"
        },
        {
          "internalType": "uint256",
          "name": "timestamp",
          "type": "uint256"
        },
        {
          "internalType": "uint256",
          "name": "price",
          "type": "uint256"
        },
        {
          "internalType": "string",
          "name": "tags",
          "type": "string"
        },
        {
          "internalType": "string",
          "name": "preview",
          "type": "string"
        }
      ],
      "stateMutability": "view",
      "type": "function"
    },
    {
      "inputs": [
        {
          "internalType": "uint256",
          "name": "id",
          "type": "uint256"
        },
        {
          "internalType": "string",
          "name": "code",
          "type": "string"
        }
      ],
      "name": "redeemCoupon",
      "outputs": [],
      "stateMutability": "nonpayable",
      "type": "function"
    },
    {
      "inputs": [
        {
          "internalType": "string",
          "name": "_removeOwnerUserName",
          "type": "string"
        },
        {
          "internalType": "uint256",
          "name": "id",
          "type": "uint256"
        }
      ],
      "name": "removeOwner",
      "outputs": [],
      "stateMutability": "nonpayable",
      "type": "function"
    },
    {
      "inputs": [
        {
          "internalType": "uint256",
          "name": "id",
          "type": "uint256"
        },
        {
          "internalType": "string",
          "name": "preview",
          "type": "string"
        },
        {
          "internalType": "uint256",
          "name": "price",
          "type": "uint256"
        }
      ],
      "name": "sellTheFile",
      "outputs": [],
      "stateMutability": "nonpayable",
      "type": "function"
    },
    {
      "inputs": [
        {
          "internalType": "uint256",
          "name": "",
          "type": "uint256"
        }
      ],
      "name": "sellingFileId",
      "outputs": [
        {
          "internalType": "uint256",
          "name": "",
          "type": "uint256"
        }
      ],
      "stateMutability": "view",
      "type": "function"
    },
    {
      "inputs": [
        {
          "internalType": "string",
          "name": "userName",
          "type": "string"
        }
      ],
      "name": "storeUserName",
      "outputs": [],
      "stateMutability": "nonpayable",
      "type": "function"
    }
  ],
  "bytecode": "0x6080604052600067ffffffffffffffff811115620000225762000021620002be565b5b604051908082528060200260200182016040528015620000515781602001602082028036833780820191505090505b50600290805190602001906200006992919062000142565b50600067ffffffffffffffff811115620000885762000087620002be565b5b604051908082528060200260200182016040528015620000bd57816020015b6060815260200190600190039081620000a75790505b5060039080519060200190620000d5929190620001d1565b50600067ffffffffffffffff811115620000f457620000f3620002be565b5b604051908082528060200260200182016040528015620001235781602001602082028036833780820191505090505b50600490805190602001906200013b92919062000142565b506200061f565b828054828255906000526020600020908101928215620001be579160200282015b82811115620001bd5782518260006101000a81548173ffffffffffffffffffffffffffffffffffffffff021916908373ffffffffffffffffffffffffffffffffffffffff1602179055509160200191906001019062000163565b5b509050620001cd919062000231565b5090565b8280548282559060005260206000209081019282156200021e579160200282015b828111156200021d5782518290816200020c919062000538565b5091602001919060010190620001f2565b5b5090506200022d919062000250565b5090565b5b808211156200024c57600081600090555060010162000232565b5090565b5b808211156200027457600081816200026a919062000278565b5060010162000251565b5090565b508054620002869062000327565b6000825580601f106200029a5750620002bb565b601f016020900490600052602060002090810190620002ba919062000231565b5b50565b7f4e487b7100000000000000000000000000000000000000000000000000000000600052604160045260246000fd5b600081519050919050565b7f4e487b7100000000000000000000000000000000000000000000000000000000600052602260045260246000fd5b600060028204905060018216806200034057607f821691505b602082108103620003565762000355620002f8565b5b50919050565b60008190508160005260206000209050919050565b60006020601f8301049050919050565b600082821b905092915050565b600060088302620003c07fffffffffffffffffffffffffffffffffffffffffffffffffffffffffffffffff8262000381565b620003cc868362000381565b95508019841693508086168417925050509392505050565b6000819050919050565b6000819050919050565b600062000419620004136200040d84620003e4565b620003ee565b620003e4565b9050919050565b6000819050919050565b6200043583620003f8565b6200044d620004448262000420565b8484546200038e565b825550505050565b600090565b6200046462000455565b620004718184846200042a565b505050565b5b8181101562000499576200048d6000826200045a565b60018101905062000477565b5050565b601f821115620004e857620004b2816200035c565b620004bd8462000371565b81016020851015620004cd578190505b620004e5620004dc8562000371565b83018262000476565b50505b505050565b600082821c905092915050565b60006200050d60001984600802620004ed565b1980831691505092915050565b6000620005288383620004fa565b9150826002028217905092915050565b6200054382620002ed565b67ffffffffffffffff8111156200055f576200055e620002be565b5b6200056b825462000327565b620005788282856200049d565b600060209050601f831160018114620005b057600084156200059b578287015190505b620005a785826200051a565b86555062000617565b601f198416620005c0866200035c565b60005b82811015620005ea57848901518255600182019150602085019450602081019050620005c3565b868310156200060a578489015162000606601f891682620004fa565b8355505b6001600288020188555050505b505050505050565b615a3a806200062f6000396000f3fe60806040526004361061011f5760003560e01c806378fbb867116100a0578063d3a22a8211610064578063d3a22a82146103ef578063e1dc63f014610418578063e227cf8a14610441578063e3e18cc51461046c578063f31bb177146104955761011f565b806378fbb867146103265780637c8ad96214610363578063878e688e146103a0578063af205ea3146103bc578063c7fb53eb146103e55761011f565b80634efb8a4b116100e75780634efb8a4b1461023c57806360be0b1114610265578063653467c4146102815780636f587e3b146102be578063773d79dc146102fb5761011f565b806312958f1c14610124578063298ba2be1461014f57806330828e921461018c57806334461067146101cb57806340ed640314610211575b600080fd5b34801561013057600080fd5b506101396104d2565b60405161014691906141b0565b60405180910390f35b34801561015b57600080fd5b506101766004803603810190610171919061421c565b610635565b60405161018391906144bf565b60405180910390f35b34801561019857600080fd5b506101b360048036038101906101ae919061421c565b610c58565b6040516101c2939291906144f0565b60405180910390f35b3480156101d757600080fd5b506101f260048036038101906101ed919061421c565b610d0a565b6040516102089a9998979695949392919061454c565b60405180910390f35b34801561021d57600080fd5b50610226611043565b604051610233919061460b565b60405180910390f35b34801561024857600080fd5b50610263600480360381019061025e919061475b565b61104b565b005b61027f600480360381019061027a91906147b7565b611801565b005b34801561028d57600080fd5b506102a860048036038101906102a3919061421c565b611bcd565b6040516102b5919061460b565b60405180910390f35b3480156102ca57600080fd5b506102e560048036038101906102e0919061488e565b611bf1565b6040516102f291906141b0565b60405180910390f35b34801561030757600080fd5b50610310611ca4565b60405161031d9190614ae5565b60405180910390f35b34801561033257600080fd5b5061034d60048036038101906103489190614b07565b6122db565b60405161035a9190614b50565b60405180910390f35b34801561036f57600080fd5b5061038a60048036038101906103859190614b07565b612323565b6040516103979190614ae5565b60405180910390f35b6103ba60048036038101906103b5919061421c565b6129fd565b005b3480156103c857600080fd5b506103e360048036038101906103de919061475b565b612da1565b005b6103ed6131f6565b005b3480156103fb57600080fd5b5061041660048036038101906104119190614b07565b613245565b005b34801561042457600080fd5b5061043f600480360381019061043a9190614b6b565b613386565b005b34801561044d57600080fd5b50610456613575565b6040516104639190614ae5565b60405180910390f35b34801561047857600080fd5b50610493600480360381019061048e9190614bc7565b613b17565b005b3480156104a157600080fd5b506104bc60048036038101906104b7919061421c565b613d6d565b6040516104c99190614cf8565b60405180910390f35b60606000600c60003373ffffffffffffffffffffffffffffffffffffffff1673ffffffffffffffffffffffffffffffffffffffff1681526020019081526020016000209050600081805461052590614d49565b905003610567576040517f08c379a000000000000000000000000000000000000000000000000000000000815260040161055e90614dc6565b60405180910390fd5b600c60003373ffffffffffffffffffffffffffffffffffffffff1673ffffffffffffffffffffffffffffffffffffffff16815260200190815260200160002080546105b190614d49565b80601f01602080910402602001604051908101604052809291908181526020018280546105dd90614d49565b801561062a5780601f106105ff5761010080835404028352916020019161062a565b820191906000526020600020905b81548152906001019060200180831161060d57829003601f168201915b505050505091505090565b61063d613fc7565b6001805490508210610684576040517f08c379a000000000000000000000000000000000000000000000000000000000815260040161067b90614e32565b60405180910390fd5b60006001838154811061069a57610699614e52565b5b90600052602060002090600b020160405180610160016040529081600082015481526020016001820180546106ce90614d49565b80601f01602080910402602001604051908101604052809291908181526020018280546106fa90614d49565b80156107475780601f1061071c57610100808354040283529160200191610747565b820191906000526020600020905b81548152906001019060200180831161072a57829003601f168201915b5050505050815260200160028201805461076090614d49565b80601f016020809104026020016040519081016040528092919081815260200182805461078c90614d49565b80156107d95780601f106107ae576101008083540402835291602001916107d9565b820191906000526020600020905b8154815290600101906020018083116107bc57829003601f168201915b505050505081526020016003820160009054906101000a900460ff1615151515815260200160048201805461080d90614d49565b80601f016020809104026020016040519081016040528092919081815260200182805461083990614d49565b80156108865780601f1061085b57610100808354040283529160200191610886565b820191906000526020600020905b81548152906001019060200180831161086957829003601f168201915b505050505081526020016005820160009054906101000a900473ffffffffffffffffffffffffffffffffffffffff1673ffffffffffffffffffffffffffffffffffffffff1673ffffffffffffffffffffffffffffffffffffffff1681526020016006820180548060200260200160405190810160405280929190818152602001828054801561096a57602002820191906000526020600020905b8160009054906101000a900473ffffffffffffffffffffffffffffffffffffffff1673ffffffffffffffffffffffffffffffffffffffff1681526020019060010190808311610920575b50505050508152602001600782015481526020016008820154815260200160098201805461099790614d49565b80601f01602080910402602001604051908101604052809291908181526020018280546109c390614d49565b8015610a105780601f106109e557610100808354040283529160200191610a10565b820191906000526020600020905b8154815290600101906020018083116109f357829003601f168201915b50505050508152602001600a82018054610a2990614d49565b80601f0160208091040260200160405190810160405280929190818152602001828054610a5590614d49565b8015610aa25780601f10610a7757610100808354040283529160200191610aa2565b820191906000526020600020905b815481529060010190602001808311610a8557829003601f168201915b50505050508152505090506000805b60018581548110610ac557610ac4614e52565b5b90600052602060002090600b020160060180549050811015610b8d573373ffffffffffffffffffffffffffffffffffffffff1660018681548110610b0c57610b0b614e52565b5b90600052602060002090600b02016006018281548110610b2f57610b2e614e52565b5b9060005260206000200160009054906101000a900473ffffffffffffffffffffffffffffffffffffffff1673ffffffffffffffffffffffffffffffffffffffff1603610b7a57600191505b8080610b8590614eb0565b915050610ab1565b5080151560001515148015610ba85750816101000151600014155b15610c0e57600960003373ffffffffffffffffffffffffffffffffffffffff1673ffffffffffffffffffffffffffffffffffffffff168152602001908152602001600020600085815260200190815260200160002060009054906101000a900460ff1690505b80610c4e576040517f08c379a0000000000000000000000000000000000000000000000000000000008152600401610c4590614f6a565b60405180910390fd5b8192505050919050565b6006602052806000526040600020600091509050806000018054610c7b90614d49565b80601f0160208091040260200160405190810160405280929190818152602001828054610ca790614d49565b8015610cf45780601f10610cc957610100808354040283529160200191610cf4565b820191906000526020600020905b815481529060010190602001808311610cd757829003601f168201915b5050505050908060010154908060020154905083565b60018181548110610d1a57600080fd5b90600052602060002090600b0201600091509050806000015490806001018054610d4390614d49565b80601f0160208091040260200160405190810160405280929190818152602001828054610d6f90614d49565b8015610dbc5780601f10610d9157610100808354040283529160200191610dbc565b820191906000526020600020905b815481529060010190602001808311610d9f57829003601f168201915b505050505090806002018054610dd190614d49565b80601f0160208091040260200160405190810160405280929190818152602001828054610dfd90614d49565b8015610e4a5780601f10610e1f57610100808354040283529160200191610e4a565b820191906000526020600020905b815481529060010190602001808311610e2d57829003601f168201915b5050505050908060030160009054906101000a900460ff1690806004018054610e7290614d49565b80601f0160208091040260200160405190810160405280929190818152602001828054610e9e90614d49565b8015610eeb5780601f10610ec057610100808354040283529160200191610eeb565b820191906000526020600020905b815481529060010190602001808311610ece57829003601f168201915b5050505050908060050160009054906101000a900473ffffffffffffffffffffffffffffffffffffffff1690806007015490806008015490806009018054610f3290614d49565b80601f0160208091040260200160405190810160405280929190818152602001828054610f5e90614d49565b8015610fab5780601f10610f8057610100808354040283529160200191610fab565b820191906000526020600020905b815481529060010190602001808311610f8e57829003601f168201915b50505050509080600a018054610fc090614d49565b80601f0160208091040260200160405190810160405280929190818152602001828054610fec90614d49565b80156110395780601f1061100e57610100808354040283529160200191611039565b820191906000526020600020905b81548152906001019060200180831161101c57829003601f168201915b505050505090508a565b600047905090565b6001805490508110611092576040517f08c379a000000000000000000000000000000000000000000000000000000000815260040161108990614fd6565b60405180910390fd5b600181815481106110a6576110a5614e52565b5b90600052602060002090600b020160050160009054906101000a900473ffffffffffffffffffffffffffffffffffffffff1673ffffffffffffffffffffffffffffffffffffffff163373ffffffffffffffffffffffffffffffffffffffff1614611145576040517f08c379a000000000000000000000000000000000000000000000000000000000815260040161113c90615042565b60405180910390fd5b6000600d83604051611157919061509e565b908152602001604051809103902060009054906101000a900473ffffffffffffffffffffffffffffffffffffffff169050600073ffffffffffffffffffffffffffffffffffffffff168173ffffffffffffffffffffffffffffffffffffffff16036111f7576040517f08c379a00000000000000000000000000000000000000000000000000000000081526004016111ee90615127565b60405180910390fd5b3373ffffffffffffffffffffffffffffffffffffffff168173ffffffffffffffffffffffffffffffffffffffff1603611265576040517f08c379a000000000000000000000000000000000000000000000000000000000815260040161125c906151df565b60405180910390fd5b6000600760008373ffffffffffffffffffffffffffffffffffffffff1673ffffffffffffffffffffffffffffffffffffffff16815260200190815260200160002080549050905060005b600760008473ffffffffffffffffffffffffffffffffffffffff1673ffffffffffffffffffffffffffffffffffffffff168152602001908152602001600020805490508110156117b857600760008473ffffffffffffffffffffffffffffffffffffffff1673ffffffffffffffffffffffffffffffffffffffff168152602001908152602001600020818154811061134a57611349614e52565b5b906000526020600020015484036117a557600760008473ffffffffffffffffffffffffffffffffffffffff1673ffffffffffffffffffffffffffffffffffffffff1681526020019081526020016000208054905060010361140f57600760008473ffffffffffffffffffffffffffffffffffffffff1673ffffffffffffffffffffffffffffffffffffffff1681526020019081526020016000208054806113f4576113f36151ff565b5b6001900381819060005260206000200160009055905561153c565b600760008473ffffffffffffffffffffffffffffffffffffffff1673ffffffffffffffffffffffffffffffffffffffff16815260200190815260200160002060018361145b919061522e565b8154811061146c5761146b614e52565b5b9060005260206000200154600760008573ffffffffffffffffffffffffffffffffffffffff1673ffffffffffffffffffffffffffffffffffffffff16815260200190815260200160002082815481106114c8576114c7614e52565b5b9060005260206000200181905550600760008473ffffffffffffffffffffffffffffffffffffffff1673ffffffffffffffffffffffffffffffffffffffff168152602001908152602001600020805480611525576115246151ff565b5b600190038181906000526020600020016000905590555b60006001858154811061155257611551614e52565b5b90600052602060002090600b020160060180549050905060005b600186815481106115805761157f614e52565b5b90600052602060002090600b02016006018054905081101561179b57600186815481106115b0576115af614e52565b5b90600052602060002090600b020160060181815481106115d3576115d2614e52565b5b9060005260206000200160009054906101000a900473ffffffffffffffffffffffffffffffffffffffff1673ffffffffffffffffffffffffffffffffffffffff168573ffffffffffffffffffffffffffffffffffffffff1603611788576001868154811061164457611643614e52565b5b90600052602060002090600b0201600601600183611662919061522e565b8154811061167357611672614e52565b5b9060005260206000200160009054906101000a900473ffffffffffffffffffffffffffffffffffffffff16600187815481106116b2576116b1614e52565b5b90600052602060002090600b020160060182815481106116d5576116d4614e52565b5b9060005260206000200160006101000a81548173ffffffffffffffffffffffffffffffffffffffff021916908373ffffffffffffffffffffffffffffffffffffffff1602179055506001868154811061173157611730614e52565b5b90600052602060002090600b0201600601805480611752576117516151ff565b5b6001900381819060005260206000200160006101000a81549073ffffffffffffffffffffffffffffffffffffffff021916905590555b808061179390614eb0565b91505061156c565b50505050506117fd565b80806117b090614eb0565b9150506112af565b5060006117fa576040517f08c379a00000000000000000000000000000000000000000000000000000000081526004016117f1906152d4565b60405180910390fd5b50505b5050565b600760003373ffffffffffffffffffffffffffffffffffffffff1673ffffffffffffffffffffffffffffffffffffffff1681526020019081526020016000206001805490509080600181540180825580915050600190039060005260206000200160009091909190915055600860003373ffffffffffffffffffffffffffffffffffffffff1673ffffffffffffffffffffffffffffffffffffffff1681526020019081526020016000206001805490509080600181540180825580915050600190039060005260206000200160009091909190915055600060018054905090506002339080600181540180825580915050600190039060005260206000200160009091909190916101000a81548173ffffffffffffffffffffffffffffffffffffffff021916908373ffffffffffffffffffffffffffffffffffffffff16021790555060016040518061016001604052808381526020018781526020018681526020016001151581526020018581526020013373ffffffffffffffffffffffffffffffffffffffff1681526020016002805480602002602001604051908101604052809291908181526020018280548015611a1157602002820191906000526020600020905b8160009054906101000a900473ffffffffffffffffffffffffffffffffffffffff1673ffffffffffffffffffffffffffffffffffffffff16815260200190600101908083116119c7575b50505050508152602001428152602001600081526020018481526020016040518060200160405280600081525081525090806001815401808255809150506001900390600052602060002090600b0201600090919091909150600082015181600001556020820151816001019081611a8991906154a0565b506040820151816002019081611a9f91906154a0565b5060608201518160030160006101000a81548160ff0219169083151502179055506080820151816004019081611ad591906154a0565b5060a08201518160050160006101000a81548173ffffffffffffffffffffffffffffffffffffffff021916908373ffffffffffffffffffffffffffffffffffffffff16021790555060c0820151816006019080519060200190611b39929190614039565b5060e082015181600701556101008201518160080155610120820151816009019081611b6591906154a0565b5061014082015181600a019081611b7c91906154a0565b5050506002805480611b9157611b906151ff565b5b6001900381819060005260206000200160006101000a81549073ffffffffffffffffffffffffffffffffffffffff021916905590555050505050565b60008181548110611bdd57600080fd5b906000526020600020016000915090505481565b6060610e1042611c019190615572565b9150604051806060016040528085815260200184815260200183815250600660008781526020019081526020016000206000820151816000019081611c4691906154a0565b5060208201518160010155604082015181600201559050507f506c1c7dd360506da713451f9275b3cfa046b07a1318ba73623d3b27d6acff7d848484604051611c91939291906144f0565b60405180910390a1839050949350505050565b60606000805b600080549050811015611d6057600960003373ffffffffffffffffffffffffffffffffffffffff1673ffffffffffffffffffffffffffffffffffffffff1681526020019081526020016000206000808381548110611d0b57611d0a614e52565b5b9060005260206000200154815260200190815260200160002060009054906101000a900460ff1615156000151503611d4d57600182611d4a9190615572565b91505b8080611d5890614eb0565b915050611caa565b5060008167ffffffffffffffff811115611d7d57611d7c614630565b5b604051908082528060200260200182016040528015611db657816020015b611da3613fc7565b815260200190600190039081611d9b5790505b5090506000805b6000805490508110156122d157600960003373ffffffffffffffffffffffffffffffffffffffff1673ffffffffffffffffffffffffffffffffffffffff1681526020019081526020016000206000808381548110611e1e57611e1d614e52565b5b9060005260206000200154815260200190815260200160002060009054906101000a900460ff16151560001515036122be57600160008281548110611e6657611e65614e52565b5b906000526020600020015481548110611e8257611e81614e52565b5b90600052602060002090600b02016040518061016001604052908160008201548152602001600182018054611eb690614d49565b80601f0160208091040260200160405190810160405280929190818152602001828054611ee290614d49565b8015611f2f5780601f10611f0457610100808354040283529160200191611f2f565b820191906000526020600020905b815481529060010190602001808311611f1257829003601f168201915b50505050508152602001600282018054611f4890614d49565b80601f0160208091040260200160405190810160405280929190818152602001828054611f7490614d49565b8015611fc15780601f10611f9657610100808354040283529160200191611fc1565b820191906000526020600020905b815481529060010190602001808311611fa457829003601f168201915b505050505081526020016003820160009054906101000a900460ff16151515158152602001600482018054611ff590614d49565b80601f016020809104026020016040519081016040528092919081815260200182805461202190614d49565b801561206e5780601f106120435761010080835404028352916020019161206e565b820191906000526020600020905b81548152906001019060200180831161205157829003601f168201915b505050505081526020016005820160009054906101000a900473ffffffffffffffffffffffffffffffffffffffff1673ffffffffffffffffffffffffffffffffffffffff1673ffffffffffffffffffffffffffffffffffffffff1681526020016006820180548060200260200160405190810160405280929190818152602001828054801561215257602002820191906000526020600020905b8160009054906101000a900473ffffffffffffffffffffffffffffffffffffffff1673ffffffffffffffffffffffffffffffffffffffff1681526020019060010190808311612108575b50505050508152602001600782015481526020016008820154815260200160098201805461217f90614d49565b80601f01602080910402602001604051908101604052809291908181526020018280546121ab90614d49565b80156121f85780601f106121cd576101008083540402835291602001916121f8565b820191906000526020600020905b8154815290600101906020018083116121db57829003601f168201915b50505050508152602001600a8201805461221190614d49565b80601f016020809104026020016040519081016040528092919081815260200182805461223d90614d49565b801561228a5780601f1061225f5761010080835404028352916020019161228a565b820191906000526020600020905b81548152906001019060200180831161226d57829003601f168201915b50505050508152505083838061229f90614eb0565b9450815181106122b2576122b1614e52565b5b60200260200101819052505b80806122c990614eb0565b915050611dbd565b5081935050505090565b6000600d826040516122ed919061509e565b908152602001604051809103902060009054906101000a900473ffffffffffffffffffffffffffffffffffffffff169050919050565b60606000600760003373ffffffffffffffffffffffffffffffffffffffff1673ffffffffffffffffffffffffffffffffffffffff16815260200190815260200160002080549050116123aa576040517f08c379a00000000000000000000000000000000000000000000000000000000081526004016123a1906155f2565b60405180910390fd5b6000600760003373ffffffffffffffffffffffffffffffffffffffff1673ffffffffffffffffffffffffffffffffffffffff1681526020019081526020016000208054905067ffffffffffffffff81111561240857612407614630565b5b60405190808252806020026020018201604052801561244157816020015b61242e613fc7565b8152602001906001900390816124265790505b5090506000805b600760003373ffffffffffffffffffffffffffffffffffffffff1673ffffffffffffffffffffffffffffffffffffffff168152602001908152602001600020805490508110156129f25784805190602001206001600760003373ffffffffffffffffffffffffffffffffffffffff1673ffffffffffffffffffffffffffffffffffffffff16815260200190815260200160002083815481106124ed576124ec614e52565b5b90600052602060002001548154811061250957612508614e52565b5b90600052602060002090600b020160090160405161252791906156b5565b6040518091039020036129df576001600760003373ffffffffffffffffffffffffffffffffffffffff1673ffffffffffffffffffffffffffffffffffffffff168152602001908152602001600020828154811061258757612586614e52565b5b9060005260206000200154815481106125a3576125a2614e52565b5b90600052602060002090600b020160405180610160016040529081600082015481526020016001820180546125d790614d49565b80601f016020809104026020016040519081016040528092919081815260200182805461260390614d49565b80156126505780601f1061262557610100808354040283529160200191612650565b820191906000526020600020905b81548152906001019060200180831161263357829003601f168201915b5050505050815260200160028201805461266990614d49565b80601f016020809104026020016040519081016040528092919081815260200182805461269590614d49565b80156126e25780601f106126b7576101008083540402835291602001916126e2565b820191906000526020600020905b8154815290600101906020018083116126c557829003601f168201915b505050505081526020016003820160009054906101000a900460ff1615151515815260200160048201805461271690614d49565b80601f016020809104026020016040519081016040528092919081815260200182805461274290614d49565b801561278f5780601f106127645761010080835404028352916020019161278f565b820191906000526020600020905b81548152906001019060200180831161277257829003601f168201915b505050505081526020016005820160009054906101000a900473ffffffffffffffffffffffffffffffffffffffff1673ffffffffffffffffffffffffffffffffffffffff1673ffffffffffffffffffffffffffffffffffffffff1681526020016006820180548060200260200160405190810160405280929190818152602001828054801561287357602002820191906000526020600020905b8160009054906101000a900473ffffffffffffffffffffffffffffffffffffffff1673ffffffffffffffffffffffffffffffffffffffff1681526020019060010190808311612829575b5050505050815260200160078201548152602001600882015481526020016009820180546128a090614d49565b80601f01602080910402602001604051908101604052809291908181526020018280546128cc90614d49565b80156129195780601f106128ee57610100808354040283529160200191612919565b820191906000526020600020905b8154815290600101906020018083116128fc57829003601f168201915b50505050508152602001600a8201805461293290614d49565b80601f016020809104026020016040519081016040528092919081815260200182805461295e90614d49565b80156129ab5780601f10612980576101008083540402835291602001916129ab565b820191906000526020600020905b81548152906001019060200180831161298e57829003601f168201915b5050505050815250508383806129c090614eb0565b9450815181106129d3576129d2614e52565b5b60200260200101819052505b80806129ea90614eb0565b915050612448565b508192505050919050565b6001805490508110612a44576040517f08c379a0000000000000000000000000000000000000000000000000000000008152600401612a3b90614fd6565b60405180910390fd5b60005b600080549050811015612d9c5760008181548110612a6857612a67614e52565b5b90600052602060002001548203612d8957600960003373ffffffffffffffffffffffffffffffffffffffff1673ffffffffffffffffffffffffffffffffffffffff168152602001908152602001600020600083815260200190815260200160002060009054906101000a900460ff1615612b22576000612b1d576040517f08c379a0000000000000000000000000000000000000000000000000000000008152600401612b1490615718565b60405180910390fd5b612d88565b60018281548110612b3657612b35614e52565b5b90600052602060002090600b0201600801543373ffffffffffffffffffffffffffffffffffffffff16311015612ba1576040517f08c379a0000000000000000000000000000000000000000000000000000000008152600401612b9890615784565b60405180910390fd5b60018281548110612bb557612bb4614e52565b5b90600052602060002090600b020160050160009054906101000a900473ffffffffffffffffffffffffffffffffffffffff1673ffffffffffffffffffffffffffffffffffffffff166108fc349081150290604051600060405180830381858888f19350505050158015612c2c573d6000803e3d6000fd5b506001600960003373ffffffffffffffffffffffffffffffffffffffff1673ffffffffffffffffffffffffffffffffffffffff168152602001908152602001600020600084815260200190815260200160002060006101000a81548160ff02191690831515021790555060018281548110612caa57612ca9614e52565b5b90600052602060002090600b0201600601339080600181540180825580915050600190039060005260206000200160009091909190916101000a81548173ffffffffffffffffffffffffffffffffffffffff021916908373ffffffffffffffffffffffffffffffffffffffff160217905550600760003373ffffffffffffffffffffffffffffffffffffffff1673ffffffffffffffffffffffffffffffffffffffff16815260200190815260200160002082908060018154018082558091505060019003906000526020600020016000909190919091505550612d9e565b5b8080612d9490614eb0565b915050612a47565b505b50565b6001805490508110612de8576040517f08c379a0000000000000000000000000000000000000000000000000000000008152600401612ddf90614fd6565b60405180910390fd5b60018181548110612dfc57612dfb614e52565b5b90600052602060002090600b020160050160009054906101000a900473ffffffffffffffffffffffffffffffffffffffff1673ffffffffffffffffffffffffffffffffffffffff163373ffffffffffffffffffffffffffffffffffffffff1614612e9b576040517f08c379a0000000000000000000000000000000000000000000000000000000008152600401612e9290615042565b60405180910390fd5b6000600d83604051612ead919061509e565b908152602001604051809103902060009054906101000a900473ffffffffffffffffffffffffffffffffffffffff169050600073ffffffffffffffffffffffffffffffffffffffff168173ffffffffffffffffffffffffffffffffffffffff1603612f4d576040517f08c379a0000000000000000000000000000000000000000000000000000000008152600401612f4490615127565b60405180910390fd5b60018281548110612f6157612f60614e52565b5b90600052602060002090600b020160050160009054906101000a900473ffffffffffffffffffffffffffffffffffffffff1673ffffffffffffffffffffffffffffffffffffffff168173ffffffffffffffffffffffffffffffffffffffff1603613000576040517f08c379a0000000000000000000000000000000000000000000000000000000008152600401612ff790615816565b60405180910390fd5b60005b600760008373ffffffffffffffffffffffffffffffffffffffff1673ffffffffffffffffffffffffffffffffffffffff1681526020019081526020016000208054905081101561310457600760008373ffffffffffffffffffffffffffffffffffffffff1673ffffffffffffffffffffffffffffffffffffffff168152602001908152602001600020818154811061309e5761309d614e52565b5b906000526020600020015483036130f15760006130f0576040517f08c379a00000000000000000000000000000000000000000000000000000000081526004016130e7906158a8565b60405180910390fd5b5b80806130fc90614eb0565b915050613003565b50600760008273ffffffffffffffffffffffffffffffffffffffff1673ffffffffffffffffffffffffffffffffffffffff1681526020019081526020016000208290806001815401808255809150506001900390600052602060002001600090919091909150556001828154811061317f5761317e614e52565b5b90600052602060002090600b0201600601819080600181540180825580915050600190039060005260206000200160009091909190916101000a81548173ffffffffffffffffffffffffffffffffffffffff021916908373ffffffffffffffffffffffffffffffffffffffff160217905550505050565b60003090508073ffffffffffffffffffffffffffffffffffffffff166108fc349081150290604051600060405180830381858888f19350505050158015613241573d6000803e3d6000fd5b5050565b6000600c60003373ffffffffffffffffffffffffffffffffffffffff1673ffffffffffffffffffffffffffffffffffffffff1681526020019081526020016000209050600081805461329690614d49565b9050146132d8576040517f08c379a00000000000000000000000000000000000000000000000000000000081526004016132cf90615914565b60405180910390fd5b81600c60003373ffffffffffffffffffffffffffffffffffffffff1673ffffffffffffffffffffffffffffffffffffffff168152602001908152602001600020908161332491906154a0565b5033600d83604051613336919061509e565b908152602001604051809103902060006101000a81548173ffffffffffffffffffffffffffffffffffffffff021916908373ffffffffffffffffffffffffffffffffffffffff1602179055505050565b4260066000848152602001908152602001600020600201541115613571576001600960003373ffffffffffffffffffffffffffffffffffffffff1673ffffffffffffffffffffffffffffffffffffffff168152602001908152602001600020600084815260200190815260200160002060006101000a81548160ff0219169083151502179055506001828154811061342157613420614e52565b5b90600052602060002090600b0201600601339080600181540180825580915050600190039060005260206000200160009091909190916101000a81548173ffffffffffffffffffffffffffffffffffffffff021916908373ffffffffffffffffffffffffffffffffffffffff160217905550600760003373ffffffffffffffffffffffffffffffffffffffff1673ffffffffffffffffffffffffffffffffffffffff1681526020019081526020016000208290806001815401808255809150506001900390600052602060002001600090919091909150556000429050600660008481526020019081526020016000206000808201600061352291906140c3565b6001820160009055600282016000905550507fa7c1773722c3780482de45e0e6cdbb7395909d386fccd19d7b2aac127a796ac382338360405161356793929190615934565b60405180910390a1505b5050565b60606000600860003373ffffffffffffffffffffffffffffffffffffffff1673ffffffffffffffffffffffffffffffffffffffff1681526020019081526020016000208054905067ffffffffffffffff8111156135d5576135d4614630565b5b60405190808252806020026020018201604052801561360e57816020015b6135fb613fc7565b8152602001906001900390816135f35790505b50905060005b600860003373ffffffffffffffffffffffffffffffffffffffff1673ffffffffffffffffffffffffffffffffffffffff16815260200190815260200160002080549050811015613b0f576001600860003373ffffffffffffffffffffffffffffffffffffffff1673ffffffffffffffffffffffffffffffffffffffff16815260200190815260200160002082815481106136b1576136b0614e52565b5b9060005260206000200154815481106136cd576136cc614e52565b5b90600052602060002090600b0201604051806101600160405290816000820154815260200160018201805461370190614d49565b80601f016020809104026020016040519081016040528092919081815260200182805461372d90614d49565b801561377a5780601f1061374f5761010080835404028352916020019161377a565b820191906000526020600020905b81548152906001019060200180831161375d57829003601f168201915b5050505050815260200160028201805461379390614d49565b80601f01602080910402602001604051908101604052809291908181526020018280546137bf90614d49565b801561380c5780601f106137e15761010080835404028352916020019161380c565b820191906000526020600020905b8154815290600101906020018083116137ef57829003601f168201915b505050505081526020016003820160009054906101000a900460ff1615151515815260200160048201805461384090614d49565b80601f016020809104026020016040519081016040528092919081815260200182805461386c90614d49565b80156138b95780601f1061388e576101008083540402835291602001916138b9565b820191906000526020600020905b81548152906001019060200180831161389c57829003601f168201915b505050505081526020016005820160009054906101000a900473ffffffffffffffffffffffffffffffffffffffff1673ffffffffffffffffffffffffffffffffffffffff1673ffffffffffffffffffffffffffffffffffffffff1681526020016006820180548060200260200160405190810160405280929190818152602001828054801561399d57602002820191906000526020600020905b8160009054906101000a900473ffffffffffffffffffffffffffffffffffffffff1673ffffffffffffffffffffffffffffffffffffffff1681526020019060010190808311613953575b5050505050815260200160078201548152602001600882015481526020016009820180546139ca90614d49565b80601f01602080910402602001604051908101604052809291908181526020018280546139f690614d49565b8015613a435780601f10613a1857610100808354040283529160200191613a43565b820191906000526020600020905b815481529060010190602001808311613a2657829003601f168201915b50505050508152602001600a82018054613a5c90614d49565b80601f0160208091040260200160405190810160405280929190818152602001828054613a8890614d49565b8015613ad55780601f10613aaa57610100808354040283529160200191613ad5565b820191906000526020600020905b815481529060010190602001808311613ab857829003601f168201915b505050505081525050828281518110613af157613af0614e52565b5b60200260200101819052508080613b0790614eb0565b915050613614565b508091505090565b6001805490508310613b5e576040517f08c379a0000000000000000000000000000000000000000000000000000000008152600401613b5590614fd6565b60405180910390fd5b3373ffffffffffffffffffffffffffffffffffffffff1660018481548110613b8957613b88614e52565b5b90600052602060002090600b020160050160009054906101000a900473ffffffffffffffffffffffffffffffffffffffff1673ffffffffffffffffffffffffffffffffffffffff1614613c11576040517f08c379a0000000000000000000000000000000000000000000000000000000008152600401613c0890615042565b60405180910390fd5b600060018481548110613c2757613c26614e52565b5b90600052602060002090600b02016008015414613c79576040517f08c379a0000000000000000000000000000000000000000000000000000000008152600401613c70906159e4565b60405180910390fd5b6001600960003373ffffffffffffffffffffffffffffffffffffffff1673ffffffffffffffffffffffffffffffffffffffff168152602001908152602001600020600085815260200190815260200160002060006101000a81548160ff02191690831515021790555060008390806001815401808255809150506001900390600052602060002001600090919091909150558160018481548110613d2057613d1f614e52565b5b90600052602060002090600b0201600a019081613d3d91906154a0565b508060018481548110613d5357613d52614e52565b5b90600052602060002090600b020160080181905550505050565b60606001805490508210613db6576040517f08c379a0000000000000000000000000000000000000000000000000000000008152600401613dad90614fd6565b60405180910390fd5b600060018381548110613dcc57613dcb614e52565b5b90600052602060002090600b02016006018054905067ffffffffffffffff811115613dfa57613df9614630565b5b604051908082528060200260200182016040528015613e2d57816020015b6060815260200190600190039081613e185790505b50905060005b60018481548110613e4757613e46614e52565b5b90600052602060002090600b020160060180549050811015613fbd57600c600060018681548110613e7b57613e7a614e52565b5b90600052602060002090600b02016006018381548110613e9e57613e9d614e52565b5b9060005260206000200160009054906101000a900473ffffffffffffffffffffffffffffffffffffffff1673ffffffffffffffffffffffffffffffffffffffff1673ffffffffffffffffffffffffffffffffffffffff1681526020019081526020016000208054613f0e90614d49565b80601f0160208091040260200160405190810160405280929190818152602001828054613f3a90614d49565b8015613f875780601f10613f5c57610100808354040283529160200191613f87565b820191906000526020600020905b815481529060010190602001808311613f6a57829003601f168201915b5050505050828281518110613f9f57613f9e614e52565b5b60200260200101819052508080613fb590614eb0565b915050613e33565b5080915050919050565b60405180610160016040528060008152602001606081526020016060815260200160001515815260200160608152602001600073ffffffffffffffffffffffffffffffffffffffff16815260200160608152602001600081526020016000815260200160608152602001606081525090565b8280548282559060005260206000209081019282156140b2579160200282015b828111156140b15782518260006101000a81548173ffffffffffffffffffffffffffffffffffffffff021916908373ffffffffffffffffffffffffffffffffffffffff16021790555091602001919060010190614059565b5b5090506140bf9190614103565b5090565b5080546140cf90614d49565b6000825580601f106140e15750614100565b601f0160209004906000526020600020908101906140ff9190614103565b5b50565b5b8082111561411c576000816000905550600101614104565b5090565b600081519050919050565b600082825260208201905092915050565b60005b8381101561415a57808201518184015260208101905061413f565b60008484015250505050565b6000601f19601f8301169050919050565b600061418282614120565b61418c818561412b565b935061419c81856020860161413c565b6141a581614166565b840191505092915050565b600060208201905081810360008301526141ca8184614177565b905092915050565b6000604051905090565b600080fd5b600080fd5b6000819050919050565b6141f9816141e6565b811461420457600080fd5b50565b600081359050614216816141f0565b92915050565b600060208284031215614232576142316141dc565b5b600061424084828501614207565b91505092915050565b614252816141e6565b82525050565b600082825260208201905092915050565b600061427482614120565b61427e8185614258565b935061428e81856020860161413c565b61429781614166565b840191505092915050565b60008115159050919050565b6142b7816142a2565b82525050565b600073ffffffffffffffffffffffffffffffffffffffff82169050919050565b60006142e8826142bd565b9050919050565b6142f8816142dd565b82525050565b600081519050919050565b600082825260208201905092915050565b6000819050602082019050919050565b600061433683836142ef565b60208301905092915050565b6000602082019050919050565b600061435a826142fe565b6143648185614309565b935061436f8361431a565b8060005b838110156143a0578151614387888261432a565b975061439283614342565b925050600181019050614373565b5085935050505092915050565b6000610160830160008301516143c66000860182614249565b50602083015184820360208601526143de8282614269565b915050604083015184820360408601526143f88282614269565b915050606083015161440d60608601826142ae565b50608083015184820360808601526144258282614269565b91505060a083015161443a60a08601826142ef565b5060c083015184820360c0860152614452828261434f565b91505060e083015161446760e0860182614249565b5061010083015161447c610100860182614249565b506101208301518482036101208601526144968282614269565b9150506101408301518482036101408601526144b28282614269565b9150508091505092915050565b600060208201905081810360008301526144d981846143ad565b905092915050565b6144ea816141e6565b82525050565b6000606082019050818103600083015261450a8186614177565b905061451960208301856144e1565b61452660408301846144e1565b949350505050565b614537816142a2565b82525050565b614546816142dd565b82525050565b600061014082019050614562600083018d6144e1565b8181036020830152614574818c614177565b90508181036040830152614588818b614177565b9050614597606083018a61452e565b81810360808301526145a98189614177565b90506145b860a083018861453d565b6145c560c08301876144e1565b6145d260e08301866144e1565b8181036101008301526145e58185614177565b90508181036101208301526145fa8184614177565b90509b9a5050505050505050505050565b600060208201905061462060008301846144e1565b92915050565b600080fd5b600080fd5b7f4e487b7100000000000000000000000000000000000000000000000000000000600052604160045260246000fd5b61466882614166565b810181811067ffffffffffffffff8211171561468757614686614630565b5b80604052505050565b600061469a6141d2565b90506146a6828261465f565b919050565b600067ffffffffffffffff8211156146c6576146c5614630565b5b6146cf82614166565b9050602081019050919050565b82818337600083830152505050565b60006146fe6146f9846146ab565b614690565b90508281526020810184848401111561471a5761471961462b565b5b6147258482856146dc565b509392505050565b600082601f83011261474257614741614626565b5b81356147528482602086016146eb565b91505092915050565b60008060408385031215614772576147716141dc565b5b600083013567ffffffffffffffff8111156147905761478f6141e1565b5b61479c8582860161472d565b92505060206147ad85828601614207565b9150509250929050565b600080600080608085870312156147d1576147d06141dc565b5b600085013567ffffffffffffffff8111156147ef576147ee6141e1565b5b6147fb8782880161472d565b945050602085013567ffffffffffffffff81111561481c5761481b6141e1565b5b6148288782880161472d565b935050604085013567ffffffffffffffff811115614849576148486141e1565b5b6148558782880161472d565b925050606085013567ffffffffffffffff811115614876576148756141e1565b5b6148828782880161472d565b91505092959194509250565b600080600080608085870312156148a8576148a76141dc565b5b60006148b687828801614207565b945050602085013567ffffffffffffffff8111156148d7576148d66141e1565b5b6148e38782880161472d565b93505060406148f487828801614207565b925050606061490587828801614207565b91505092959194509250565b600081519050919050565b600082825260208201905092915050565b6000819050602082019050919050565b6000610160830160008301516149566000860182614249565b506020830151848203602086015261496e8282614269565b915050604083015184820360408601526149888282614269565b915050606083015161499d60608601826142ae565b50608083015184820360808601526149b58282614269565b91505060a08301516149ca60a08601826142ef565b5060c083015184820360c08601526149e2828261434f565b91505060e08301516149f760e0860182614249565b50610100830151614a0c610100860182614249565b50610120830151848203610120860152614a268282614269565b915050610140830151848203610140860152614a428282614269565b9150508091505092915050565b6000614a5b838361493d565b905092915050565b6000602082019050919050565b6000614a7b82614911565b614a85818561491c565b935083602082028501614a978561492d565b8060005b85811015614ad35784840389528151614ab48582614a4f565b9450614abf83614a63565b925060208a01995050600181019050614a9b565b50829750879550505050505092915050565b60006020820190508181036000830152614aff8184614a70565b905092915050565b600060208284031215614b1d57614b1c6141dc565b5b600082013567ffffffffffffffff811115614b3b57614b3a6141e1565b5b614b478482850161472d565b91505092915050565b6000602082019050614b65600083018461453d565b92915050565b60008060408385031215614b8257614b816141dc565b5b6000614b9085828601614207565b925050602083013567ffffffffffffffff811115614bb157614bb06141e1565b5b614bbd8582860161472d565b9150509250929050565b600080600060608486031215614be057614bdf6141dc565b5b6000614bee86828701614207565b935050602084013567ffffffffffffffff811115614c0f57614c0e6141e1565b5b614c1b8682870161472d565b9250506040614c2c86828701614207565b9150509250925092565b600081519050919050565b600082825260208201905092915050565b6000819050602082019050919050565b6000614c6e8383614269565b905092915050565b6000602082019050919050565b6000614c8e82614c36565b614c988185614c41565b935083602082028501614caa85614c52565b8060005b85811015614ce65784840389528151614cc78582614c62565b9450614cd283614c76565b925060208a01995050600181019050614cae565b50829750879550505050505092915050565b60006020820190508181036000830152614d128184614c83565b905092915050565b7f4e487b7100000000000000000000000000000000000000000000000000000000600052602260045260246000fd5b60006002820490506001821680614d6157607f821691505b602082108103614d7457614d73614d1a565b5b50919050565b7f706c6561736520676976652075736572206e616d650000000000000000000000600082015250565b6000614db060158361412b565b9150614dbb82614d7a565b602082019050919050565b60006020820190508181036000830152614ddf81614da3565b9050919050565b7f676976656e2066696c65206964206973206e6f74206578697374730000000000600082015250565b6000614e1c601b8361412b565b9150614e2782614de6565b602082019050919050565b60006020820190508181036000830152614e4b81614e0f565b9050919050565b7f4e487b7100000000000000000000000000000000000000000000000000000000600052603260045260246000fd5b7f4e487b7100000000000000000000000000000000000000000000000000000000600052601160045260246000fd5b6000614ebb826141e6565b91507fffffffffffffffffffffffffffffffffffffffffffffffffffffffffffffffff8203614eed57614eec614e81565b5b600182019050919050565b7f796f7520646f6e277420686176652061636365737320746f207468697320666960008201527f6c65000000000000000000000000000000000000000000000000000000000000602082015250565b6000614f5460228361412b565b9150614f5f82614ef8565b604082019050919050565b60006020820190508181036000830152614f8381614f47565b9050919050565b7f676976652066696c6520696420697320696e76616c6964000000000000000000600082015250565b6000614fc060178361412b565b9150614fcb82614f8a565b602082019050919050565b60006020820190508181036000830152614fef81614fb3565b9050919050565b7f796f7520617265206e6f74206f776e6572206f6620746869732066696c650000600082015250565b600061502c601e8361412b565b915061503782614ff6565b602082019050919050565b6000602082019050818103600083015261505b8161501f565b9050919050565b600081905092915050565b600061507882614120565b6150828185615062565b935061509281856020860161413c565b80840191505092915050565b60006150aa828461506d565b915081905092915050565b7f676976656e2075736572206e616d65206973206e6f742065786973747320617460008201527f20616c6c00000000000000000000000000000000000000000000000000000000602082015250565b600061511160248361412b565b915061511c826150b5565b604082019050919050565b6000602082019050818103600083015261514081615104565b9050919050565b7f6173206f776e6572206f66207468652066696c6520616e6420796f752063616e60008201527f27742072656d6f766520796f75722073656c662066726f6d206163636573732060208201527f746f20746869732066696c650000000000000000000000000000000000000000604082015250565b60006151c9604c8361412b565b91506151d482615147565b606082019050919050565b600060208201905081810360008301526151f8816151bc565b9050919050565b7f4e487b7100000000000000000000000000000000000000000000000000000000600052603160045260246000fd5b6000615239826141e6565b9150615244836141e6565b925082820390508181111561525c5761525b614e81565b5b92915050565b7f796f7520646f65736e277420676976652061636365737320746f20746869732060008201527f6164647265737320617420616c6c212100000000000000000000000000000000602082015250565b60006152be60308361412b565b91506152c982615262565b604082019050919050565b600060208201905081810360008301526152ed816152b1565b9050919050565b60008190508160005260206000209050919050565b60006020601f8301049050919050565b600082821b905092915050565b6000600883026153567fffffffffffffffffffffffffffffffffffffffffffffffffffffffffffffffff82615319565b6153608683615319565b95508019841693508086168417925050509392505050565b6000819050919050565b600061539d615398615393846141e6565b615378565b6141e6565b9050919050565b6000819050919050565b6153b783615382565b6153cb6153c3826153a4565b848454615326565b825550505050565b600090565b6153e06153d3565b6153eb8184846153ae565b505050565b5b8181101561540f576154046000826153d8565b6001810190506153f1565b5050565b601f82111561545457615425816152f4565b61542e84615309565b8101602085101561543d578190505b61545161544985615309565b8301826153f0565b50505b505050565b600082821c905092915050565b600061547760001984600802615459565b1980831691505092915050565b60006154908383615466565b9150826002028217905092915050565b6154a982614120565b67ffffffffffffffff8111156154c2576154c1614630565b5b6154cc8254614d49565b6154d7828285615413565b600060209050601f83116001811461550a57600084156154f8578287015190505b6155028582615484565b86555061556a565b601f198416615518866152f4565b60005b828110156155405784890151825560018201915060208501945060208101905061551b565b8683101561555d5784890151615559601f891682615466565b8355505b6001600288020188555050505b505050505050565b600061557d826141e6565b9150615588836141e6565b92508282019050808211156155a05761559f614e81565b5b92915050565b7f6e6f207265636f72647300000000000000000000000000000000000000000000600082015250565b60006155dc600a8361412b565b91506155e7826155a6565b602082019050919050565b6000602082019050818103600083015261560b816155cf565b9050919050565b600081905092915050565b60008190508160005260206000209050919050565b6000815461563f81614d49565b6156498186615612565b945060018216600081146156645760018114615679576156ac565b60ff19831686528115158202860193506156ac565b6156828561561d565b60005b838110156156a457815481890152600182019150602081019050615685565b838801955050505b50505092915050565b60006156c18284615632565b915081905092915050565b7f796f7520616c726561647920626f7567687420746869732066696c6500000000600082015250565b6000615702601c8361412b565b915061570d826156cc565b602082019050919050565b60006020820190508181036000830152615731816156f5565b9050919050565b7f496e73756666696369656e742062616c616e6365000000000000000000000000600082015250565b600061576e60148361412b565b915061577982615738565b602082019050919050565b6000602082019050818103600083015261579d81615761565b9050919050565b7f6173206f776e6572206f6620746869732066696c6520796f7520616c7265616460008201527f2068617665206120616363657373000000000000000000000000000000000000602082015250565b6000615800602e8361412b565b915061580b826157a4565b604082019050919050565b6000602082019050818103600083015261582f816157f3565b9050919050565b7f74686973206164647265737320616c726561647920686176652061206163636560008201527f737320746f20746869732066696c650000000000000000000000000000000000602082015250565b6000615892602f8361412b565b915061589d82615836565b604082019050919050565b600060208201905081810360008301526158c181615885565b9050919050565b7f796f7520616c7265616479206861766520616e2075736572206e616d65000000600082015250565b60006158fe601d8361412b565b9150615909826158c8565b602082019050919050565b6000602082019050818103600083015261592d816158f1565b9050919050565b6000606082019050818103600083015261594e8186614177565b905061595d602083018561453d565b61596a60408301846144e1565b949350505050565b7f796f752061726520616c726561647920616464656420746869732066696c652060008201527f746f2073656c6c00000000000000000000000000000000000000000000000000602082015250565b60006159ce60278361412b565b91506159d982615972565b604082019050919050565b600060208201905081810360008301526159fd816159c1565b905091905056fea2646970667358221220cc0712c40d899803797b5722df0a1f67dbfbbeb572d512b1669186dce6974b1364736f6c63430008130033",
  "linkReferences": {},
  "deployedLinkReferences": {}
}