{
  "_format": "hh-sol-artifact-1",
  "contractName": "syncdata",
  "sourceName": "contracts/meddata.sol",
  "abi": [
    {
      "inputs": [],
      "stateMutability": "payable",
      "type": "constructor"
    },
    {
      "anonymous": false,
      "inputs": [
        {
          "indexed": false,
          "internalType": "string",
          "name": "code",
          "type": "string"
        },
        {
          "indexed": false,
          "internalType": "uint256",
          "name": "value",
          "type": "uint256"
        },
        {
          "indexed": false,
          "internalType": "uint256",
          "name": "expiryTime",
          "type": "uint256"
        }
      ],
      "name": "CouponGenerated",
      "type": "event"
    },
    {
      "anonymous": false,
      "inputs": [
        {
          "indexed": false,
          "internalType": "string",
          "name": "code",
          "type": "string"
        },
        {
          "indexed": false,
          "internalType": "address",
          "name": "user",
          "type": "address"
        },
        {
          "indexed": false,
          "internalType": "uint256",
          "name": "redeemedTime",
          "type": "uint256"
        }
      ],
      "name": "CouponRedeemed",
      "type": "event"
    },
    {
      "inputs": [
        {
          "internalType": "string",
          "name": "_title",
          "type": "string"
        },
        {
          "internalType": "string",
          "name": "_description",
          "type": "string"
        },
        {
          "internalType": "string",
          "name": "_imageURL",
          "type": "string"
        }
      ],
      "name": "NewRrecord",
      "outputs": [],
      "stateMutability": "payable",
      "type": "function"
    },
    {
      "inputs": [],
      "name": "addToContractBalance",
      "outputs": [],
      "stateMutability": "payable",
      "type": "function"
    },
    {
      "inputs": [
        {
          "internalType": "uint256",
          "name": "id",
          "type": "uint256"
        }
      ],
      "name": "buyFileId",
      "outputs": [],
      "stateMutability": "payable",
      "type": "function"
    },
    {
      "inputs": [
        {
          "internalType": "uint256",
          "name": "",
          "type": "uint256"
        }
      ],
      "name": "coupons",
      "outputs": [
        {
          "internalType": "string",
          "name": "code",
          "type": "string"
        },
        {
          "internalType": "uint256",
          "name": "value",
          "type": "uint256"
        },
        {
          "internalType": "uint256",
          "name": "expiryTime",
          "type": "uint256"
        }
      ],
      "stateMutability": "view",
      "type": "function"
    },
    {
      "inputs": [
        {
          "internalType": "uint256",
          "name": "id",
          "type": "uint256"
        },
        {
          "internalType": "string",
          "name": "code",
          "type": "string"
        },
        {
          "internalType": "uint256",
          "name": "value",
          "type": "uint256"
        },
        {
          "internalType": "uint256",
          "name": "expiryTime",
          "type": "uint256"
        }
      ],
      "name": "generateCoupon",
      "outputs": [
        {
          "internalType": "string",
          "name": "",
          "type": "string"
        }
      ],
      "stateMutability": "nonpayable",
      "type": "function"
    },
    {
      "inputs": [
        {
          "internalType": "uint256",
          "name": "id",
          "type": "uint256"
        }
      ],
      "name": "getAccessList",
      "outputs": [
        {
          "internalType": "address[]",
          "name": "",
          "type": "address[]"
        }
      ],
      "stateMutability": "view",
      "type": "function"
    },
    {
      "inputs": [],
      "name": "getAllRecords",
      "outputs": [
        {
          "components": [
            {
              "internalType": "uint256",
              "name": "id",
              "type": "uint256"
            },
            {
              "internalType": "string",
              "name": "title",
              "type": "string"
            },
            {
              "internalType": "string",
              "name": "description",
              "type": "string"
            },
            {
              "internalType": "bool",
              "name": "islisted",
              "type": "bool"
            },
            {
              "internalType": "string",
              "name": "imageURL",
              "type": "string"
            },
            {
              "internalType": "address",
              "name": "owner",
              "type": "address"
            },
            {
              "internalType": "address[]",
              "name": "accessibleBy",
              "type": "address[]"
            },
            {
              "internalType": "uint256",
              "name": "timestamp",
              "type": "uint256"
            },
            {
              "internalType": "uint256",
              "name": "price",
              "type": "uint256"
            },
            {
              "internalType": "string",
              "name": "preview",
              "type": "string"
            }
          ],
          "internalType": "struct syncdata.Record[]",
          "name": "",
          "type": "tuple[]"
        }
      ],
      "stateMutability": "view",
      "type": "function"
    },
    {
      "inputs": [],
      "name": "getOwnersRecords",
      "outputs": [
        {
          "components": [
            {
              "internalType": "uint256",
              "name": "id",
              "type": "uint256"
            },
            {
              "internalType": "string",
              "name": "title",
              "type": "string"
            },
            {
              "internalType": "string",
              "name": "description",
              "type": "string"
            },
            {
              "internalType": "bool",
              "name": "islisted",
              "type": "bool"
            },
            {
              "internalType": "string",
              "name": "imageURL",
              "type": "string"
            },
            {
              "internalType": "address",
              "name": "owner",
              "type": "address"
            },
            {
              "internalType": "address[]",
              "name": "accessibleBy",
              "type": "address[]"
            },
            {
              "internalType": "uint256",
              "name": "timestamp",
              "type": "uint256"
            },
            {
              "internalType": "uint256",
              "name": "price",
              "type": "uint256"
            },
            {
              "internalType": "string",
              "name": "preview",
              "type": "string"
            }
          ],
          "internalType": "struct syncdata.Record[]",
          "name": "",
          "type": "tuple[]"
        }
      ],
      "stateMutability": "view",
      "type": "function"
    },
    {
      "inputs": [],
      "name": "getSellingRecord",
      "outputs": [
        {
          "components": [
            {
              "internalType": "uint256",
              "name": "id",
              "type": "uint256"
            },
            {
              "internalType": "string",
              "name": "title",
              "type": "string"
            },
            {
              "internalType": "string",
              "name": "description",
              "type": "string"
            },
            {
              "internalType": "bool",
              "name": "islisted",
              "type": "bool"
            },
            {
              "internalType": "string",
              "name": "imageURL",
              "type": "string"
            },
            {
              "internalType": "address",
              "name": "owner",
              "type": "address"
            },
            {
              "internalType": "address[]",
              "name": "accessibleBy",
              "type": "address[]"
            },
            {
              "internalType": "uint256",
              "name": "timestamp",
              "type": "uint256"
            },
            {
              "internalType": "uint256",
              "name": "price",
              "type": "uint256"
            },
            {
              "internalType": "string",
              "name": "preview",
              "type": "string"
            }
          ],
          "internalType": "struct syncdata.Record[]",
          "name": "",
          "type": "tuple[]"
        }
      ],
      "stateMutability": "view",
      "type": "function"
    },
    {
      "inputs": [],
      "name": "getUserName",
      "outputs": [
        {
          "internalType": "string",
          "name": "",
          "type": "string"
        }
      ],
      "stateMutability": "view",
      "type": "function"
    },
    {
      "inputs": [],
      "name": "giveContractBalance",
      "outputs": [
        {
          "internalType": "uint256",
          "name": "",
          "type": "uint256"
        }
      ],
      "stateMutability": "view",
      "type": "function"
    },
    {
      "inputs": [
        {
          "internalType": "string",
          "name": "_newOwnerUserName",
          "type": "string"
        },
        {
          "internalType": "uint256",
          "name": "id",
          "type": "uint256"
        }
      ],
      "name": "newOwner",
      "outputs": [],
      "stateMutability": "nonpayable",
      "type": "function"
    },
    {
      "inputs": [
        {
          "internalType": "uint256",
          "name": "",
          "type": "uint256"
        }
      ],
      "name": "records",
      "outputs": [
        {
          "internalType": "uint256",
          "name": "id",
          "type": "uint256"
        },
        {
          "internalType": "string",
          "name": "title",
          "type": "string"
        },
        {
          "internalType": "string",
          "name": "description",
          "type": "string"
        },
        {
          "internalType": "bool",
          "name": "islisted",
          "type": "bool"
        },
        {
          "internalType": "string",
          "name": "imageURL",
          "type": "string"
        },
        {
          "internalType": "address",
          "name": "owner",
          "type": "address"
        },
        {
          "internalType": "uint256",
          "name": "timestamp",
          "type": "uint256"
        },
        {
          "internalType": "uint256",
          "name": "price",
          "type": "uint256"
        },
        {
          "internalType": "string",
          "name": "preview",
          "type": "string"
        }
      ],
      "stateMutability": "view",
      "type": "function"
    },
    {
      "inputs": [
        {
          "internalType": "uint256",
          "name": "id",
          "type": "uint256"
        },
        {
          "internalType": "string",
          "name": "code",
          "type": "string"
        }
      ],
      "name": "redeemCoupon",
      "outputs": [],
      "stateMutability": "nonpayable",
      "type": "function"
    },
    {
      "inputs": [
        {
          "internalType": "string",
          "name": "_removeOwnerUserName",
          "type": "string"
        },
        {
          "internalType": "uint256",
          "name": "id",
          "type": "uint256"
        }
      ],
      "name": "removeOwner",
      "outputs": [],
      "stateMutability": "nonpayable",
      "type": "function"
    },
    {
      "inputs": [
        {
          "internalType": "uint256",
          "name": "id",
          "type": "uint256"
        },
        {
          "internalType": "string",
          "name": "preview",
          "type": "string"
        },
        {
          "internalType": "uint256",
          "name": "price",
          "type": "uint256"
        }
      ],
      "name": "sellTheFile",
      "outputs": [],
      "stateMutability": "nonpayable",
      "type": "function"
    },
    {
      "inputs": [
        {
          "internalType": "uint256",
          "name": "",
          "type": "uint256"
        }
      ],
      "name": "sellingFileId",
      "outputs": [
        {
          "internalType": "uint256",
          "name": "",
          "type": "uint256"
        }
      ],
      "stateMutability": "view",
      "type": "function"
    },
    {
      "inputs": [
        {
          "internalType": "string",
          "name": "userName",
          "type": "string"
        }
      ],
      "name": "storeUserName",
      "outputs": [],
      "stateMutability": "nonpayable",
      "type": "function"
    }
  ],
  "bytecode": "0x6080604052600067ffffffffffffffff811115620000225762000021620002be565b5b604051908082528060200260200182016040528015620000515781602001602082028036833780820191505090505b50600290805190602001906200006992919062000142565b50600067ffffffffffffffff811115620000885762000087620002be565b5b604051908082528060200260200182016040528015620000bd57816020015b6060815260200190600190039081620000a75790505b5060039080519060200190620000d5929190620001d1565b50600067ffffffffffffffff811115620000f457620000f3620002be565b5b604051908082528060200260200182016040528015620001235781602001602082028036833780820191505090505b50600490805190602001906200013b92919062000142565b506200061f565b828054828255906000526020600020908101928215620001be579160200282015b82811115620001bd5782518260006101000a81548173ffffffffffffffffffffffffffffffffffffffff021916908373ffffffffffffffffffffffffffffffffffffffff1602179055509160200191906001019062000163565b5b509050620001cd919062000231565b5090565b8280548282559060005260206000209081019282156200021e579160200282015b828111156200021d5782518290816200020c919062000538565b5091602001919060010190620001f2565b5b5090506200022d919062000250565b5090565b5b808211156200024c57600081600090555060010162000232565b5090565b5b808211156200027457600081816200026a919062000278565b5060010162000251565b5090565b508054620002869062000327565b6000825580601f106200029a5750620002bb565b601f016020900490600052602060002090810190620002ba919062000231565b5b50565b7f4e487b7100000000000000000000000000000000000000000000000000000000600052604160045260246000fd5b600081519050919050565b7f4e487b7100000000000000000000000000000000000000000000000000000000600052602260045260246000fd5b600060028204905060018216806200034057607f821691505b602082108103620003565762000355620002f8565b5b50919050565b60008190508160005260206000209050919050565b60006020601f8301049050919050565b600082821b905092915050565b600060088302620003c07fffffffffffffffffffffffffffffffffffffffffffffffffffffffffffffffff8262000381565b620003cc868362000381565b95508019841693508086168417925050509392505050565b6000819050919050565b6000819050919050565b600062000419620004136200040d84620003e4565b620003ee565b620003e4565b9050919050565b6000819050919050565b6200043583620003f8565b6200044d620004448262000420565b8484546200038e565b825550505050565b600090565b6200046462000455565b620004718184846200042a565b505050565b5b8181101562000499576200048d6000826200045a565b60018101905062000477565b5050565b601f821115620004e857620004b2816200035c565b620004bd8462000371565b81016020851015620004cd578190505b620004e5620004dc8562000371565b83018262000476565b50505b505050565b600082821c905092915050565b60006200050d60001984600802620004ed565b1980831691505092915050565b6000620005288383620004fa565b9150826002028217905092915050565b6200054382620002ed565b67ffffffffffffffff8111156200055f576200055e620002be565b5b6200056b825462000327565b620005788282856200049d565b600060209050601f831160018114620005b057600084156200059b578287015190505b620005a785826200051a565b86555062000617565b601f198416620005c0866200035c565b60005b82811015620005ea57848901518255600182019150602085019450602081019050620005c3565b868310156200060a578489015162000606601f891682620004fa565b8355505b6001600288020188555050505b505050505050565b613f6e806200062f6000396000f3fe6080604052600436106101095760003560e01c8063878e688e11610095578063d3a22a8211610064578063d3a22a821461034c578063e1dc63f014610375578063e227cf8a1461039e578063e3e18cc5146103c9578063f31bb177146103f257610109565b8063878e688e146102d2578063a7f9fe72146102ee578063af205ea314610319578063c7fb53eb1461034257610109565b806340ed6403116100dc57806340ed6403146101d95780634efb8a4b14610204578063653467c41461022d5780636f587e3b1461026a578063773d79dc146102a757610109565b806312958f1c1461010e5780631cda164f1461013957806330828e92146101555780633446106714610194575b600080fd5b34801561011a57600080fd5b5061012361042f565b6040516101309190612ebe565b60405180910390f35b610153600480360381019061014e9190613029565b6104fe565b005b34801561016157600080fd5b5061017c60048036038101906101779190613106565b6108ac565b60405161018b93929190613142565b60405180910390f35b3480156101a057600080fd5b506101bb60048036038101906101b69190613106565b61095e565b6040516101d0999897969594939291906131dc565b60405180910390f35b3480156101e557600080fd5b506101ee610c09565b6040516101fb9190613285565b60405180910390f35b34801561021057600080fd5b5061022b600480360381019061022691906132a0565b610c11565b005b34801561023957600080fd5b50610254600480360381019061024f9190613106565b6111f0565b6040516102619190613285565b60405180910390f35b34801561027657600080fd5b50610291600480360381019061028c91906132fc565b611214565b60405161029e9190612ebe565b60405180910390f35b3480156102b357600080fd5b506102bc6112c7565b6040516102c9919061365d565b60405180910390f35b6102ec60048036038101906102e79190613106565b61186c565b005b3480156102fa57600080fd5b50610303611bc9565b604051610310919061365d565b60405180910390f35b34801561032557600080fd5b50610340600480360381019061033b91906132a0565b61215e565b005b61034a612397565b005b34801561035857600080fd5b50610373600480360381019061036e919061367f565b6123e6565b005b34801561038157600080fd5b5061039c600480360381019061039791906136c8565b612436565b005b3480156103aa57600080fd5b506103b3612625565b6040516103c0919061365d565b60405180910390f35b3480156103d557600080fd5b506103f060048036038101906103eb9190613724565b612b35565b005b3480156103fe57600080fd5b5061041960048036038101906104149190613106565b612c29565b6040516104269190613802565b60405180910390f35b6060600a60003373ffffffffffffffffffffffffffffffffffffffff1673ffffffffffffffffffffffffffffffffffffffff168152602001908152602001600020805461047b90613853565b80601f01602080910402602001604051908101604052809291908181526020018280546104a790613853565b80156104f45780601f106104c9576101008083540402835291602001916104f4565b820191906000526020600020905b8154815290600101906020018083116104d757829003601f168201915b5050505050905090565b600760003373ffffffffffffffffffffffffffffffffffffffff1673ffffffffffffffffffffffffffffffffffffffff1681526020019081526020016000206001805490509080600181540180825580915050600190039060005260206000200160009091909190915055600860003373ffffffffffffffffffffffffffffffffffffffff1673ffffffffffffffffffffffffffffffffffffffff1681526020019081526020016000206001805490509080600181540180825580915050600190039060005260206000200160009091909190915055600060018054905090506002339080600181540180825580915050600190039060005260206000200160009091909190916101000a81548173ffffffffffffffffffffffffffffffffffffffff021916908373ffffffffffffffffffffffffffffffffffffffff16021790555060016040518061014001604052808381526020018681526020018581526020016001151581526020018481526020013373ffffffffffffffffffffffffffffffffffffffff168152602001600280548060200260200160405190810160405280929190818152602001828054801561070e57602002820191906000526020600020905b8160009054906101000a900473ffffffffffffffffffffffffffffffffffffffff1673ffffffffffffffffffffffffffffffffffffffff16815260200190600101908083116106c4575b50505050508152602001428152602001600081526020016040518060200160405280600081525081525090806001815401808255809150506001900390600052602060002090600a02016000909190919091506000820151816000015560208201518160010190816107809190613a30565b5060408201518160020190816107969190613a30565b5060608201518160030160006101000a81548160ff02191690831515021790555060808201518160040190816107cc9190613a30565b5060a08201518160050160006101000a81548173ffffffffffffffffffffffffffffffffffffffff021916908373ffffffffffffffffffffffffffffffffffffffff16021790555060c0820151816006019080519060200190610830929190612cdc565b5060e08201518160070155610100820151816008015561012082015181600901908161085c9190613a30565b505050600280548061087157610870613b02565b5b6001900381819060005260206000200160006101000a81549073ffffffffffffffffffffffffffffffffffffffff0219169055905550505050565b60066020528060005260406000206000915090508060000180546108cf90613853565b80601f01602080910402602001604051908101604052809291908181526020018280546108fb90613853565b80156109485780601f1061091d57610100808354040283529160200191610948565b820191906000526020600020905b81548152906001019060200180831161092b57829003601f168201915b5050505050908060010154908060020154905083565b6001818154811061096e57600080fd5b90600052602060002090600a020160009150905080600001549080600101805461099790613853565b80601f01602080910402602001604051908101604052809291908181526020018280546109c390613853565b8015610a105780601f106109e557610100808354040283529160200191610a10565b820191906000526020600020905b8154815290600101906020018083116109f357829003601f168201915b505050505090806002018054610a2590613853565b80601f0160208091040260200160405190810160405280929190818152602001828054610a5190613853565b8015610a9e5780601f10610a7357610100808354040283529160200191610a9e565b820191906000526020600020905b815481529060010190602001808311610a8157829003601f168201915b5050505050908060030160009054906101000a900460ff1690806004018054610ac690613853565b80601f0160208091040260200160405190810160405280929190818152602001828054610af290613853565b8015610b3f5780601f10610b1457610100808354040283529160200191610b3f565b820191906000526020600020905b815481529060010190602001808311610b2257829003601f168201915b5050505050908060050160009054906101000a900473ffffffffffffffffffffffffffffffffffffffff1690806007015490806008015490806009018054610b8690613853565b80601f0160208091040260200160405190810160405280929190818152602001828054610bb290613853565b8015610bff5780601f10610bd457610100808354040283529160200191610bff565b820191906000526020600020905b815481529060010190602001808311610be257829003601f168201915b5050505050905089565b600047905090565b6000600b83604051610c239190613b6d565b908152602001604051809103902060009054906101000a900473ffffffffffffffffffffffffffffffffffffffff1690506000600760008373ffffffffffffffffffffffffffffffffffffffff1673ffffffffffffffffffffffffffffffffffffffff16815260200190815260200160002080549050905060005b600760008473ffffffffffffffffffffffffffffffffffffffff1673ffffffffffffffffffffffffffffffffffffffff168152602001908152602001600020805490508110156111a757600760008473ffffffffffffffffffffffffffffffffffffffff1673ffffffffffffffffffffffffffffffffffffffff1681526020019081526020016000208181548110610d3957610d38613b84565b5b9060005260206000200154840361119457600760008473ffffffffffffffffffffffffffffffffffffffff1673ffffffffffffffffffffffffffffffffffffffff16815260200190815260200160002080549050600103610dfe57600760008473ffffffffffffffffffffffffffffffffffffffff1673ffffffffffffffffffffffffffffffffffffffff168152602001908152602001600020805480610de357610de2613b02565b5b60019003818190600052602060002001600090559055610f2b565b600760008473ffffffffffffffffffffffffffffffffffffffff1673ffffffffffffffffffffffffffffffffffffffff168152602001908152602001600020600183610e4a9190613be2565b81548110610e5b57610e5a613b84565b5b9060005260206000200154600760008573ffffffffffffffffffffffffffffffffffffffff1673ffffffffffffffffffffffffffffffffffffffff1681526020019081526020016000208281548110610eb757610eb6613b84565b5b9060005260206000200181905550600760008473ffffffffffffffffffffffffffffffffffffffff1673ffffffffffffffffffffffffffffffffffffffff168152602001908152602001600020805480610f1457610f13613b02565b5b600190038181906000526020600020016000905590555b600060018581548110610f4157610f40613b84565b5b90600052602060002090600a020160060180549050905060005b60018681548110610f6f57610f6e613b84565b5b90600052602060002090600a02016006018054905081101561118a5760018681548110610f9f57610f9e613b84565b5b90600052602060002090600a02016006018181548110610fc257610fc1613b84565b5b9060005260206000200160009054906101000a900473ffffffffffffffffffffffffffffffffffffffff1673ffffffffffffffffffffffffffffffffffffffff168573ffffffffffffffffffffffffffffffffffffffff1603611177576001868154811061103357611032613b84565b5b90600052602060002090600a02016006016001836110519190613be2565b8154811061106257611061613b84565b5b9060005260206000200160009054906101000a900473ffffffffffffffffffffffffffffffffffffffff16600187815481106110a1576110a0613b84565b5b90600052602060002090600a020160060182815481106110c4576110c3613b84565b5b9060005260206000200160006101000a81548173ffffffffffffffffffffffffffffffffffffffff021916908373ffffffffffffffffffffffffffffffffffffffff160217905550600186815481106111205761111f613b84565b5b90600052602060002090600a020160060180548061114157611140613b02565b5b6001900381819060005260206000200160006101000a81549073ffffffffffffffffffffffffffffffffffffffff021916905590555b808061118290613c16565b915050610f5b565b50505050506111ec565b808061119f90613c16565b915050610c9e565b5060006111e9576040517f08c379a00000000000000000000000000000000000000000000000000000000081526004016111e090613cd0565b60405180910390fd5b50505b5050565b6000818154811061120057600080fd5b906000526020600020016000915090505481565b6060610e10426112249190613cf0565b91506040518060600160405280858152602001848152602001838152506006600087815260200190815260200160002060008201518160000190816112699190613a30565b5060208201518160010155604082015181600201559050507f506c1c7dd360506da713451f9275b3cfa046b07a1318ba73623d3b27d6acff7d8484846040516112b493929190613142565b60405180910390a1839050949350505050565b60606000805b60008054905081101561138357600960003373ffffffffffffffffffffffffffffffffffffffff1673ffffffffffffffffffffffffffffffffffffffff168152602001908152602001600020600080838154811061132e5761132d613b84565b5b9060005260206000200154815260200190815260200160002060009054906101000a900460ff16151560001515036113705760018261136d9190613cf0565b91505b808061137b90613c16565b9150506112cd565b5060008167ffffffffffffffff8111156113a05761139f612efe565b5b6040519080825280602002602001820160405280156113d957816020015b6113c6612d66565b8152602001906001900390816113be5790505b5090506000805b60008054905081101561186257600960003373ffffffffffffffffffffffffffffffffffffffff1673ffffffffffffffffffffffffffffffffffffffff168152602001908152602001600020600080838154811061144157611440613b84565b5b9060005260206000200154815260200190815260200160002060009054906101000a900460ff161515600015150361184f5760016000828154811061148957611488613b84565b5b9060005260206000200154815481106114a5576114a4613b84565b5b90600052602060002090600a020160405180610140016040529081600082015481526020016001820180546114d990613853565b80601f016020809104026020016040519081016040528092919081815260200182805461150590613853565b80156115525780601f1061152757610100808354040283529160200191611552565b820191906000526020600020905b81548152906001019060200180831161153557829003601f168201915b5050505050815260200160028201805461156b90613853565b80601f016020809104026020016040519081016040528092919081815260200182805461159790613853565b80156115e45780601f106115b9576101008083540402835291602001916115e4565b820191906000526020600020905b8154815290600101906020018083116115c757829003601f168201915b505050505081526020016003820160009054906101000a900460ff1615151515815260200160048201805461161890613853565b80601f016020809104026020016040519081016040528092919081815260200182805461164490613853565b80156116915780601f1061166657610100808354040283529160200191611691565b820191906000526020600020905b81548152906001019060200180831161167457829003601f168201915b505050505081526020016005820160009054906101000a900473ffffffffffffffffffffffffffffffffffffffff1673ffffffffffffffffffffffffffffffffffffffff1673ffffffffffffffffffffffffffffffffffffffff1681526020016006820180548060200260200160405190810160405280929190818152602001828054801561177557602002820191906000526020600020905b8160009054906101000a900473ffffffffffffffffffffffffffffffffffffffff1673ffffffffffffffffffffffffffffffffffffffff168152602001906001019080831161172b575b5050505050815260200160078201548152602001600882015481526020016009820180546117a290613853565b80601f01602080910402602001604051908101604052809291908181526020018280546117ce90613853565b801561181b5780601f106117f05761010080835404028352916020019161181b565b820191906000526020600020905b8154815290600101906020018083116117fe57829003601f168201915b50505050508152505083838061183090613c16565b94508151811061184357611842613b84565b5b60200260200101819052505b808061185a90613c16565b9150506113e0565b5081935050505090565b60005b600080549050811015611bc457600081815481106118905761188f613b84565b5b90600052602060002001548203611bb157600960003373ffffffffffffffffffffffffffffffffffffffff1673ffffffffffffffffffffffffffffffffffffffff168152602001908152602001600020600083815260200190815260200160002060009054906101000a900460ff161561194a576000611945576040517f08c379a000000000000000000000000000000000000000000000000000000000815260040161193c90613d70565b60405180910390fd5b611bb0565b6001828154811061195e5761195d613b84565b5b90600052602060002090600a0201600801543373ffffffffffffffffffffffffffffffffffffffff163110156119c9576040517f08c379a00000000000000000000000000000000000000000000000000000000081526004016119c090613ddc565b60405180910390fd5b600182815481106119dd576119dc613b84565b5b90600052602060002090600a020160050160009054906101000a900473ffffffffffffffffffffffffffffffffffffffff1673ffffffffffffffffffffffffffffffffffffffff166108fc349081150290604051600060405180830381858888f19350505050158015611a54573d6000803e3d6000fd5b506001600960003373ffffffffffffffffffffffffffffffffffffffff1673ffffffffffffffffffffffffffffffffffffffff168152602001908152602001600020600084815260200190815260200160002060006101000a81548160ff02191690831515021790555060018281548110611ad257611ad1613b84565b5b90600052602060002090600a0201600601339080600181540180825580915050600190039060005260206000200160009091909190916101000a81548173ffffffffffffffffffffffffffffffffffffffff021916908373ffffffffffffffffffffffffffffffffffffffff160217905550600760003373ffffffffffffffffffffffffffffffffffffffff1673ffffffffffffffffffffffffffffffffffffffff16815260200190815260200160002082908060018154018082558091505060019003906000526020600020016000909190919091505550611bc6565b5b8080611bbc90613c16565b91505061186f565b505b50565b60606000600760003373ffffffffffffffffffffffffffffffffffffffff1673ffffffffffffffffffffffffffffffffffffffff1681526020019081526020016000208054905011611c50576040517f08c379a0000000000000000000000000000000000000000000000000000000008152600401611c4790613e48565b60405180910390fd5b6000600760003373ffffffffffffffffffffffffffffffffffffffff1673ffffffffffffffffffffffffffffffffffffffff1681526020019081526020016000208054905067ffffffffffffffff811115611cae57611cad612efe565b5b604051908082528060200260200182016040528015611ce757816020015b611cd4612d66565b815260200190600190039081611ccc5790505b50905060005b600760003373ffffffffffffffffffffffffffffffffffffffff1673ffffffffffffffffffffffffffffffffffffffff16815260200190815260200160002080549050811015612156576001600760003373ffffffffffffffffffffffffffffffffffffffff1673ffffffffffffffffffffffffffffffffffffffff1681526020019081526020016000208281548110611d8a57611d89613b84565b5b906000526020600020015481548110611da657611da5613b84565b5b90600052602060002090600a02016040518061014001604052908160008201548152602001600182018054611dda90613853565b80601f0160208091040260200160405190810160405280929190818152602001828054611e0690613853565b8015611e535780601f10611e2857610100808354040283529160200191611e53565b820191906000526020600020905b815481529060010190602001808311611e3657829003601f168201915b50505050508152602001600282018054611e6c90613853565b80601f0160208091040260200160405190810160405280929190818152602001828054611e9890613853565b8015611ee55780601f10611eba57610100808354040283529160200191611ee5565b820191906000526020600020905b815481529060010190602001808311611ec857829003601f168201915b505050505081526020016003820160009054906101000a900460ff16151515158152602001600482018054611f1990613853565b80601f0160208091040260200160405190810160405280929190818152602001828054611f4590613853565b8015611f925780601f10611f6757610100808354040283529160200191611f92565b820191906000526020600020905b815481529060010190602001808311611f7557829003601f168201915b505050505081526020016005820160009054906101000a900473ffffffffffffffffffffffffffffffffffffffff1673ffffffffffffffffffffffffffffffffffffffff1673ffffffffffffffffffffffffffffffffffffffff1681526020016006820180548060200260200160405190810160405280929190818152602001828054801561207657602002820191906000526020600020905b8160009054906101000a900473ffffffffffffffffffffffffffffffffffffffff1673ffffffffffffffffffffffffffffffffffffffff168152602001906001019080831161202c575b5050505050815260200160078201548152602001600882015481526020016009820180546120a390613853565b80601f01602080910402602001604051908101604052809291908181526020018280546120cf90613853565b801561211c5780601f106120f15761010080835404028352916020019161211c565b820191906000526020600020905b8154815290600101906020018083116120ff57829003601f168201915b50505050508152505082828151811061213857612137613b84565b5b6020026020010181905250808061214e90613c16565b915050611ced565b508091505090565b6000600b836040516121709190613b6d565b908152602001604051809103902060009054906101000a900473ffffffffffffffffffffffffffffffffffffffff16905060005b600760008373ffffffffffffffffffffffffffffffffffffffff1673ffffffffffffffffffffffffffffffffffffffff168152602001908152602001600020805490508110156122a557600760008373ffffffffffffffffffffffffffffffffffffffff1673ffffffffffffffffffffffffffffffffffffffff168152602001908152602001600020818154811061223f5761223e613b84565b5b90600052602060002001548303612292576000612291576040517f08c379a000000000000000000000000000000000000000000000000000000000815260040161228890613eda565b60405180910390fd5b5b808061229d90613c16565b9150506121a4565b50600760008273ffffffffffffffffffffffffffffffffffffffff1673ffffffffffffffffffffffffffffffffffffffff168152602001908152602001600020829080600181540180825580915050600190039060005260206000200160009091909190915055600182815481106123205761231f613b84565b5b90600052602060002090600a0201600601819080600181540180825580915050600190039060005260206000200160009091909190916101000a81548173ffffffffffffffffffffffffffffffffffffffff021916908373ffffffffffffffffffffffffffffffffffffffff160217905550505050565b60003090508073ffffffffffffffffffffffffffffffffffffffff166108fc349081150290604051600060405180830381858888f193505050501580156123e2573d6000803e3d6000fd5b5050565b80600a60003373ffffffffffffffffffffffffffffffffffffffff1673ffffffffffffffffffffffffffffffffffffffff16815260200190815260200160002090816124329190613a30565b5050565b4260066000848152602001908152602001600020600201541115612621576001600960003373ffffffffffffffffffffffffffffffffffffffff1673ffffffffffffffffffffffffffffffffffffffff168152602001908152602001600020600084815260200190815260200160002060006101000a81548160ff021916908315150217905550600182815481106124d1576124d0613b84565b5b90600052602060002090600a0201600601339080600181540180825580915050600190039060005260206000200160009091909190916101000a81548173ffffffffffffffffffffffffffffffffffffffff021916908373ffffffffffffffffffffffffffffffffffffffff160217905550600760003373ffffffffffffffffffffffffffffffffffffffff1673ffffffffffffffffffffffffffffffffffffffff168152602001908152602001600020829080600181540180825580915050600190039060005260206000200160009091909190915055600042905060066000848152602001908152602001600020600080820160006125d29190612dd1565b6001820160009055600282016000905550507fa7c1773722c3780482de45e0e6cdbb7395909d386fccd19d7b2aac127a796ac382338360405161261793929190613efa565b60405180910390a1505b5050565b60606000600860003373ffffffffffffffffffffffffffffffffffffffff1673ffffffffffffffffffffffffffffffffffffffff1681526020019081526020016000208054905067ffffffffffffffff81111561268557612684612efe565b5b6040519080825280602002602001820160405280156126be57816020015b6126ab612d66565b8152602001906001900390816126a35790505b50905060005b600860003373ffffffffffffffffffffffffffffffffffffffff1673ffffffffffffffffffffffffffffffffffffffff16815260200190815260200160002080549050811015612b2d576001600860003373ffffffffffffffffffffffffffffffffffffffff1673ffffffffffffffffffffffffffffffffffffffff168152602001908152602001600020828154811061276157612760613b84565b5b90600052602060002001548154811061277d5761277c613b84565b5b90600052602060002090600a020160405180610140016040529081600082015481526020016001820180546127b190613853565b80601f01602080910402602001604051908101604052809291908181526020018280546127dd90613853565b801561282a5780601f106127ff5761010080835404028352916020019161282a565b820191906000526020600020905b81548152906001019060200180831161280d57829003601f168201915b5050505050815260200160028201805461284390613853565b80601f016020809104026020016040519081016040528092919081815260200182805461286f90613853565b80156128bc5780601f10612891576101008083540402835291602001916128bc565b820191906000526020600020905b81548152906001019060200180831161289f57829003601f168201915b505050505081526020016003820160009054906101000a900460ff161515151581526020016004820180546128f090613853565b80601f016020809104026020016040519081016040528092919081815260200182805461291c90613853565b80156129695780601f1061293e57610100808354040283529160200191612969565b820191906000526020600020905b81548152906001019060200180831161294c57829003601f168201915b505050505081526020016005820160009054906101000a900473ffffffffffffffffffffffffffffffffffffffff1673ffffffffffffffffffffffffffffffffffffffff1673ffffffffffffffffffffffffffffffffffffffff16815260200160068201805480602002602001604051908101604052809291908181526020018280548015612a4d57602002820191906000526020600020905b8160009054906101000a900473ffffffffffffffffffffffffffffffffffffffff1673ffffffffffffffffffffffffffffffffffffffff1681526020019060010190808311612a03575b505050505081526020016007820154815260200160088201548152602001600982018054612a7a90613853565b80601f0160208091040260200160405190810160405280929190818152602001828054612aa690613853565b8015612af35780601f10612ac857610100808354040283529160200191612af3565b820191906000526020600020905b815481529060010190602001808311612ad657829003601f168201915b505050505081525050828281518110612b0f57612b0e613b84565b5b60200260200101819052508080612b2590613c16565b9150506126c4565b508091505090565b6001600960003373ffffffffffffffffffffffffffffffffffffffff1673ffffffffffffffffffffffffffffffffffffffff168152602001908152602001600020600085815260200190815260200160002060006101000a81548160ff02191690831515021790555060008390806001815401808255809150506001900390600052602060002001600090919091909150558160018481548110612bdc57612bdb613b84565b5b90600052602060002090600a02016009019081612bf99190613a30565b508060018481548110612c0f57612c0e613b84565b5b90600052602060002090600a020160080181905550505050565b606060018281548110612c3f57612c3e613b84565b5b90600052602060002090600a0201600601805480602002602001604051908101604052809291908181526020018280548015612cd057602002820191906000526020600020905b8160009054906101000a900473ffffffffffffffffffffffffffffffffffffffff1673ffffffffffffffffffffffffffffffffffffffff1681526020019060010190808311612c86575b50505050509050919050565b828054828255906000526020600020908101928215612d55579160200282015b82811115612d545782518260006101000a81548173ffffffffffffffffffffffffffffffffffffffff021916908373ffffffffffffffffffffffffffffffffffffffff16021790555091602001919060010190612cfc565b5b509050612d629190612e11565b5090565b60405180610140016040528060008152602001606081526020016060815260200160001515815260200160608152602001600073ffffffffffffffffffffffffffffffffffffffff168152602001606081526020016000815260200160008152602001606081525090565b508054612ddd90613853565b6000825580601f10612def5750612e0e565b601f016020900490600052602060002090810190612e0d9190612e11565b5b50565b5b80821115612e2a576000816000905550600101612e12565b5090565b600081519050919050565b600082825260208201905092915050565b60005b83811015612e68578082015181840152602081019050612e4d565b60008484015250505050565b6000601f19601f8301169050919050565b6000612e9082612e2e565b612e9a8185612e39565b9350612eaa818560208601612e4a565b612eb381612e74565b840191505092915050565b60006020820190508181036000830152612ed88184612e85565b905092915050565b6000604051905090565b600080fd5b600080fd5b600080fd5b600080fd5b7f4e487b7100000000000000000000000000000000000000000000000000000000600052604160045260246000fd5b612f3682612e74565b810181811067ffffffffffffffff82111715612f5557612f54612efe565b5b80604052505050565b6000612f68612ee0565b9050612f748282612f2d565b919050565b600067ffffffffffffffff821115612f9457612f93612efe565b5b612f9d82612e74565b9050602081019050919050565b82818337600083830152505050565b6000612fcc612fc784612f79565b612f5e565b905082815260208101848484011115612fe857612fe7612ef9565b5b612ff3848285612faa565b509392505050565b600082601f8301126130105761300f612ef4565b5b8135613020848260208601612fb9565b91505092915050565b60008060006060848603121561304257613041612eea565b5b600084013567ffffffffffffffff8111156130605761305f612eef565b5b61306c86828701612ffb565b935050602084013567ffffffffffffffff81111561308d5761308c612eef565b5b61309986828701612ffb565b925050604084013567ffffffffffffffff8111156130ba576130b9612eef565b5b6130c686828701612ffb565b9150509250925092565b6000819050919050565b6130e3816130d0565b81146130ee57600080fd5b50565b600081359050613100816130da565b92915050565b60006020828403121561311c5761311b612eea565b5b600061312a848285016130f1565b91505092915050565b61313c816130d0565b82525050565b6000606082019050818103600083015261315c8186612e85565b905061316b6020830185613133565b6131786040830184613133565b949350505050565b60008115159050919050565b61319581613180565b82525050565b600073ffffffffffffffffffffffffffffffffffffffff82169050919050565b60006131c68261319b565b9050919050565b6131d6816131bb565b82525050565b6000610120820190506131f2600083018c613133565b8181036020830152613204818b612e85565b90508181036040830152613218818a612e85565b9050613227606083018961318c565b81810360808301526132398188612e85565b905061324860a08301876131cd565b61325560c0830186613133565b61326260e0830185613133565b8181036101008301526132758184612e85565b90509a9950505050505050505050565b600060208201905061329a6000830184613133565b92915050565b600080604083850312156132b7576132b6612eea565b5b600083013567ffffffffffffffff8111156132d5576132d4612eef565b5b6132e185828601612ffb565b92505060206132f2858286016130f1565b9150509250929050565b6000806000806080858703121561331657613315612eea565b5b6000613324878288016130f1565b945050602085013567ffffffffffffffff81111561334557613344612eef565b5b61335187828801612ffb565b9350506040613362878288016130f1565b9250506060613373878288016130f1565b91505092959194509250565b600081519050919050565b600082825260208201905092915050565b6000819050602082019050919050565b6133b4816130d0565b82525050565b600082825260208201905092915050565b60006133d682612e2e565b6133e081856133ba565b93506133f0818560208601612e4a565b6133f981612e74565b840191505092915050565b61340d81613180565b82525050565b61341c816131bb565b82525050565b600081519050919050565b600082825260208201905092915050565b6000819050602082019050919050565b600061345a8383613413565b60208301905092915050565b6000602082019050919050565b600061347e82613422565b613488818561342d565b93506134938361343e565b8060005b838110156134c45781516134ab888261344e565b97506134b683613466565b925050600181019050613497565b5085935050505092915050565b6000610140830160008301516134ea60008601826133ab565b506020830151848203602086015261350282826133cb565b9150506040830151848203604086015261351c82826133cb565b91505060608301516135316060860182613404565b506080830151848203608086015261354982826133cb565b91505060a083015161355e60a0860182613413565b5060c083015184820360c08601526135768282613473565b91505060e083015161358b60e08601826133ab565b506101008301516135a06101008601826133ab565b506101208301518482036101208601526135ba82826133cb565b9150508091505092915050565b60006135d383836134d1565b905092915050565b6000602082019050919050565b60006135f38261337f565b6135fd818561338a565b93508360208202850161360f8561339b565b8060005b8581101561364b578484038952815161362c85826135c7565b9450613637836135db565b925060208a01995050600181019050613613565b50829750879550505050505092915050565b6000602082019050818103600083015261367781846135e8565b905092915050565b60006020828403121561369557613694612eea565b5b600082013567ffffffffffffffff8111156136b3576136b2612eef565b5b6136bf84828501612ffb565b91505092915050565b600080604083850312156136df576136de612eea565b5b60006136ed858286016130f1565b925050602083013567ffffffffffffffff81111561370e5761370d612eef565b5b61371a85828601612ffb565b9150509250929050565b60008060006060848603121561373d5761373c612eea565b5b600061374b868287016130f1565b935050602084013567ffffffffffffffff81111561376c5761376b612eef565b5b61377886828701612ffb565b9250506040613789868287016130f1565b9150509250925092565b600082825260208201905092915050565b60006137af82613422565b6137b98185613793565b93506137c48361343e565b8060005b838110156137f55781516137dc888261344e565b97506137e783613466565b9250506001810190506137c8565b5085935050505092915050565b6000602082019050818103600083015261381c81846137a4565b905092915050565b7f4e487b7100000000000000000000000000000000000000000000000000000000600052602260045260246000fd5b6000600282049050600182168061386b57607f821691505b60208210810361387e5761387d613824565b5b50919050565b60008190508160005260206000209050919050565b60006020601f8301049050919050565b600082821b905092915050565b6000600883026138e67fffffffffffffffffffffffffffffffffffffffffffffffffffffffffffffffff826138a9565b6138f086836138a9565b95508019841693508086168417925050509392505050565b6000819050919050565b600061392d613928613923846130d0565b613908565b6130d0565b9050919050565b6000819050919050565b61394783613912565b61395b61395382613934565b8484546138b6565b825550505050565b600090565b613970613963565b61397b81848461393e565b505050565b5b8181101561399f57613994600082613968565b600181019050613981565b5050565b601f8211156139e4576139b581613884565b6139be84613899565b810160208510156139cd578190505b6139e16139d985613899565b830182613980565b50505b505050565b600082821c905092915050565b6000613a07600019846008026139e9565b1980831691505092915050565b6000613a2083836139f6565b9150826002028217905092915050565b613a3982612e2e565b67ffffffffffffffff811115613a5257613a51612efe565b5b613a5c8254613853565b613a678282856139a3565b600060209050601f831160018114613a9a5760008415613a88578287015190505b613a928582613a14565b865550613afa565b601f198416613aa886613884565b60005b82811015613ad057848901518255600182019150602085019450602081019050613aab565b86831015613aed5784890151613ae9601f8916826139f6565b8355505b6001600288020188555050505b505050505050565b7f4e487b7100000000000000000000000000000000000000000000000000000000600052603160045260246000fd5b600081905092915050565b6000613b4782612e2e565b613b518185613b31565b9350613b61818560208601612e4a565b80840191505092915050565b6000613b798284613b3c565b915081905092915050565b7f4e487b7100000000000000000000000000000000000000000000000000000000600052603260045260246000fd5b7f4e487b7100000000000000000000000000000000000000000000000000000000600052601160045260246000fd5b6000613bed826130d0565b9150613bf8836130d0565b9250828203905081811115613c1057613c0f613bb3565b5b92915050565b6000613c21826130d0565b91507fffffffffffffffffffffffffffffffffffffffffffffffffffffffffffffffff8203613c5357613c52613bb3565b5b600182019050919050565b7f796f7520646f65736e277420676976652061636365737320746f20746869732060008201527f6164647265737320617420616c6c212100000000000000000000000000000000602082015250565b6000613cba603083612e39565b9150613cc582613c5e565b604082019050919050565b60006020820190508181036000830152613ce981613cad565b9050919050565b6000613cfb826130d0565b9150613d06836130d0565b9250828201905080821115613d1e57613d1d613bb3565b5b92915050565b7f796f7520616c726561647920626f7567687420746869732066696c6500000000600082015250565b6000613d5a601c83612e39565b9150613d6582613d24565b602082019050919050565b60006020820190508181036000830152613d8981613d4d565b9050919050565b7f496e73756666696369656e742062616c616e6365000000000000000000000000600082015250565b6000613dc6601483612e39565b9150613dd182613d90565b602082019050919050565b60006020820190508181036000830152613df581613db9565b9050919050565b7f6e6f207265636f72647300000000000000000000000000000000000000000000600082015250565b6000613e32600a83612e39565b9150613e3d82613dfc565b602082019050919050565b60006020820190508181036000830152613e6181613e25565b9050919050565b7f74686973206164647265737320616c726561647920686176652061206163636560008201527f737320746f20746869732066696c650000000000000000000000000000000000602082015250565b6000613ec4602f83612e39565b9150613ecf82613e68565b604082019050919050565b60006020820190508181036000830152613ef381613eb7565b9050919050565b60006060820190508181036000830152613f148186612e85565b9050613f2360208301856131cd565b613f306040830184613133565b94935050505056fea2646970667358221220a5116104153800f0d6be191b7ba852dee0d197d1fe9960e4fa671b7d497e63d764736f6c63430008130033",
  "linkReferences": {},
  "deployedLinkReferences": {}
}