{
  "_format": "hh-sol-artifact-1",
  "contractName": "syncdata",
  "sourceName": "contracts/meddata.sol",
  "abi": [
    {
      "inputs": [],
      "stateMutability": "payable",
      "type": "constructor"
    },
    {
      "anonymous": false,
      "inputs": [
        {
          "indexed": false,
          "internalType": "string",
          "name": "code",
          "type": "string"
        },
        {
          "indexed": false,
          "internalType": "uint256",
          "name": "value",
          "type": "uint256"
        },
        {
          "indexed": false,
          "internalType": "uint256",
          "name": "expiryTime",
          "type": "uint256"
        }
      ],
      "name": "CouponGenerated",
      "type": "event"
    },
    {
      "anonymous": false,
      "inputs": [
        {
          "indexed": false,
          "internalType": "string",
          "name": "code",
          "type": "string"
        },
        {
          "indexed": false,
          "internalType": "address",
          "name": "user",
          "type": "address"
        },
        {
          "indexed": false,
          "internalType": "uint256",
          "name": "redeemedTime",
          "type": "uint256"
        }
      ],
      "name": "CouponRedeemed",
      "type": "event"
    },
    {
      "inputs": [
        {
          "internalType": "string",
          "name": "_title",
          "type": "string"
        },
        {
          "internalType": "string",
          "name": "_description",
          "type": "string"
        },
        {
          "internalType": "string",
          "name": "_imageURL",
          "type": "string"
        }
      ],
      "name": "NewRrecord",
      "outputs": [],
      "stateMutability": "payable",
      "type": "function"
    },
    {
      "inputs": [],
      "name": "addToContractBalance",
      "outputs": [],
      "stateMutability": "payable",
      "type": "function"
    },
    {
      "inputs": [
        {
          "internalType": "uint256",
          "name": "id",
          "type": "uint256"
        }
      ],
      "name": "buyFileId",
      "outputs": [],
      "stateMutability": "payable",
      "type": "function"
    },
    {
      "inputs": [
        {
          "internalType": "uint256",
          "name": "",
          "type": "uint256"
        }
      ],
      "name": "coupons",
      "outputs": [
        {
          "internalType": "string",
          "name": "code",
          "type": "string"
        },
        {
          "internalType": "uint256",
          "name": "value",
          "type": "uint256"
        },
        {
          "internalType": "uint256",
          "name": "expiryTime",
          "type": "uint256"
        }
      ],
      "stateMutability": "view",
      "type": "function"
    },
    {
      "inputs": [
        {
          "internalType": "uint256",
          "name": "id",
          "type": "uint256"
        },
        {
          "internalType": "string",
          "name": "code",
          "type": "string"
        },
        {
          "internalType": "uint256",
          "name": "value",
          "type": "uint256"
        },
        {
          "internalType": "uint256",
          "name": "expiryTime",
          "type": "uint256"
        }
      ],
      "name": "generateCoupon",
      "outputs": [
        {
          "internalType": "string",
          "name": "",
          "type": "string"
        }
      ],
      "stateMutability": "nonpayable",
      "type": "function"
    },
    {
      "inputs": [
        {
          "internalType": "uint256",
          "name": "id",
          "type": "uint256"
        }
      ],
      "name": "getAccessList",
      "outputs": [
        {
          "internalType": "string[]",
          "name": "",
          "type": "string[]"
        }
      ],
      "stateMutability": "view",
      "type": "function"
    },
    {
      "inputs": [],
      "name": "getAllRecords",
      "outputs": [
        {
          "components": [
            {
              "internalType": "uint256",
              "name": "id",
              "type": "uint256"
            },
            {
              "internalType": "string",
              "name": "title",
              "type": "string"
            },
            {
              "internalType": "string",
              "name": "description",
              "type": "string"
            },
            {
              "internalType": "bool",
              "name": "islisted",
              "type": "bool"
            },
            {
              "internalType": "string",
              "name": "imageURL",
              "type": "string"
            },
            {
              "internalType": "address",
              "name": "owner",
              "type": "address"
            },
            {
              "internalType": "address[]",
              "name": "accessibleBy",
              "type": "address[]"
            },
            {
              "internalType": "uint256",
              "name": "timestamp",
              "type": "uint256"
            },
            {
              "internalType": "uint256",
              "name": "price",
              "type": "uint256"
            },
            {
              "internalType": "string",
              "name": "preview",
              "type": "string"
            }
          ],
          "internalType": "struct syncdata.Record[]",
          "name": "",
          "type": "tuple[]"
        }
      ],
      "stateMutability": "view",
      "type": "function"
    },
    {
      "inputs": [
        {
          "internalType": "uint256",
          "name": "_id",
          "type": "uint256"
        }
      ],
      "name": "getOneRecord",
      "outputs": [
        {
          "components": [
            {
              "internalType": "uint256",
              "name": "id",
              "type": "uint256"
            },
            {
              "internalType": "string",
              "name": "title",
              "type": "string"
            },
            {
              "internalType": "string",
              "name": "description",
              "type": "string"
            },
            {
              "internalType": "bool",
              "name": "islisted",
              "type": "bool"
            },
            {
              "internalType": "string",
              "name": "imageURL",
              "type": "string"
            },
            {
              "internalType": "address",
              "name": "owner",
              "type": "address"
            },
            {
              "internalType": "address[]",
              "name": "accessibleBy",
              "type": "address[]"
            },
            {
              "internalType": "uint256",
              "name": "timestamp",
              "type": "uint256"
            },
            {
              "internalType": "uint256",
              "name": "price",
              "type": "uint256"
            },
            {
              "internalType": "string",
              "name": "preview",
              "type": "string"
            }
          ],
          "internalType": "struct syncdata.Record",
          "name": "",
          "type": "tuple"
        }
      ],
      "stateMutability": "view",
      "type": "function"
    },
    {
      "inputs": [],
      "name": "getOwnersRecords",
      "outputs": [
        {
          "components": [
            {
              "internalType": "uint256",
              "name": "id",
              "type": "uint256"
            },
            {
              "internalType": "string",
              "name": "title",
              "type": "string"
            },
            {
              "internalType": "string",
              "name": "description",
              "type": "string"
            },
            {
              "internalType": "bool",
              "name": "islisted",
              "type": "bool"
            },
            {
              "internalType": "string",
              "name": "imageURL",
              "type": "string"
            },
            {
              "internalType": "address",
              "name": "owner",
              "type": "address"
            },
            {
              "internalType": "address[]",
              "name": "accessibleBy",
              "type": "address[]"
            },
            {
              "internalType": "uint256",
              "name": "timestamp",
              "type": "uint256"
            },
            {
              "internalType": "uint256",
              "name": "price",
              "type": "uint256"
            },
            {
              "internalType": "string",
              "name": "preview",
              "type": "string"
            }
          ],
          "internalType": "struct syncdata.Record[]",
          "name": "",
          "type": "tuple[]"
        }
      ],
      "stateMutability": "view",
      "type": "function"
    },
    {
      "inputs": [],
      "name": "getSellingRecord",
      "outputs": [
        {
          "components": [
            {
              "internalType": "uint256",
              "name": "id",
              "type": "uint256"
            },
            {
              "internalType": "string",
              "name": "title",
              "type": "string"
            },
            {
              "internalType": "string",
              "name": "description",
              "type": "string"
            },
            {
              "internalType": "bool",
              "name": "islisted",
              "type": "bool"
            },
            {
              "internalType": "string",
              "name": "imageURL",
              "type": "string"
            },
            {
              "internalType": "address",
              "name": "owner",
              "type": "address"
            },
            {
              "internalType": "address[]",
              "name": "accessibleBy",
              "type": "address[]"
            },
            {
              "internalType": "uint256",
              "name": "timestamp",
              "type": "uint256"
            },
            {
              "internalType": "uint256",
              "name": "price",
              "type": "uint256"
            },
            {
              "internalType": "string",
              "name": "preview",
              "type": "string"
            }
          ],
          "internalType": "struct syncdata.Record[]",
          "name": "",
          "type": "tuple[]"
        }
      ],
      "stateMutability": "view",
      "type": "function"
    },
    {
      "inputs": [],
      "name": "getUserName",
      "outputs": [
        {
          "internalType": "string",
          "name": "",
          "type": "string"
        }
      ],
      "stateMutability": "view",
      "type": "function"
    },
    {
      "inputs": [],
      "name": "giveContractBalance",
      "outputs": [
        {
          "internalType": "uint256",
          "name": "",
          "type": "uint256"
        }
      ],
      "stateMutability": "view",
      "type": "function"
    },
    {
      "inputs": [
        {
          "internalType": "string",
          "name": "temp2",
          "type": "string"
        }
      ],
      "name": "helper",
      "outputs": [
        {
          "internalType": "address",
          "name": "",
          "type": "address"
        }
      ],
      "stateMutability": "view",
      "type": "function"
    },
    {
      "inputs": [
        {
          "internalType": "string",
          "name": "_newOwnerUserName",
          "type": "string"
        },
        {
          "internalType": "uint256",
          "name": "id",
          "type": "uint256"
        }
      ],
      "name": "newOwner",
      "outputs": [],
      "stateMutability": "nonpayable",
      "type": "function"
    },
    {
      "inputs": [
        {
          "internalType": "uint256",
          "name": "",
          "type": "uint256"
        }
      ],
      "name": "records",
      "outputs": [
        {
          "internalType": "uint256",
          "name": "id",
          "type": "uint256"
        },
        {
          "internalType": "string",
          "name": "title",
          "type": "string"
        },
        {
          "internalType": "string",
          "name": "description",
          "type": "string"
        },
        {
          "internalType": "bool",
          "name": "islisted",
          "type": "bool"
        },
        {
          "internalType": "string",
          "name": "imageURL",
          "type": "string"
        },
        {
          "internalType": "address",
          "name": "owner",
          "type": "address"
        },
        {
          "internalType": "uint256",
          "name": "timestamp",
          "type": "uint256"
        },
        {
          "internalType": "uint256",
          "name": "price",
          "type": "uint256"
        },
        {
          "internalType": "string",
          "name": "preview",
          "type": "string"
        }
      ],
      "stateMutability": "view",
      "type": "function"
    },
    {
      "inputs": [
        {
          "internalType": "uint256",
          "name": "id",
          "type": "uint256"
        },
        {
          "internalType": "string",
          "name": "code",
          "type": "string"
        }
      ],
      "name": "redeemCoupon",
      "outputs": [],
      "stateMutability": "nonpayable",
      "type": "function"
    },
    {
      "inputs": [
        {
          "internalType": "string",
          "name": "_removeOwnerUserName",
          "type": "string"
        },
        {
          "internalType": "uint256",
          "name": "id",
          "type": "uint256"
        }
      ],
      "name": "removeOwner",
      "outputs": [],
      "stateMutability": "nonpayable",
      "type": "function"
    },
    {
      "inputs": [
        {
          "internalType": "uint256",
          "name": "id",
          "type": "uint256"
        },
        {
          "internalType": "string",
          "name": "preview",
          "type": "string"
        },
        {
          "internalType": "uint256",
          "name": "price",
          "type": "uint256"
        }
      ],
      "name": "sellTheFile",
      "outputs": [],
      "stateMutability": "nonpayable",
      "type": "function"
    },
    {
      "inputs": [
        {
          "internalType": "uint256",
          "name": "",
          "type": "uint256"
        }
      ],
      "name": "sellingFileId",
      "outputs": [
        {
          "internalType": "uint256",
          "name": "",
          "type": "uint256"
        }
      ],
      "stateMutability": "view",
      "type": "function"
    },
    {
      "inputs": [
        {
          "internalType": "string",
          "name": "userName",
          "type": "string"
        }
      ],
      "name": "storeUserName",
      "outputs": [],
      "stateMutability": "nonpayable",
      "type": "function"
    }
  ],
  "bytecode": "0x6080604052600067ffffffffffffffff811115620000225762000021620002be565b5b604051908082528060200260200182016040528015620000515781602001602082028036833780820191505090505b50600290805190602001906200006992919062000142565b50600067ffffffffffffffff811115620000885762000087620002be565b5b604051908082528060200260200182016040528015620000bd57816020015b6060815260200190600190039081620000a75790505b5060039080519060200190620000d5929190620001d1565b50600067ffffffffffffffff811115620000f457620000f3620002be565b5b604051908082528060200260200182016040528015620001235781602001602082028036833780820191505090505b50600490805190602001906200013b92919062000142565b506200061f565b828054828255906000526020600020908101928215620001be579160200282015b82811115620001bd5782518260006101000a81548173ffffffffffffffffffffffffffffffffffffffff021916908373ffffffffffffffffffffffffffffffffffffffff1602179055509160200191906001019062000163565b5b509050620001cd919062000231565b5090565b8280548282559060005260206000209081019282156200021e579160200282015b828111156200021d5782518290816200020c919062000538565b5091602001919060010190620001f2565b5b5090506200022d919062000250565b5090565b5b808211156200024c57600081600090555060010162000232565b5090565b5b808211156200027457600081816200026a919062000278565b5060010162000251565b5090565b508054620002869062000327565b6000825580601f106200029a5750620002bb565b601f016020900490600052602060002090810190620002ba919062000231565b5b50565b7f4e487b7100000000000000000000000000000000000000000000000000000000600052604160045260246000fd5b600081519050919050565b7f4e487b7100000000000000000000000000000000000000000000000000000000600052602260045260246000fd5b600060028204905060018216806200034057607f821691505b602082108103620003565762000355620002f8565b5b50919050565b60008190508160005260206000209050919050565b60006020601f8301049050919050565b600082821b905092915050565b600060088302620003c07fffffffffffffffffffffffffffffffffffffffffffffffffffffffffffffffff8262000381565b620003cc868362000381565b95508019841693508086168417925050509392505050565b6000819050919050565b6000819050919050565b600062000419620004136200040d84620003e4565b620003ee565b620003e4565b9050919050565b6000819050919050565b6200043583620003f8565b6200044d620004448262000420565b8484546200038e565b825550505050565b600090565b6200046462000455565b620004718184846200042a565b505050565b5b8181101562000499576200048d6000826200045a565b60018101905062000477565b5050565b601f821115620004e857620004b2816200035c565b620004bd8462000371565b81016020851015620004cd578190505b620004e5620004dc8562000371565b83018262000476565b50505b505050565b600082821c905092915050565b60006200050d60001984600802620004ed565b1980831691505092915050565b6000620005288383620004fa565b9150826002028217905092915050565b6200054382620002ed565b67ffffffffffffffff8111156200055f576200055e620002be565b5b6200056b825462000327565b620005788282856200049d565b600060209050601f831160018114620005b057600084156200059b578287015190505b620005a785826200051a565b86555062000617565b601f198416620005c0866200035c565b60005b82811015620005ea57848901518255600182019150602085019450602081019050620005c3565b868310156200060a578489015162000606601f891682620004fa565b8355505b6001600288020188555050505b505050505050565b615541806200062f6000396000f3fe60806040526004361061011f5760003560e01c806378fbb867116100a0578063d3a22a8211610064578063d3a22a82146103dc578063e1dc63f014610405578063e227cf8a1461042e578063e3e18cc514610459578063f31bb177146104825761011f565b806378fbb86714610325578063878e688e14610362578063a7f9fe721461037e578063af205ea3146103a9578063c7fb53eb146103d25761011f565b806340ed6403116100e757806340ed64031461022c5780634efb8a4b14610257578063653467c4146102805780636f587e3b146102bd578063773d79dc146102fa5761011f565b806312958f1c146101245780631cda164f1461014f578063298ba2be1461016b57806330828e92146101a857806334461067146101e7575b600080fd5b34801561013057600080fd5b506101396104bf565b6040516101469190613def565b60405180910390f35b61016960048036038101906101649190613f5a565b610622565b005b34801561017757600080fd5b50610192600480360381019061018d9190614037565b6109d0565b60405161019f91906142be565b60405180910390f35b3480156101b457600080fd5b506101cf60048036038101906101ca9190614037565b610f61565b6040516101de939291906142ef565b60405180910390f35b3480156101f357600080fd5b5061020e60048036038101906102099190614037565b611013565b6040516102239998979695949392919061434b565b60405180910390f35b34801561023857600080fd5b506102416112be565b60405161024e91906143f4565b60405180910390f35b34801561026357600080fd5b5061027e6004803603810190610279919061440f565b6112c6565b005b34801561028c57600080fd5b506102a760048036038101906102a29190614037565b611a7c565b6040516102b491906143f4565b60405180910390f35b3480156102c957600080fd5b506102e460048036038101906102df919061446b565b611aa0565b6040516102f19190613def565b60405180910390f35b34801561030657600080fd5b5061030f611b53565b60405161031c91906146a6565b60405180910390f35b34801561033157600080fd5b5061034c600480360381019061034791906146c8565b6120f8565b6040516103599190614711565b60405180910390f35b61037c60048036038101906103779190614037565b612140565b005b34801561038a57600080fd5b506103936124e4565b6040516103a091906146a6565b60405180910390f35b3480156103b557600080fd5b506103d060048036038101906103cb919061440f565b612a79565b005b6103da612ece565b005b3480156103e857600080fd5b5061040360048036038101906103fe91906146c8565b612f1d565b005b34801561041157600080fd5b5061042c6004803603810190610427919061472c565b61305e565b005b34801561043a57600080fd5b5061044361324d565b60405161045091906146a6565b60405180910390f35b34801561046557600080fd5b50610480600480360381019061047b9190614788565b61375d565b005b34801561048e57600080fd5b506104a960048036038101906104a49190614037565b6139b3565b6040516104b691906148b9565b60405180910390f35b60606000600c60003373ffffffffffffffffffffffffffffffffffffffff1673ffffffffffffffffffffffffffffffffffffffff168152602001908152602001600020905060008180546105129061490a565b905003610554576040517f08c379a000000000000000000000000000000000000000000000000000000000815260040161054b90614987565b60405180910390fd5b600c60003373ffffffffffffffffffffffffffffffffffffffff1673ffffffffffffffffffffffffffffffffffffffff168152602001908152602001600020805461059e9061490a565b80601f01602080910402602001604051908101604052809291908181526020018280546105ca9061490a565b80156106175780601f106105ec57610100808354040283529160200191610617565b820191906000526020600020905b8154815290600101906020018083116105fa57829003601f168201915b505050505091505090565b600760003373ffffffffffffffffffffffffffffffffffffffff1673ffffffffffffffffffffffffffffffffffffffff1681526020019081526020016000206001805490509080600181540180825580915050600190039060005260206000200160009091909190915055600860003373ffffffffffffffffffffffffffffffffffffffff1673ffffffffffffffffffffffffffffffffffffffff1681526020019081526020016000206001805490509080600181540180825580915050600190039060005260206000200160009091909190915055600060018054905090506002339080600181540180825580915050600190039060005260206000200160009091909190916101000a81548173ffffffffffffffffffffffffffffffffffffffff021916908373ffffffffffffffffffffffffffffffffffffffff16021790555060016040518061014001604052808381526020018681526020018581526020016001151581526020018481526020013373ffffffffffffffffffffffffffffffffffffffff168152602001600280548060200260200160405190810160405280929190818152602001828054801561083257602002820191906000526020600020905b8160009054906101000a900473ffffffffffffffffffffffffffffffffffffffff1673ffffffffffffffffffffffffffffffffffffffff16815260200190600101908083116107e8575b50505050508152602001428152602001600081526020016040518060200160405280600081525081525090806001815401808255809150506001900390600052602060002090600a02016000909190919091506000820151816000015560208201518160010190816108a49190614b53565b5060408201518160020190816108ba9190614b53565b5060608201518160030160006101000a81548160ff02191690831515021790555060808201518160040190816108f09190614b53565b5060a08201518160050160006101000a81548173ffffffffffffffffffffffffffffffffffffffff021916908373ffffffffffffffffffffffffffffffffffffffff16021790555060c0820151816006019080519060200190610954929190613c0d565b5060e0820151816007015561010082015181600801556101208201518160090190816109809190614b53565b505050600280548061099557610994614c25565b5b6001900381819060005260206000200160006101000a81549073ffffffffffffffffffffffffffffffffffffffff0219169055905550505050565b6109d8613c97565b6001805490508210610a1f576040517f08c379a0000000000000000000000000000000000000000000000000000000008152600401610a1690614ca0565b60405180910390fd5b600060018381548110610a3557610a34614cc0565b5b90600052602060002090600a02016040518061014001604052908160008201548152602001600182018054610a699061490a565b80601f0160208091040260200160405190810160405280929190818152602001828054610a959061490a565b8015610ae25780601f10610ab757610100808354040283529160200191610ae2565b820191906000526020600020905b815481529060010190602001808311610ac557829003601f168201915b50505050508152602001600282018054610afb9061490a565b80601f0160208091040260200160405190810160405280929190818152602001828054610b279061490a565b8015610b745780601f10610b4957610100808354040283529160200191610b74565b820191906000526020600020905b815481529060010190602001808311610b5757829003601f168201915b505050505081526020016003820160009054906101000a900460ff16151515158152602001600482018054610ba89061490a565b80601f0160208091040260200160405190810160405280929190818152602001828054610bd49061490a565b8015610c215780601f10610bf657610100808354040283529160200191610c21565b820191906000526020600020905b815481529060010190602001808311610c0457829003601f168201915b505050505081526020016005820160009054906101000a900473ffffffffffffffffffffffffffffffffffffffff1673ffffffffffffffffffffffffffffffffffffffff1673ffffffffffffffffffffffffffffffffffffffff16815260200160068201805480602002602001604051908101604052809291908181526020018280548015610d0557602002820191906000526020600020905b8160009054906101000a900473ffffffffffffffffffffffffffffffffffffffff1673ffffffffffffffffffffffffffffffffffffffff1681526020019060010190808311610cbb575b505050505081526020016007820154815260200160088201548152602001600982018054610d329061490a565b80601f0160208091040260200160405190810160405280929190818152602001828054610d5e9061490a565b8015610dab5780601f10610d8057610100808354040283529160200191610dab565b820191906000526020600020905b815481529060010190602001808311610d8e57829003601f168201915b50505050508152505090506000805b60018581548110610dce57610dcd614cc0565b5b90600052602060002090600a020160060180549050811015610e96573373ffffffffffffffffffffffffffffffffffffffff1660018681548110610e1557610e14614cc0565b5b90600052602060002090600a02016006018281548110610e3857610e37614cc0565b5b9060005260206000200160009054906101000a900473ffffffffffffffffffffffffffffffffffffffff1673ffffffffffffffffffffffffffffffffffffffff1603610e8357600191505b8080610e8e90614d1e565b915050610dba565b5080151560001515148015610eb15750816101000151600014155b15610f1757600960003373ffffffffffffffffffffffffffffffffffffffff1673ffffffffffffffffffffffffffffffffffffffff168152602001908152602001600020600085815260200190815260200160002060009054906101000a900460ff1690505b80610f57576040517f08c379a0000000000000000000000000000000000000000000000000000000008152600401610f4e90614dd8565b60405180910390fd5b8192505050919050565b6006602052806000526040600020600091509050806000018054610f849061490a565b80601f0160208091040260200160405190810160405280929190818152602001828054610fb09061490a565b8015610ffd5780601f10610fd257610100808354040283529160200191610ffd565b820191906000526020600020905b815481529060010190602001808311610fe057829003601f168201915b5050505050908060010154908060020154905083565b6001818154811061102357600080fd5b90600052602060002090600a020160009150905080600001549080600101805461104c9061490a565b80601f01602080910402602001604051908101604052809291908181526020018280546110789061490a565b80156110c55780601f1061109a576101008083540402835291602001916110c5565b820191906000526020600020905b8154815290600101906020018083116110a857829003601f168201915b5050505050908060020180546110da9061490a565b80601f01602080910402602001604051908101604052809291908181526020018280546111069061490a565b80156111535780601f1061112857610100808354040283529160200191611153565b820191906000526020600020905b81548152906001019060200180831161113657829003601f168201915b5050505050908060030160009054906101000a900460ff169080600401805461117b9061490a565b80601f01602080910402602001604051908101604052809291908181526020018280546111a79061490a565b80156111f45780601f106111c9576101008083540402835291602001916111f4565b820191906000526020600020905b8154815290600101906020018083116111d757829003601f168201915b5050505050908060050160009054906101000a900473ffffffffffffffffffffffffffffffffffffffff169080600701549080600801549080600901805461123b9061490a565b80601f01602080910402602001604051908101604052809291908181526020018280546112679061490a565b80156112b45780601f10611289576101008083540402835291602001916112b4565b820191906000526020600020905b81548152906001019060200180831161129757829003601f168201915b5050505050905089565b600047905090565b600180549050811061130d576040517f08c379a000000000000000000000000000000000000000000000000000000000815260040161130490614e44565b60405180910390fd5b6001818154811061132157611320614cc0565b5b90600052602060002090600a020160050160009054906101000a900473ffffffffffffffffffffffffffffffffffffffff1673ffffffffffffffffffffffffffffffffffffffff163373ffffffffffffffffffffffffffffffffffffffff16146113c0576040517f08c379a00000000000000000000000000000000000000000000000000000000081526004016113b790614eb0565b60405180910390fd5b6000600d836040516113d29190614f0c565b908152602001604051809103902060009054906101000a900473ffffffffffffffffffffffffffffffffffffffff169050600073ffffffffffffffffffffffffffffffffffffffff168173ffffffffffffffffffffffffffffffffffffffff1603611472576040517f08c379a000000000000000000000000000000000000000000000000000000000815260040161146990614f95565b60405180910390fd5b3373ffffffffffffffffffffffffffffffffffffffff168173ffffffffffffffffffffffffffffffffffffffff16036114e0576040517f08c379a00000000000000000000000000000000000000000000000000000000081526004016114d79061504d565b60405180910390fd5b6000600760008373ffffffffffffffffffffffffffffffffffffffff1673ffffffffffffffffffffffffffffffffffffffff16815260200190815260200160002080549050905060005b600760008473ffffffffffffffffffffffffffffffffffffffff1673ffffffffffffffffffffffffffffffffffffffff16815260200190815260200160002080549050811015611a3357600760008473ffffffffffffffffffffffffffffffffffffffff1673ffffffffffffffffffffffffffffffffffffffff16815260200190815260200160002081815481106115c5576115c4614cc0565b5b90600052602060002001548403611a2057600760008473ffffffffffffffffffffffffffffffffffffffff1673ffffffffffffffffffffffffffffffffffffffff1681526020019081526020016000208054905060010361168a57600760008473ffffffffffffffffffffffffffffffffffffffff1673ffffffffffffffffffffffffffffffffffffffff16815260200190815260200160002080548061166f5761166e614c25565b5b600190038181906000526020600020016000905590556117b7565b600760008473ffffffffffffffffffffffffffffffffffffffff1673ffffffffffffffffffffffffffffffffffffffff1681526020019081526020016000206001836116d6919061506d565b815481106116e7576116e6614cc0565b5b9060005260206000200154600760008573ffffffffffffffffffffffffffffffffffffffff1673ffffffffffffffffffffffffffffffffffffffff168152602001908152602001600020828154811061174357611742614cc0565b5b9060005260206000200181905550600760008473ffffffffffffffffffffffffffffffffffffffff1673ffffffffffffffffffffffffffffffffffffffff1681526020019081526020016000208054806117a05761179f614c25565b5b600190038181906000526020600020016000905590555b6000600185815481106117cd576117cc614cc0565b5b90600052602060002090600a020160060180549050905060005b600186815481106117fb576117fa614cc0565b5b90600052602060002090600a020160060180549050811015611a16576001868154811061182b5761182a614cc0565b5b90600052602060002090600a0201600601818154811061184e5761184d614cc0565b5b9060005260206000200160009054906101000a900473ffffffffffffffffffffffffffffffffffffffff1673ffffffffffffffffffffffffffffffffffffffff168573ffffffffffffffffffffffffffffffffffffffff1603611a0357600186815481106118bf576118be614cc0565b5b90600052602060002090600a02016006016001836118dd919061506d565b815481106118ee576118ed614cc0565b5b9060005260206000200160009054906101000a900473ffffffffffffffffffffffffffffffffffffffff166001878154811061192d5761192c614cc0565b5b90600052602060002090600a020160060182815481106119505761194f614cc0565b5b9060005260206000200160006101000a81548173ffffffffffffffffffffffffffffffffffffffff021916908373ffffffffffffffffffffffffffffffffffffffff160217905550600186815481106119ac576119ab614cc0565b5b90600052602060002090600a02016006018054806119cd576119cc614c25565b5b6001900381819060005260206000200160006101000a81549073ffffffffffffffffffffffffffffffffffffffff021916905590555b8080611a0e90614d1e565b9150506117e7565b5050505050611a78565b8080611a2b90614d1e565b91505061152a565b506000611a75576040517f08c379a0000000000000000000000000000000000000000000000000000000008152600401611a6c90615113565b60405180910390fd5b50505b5050565b60008181548110611a8c57600080fd5b906000526020600020016000915090505481565b6060610e1042611ab09190615133565b9150604051806060016040528085815260200184815260200183815250600660008781526020019081526020016000206000820151816000019081611af59190614b53565b5060208201518160010155604082015181600201559050507f506c1c7dd360506da713451f9275b3cfa046b07a1318ba73623d3b27d6acff7d848484604051611b40939291906142ef565b60405180910390a1839050949350505050565b60606000805b600080549050811015611c0f57600960003373ffffffffffffffffffffffffffffffffffffffff1673ffffffffffffffffffffffffffffffffffffffff1681526020019081526020016000206000808381548110611bba57611bb9614cc0565b5b9060005260206000200154815260200190815260200160002060009054906101000a900460ff1615156000151503611bfc57600182611bf99190615133565b91505b8080611c0790614d1e565b915050611b59565b5060008167ffffffffffffffff811115611c2c57611c2b613e2f565b5b604051908082528060200260200182016040528015611c6557816020015b611c52613c97565b815260200190600190039081611c4a5790505b5090506000805b6000805490508110156120ee57600960003373ffffffffffffffffffffffffffffffffffffffff1673ffffffffffffffffffffffffffffffffffffffff1681526020019081526020016000206000808381548110611ccd57611ccc614cc0565b5b9060005260206000200154815260200190815260200160002060009054906101000a900460ff16151560001515036120db57600160008281548110611d1557611d14614cc0565b5b906000526020600020015481548110611d3157611d30614cc0565b5b90600052602060002090600a02016040518061014001604052908160008201548152602001600182018054611d659061490a565b80601f0160208091040260200160405190810160405280929190818152602001828054611d919061490a565b8015611dde5780601f10611db357610100808354040283529160200191611dde565b820191906000526020600020905b815481529060010190602001808311611dc157829003601f168201915b50505050508152602001600282018054611df79061490a565b80601f0160208091040260200160405190810160405280929190818152602001828054611e239061490a565b8015611e705780601f10611e4557610100808354040283529160200191611e70565b820191906000526020600020905b815481529060010190602001808311611e5357829003601f168201915b505050505081526020016003820160009054906101000a900460ff16151515158152602001600482018054611ea49061490a565b80601f0160208091040260200160405190810160405280929190818152602001828054611ed09061490a565b8015611f1d5780601f10611ef257610100808354040283529160200191611f1d565b820191906000526020600020905b815481529060010190602001808311611f0057829003601f168201915b505050505081526020016005820160009054906101000a900473ffffffffffffffffffffffffffffffffffffffff1673ffffffffffffffffffffffffffffffffffffffff1673ffffffffffffffffffffffffffffffffffffffff1681526020016006820180548060200260200160405190810160405280929190818152602001828054801561200157602002820191906000526020600020905b8160009054906101000a900473ffffffffffffffffffffffffffffffffffffffff1673ffffffffffffffffffffffffffffffffffffffff1681526020019060010190808311611fb7575b50505050508152602001600782015481526020016008820154815260200160098201805461202e9061490a565b80601f016020809104026020016040519081016040528092919081815260200182805461205a9061490a565b80156120a75780601f1061207c576101008083540402835291602001916120a7565b820191906000526020600020905b81548152906001019060200180831161208a57829003601f168201915b5050505050815250508383806120bc90614d1e565b9450815181106120cf576120ce614cc0565b5b60200260200101819052505b80806120e690614d1e565b915050611c6c565b5081935050505090565b6000600d8260405161210a9190614f0c565b908152602001604051809103902060009054906101000a900473ffffffffffffffffffffffffffffffffffffffff169050919050565b6001805490508110612187576040517f08c379a000000000000000000000000000000000000000000000000000000000815260040161217e90614e44565b60405180910390fd5b60005b6000805490508110156124df57600081815481106121ab576121aa614cc0565b5b906000526020600020015482036124cc57600960003373ffffffffffffffffffffffffffffffffffffffff1673ffffffffffffffffffffffffffffffffffffffff168152602001908152602001600020600083815260200190815260200160002060009054906101000a900460ff1615612265576000612260576040517f08c379a0000000000000000000000000000000000000000000000000000000008152600401612257906151b3565b60405180910390fd5b6124cb565b6001828154811061227957612278614cc0565b5b90600052602060002090600a0201600801543373ffffffffffffffffffffffffffffffffffffffff163110156122e4576040517f08c379a00000000000000000000000000000000000000000000000000000000081526004016122db9061521f565b60405180910390fd5b600182815481106122f8576122f7614cc0565b5b90600052602060002090600a020160050160009054906101000a900473ffffffffffffffffffffffffffffffffffffffff1673ffffffffffffffffffffffffffffffffffffffff166108fc349081150290604051600060405180830381858888f1935050505015801561236f573d6000803e3d6000fd5b506001600960003373ffffffffffffffffffffffffffffffffffffffff1673ffffffffffffffffffffffffffffffffffffffff168152602001908152602001600020600084815260200190815260200160002060006101000a81548160ff021916908315150217905550600182815481106123ed576123ec614cc0565b5b90600052602060002090600a0201600601339080600181540180825580915050600190039060005260206000200160009091909190916101000a81548173ffffffffffffffffffffffffffffffffffffffff021916908373ffffffffffffffffffffffffffffffffffffffff160217905550600760003373ffffffffffffffffffffffffffffffffffffffff1673ffffffffffffffffffffffffffffffffffffffff168152602001908152602001600020829080600181540180825580915050600190039060005260206000200160009091909190915055506124e1565b5b80806124d790614d1e565b91505061218a565b505b50565b60606000600760003373ffffffffffffffffffffffffffffffffffffffff1673ffffffffffffffffffffffffffffffffffffffff168152602001908152602001600020805490501161256b576040517f08c379a00000000000000000000000000000000000000000000000000000000081526004016125629061528b565b60405180910390fd5b6000600760003373ffffffffffffffffffffffffffffffffffffffff1673ffffffffffffffffffffffffffffffffffffffff1681526020019081526020016000208054905067ffffffffffffffff8111156125c9576125c8613e2f565b5b60405190808252806020026020018201604052801561260257816020015b6125ef613c97565b8152602001906001900390816125e75790505b50905060005b600760003373ffffffffffffffffffffffffffffffffffffffff1673ffffffffffffffffffffffffffffffffffffffff16815260200190815260200160002080549050811015612a71576001600760003373ffffffffffffffffffffffffffffffffffffffff1673ffffffffffffffffffffffffffffffffffffffff16815260200190815260200160002082815481106126a5576126a4614cc0565b5b9060005260206000200154815481106126c1576126c0614cc0565b5b90600052602060002090600a020160405180610140016040529081600082015481526020016001820180546126f59061490a565b80601f01602080910402602001604051908101604052809291908181526020018280546127219061490a565b801561276e5780601f106127435761010080835404028352916020019161276e565b820191906000526020600020905b81548152906001019060200180831161275157829003601f168201915b505050505081526020016002820180546127879061490a565b80601f01602080910402602001604051908101604052809291908181526020018280546127b39061490a565b80156128005780601f106127d557610100808354040283529160200191612800565b820191906000526020600020905b8154815290600101906020018083116127e357829003601f168201915b505050505081526020016003820160009054906101000a900460ff161515151581526020016004820180546128349061490a565b80601f01602080910402602001604051908101604052809291908181526020018280546128609061490a565b80156128ad5780601f10612882576101008083540402835291602001916128ad565b820191906000526020600020905b81548152906001019060200180831161289057829003601f168201915b505050505081526020016005820160009054906101000a900473ffffffffffffffffffffffffffffffffffffffff1673ffffffffffffffffffffffffffffffffffffffff1673ffffffffffffffffffffffffffffffffffffffff1681526020016006820180548060200260200160405190810160405280929190818152602001828054801561299157602002820191906000526020600020905b8160009054906101000a900473ffffffffffffffffffffffffffffffffffffffff1673ffffffffffffffffffffffffffffffffffffffff1681526020019060010190808311612947575b5050505050815260200160078201548152602001600882015481526020016009820180546129be9061490a565b80601f01602080910402602001604051908101604052809291908181526020018280546129ea9061490a565b8015612a375780601f10612a0c57610100808354040283529160200191612a37565b820191906000526020600020905b815481529060010190602001808311612a1a57829003601f168201915b505050505081525050828281518110612a5357612a52614cc0565b5b60200260200101819052508080612a6990614d1e565b915050612608565b508091505090565b6001805490508110612ac0576040517f08c379a0000000000000000000000000000000000000000000000000000000008152600401612ab790614e44565b60405180910390fd5b60018181548110612ad457612ad3614cc0565b5b90600052602060002090600a020160050160009054906101000a900473ffffffffffffffffffffffffffffffffffffffff1673ffffffffffffffffffffffffffffffffffffffff163373ffffffffffffffffffffffffffffffffffffffff1614612b73576040517f08c379a0000000000000000000000000000000000000000000000000000000008152600401612b6a90614eb0565b60405180910390fd5b6000600d83604051612b859190614f0c565b908152602001604051809103902060009054906101000a900473ffffffffffffffffffffffffffffffffffffffff169050600073ffffffffffffffffffffffffffffffffffffffff168173ffffffffffffffffffffffffffffffffffffffff1603612c25576040517f08c379a0000000000000000000000000000000000000000000000000000000008152600401612c1c90614f95565b60405180910390fd5b60018281548110612c3957612c38614cc0565b5b90600052602060002090600a020160050160009054906101000a900473ffffffffffffffffffffffffffffffffffffffff1673ffffffffffffffffffffffffffffffffffffffff168173ffffffffffffffffffffffffffffffffffffffff1603612cd8576040517f08c379a0000000000000000000000000000000000000000000000000000000008152600401612ccf9061531d565b60405180910390fd5b60005b600760008373ffffffffffffffffffffffffffffffffffffffff1673ffffffffffffffffffffffffffffffffffffffff16815260200190815260200160002080549050811015612ddc57600760008373ffffffffffffffffffffffffffffffffffffffff1673ffffffffffffffffffffffffffffffffffffffff1681526020019081526020016000208181548110612d7657612d75614cc0565b5b90600052602060002001548303612dc9576000612dc8576040517f08c379a0000000000000000000000000000000000000000000000000000000008152600401612dbf906153af565b60405180910390fd5b5b8080612dd490614d1e565b915050612cdb565b50600760008273ffffffffffffffffffffffffffffffffffffffff1673ffffffffffffffffffffffffffffffffffffffff16815260200190815260200160002082908060018154018082558091505060019003906000526020600020016000909190919091505560018281548110612e5757612e56614cc0565b5b90600052602060002090600a0201600601819080600181540180825580915050600190039060005260206000200160009091909190916101000a81548173ffffffffffffffffffffffffffffffffffffffff021916908373ffffffffffffffffffffffffffffffffffffffff160217905550505050565b60003090508073ffffffffffffffffffffffffffffffffffffffff166108fc349081150290604051600060405180830381858888f19350505050158015612f19573d6000803e3d6000fd5b5050565b6000600c60003373ffffffffffffffffffffffffffffffffffffffff1673ffffffffffffffffffffffffffffffffffffffff16815260200190815260200160002090506000818054612f6e9061490a565b905014612fb0576040517f08c379a0000000000000000000000000000000000000000000000000000000008152600401612fa79061541b565b60405180910390fd5b81600c60003373ffffffffffffffffffffffffffffffffffffffff1673ffffffffffffffffffffffffffffffffffffffff1681526020019081526020016000209081612ffc9190614b53565b5033600d8360405161300e9190614f0c565b908152602001604051809103902060006101000a81548173ffffffffffffffffffffffffffffffffffffffff021916908373ffffffffffffffffffffffffffffffffffffffff1602179055505050565b4260066000848152602001908152602001600020600201541115613249576001600960003373ffffffffffffffffffffffffffffffffffffffff1673ffffffffffffffffffffffffffffffffffffffff168152602001908152602001600020600084815260200190815260200160002060006101000a81548160ff021916908315150217905550600182815481106130f9576130f8614cc0565b5b90600052602060002090600a0201600601339080600181540180825580915050600190039060005260206000200160009091909190916101000a81548173ffffffffffffffffffffffffffffffffffffffff021916908373ffffffffffffffffffffffffffffffffffffffff160217905550600760003373ffffffffffffffffffffffffffffffffffffffff1673ffffffffffffffffffffffffffffffffffffffff168152602001908152602001600020829080600181540180825580915050600190039060005260206000200160009091909190915055600042905060066000848152602001908152602001600020600080820160006131fa9190613d02565b6001820160009055600282016000905550507fa7c1773722c3780482de45e0e6cdbb7395909d386fccd19d7b2aac127a796ac382338360405161323f9392919061543b565b60405180910390a1505b5050565b60606000600860003373ffffffffffffffffffffffffffffffffffffffff1673ffffffffffffffffffffffffffffffffffffffff1681526020019081526020016000208054905067ffffffffffffffff8111156132ad576132ac613e2f565b5b6040519080825280602002602001820160405280156132e657816020015b6132d3613c97565b8152602001906001900390816132cb5790505b50905060005b600860003373ffffffffffffffffffffffffffffffffffffffff1673ffffffffffffffffffffffffffffffffffffffff16815260200190815260200160002080549050811015613755576001600860003373ffffffffffffffffffffffffffffffffffffffff1673ffffffffffffffffffffffffffffffffffffffff168152602001908152602001600020828154811061338957613388614cc0565b5b9060005260206000200154815481106133a5576133a4614cc0565b5b90600052602060002090600a020160405180610140016040529081600082015481526020016001820180546133d99061490a565b80601f01602080910402602001604051908101604052809291908181526020018280546134059061490a565b80156134525780601f1061342757610100808354040283529160200191613452565b820191906000526020600020905b81548152906001019060200180831161343557829003601f168201915b5050505050815260200160028201805461346b9061490a565b80601f01602080910402602001604051908101604052809291908181526020018280546134979061490a565b80156134e45780601f106134b9576101008083540402835291602001916134e4565b820191906000526020600020905b8154815290600101906020018083116134c757829003601f168201915b505050505081526020016003820160009054906101000a900460ff161515151581526020016004820180546135189061490a565b80601f01602080910402602001604051908101604052809291908181526020018280546135449061490a565b80156135915780601f1061356657610100808354040283529160200191613591565b820191906000526020600020905b81548152906001019060200180831161357457829003601f168201915b505050505081526020016005820160009054906101000a900473ffffffffffffffffffffffffffffffffffffffff1673ffffffffffffffffffffffffffffffffffffffff1673ffffffffffffffffffffffffffffffffffffffff1681526020016006820180548060200260200160405190810160405280929190818152602001828054801561367557602002820191906000526020600020905b8160009054906101000a900473ffffffffffffffffffffffffffffffffffffffff1673ffffffffffffffffffffffffffffffffffffffff168152602001906001019080831161362b575b5050505050815260200160078201548152602001600882015481526020016009820180546136a29061490a565b80601f01602080910402602001604051908101604052809291908181526020018280546136ce9061490a565b801561371b5780601f106136f05761010080835404028352916020019161371b565b820191906000526020600020905b8154815290600101906020018083116136fe57829003601f168201915b50505050508152505082828151811061373757613736614cc0565b5b6020026020010181905250808061374d90614d1e565b9150506132ec565b508091505090565b60018054905083106137a4576040517f08c379a000000000000000000000000000000000000000000000000000000000815260040161379b90614e44565b60405180910390fd5b3373ffffffffffffffffffffffffffffffffffffffff16600184815481106137cf576137ce614cc0565b5b90600052602060002090600a020160050160009054906101000a900473ffffffffffffffffffffffffffffffffffffffff1673ffffffffffffffffffffffffffffffffffffffff1614613857576040517f08c379a000000000000000000000000000000000000000000000000000000000815260040161384e90614eb0565b60405180910390fd5b60006001848154811061386d5761386c614cc0565b5b90600052602060002090600a020160080154146138bf576040517f08c379a00000000000000000000000000000000000000000000000000000000081526004016138b6906154eb565b60405180910390fd5b6001600960003373ffffffffffffffffffffffffffffffffffffffff1673ffffffffffffffffffffffffffffffffffffffff168152602001908152602001600020600085815260200190815260200160002060006101000a81548160ff0219169083151502179055506000839080600181540180825580915050600190039060005260206000200160009091909190915055816001848154811061396657613965614cc0565b5b90600052602060002090600a020160090190816139839190614b53565b50806001848154811061399957613998614cc0565b5b90600052602060002090600a020160080181905550505050565b606060018054905082106139fc576040517f08c379a00000000000000000000000000000000000000000000000000000000081526004016139f390614e44565b60405180910390fd5b600060018381548110613a1257613a11614cc0565b5b90600052602060002090600a02016006018054905067ffffffffffffffff811115613a4057613a3f613e2f565b5b604051908082528060200260200182016040528015613a7357816020015b6060815260200190600190039081613a5e5790505b50905060005b60018481548110613a8d57613a8c614cc0565b5b90600052602060002090600a020160060180549050811015613c0357600c600060018681548110613ac157613ac0614cc0565b5b90600052602060002090600a02016006018381548110613ae457613ae3614cc0565b5b9060005260206000200160009054906101000a900473ffffffffffffffffffffffffffffffffffffffff1673ffffffffffffffffffffffffffffffffffffffff1673ffffffffffffffffffffffffffffffffffffffff1681526020019081526020016000208054613b549061490a565b80601f0160208091040260200160405190810160405280929190818152602001828054613b809061490a565b8015613bcd5780601f10613ba257610100808354040283529160200191613bcd565b820191906000526020600020905b815481529060010190602001808311613bb057829003601f168201915b5050505050828281518110613be557613be4614cc0565b5b60200260200101819052508080613bfb90614d1e565b915050613a79565b5080915050919050565b828054828255906000526020600020908101928215613c86579160200282015b82811115613c855782518260006101000a81548173ffffffffffffffffffffffffffffffffffffffff021916908373ffffffffffffffffffffffffffffffffffffffff16021790555091602001919060010190613c2d565b5b509050613c939190613d42565b5090565b60405180610140016040528060008152602001606081526020016060815260200160001515815260200160608152602001600073ffffffffffffffffffffffffffffffffffffffff168152602001606081526020016000815260200160008152602001606081525090565b508054613d0e9061490a565b6000825580601f10613d205750613d3f565b601f016020900490600052602060002090810190613d3e9190613d42565b5b50565b5b80821115613d5b576000816000905550600101613d43565b5090565b600081519050919050565b600082825260208201905092915050565b60005b83811015613d99578082015181840152602081019050613d7e565b60008484015250505050565b6000601f19601f8301169050919050565b6000613dc182613d5f565b613dcb8185613d6a565b9350613ddb818560208601613d7b565b613de481613da5565b840191505092915050565b60006020820190508181036000830152613e098184613db6565b905092915050565b6000604051905090565b600080fd5b600080fd5b600080fd5b600080fd5b7f4e487b7100000000000000000000000000000000000000000000000000000000600052604160045260246000fd5b613e6782613da5565b810181811067ffffffffffffffff82111715613e8657613e85613e2f565b5b80604052505050565b6000613e99613e11565b9050613ea58282613e5e565b919050565b600067ffffffffffffffff821115613ec557613ec4613e2f565b5b613ece82613da5565b9050602081019050919050565b82818337600083830152505050565b6000613efd613ef884613eaa565b613e8f565b905082815260208101848484011115613f1957613f18613e2a565b5b613f24848285613edb565b509392505050565b600082601f830112613f4157613f40613e25565b5b8135613f51848260208601613eea565b91505092915050565b600080600060608486031215613f7357613f72613e1b565b5b600084013567ffffffffffffffff811115613f9157613f90613e20565b5b613f9d86828701613f2c565b935050602084013567ffffffffffffffff811115613fbe57613fbd613e20565b5b613fca86828701613f2c565b925050604084013567ffffffffffffffff811115613feb57613fea613e20565b5b613ff786828701613f2c565b9150509250925092565b6000819050919050565b61401481614001565b811461401f57600080fd5b50565b6000813590506140318161400b565b92915050565b60006020828403121561404d5761404c613e1b565b5b600061405b84828501614022565b91505092915050565b61406d81614001565b82525050565b600082825260208201905092915050565b600061408f82613d5f565b6140998185614073565b93506140a9818560208601613d7b565b6140b281613da5565b840191505092915050565b60008115159050919050565b6140d2816140bd565b82525050565b600073ffffffffffffffffffffffffffffffffffffffff82169050919050565b6000614103826140d8565b9050919050565b614113816140f8565b82525050565b600081519050919050565b600082825260208201905092915050565b6000819050602082019050919050565b6000614151838361410a565b60208301905092915050565b6000602082019050919050565b600061417582614119565b61417f8185614124565b935061418a83614135565b8060005b838110156141bb5781516141a28882614145565b97506141ad8361415d565b92505060018101905061418e565b5085935050505092915050565b6000610140830160008301516141e16000860182614064565b50602083015184820360208601526141f98282614084565b915050604083015184820360408601526142138282614084565b915050606083015161422860608601826140c9565b50608083015184820360808601526142408282614084565b91505060a083015161425560a086018261410a565b5060c083015184820360c086015261426d828261416a565b91505060e083015161428260e0860182614064565b50610100830151614297610100860182614064565b506101208301518482036101208601526142b18282614084565b9150508091505092915050565b600060208201905081810360008301526142d881846141c8565b905092915050565b6142e981614001565b82525050565b600060608201905081810360008301526143098186613db6565b905061431860208301856142e0565b61432560408301846142e0565b949350505050565b614336816140bd565b82525050565b614345816140f8565b82525050565b600061012082019050614361600083018c6142e0565b8181036020830152614373818b613db6565b90508181036040830152614387818a613db6565b9050614396606083018961432d565b81810360808301526143a88188613db6565b90506143b760a083018761433c565b6143c460c08301866142e0565b6143d160e08301856142e0565b8181036101008301526143e48184613db6565b90509a9950505050505050505050565b600060208201905061440960008301846142e0565b92915050565b6000806040838503121561442657614425613e1b565b5b600083013567ffffffffffffffff81111561444457614443613e20565b5b61445085828601613f2c565b925050602061446185828601614022565b9150509250929050565b6000806000806080858703121561448557614484613e1b565b5b600061449387828801614022565b945050602085013567ffffffffffffffff8111156144b4576144b3613e20565b5b6144c087828801613f2c565b93505060406144d187828801614022565b92505060606144e287828801614022565b91505092959194509250565b600081519050919050565b600082825260208201905092915050565b6000819050602082019050919050565b6000610140830160008301516145336000860182614064565b506020830151848203602086015261454b8282614084565b915050604083015184820360408601526145658282614084565b915050606083015161457a60608601826140c9565b50608083015184820360808601526145928282614084565b91505060a08301516145a760a086018261410a565b5060c083015184820360c08601526145bf828261416a565b91505060e08301516145d460e0860182614064565b506101008301516145e9610100860182614064565b506101208301518482036101208601526146038282614084565b9150508091505092915050565b600061461c838361451a565b905092915050565b6000602082019050919050565b600061463c826144ee565b61464681856144f9565b9350836020820285016146588561450a565b8060005b8581101561469457848403895281516146758582614610565b945061468083614624565b925060208a0199505060018101905061465c565b50829750879550505050505092915050565b600060208201905081810360008301526146c08184614631565b905092915050565b6000602082840312156146de576146dd613e1b565b5b600082013567ffffffffffffffff8111156146fc576146fb613e20565b5b61470884828501613f2c565b91505092915050565b6000602082019050614726600083018461433c565b92915050565b6000806040838503121561474357614742613e1b565b5b600061475185828601614022565b925050602083013567ffffffffffffffff81111561477257614771613e20565b5b61477e85828601613f2c565b9150509250929050565b6000806000606084860312156147a1576147a0613e1b565b5b60006147af86828701614022565b935050602084013567ffffffffffffffff8111156147d0576147cf613e20565b5b6147dc86828701613f2c565b92505060406147ed86828701614022565b9150509250925092565b600081519050919050565b600082825260208201905092915050565b6000819050602082019050919050565b600061482f8383614084565b905092915050565b6000602082019050919050565b600061484f826147f7565b6148598185614802565b93508360208202850161486b85614813565b8060005b858110156148a757848403895281516148888582614823565b945061489383614837565b925060208a0199505060018101905061486f565b50829750879550505050505092915050565b600060208201905081810360008301526148d38184614844565b905092915050565b7f4e487b7100000000000000000000000000000000000000000000000000000000600052602260045260246000fd5b6000600282049050600182168061492257607f821691505b602082108103614935576149346148db565b5b50919050565b7f706c6561736520676976652075736572206e616d650000000000000000000000600082015250565b6000614971601583613d6a565b915061497c8261493b565b602082019050919050565b600060208201905081810360008301526149a081614964565b9050919050565b60008190508160005260206000209050919050565b60006020601f8301049050919050565b600082821b905092915050565b600060088302614a097fffffffffffffffffffffffffffffffffffffffffffffffffffffffffffffffff826149cc565b614a1386836149cc565b95508019841693508086168417925050509392505050565b6000819050919050565b6000614a50614a4b614a4684614001565b614a2b565b614001565b9050919050565b6000819050919050565b614a6a83614a35565b614a7e614a7682614a57565b8484546149d9565b825550505050565b600090565b614a93614a86565b614a9e818484614a61565b505050565b5b81811015614ac257614ab7600082614a8b565b600181019050614aa4565b5050565b601f821115614b0757614ad8816149a7565b614ae1846149bc565b81016020851015614af0578190505b614b04614afc856149bc565b830182614aa3565b50505b505050565b600082821c905092915050565b6000614b2a60001984600802614b0c565b1980831691505092915050565b6000614b438383614b19565b9150826002028217905092915050565b614b5c82613d5f565b67ffffffffffffffff811115614b7557614b74613e2f565b5b614b7f825461490a565b614b8a828285614ac6565b600060209050601f831160018114614bbd5760008415614bab578287015190505b614bb58582614b37565b865550614c1d565b601f198416614bcb866149a7565b60005b82811015614bf357848901518255600182019150602085019450602081019050614bce565b86831015614c105784890151614c0c601f891682614b19565b8355505b6001600288020188555050505b505050505050565b7f4e487b7100000000000000000000000000000000000000000000000000000000600052603160045260246000fd5b7f676976656e2066696c65206964206973206e6f74206578697374730000000000600082015250565b6000614c8a601b83613d6a565b9150614c9582614c54565b602082019050919050565b60006020820190508181036000830152614cb981614c7d565b9050919050565b7f4e487b7100000000000000000000000000000000000000000000000000000000600052603260045260246000fd5b7f4e487b7100000000000000000000000000000000000000000000000000000000600052601160045260246000fd5b6000614d2982614001565b91507fffffffffffffffffffffffffffffffffffffffffffffffffffffffffffffffff8203614d5b57614d5a614cef565b5b600182019050919050565b7f796f7520646f6e277420686176652061636365737320746f207468697320666960008201527f6c65000000000000000000000000000000000000000000000000000000000000602082015250565b6000614dc2602283613d6a565b9150614dcd82614d66565b604082019050919050565b60006020820190508181036000830152614df181614db5565b9050919050565b7f676976652066696c6520696420697320696e76616c6964000000000000000000600082015250565b6000614e2e601783613d6a565b9150614e3982614df8565b602082019050919050565b60006020820190508181036000830152614e5d81614e21565b9050919050565b7f796f7520617265206e6f74206f776e6572206f6620746869732066696c650000600082015250565b6000614e9a601e83613d6a565b9150614ea582614e64565b602082019050919050565b60006020820190508181036000830152614ec981614e8d565b9050919050565b600081905092915050565b6000614ee682613d5f565b614ef08185614ed0565b9350614f00818560208601613d7b565b80840191505092915050565b6000614f188284614edb565b915081905092915050565b7f676976656e2075736572206e616d65206973206e6f742065786973747320617460008201527f20616c6c00000000000000000000000000000000000000000000000000000000602082015250565b6000614f7f602483613d6a565b9150614f8a82614f23565b604082019050919050565b60006020820190508181036000830152614fae81614f72565b9050919050565b7f6173206f776e6572206f66207468652066696c6520616e6420796f752063616e60008201527f27742072656d6f766520796f75722073656c662066726f6d206163636573732060208201527f746f20746869732066696c650000000000000000000000000000000000000000604082015250565b6000615037604c83613d6a565b915061504282614fb5565b606082019050919050565b600060208201905081810360008301526150668161502a565b9050919050565b600061507882614001565b915061508383614001565b925082820390508181111561509b5761509a614cef565b5b92915050565b7f796f7520646f65736e277420676976652061636365737320746f20746869732060008201527f6164647265737320617420616c6c212100000000000000000000000000000000602082015250565b60006150fd603083613d6a565b9150615108826150a1565b604082019050919050565b6000602082019050818103600083015261512c816150f0565b9050919050565b600061513e82614001565b915061514983614001565b925082820190508082111561516157615160614cef565b5b92915050565b7f796f7520616c726561647920626f7567687420746869732066696c6500000000600082015250565b600061519d601c83613d6a565b91506151a882615167565b602082019050919050565b600060208201905081810360008301526151cc81615190565b9050919050565b7f496e73756666696369656e742062616c616e6365000000000000000000000000600082015250565b6000615209601483613d6a565b9150615214826151d3565b602082019050919050565b60006020820190508181036000830152615238816151fc565b9050919050565b7f6e6f207265636f72647300000000000000000000000000000000000000000000600082015250565b6000615275600a83613d6a565b91506152808261523f565b602082019050919050565b600060208201905081810360008301526152a481615268565b9050919050565b7f6173206f776e6572206f6620746869732066696c6520796f7520616c7265616460008201527f2068617665206120616363657373000000000000000000000000000000000000602082015250565b6000615307602e83613d6a565b9150615312826152ab565b604082019050919050565b60006020820190508181036000830152615336816152fa565b9050919050565b7f74686973206164647265737320616c726561647920686176652061206163636560008201527f737320746f20746869732066696c650000000000000000000000000000000000602082015250565b6000615399602f83613d6a565b91506153a48261533d565b604082019050919050565b600060208201905081810360008301526153c88161538c565b9050919050565b7f796f7520616c7265616479206861766520616e2075736572206e616d65000000600082015250565b6000615405601d83613d6a565b9150615410826153cf565b602082019050919050565b60006020820190508181036000830152615434816153f8565b9050919050565b600060608201905081810360008301526154558186613db6565b9050615464602083018561433c565b61547160408301846142e0565b949350505050565b7f796f752061726520616c726561647920616464656420746869732066696c652060008201527f746f2073656c6c00000000000000000000000000000000000000000000000000602082015250565b60006154d5602783613d6a565b91506154e082615479565b604082019050919050565b60006020820190508181036000830152615504816154c8565b905091905056fea2646970667358221220318ed0fc32a2a4b7d43f7431db7044cac5402c4d80cc69b536838f3f2643f8b264736f6c63430008130033",
  "linkReferences": {},
  "deployedLinkReferences": {}
}