{
  "_format": "hh-sol-artifact-1",
  "contractName": "syncdata",
  "sourceName": "contracts/meddata.sol",
  "abi": [
    {
      "inputs": [],
      "stateMutability": "payable",
      "type": "constructor"
    },
    {
      "anonymous": false,
      "inputs": [
        {
          "indexed": false,
          "internalType": "string",
          "name": "code",
          "type": "string"
        },
        {
          "indexed": false,
          "internalType": "uint256",
          "name": "value",
          "type": "uint256"
        },
        {
          "indexed": false,
          "internalType": "uint256",
          "name": "expiryTime",
          "type": "uint256"
        }
      ],
      "name": "CouponGenerated",
      "type": "event"
    },
    {
      "anonymous": false,
      "inputs": [
        {
          "indexed": false,
          "internalType": "string",
          "name": "code",
          "type": "string"
        },
        {
          "indexed": false,
          "internalType": "address",
          "name": "user",
          "type": "address"
        },
        {
          "indexed": false,
          "internalType": "uint256",
          "name": "redeemedTime",
          "type": "uint256"
        }
      ],
      "name": "CouponRedeemed",
      "type": "event"
    },
    {
      "inputs": [
        {
          "internalType": "string",
          "name": "_title",
          "type": "string"
        },
        {
          "internalType": "string",
          "name": "_description",
          "type": "string"
        },
        {
          "internalType": "string",
          "name": "_imageURL",
          "type": "string"
        }
      ],
      "name": "NewRrecord",
      "outputs": [],
      "stateMutability": "payable",
      "type": "function"
    },
    {
      "inputs": [],
      "name": "addToContractBalance",
      "outputs": [],
      "stateMutability": "payable",
      "type": "function"
    },
    {
      "inputs": [
        {
          "internalType": "uint256",
          "name": "id",
          "type": "uint256"
        }
      ],
      "name": "buyFileId",
      "outputs": [],
      "stateMutability": "payable",
      "type": "function"
    },
    {
      "inputs": [
        {
          "internalType": "uint256",
          "name": "",
          "type": "uint256"
        }
      ],
      "name": "coupons",
      "outputs": [
        {
          "internalType": "string",
          "name": "code",
          "type": "string"
        },
        {
          "internalType": "uint256",
          "name": "value",
          "type": "uint256"
        },
        {
          "internalType": "uint256",
          "name": "expiryTime",
          "type": "uint256"
        }
      ],
      "stateMutability": "view",
      "type": "function"
    },
    {
      "inputs": [
        {
          "internalType": "uint256",
          "name": "id",
          "type": "uint256"
        },
        {
          "internalType": "string",
          "name": "code",
          "type": "string"
        },
        {
          "internalType": "uint256",
          "name": "value",
          "type": "uint256"
        },
        {
          "internalType": "uint256",
          "name": "expiryTime",
          "type": "uint256"
        }
      ],
      "name": "generateCoupon",
      "outputs": [
        {
          "internalType": "string",
          "name": "",
          "type": "string"
        }
      ],
      "stateMutability": "nonpayable",
      "type": "function"
    },
    {
      "inputs": [
        {
          "internalType": "uint256",
          "name": "id",
          "type": "uint256"
        }
      ],
      "name": "getAccessList",
      "outputs": [
        {
          "internalType": "address[]",
          "name": "",
          "type": "address[]"
        }
      ],
      "stateMutability": "view",
      "type": "function"
    },
    {
      "inputs": [],
      "name": "getAllRecords",
      "outputs": [
        {
          "components": [
            {
              "internalType": "uint256",
              "name": "id",
              "type": "uint256"
            },
            {
              "internalType": "string",
              "name": "title",
              "type": "string"
            },
            {
              "internalType": "string",
              "name": "description",
              "type": "string"
            },
            {
              "internalType": "bool",
              "name": "islisted",
              "type": "bool"
            },
            {
              "internalType": "string",
              "name": "imageURL",
              "type": "string"
            },
            {
              "internalType": "address",
              "name": "owner",
              "type": "address"
            },
            {
              "internalType": "address[]",
              "name": "accessibleBy",
              "type": "address[]"
            },
            {
              "internalType": "uint256",
              "name": "timestamp",
              "type": "uint256"
            },
            {
              "internalType": "uint256",
              "name": "price",
              "type": "uint256"
            },
            {
              "internalType": "string",
              "name": "preview",
              "type": "string"
            }
          ],
          "internalType": "struct syncdata.Record[]",
          "name": "",
          "type": "tuple[]"
        }
      ],
      "stateMutability": "view",
      "type": "function"
    },
    {
      "inputs": [
        {
          "internalType": "uint256",
          "name": "_id",
          "type": "uint256"
        }
      ],
      "name": "getOneRecord",
      "outputs": [
        {
          "components": [
            {
              "internalType": "uint256",
              "name": "id",
              "type": "uint256"
            },
            {
              "internalType": "string",
              "name": "title",
              "type": "string"
            },
            {
              "internalType": "string",
              "name": "description",
              "type": "string"
            },
            {
              "internalType": "bool",
              "name": "islisted",
              "type": "bool"
            },
            {
              "internalType": "string",
              "name": "imageURL",
              "type": "string"
            },
            {
              "internalType": "address",
              "name": "owner",
              "type": "address"
            },
            {
              "internalType": "address[]",
              "name": "accessibleBy",
              "type": "address[]"
            },
            {
              "internalType": "uint256",
              "name": "timestamp",
              "type": "uint256"
            },
            {
              "internalType": "uint256",
              "name": "price",
              "type": "uint256"
            },
            {
              "internalType": "string",
              "name": "preview",
              "type": "string"
            }
          ],
          "internalType": "struct syncdata.Record",
          "name": "",
          "type": "tuple"
        }
      ],
      "stateMutability": "view",
      "type": "function"
    },
    {
      "inputs": [],
      "name": "getOwnersRecords",
      "outputs": [
        {
          "components": [
            {
              "internalType": "uint256",
              "name": "id",
              "type": "uint256"
            },
            {
              "internalType": "string",
              "name": "title",
              "type": "string"
            },
            {
              "internalType": "string",
              "name": "description",
              "type": "string"
            },
            {
              "internalType": "bool",
              "name": "islisted",
              "type": "bool"
            },
            {
              "internalType": "string",
              "name": "imageURL",
              "type": "string"
            },
            {
              "internalType": "address",
              "name": "owner",
              "type": "address"
            },
            {
              "internalType": "address[]",
              "name": "accessibleBy",
              "type": "address[]"
            },
            {
              "internalType": "uint256",
              "name": "timestamp",
              "type": "uint256"
            },
            {
              "internalType": "uint256",
              "name": "price",
              "type": "uint256"
            },
            {
              "internalType": "string",
              "name": "preview",
              "type": "string"
            }
          ],
          "internalType": "struct syncdata.Record[]",
          "name": "",
          "type": "tuple[]"
        }
      ],
      "stateMutability": "view",
      "type": "function"
    },
    {
      "inputs": [],
      "name": "getSellingRecord",
      "outputs": [
        {
          "components": [
            {
              "internalType": "uint256",
              "name": "id",
              "type": "uint256"
            },
            {
              "internalType": "string",
              "name": "title",
              "type": "string"
            },
            {
              "internalType": "string",
              "name": "description",
              "type": "string"
            },
            {
              "internalType": "bool",
              "name": "islisted",
              "type": "bool"
            },
            {
              "internalType": "string",
              "name": "imageURL",
              "type": "string"
            },
            {
              "internalType": "address",
              "name": "owner",
              "type": "address"
            },
            {
              "internalType": "address[]",
              "name": "accessibleBy",
              "type": "address[]"
            },
            {
              "internalType": "uint256",
              "name": "timestamp",
              "type": "uint256"
            },
            {
              "internalType": "uint256",
              "name": "price",
              "type": "uint256"
            },
            {
              "internalType": "string",
              "name": "preview",
              "type": "string"
            }
          ],
          "internalType": "struct syncdata.Record[]",
          "name": "",
          "type": "tuple[]"
        }
      ],
      "stateMutability": "view",
      "type": "function"
    },
    {
      "inputs": [],
      "name": "giveContractBalance",
      "outputs": [
        {
          "internalType": "uint256",
          "name": "",
          "type": "uint256"
        }
      ],
      "stateMutability": "view",
      "type": "function"
    },
    {
      "inputs": [
        {
          "internalType": "address",
          "name": "_newOwner",
          "type": "address"
        },
        {
          "internalType": "uint256",
          "name": "id",
          "type": "uint256"
        }
      ],
      "name": "newOwner",
      "outputs": [],
      "stateMutability": "nonpayable",
      "type": "function"
    },
    {
      "inputs": [
        {
          "internalType": "uint256",
          "name": "",
          "type": "uint256"
        }
      ],
      "name": "records",
      "outputs": [
        {
          "internalType": "uint256",
          "name": "id",
          "type": "uint256"
        },
        {
          "internalType": "string",
          "name": "title",
          "type": "string"
        },
        {
          "internalType": "string",
          "name": "description",
          "type": "string"
        },
        {
          "internalType": "bool",
          "name": "islisted",
          "type": "bool"
        },
        {
          "internalType": "string",
          "name": "imageURL",
          "type": "string"
        },
        {
          "internalType": "address",
          "name": "owner",
          "type": "address"
        },
        {
          "internalType": "uint256",
          "name": "timestamp",
          "type": "uint256"
        },
        {
          "internalType": "uint256",
          "name": "price",
          "type": "uint256"
        },
        {
          "internalType": "string",
          "name": "preview",
          "type": "string"
        }
      ],
      "stateMutability": "view",
      "type": "function"
    },
    {
      "inputs": [
        {
          "internalType": "uint256",
          "name": "id",
          "type": "uint256"
        },
        {
          "internalType": "string",
          "name": "code",
          "type": "string"
        }
      ],
      "name": "redeemCoupon",
      "outputs": [],
      "stateMutability": "nonpayable",
      "type": "function"
    },
    {
      "inputs": [
        {
          "internalType": "address",
          "name": "_removeOwner",
          "type": "address"
        },
        {
          "internalType": "uint256",
          "name": "id",
          "type": "uint256"
        }
      ],
      "name": "removeOwner",
      "outputs": [],
      "stateMutability": "nonpayable",
      "type": "function"
    },
    {
      "inputs": [
        {
          "internalType": "uint256",
          "name": "id",
          "type": "uint256"
        },
        {
          "internalType": "string",
          "name": "preview",
          "type": "string"
        },
        {
          "internalType": "uint256",
          "name": "price",
          "type": "uint256"
        }
      ],
      "name": "sellTheFile",
      "outputs": [],
      "stateMutability": "nonpayable",
      "type": "function"
    },
    {
      "inputs": [
        {
          "internalType": "uint256",
          "name": "",
          "type": "uint256"
        }
      ],
      "name": "sellingFileId",
      "outputs": [
        {
          "internalType": "uint256",
          "name": "",
          "type": "uint256"
        }
      ],
      "stateMutability": "view",
      "type": "function"
    }
  ],
  "bytecode": "0x6080604052600067ffffffffffffffff81111562000022576200002162000184565b5b604051908082528060200260200182016040528015620000515781602001602082028036833780820191505090505b506002908051906020019062000069929190620000d6565b50600067ffffffffffffffff81111562000088576200008762000184565b5b604051908082528060200260200182016040528015620000b75781602001602082028036833780820191505090505b5060039080519060200190620000cf929190620000d6565b50620001b3565b82805482825590600052602060002090810192821562000152579160200282015b82811115620001515782518260006101000a81548173ffffffffffffffffffffffffffffffffffffffff021916908373ffffffffffffffffffffffffffffffffffffffff16021790555091602001919060010190620000f7565b5b50905062000161919062000165565b5090565b5b808211156200018057600081600090555060010162000166565b5090565b7f4e487b7100000000000000000000000000000000000000000000000000000000600052604160045260246000fd5b614c7880620001c36000396000f3fe6080604052600436106100fe5760003560e01c8063773d79dc11610095578063c7fb53eb11610064578063c7fb53eb14610349578063e1dc63f014610353578063e227cf8a1461037c578063e3e18cc5146103a7578063f31bb177146103d0576100fe565b8063773d79dc146102ae578063878e688e146102d9578063a7f9fe72146102f5578063bfd2b3a314610320576100fe565b806334461067116100d157806334461067146101c457806340ed640314610209578063653467c4146102345780636f587e3b14610271576100fe565b80631cda164f14610103578063298ba2be1461011f57806330828e921461015c57806332be36401461019b575b600080fd5b61011d60048036038101906101189190613854565b61040d565b005b34801561012b57600080fd5b5061014660048036038101906101419190613931565b6107bb565b6040516101539190613bed565b60405180910390f35b34801561016857600080fd5b50610183600480360381019061017e9190613931565b610d4c565b60405161019293929190613c68565b60405180910390f35b3480156101a757600080fd5b506101c260048036038101906101bd9190613cd2565b610dfe565b005b3480156101d057600080fd5b506101eb60048036038101906101e69190613931565b6111a0565b60405161020099989796959493929190613d30565b60405180910390f35b34801561021557600080fd5b5061021e61144b565b60405161022b9190613dd9565b60405180910390f35b34801561024057600080fd5b5061025b60048036038101906102569190613931565b611453565b6040516102689190613dd9565b60405180910390f35b34801561027d57600080fd5b5061029860048036038101906102939190613df4565b611477565b6040516102a59190613e77565b60405180910390f35b3480156102ba57600080fd5b506102c361152a565b6040516102d09190614051565b60405180910390f35b6102f360048036038101906102ee9190613931565b611acf565b005b34801561030157600080fd5b5061030a611e73565b6040516103179190614051565b60405180910390f35b34801561032c57600080fd5b5061034760048036038101906103429190613cd2565b612408565b005b610351612b0a565b005b34801561035f57600080fd5b5061037a60048036038101906103759190614073565b612b59565b005b34801561038857600080fd5b50610391612d48565b60405161039e9190614051565b60405180910390f35b3480156103b357600080fd5b506103ce60048036038101906103c991906140cf565b613258565b005b3480156103dc57600080fd5b506103f760048036038101906103f29190613931565b6134ae565b60405161040491906141ad565b60405180910390f35b600660003373ffffffffffffffffffffffffffffffffffffffff1673ffffffffffffffffffffffffffffffffffffffff1681526020019081526020016000206001805490509080600181540180825580915050600190039060005260206000200160009091909190915055600760003373ffffffffffffffffffffffffffffffffffffffff1673ffffffffffffffffffffffffffffffffffffffff1681526020019081526020016000206001805490509080600181540180825580915050600190039060005260206000200160009091909190915055600060018054905090506002339080600181540180825580915050600190039060005260206000200160009091909190916101000a81548173ffffffffffffffffffffffffffffffffffffffff021916908373ffffffffffffffffffffffffffffffffffffffff16021790555060016040518061014001604052808381526020018681526020018581526020016001151581526020018481526020013373ffffffffffffffffffffffffffffffffffffffff168152602001600280548060200260200160405190810160405280929190818152602001828054801561061d57602002820191906000526020600020905b8160009054906101000a900473ffffffffffffffffffffffffffffffffffffffff1673ffffffffffffffffffffffffffffffffffffffff16815260200190600101908083116105d3575b50505050508152602001428152602001600081526020016040518060200160405280600081525081525090806001815401808255809150506001900390600052602060002090600a020160009091909190915060008201518160000155602082015181600101908161068f91906143db565b5060408201518160020190816106a591906143db565b5060608201518160030160006101000a81548160ff02191690831515021790555060808201518160040190816106db91906143db565b5060a08201518160050160006101000a81548173ffffffffffffffffffffffffffffffffffffffff021916908373ffffffffffffffffffffffffffffffffffffffff16021790555060c082015181600601908051906020019061073f9291906135a8565b5060e08201518160070155610100820151816008015561012082015181600901908161076b91906143db565b50505060028054806107805761077f6144ad565b5b6001900381819060005260206000200160006101000a81549073ffffffffffffffffffffffffffffffffffffffff0219169055905550505050565b6107c3613632565b600180549050821061080a576040517f08c379a000000000000000000000000000000000000000000000000000000000815260040161080190614528565b60405180910390fd5b6000600183815481106108205761081f614548565b5b90600052602060002090600a02016040518061014001604052908160008201548152602001600182018054610854906141fe565b80601f0160208091040260200160405190810160405280929190818152602001828054610880906141fe565b80156108cd5780601f106108a2576101008083540402835291602001916108cd565b820191906000526020600020905b8154815290600101906020018083116108b057829003601f168201915b505050505081526020016002820180546108e6906141fe565b80601f0160208091040260200160405190810160405280929190818152602001828054610912906141fe565b801561095f5780601f106109345761010080835404028352916020019161095f565b820191906000526020600020905b81548152906001019060200180831161094257829003601f168201915b505050505081526020016003820160009054906101000a900460ff16151515158152602001600482018054610993906141fe565b80601f01602080910402602001604051908101604052809291908181526020018280546109bf906141fe565b8015610a0c5780601f106109e157610100808354040283529160200191610a0c565b820191906000526020600020905b8154815290600101906020018083116109ef57829003601f168201915b505050505081526020016005820160009054906101000a900473ffffffffffffffffffffffffffffffffffffffff1673ffffffffffffffffffffffffffffffffffffffff1673ffffffffffffffffffffffffffffffffffffffff16815260200160068201805480602002602001604051908101604052809291908181526020018280548015610af057602002820191906000526020600020905b8160009054906101000a900473ffffffffffffffffffffffffffffffffffffffff1673ffffffffffffffffffffffffffffffffffffffff1681526020019060010190808311610aa6575b505050505081526020016007820154815260200160088201548152602001600982018054610b1d906141fe565b80601f0160208091040260200160405190810160405280929190818152602001828054610b49906141fe565b8015610b965780601f10610b6b57610100808354040283529160200191610b96565b820191906000526020600020905b815481529060010190602001808311610b7957829003601f168201915b50505050508152505090506000805b60018581548110610bb957610bb8614548565b5b90600052602060002090600a020160060180549050811015610c81573373ffffffffffffffffffffffffffffffffffffffff1660018681548110610c0057610bff614548565b5b90600052602060002090600a02016006018281548110610c2357610c22614548565b5b9060005260206000200160009054906101000a900473ffffffffffffffffffffffffffffffffffffffff1673ffffffffffffffffffffffffffffffffffffffff1603610c6e57600191505b8080610c79906145a6565b915050610ba5565b5080151560001515148015610c9c5750816101000151600014155b15610d0257600860003373ffffffffffffffffffffffffffffffffffffffff1673ffffffffffffffffffffffffffffffffffffffff168152602001908152602001600020600085815260200190815260200160002060009054906101000a900460ff1690505b80610d42576040517f08c379a0000000000000000000000000000000000000000000000000000000008152600401610d3990614660565b60405180910390fd5b8192505050919050565b6005602052806000526040600020600091509050806000018054610d6f906141fe565b80601f0160208091040260200160405190810160405280929190818152602001828054610d9b906141fe565b8015610de85780601f10610dbd57610100808354040283529160200191610de8565b820191906000526020600020905b815481529060010190602001808311610dcb57829003601f168201915b5050505050908060010154908060020154905083565b6001805490508110610e45576040517f08c379a0000000000000000000000000000000000000000000000000000000008152600401610e3c906146cc565b60405180910390fd5b60018181548110610e5957610e58614548565b5b90600052602060002090600a020160050160009054906101000a900473ffffffffffffffffffffffffffffffffffffffff1673ffffffffffffffffffffffffffffffffffffffff163373ffffffffffffffffffffffffffffffffffffffff1614610ef8576040517f08c379a0000000000000000000000000000000000000000000000000000000008152600401610eef90614738565b60405180910390fd5b60018181548110610f0c57610f0b614548565b5b90600052602060002090600a020160050160009054906101000a900473ffffffffffffffffffffffffffffffffffffffff1673ffffffffffffffffffffffffffffffffffffffff168273ffffffffffffffffffffffffffffffffffffffff1603610fab576040517f08c379a0000000000000000000000000000000000000000000000000000000008152600401610fa2906147ca565b60405180910390fd5b60005b600660008473ffffffffffffffffffffffffffffffffffffffff1673ffffffffffffffffffffffffffffffffffffffff168152602001908152602001600020805490508110156110af57600660008473ffffffffffffffffffffffffffffffffffffffff1673ffffffffffffffffffffffffffffffffffffffff168152602001908152602001600020818154811061104957611048614548565b5b9060005260206000200154820361109c57600061109b576040517f08c379a00000000000000000000000000000000000000000000000000000000081526004016110929061485c565b60405180910390fd5b5b80806110a7906145a6565b915050610fae565b50600660008373ffffffffffffffffffffffffffffffffffffffff1673ffffffffffffffffffffffffffffffffffffffff1681526020019081526020016000208190806001815401808255809150506001900390600052602060002001600090919091909150556001818154811061112a57611129614548565b5b90600052602060002090600a0201600601829080600181540180825580915050600190039060005260206000200160009091909190916101000a81548173ffffffffffffffffffffffffffffffffffffffff021916908373ffffffffffffffffffffffffffffffffffffffff1602179055505050565b600181815481106111b057600080fd5b90600052602060002090600a02016000915090508060000154908060010180546111d9906141fe565b80601f0160208091040260200160405190810160405280929190818152602001828054611205906141fe565b80156112525780601f1061122757610100808354040283529160200191611252565b820191906000526020600020905b81548152906001019060200180831161123557829003601f168201915b505050505090806002018054611267906141fe565b80601f0160208091040260200160405190810160405280929190818152602001828054611293906141fe565b80156112e05780601f106112b5576101008083540402835291602001916112e0565b820191906000526020600020905b8154815290600101906020018083116112c357829003601f168201915b5050505050908060030160009054906101000a900460ff1690806004018054611308906141fe565b80601f0160208091040260200160405190810160405280929190818152602001828054611334906141fe565b80156113815780601f1061135657610100808354040283529160200191611381565b820191906000526020600020905b81548152906001019060200180831161136457829003601f168201915b5050505050908060050160009054906101000a900473ffffffffffffffffffffffffffffffffffffffff16908060070154908060080154908060090180546113c8906141fe565b80601f01602080910402602001604051908101604052809291908181526020018280546113f4906141fe565b80156114415780601f1061141657610100808354040283529160200191611441565b820191906000526020600020905b81548152906001019060200180831161142457829003601f168201915b5050505050905089565b600047905090565b6000818154811061146357600080fd5b906000526020600020016000915090505481565b6060610e1042611487919061487c565b91506040518060600160405280858152602001848152602001838152506005600087815260200190815260200160002060008201518160000190816114cc91906143db565b5060208201518160010155604082015181600201559050507f506c1c7dd360506da713451f9275b3cfa046b07a1318ba73623d3b27d6acff7d84848460405161151793929190613c68565b60405180910390a1839050949350505050565b60606000805b6000805490508110156115e657600860003373ffffffffffffffffffffffffffffffffffffffff1673ffffffffffffffffffffffffffffffffffffffff168152602001908152602001600020600080838154811061159157611590614548565b5b9060005260206000200154815260200190815260200160002060009054906101000a900460ff16151560001515036115d3576001826115d0919061487c565b91505b80806115de906145a6565b915050611530565b5060008167ffffffffffffffff81111561160357611602613729565b5b60405190808252806020026020018201604052801561163c57816020015b611629613632565b8152602001906001900390816116215790505b5090506000805b600080549050811015611ac557600860003373ffffffffffffffffffffffffffffffffffffffff1673ffffffffffffffffffffffffffffffffffffffff16815260200190815260200160002060008083815481106116a4576116a3614548565b5b9060005260206000200154815260200190815260200160002060009054906101000a900460ff1615156000151503611ab2576001600082815481106116ec576116eb614548565b5b90600052602060002001548154811061170857611707614548565b5b90600052602060002090600a0201604051806101400160405290816000820154815260200160018201805461173c906141fe565b80601f0160208091040260200160405190810160405280929190818152602001828054611768906141fe565b80156117b55780601f1061178a576101008083540402835291602001916117b5565b820191906000526020600020905b81548152906001019060200180831161179857829003601f168201915b505050505081526020016002820180546117ce906141fe565b80601f01602080910402602001604051908101604052809291908181526020018280546117fa906141fe565b80156118475780601f1061181c57610100808354040283529160200191611847565b820191906000526020600020905b81548152906001019060200180831161182a57829003601f168201915b505050505081526020016003820160009054906101000a900460ff1615151515815260200160048201805461187b906141fe565b80601f01602080910402602001604051908101604052809291908181526020018280546118a7906141fe565b80156118f45780601f106118c9576101008083540402835291602001916118f4565b820191906000526020600020905b8154815290600101906020018083116118d757829003601f168201915b505050505081526020016005820160009054906101000a900473ffffffffffffffffffffffffffffffffffffffff1673ffffffffffffffffffffffffffffffffffffffff1673ffffffffffffffffffffffffffffffffffffffff168152602001600682018054806020026020016040519081016040528092919081815260200182805480156119d857602002820191906000526020600020905b8160009054906101000a900473ffffffffffffffffffffffffffffffffffffffff1673ffffffffffffffffffffffffffffffffffffffff168152602001906001019080831161198e575b505050505081526020016007820154815260200160088201548152602001600982018054611a05906141fe565b80601f0160208091040260200160405190810160405280929190818152602001828054611a31906141fe565b8015611a7e5780601f10611a5357610100808354040283529160200191611a7e565b820191906000526020600020905b815481529060010190602001808311611a6157829003601f168201915b505050505081525050838380611a93906145a6565b945081518110611aa657611aa5614548565b5b60200260200101819052505b8080611abd906145a6565b915050611643565b5081935050505090565b6001805490508110611b16576040517f08c379a0000000000000000000000000000000000000000000000000000000008152600401611b0d906146cc565b60405180910390fd5b60005b600080549050811015611e6e5760008181548110611b3a57611b39614548565b5b90600052602060002001548203611e5b57600860003373ffffffffffffffffffffffffffffffffffffffff1673ffffffffffffffffffffffffffffffffffffffff168152602001908152602001600020600083815260200190815260200160002060009054906101000a900460ff1615611bf4576000611bef576040517f08c379a0000000000000000000000000000000000000000000000000000000008152600401611be6906148fc565b60405180910390fd5b611e5a565b60018281548110611c0857611c07614548565b5b90600052602060002090600a0201600801543373ffffffffffffffffffffffffffffffffffffffff16311015611c73576040517f08c379a0000000000000000000000000000000000000000000000000000000008152600401611c6a90614968565b60405180910390fd5b60018281548110611c8757611c86614548565b5b90600052602060002090600a020160050160009054906101000a900473ffffffffffffffffffffffffffffffffffffffff1673ffffffffffffffffffffffffffffffffffffffff166108fc349081150290604051600060405180830381858888f19350505050158015611cfe573d6000803e3d6000fd5b506001600860003373ffffffffffffffffffffffffffffffffffffffff1673ffffffffffffffffffffffffffffffffffffffff168152602001908152602001600020600084815260200190815260200160002060006101000a81548160ff02191690831515021790555060018281548110611d7c57611d7b614548565b5b90600052602060002090600a0201600601339080600181540180825580915050600190039060005260206000200160009091909190916101000a81548173ffffffffffffffffffffffffffffffffffffffff021916908373ffffffffffffffffffffffffffffffffffffffff160217905550600660003373ffffffffffffffffffffffffffffffffffffffff1673ffffffffffffffffffffffffffffffffffffffff16815260200190815260200160002082908060018154018082558091505060019003906000526020600020016000909190919091505550611e70565b5b8080611e66906145a6565b915050611b19565b505b50565b60606000600660003373ffffffffffffffffffffffffffffffffffffffff1673ffffffffffffffffffffffffffffffffffffffff1681526020019081526020016000208054905011611efa576040517f08c379a0000000000000000000000000000000000000000000000000000000008152600401611ef1906149d4565b60405180910390fd5b6000600660003373ffffffffffffffffffffffffffffffffffffffff1673ffffffffffffffffffffffffffffffffffffffff1681526020019081526020016000208054905067ffffffffffffffff811115611f5857611f57613729565b5b604051908082528060200260200182016040528015611f9157816020015b611f7e613632565b815260200190600190039081611f765790505b50905060005b600660003373ffffffffffffffffffffffffffffffffffffffff1673ffffffffffffffffffffffffffffffffffffffff16815260200190815260200160002080549050811015612400576001600660003373ffffffffffffffffffffffffffffffffffffffff1673ffffffffffffffffffffffffffffffffffffffff168152602001908152602001600020828154811061203457612033614548565b5b9060005260206000200154815481106120505761204f614548565b5b90600052602060002090600a02016040518061014001604052908160008201548152602001600182018054612084906141fe565b80601f01602080910402602001604051908101604052809291908181526020018280546120b0906141fe565b80156120fd5780601f106120d2576101008083540402835291602001916120fd565b820191906000526020600020905b8154815290600101906020018083116120e057829003601f168201915b50505050508152602001600282018054612116906141fe565b80601f0160208091040260200160405190810160405280929190818152602001828054612142906141fe565b801561218f5780601f106121645761010080835404028352916020019161218f565b820191906000526020600020905b81548152906001019060200180831161217257829003601f168201915b505050505081526020016003820160009054906101000a900460ff161515151581526020016004820180546121c3906141fe565b80601f01602080910402602001604051908101604052809291908181526020018280546121ef906141fe565b801561223c5780601f106122115761010080835404028352916020019161223c565b820191906000526020600020905b81548152906001019060200180831161221f57829003601f168201915b505050505081526020016005820160009054906101000a900473ffffffffffffffffffffffffffffffffffffffff1673ffffffffffffffffffffffffffffffffffffffff1673ffffffffffffffffffffffffffffffffffffffff1681526020016006820180548060200260200160405190810160405280929190818152602001828054801561232057602002820191906000526020600020905b8160009054906101000a900473ffffffffffffffffffffffffffffffffffffffff1673ffffffffffffffffffffffffffffffffffffffff16815260200190600101908083116122d6575b50505050508152602001600782015481526020016008820154815260200160098201805461234d906141fe565b80601f0160208091040260200160405190810160405280929190818152602001828054612379906141fe565b80156123c65780601f1061239b576101008083540402835291602001916123c6565b820191906000526020600020905b8154815290600101906020018083116123a957829003601f168201915b5050505050815250508282815181106123e2576123e1614548565b5b602002602001018190525080806123f8906145a6565b915050611f97565b508091505090565b600180549050811061244f576040517f08c379a0000000000000000000000000000000000000000000000000000000008152600401612446906146cc565b60405180910390fd5b6001818154811061246357612462614548565b5b90600052602060002090600a020160050160009054906101000a900473ffffffffffffffffffffffffffffffffffffffff1673ffffffffffffffffffffffffffffffffffffffff163373ffffffffffffffffffffffffffffffffffffffff1614612502576040517f08c379a00000000000000000000000000000000000000000000000000000000081526004016124f990614738565b60405180910390fd5b3373ffffffffffffffffffffffffffffffffffffffff168273ffffffffffffffffffffffffffffffffffffffff1603612570576040517f08c379a000000000000000000000000000000000000000000000000000000000815260040161256790614a8c565b60405180910390fd5b6000600660008473ffffffffffffffffffffffffffffffffffffffff1673ffffffffffffffffffffffffffffffffffffffff16815260200190815260200160002080549050905060005b600660008573ffffffffffffffffffffffffffffffffffffffff1673ffffffffffffffffffffffffffffffffffffffff16815260200190815260200160002080549050811015612ac257600660008573ffffffffffffffffffffffffffffffffffffffff1673ffffffffffffffffffffffffffffffffffffffff168152602001908152602001600020818154811061265557612654614548565b5b90600052602060002001548303612aaf57600660008573ffffffffffffffffffffffffffffffffffffffff1673ffffffffffffffffffffffffffffffffffffffff1681526020019081526020016000208054905060010361271a57600660008573ffffffffffffffffffffffffffffffffffffffff1673ffffffffffffffffffffffffffffffffffffffff1681526020019081526020016000208054806126ff576126fe6144ad565b5b60019003818190600052602060002001600090559055612847565b600660008573ffffffffffffffffffffffffffffffffffffffff1673ffffffffffffffffffffffffffffffffffffffff1681526020019081526020016000206001836127669190614aac565b8154811061277757612776614548565b5b9060005260206000200154600660008673ffffffffffffffffffffffffffffffffffffffff1673ffffffffffffffffffffffffffffffffffffffff16815260200190815260200160002082815481106127d3576127d2614548565b5b9060005260206000200181905550600660008573ffffffffffffffffffffffffffffffffffffffff1673ffffffffffffffffffffffffffffffffffffffff1681526020019081526020016000208054806128305761282f6144ad565b5b600190038181906000526020600020016000905590555b60006001848154811061285d5761285c614548565b5b90600052602060002090600a020160060180549050905060005b6001858154811061288b5761288a614548565b5b90600052602060002090600a020160060180549050811015612aa657600185815481106128bb576128ba614548565b5b90600052602060002090600a020160060181815481106128de576128dd614548565b5b9060005260206000200160009054906101000a900473ffffffffffffffffffffffffffffffffffffffff1673ffffffffffffffffffffffffffffffffffffffff168673ffffffffffffffffffffffffffffffffffffffff1603612a93576001858154811061294f5761294e614548565b5b90600052602060002090600a020160060160018361296d9190614aac565b8154811061297e5761297d614548565b5b9060005260206000200160009054906101000a900473ffffffffffffffffffffffffffffffffffffffff16600186815481106129bd576129bc614548565b5b90600052602060002090600a020160060182815481106129e0576129df614548565b5b9060005260206000200160006101000a81548173ffffffffffffffffffffffffffffffffffffffff021916908373ffffffffffffffffffffffffffffffffffffffff16021790555060018581548110612a3c57612a3b614548565b5b90600052602060002090600a0201600601805480612a5d57612a5c6144ad565b5b6001900381819060005260206000200160006101000a81549073ffffffffffffffffffffffffffffffffffffffff021916905590555b8080612a9e906145a6565b915050612877565b50505050612b06565b8080612aba906145a6565b9150506125ba565b506000612b04576040517f08c379a0000000000000000000000000000000000000000000000000000000008152600401612afb90614b52565b60405180910390fd5b505b5050565b60003090508073ffffffffffffffffffffffffffffffffffffffff166108fc349081150290604051600060405180830381858888f19350505050158015612b55573d6000803e3d6000fd5b5050565b4260056000848152602001908152602001600020600201541115612d44576001600860003373ffffffffffffffffffffffffffffffffffffffff1673ffffffffffffffffffffffffffffffffffffffff168152602001908152602001600020600084815260200190815260200160002060006101000a81548160ff02191690831515021790555060018281548110612bf457612bf3614548565b5b90600052602060002090600a0201600601339080600181540180825580915050600190039060005260206000200160009091909190916101000a81548173ffffffffffffffffffffffffffffffffffffffff021916908373ffffffffffffffffffffffffffffffffffffffff160217905550600660003373ffffffffffffffffffffffffffffffffffffffff1673ffffffffffffffffffffffffffffffffffffffff16815260200190815260200160002082908060018154018082558091505060019003906000526020600020016000909190919091505560004290506005600084815260200190815260200160002060008082016000612cf5919061369d565b6001820160009055600282016000905550507fa7c1773722c3780482de45e0e6cdbb7395909d386fccd19d7b2aac127a796ac3823383604051612d3a93929190614b72565b60405180910390a1505b5050565b60606000600760003373ffffffffffffffffffffffffffffffffffffffff1673ffffffffffffffffffffffffffffffffffffffff1681526020019081526020016000208054905067ffffffffffffffff811115612da857612da7613729565b5b604051908082528060200260200182016040528015612de157816020015b612dce613632565b815260200190600190039081612dc65790505b50905060005b600760003373ffffffffffffffffffffffffffffffffffffffff1673ffffffffffffffffffffffffffffffffffffffff16815260200190815260200160002080549050811015613250576001600760003373ffffffffffffffffffffffffffffffffffffffff1673ffffffffffffffffffffffffffffffffffffffff1681526020019081526020016000208281548110612e8457612e83614548565b5b906000526020600020015481548110612ea057612e9f614548565b5b90600052602060002090600a02016040518061014001604052908160008201548152602001600182018054612ed4906141fe565b80601f0160208091040260200160405190810160405280929190818152602001828054612f00906141fe565b8015612f4d5780601f10612f2257610100808354040283529160200191612f4d565b820191906000526020600020905b815481529060010190602001808311612f3057829003601f168201915b50505050508152602001600282018054612f66906141fe565b80601f0160208091040260200160405190810160405280929190818152602001828054612f92906141fe565b8015612fdf5780601f10612fb457610100808354040283529160200191612fdf565b820191906000526020600020905b815481529060010190602001808311612fc257829003601f168201915b505050505081526020016003820160009054906101000a900460ff16151515158152602001600482018054613013906141fe565b80601f016020809104026020016040519081016040528092919081815260200182805461303f906141fe565b801561308c5780601f106130615761010080835404028352916020019161308c565b820191906000526020600020905b81548152906001019060200180831161306f57829003601f168201915b505050505081526020016005820160009054906101000a900473ffffffffffffffffffffffffffffffffffffffff1673ffffffffffffffffffffffffffffffffffffffff1673ffffffffffffffffffffffffffffffffffffffff1681526020016006820180548060200260200160405190810160405280929190818152602001828054801561317057602002820191906000526020600020905b8160009054906101000a900473ffffffffffffffffffffffffffffffffffffffff1673ffffffffffffffffffffffffffffffffffffffff1681526020019060010190808311613126575b50505050508152602001600782015481526020016008820154815260200160098201805461319d906141fe565b80601f01602080910402602001604051908101604052809291908181526020018280546131c9906141fe565b80156132165780601f106131eb57610100808354040283529160200191613216565b820191906000526020600020905b8154815290600101906020018083116131f957829003601f168201915b50505050508152505082828151811061323257613231614548565b5b60200260200101819052508080613248906145a6565b915050612de7565b508091505090565b600180549050831061329f576040517f08c379a0000000000000000000000000000000000000000000000000000000008152600401613296906146cc565b60405180910390fd5b3373ffffffffffffffffffffffffffffffffffffffff16600184815481106132ca576132c9614548565b5b90600052602060002090600a020160050160009054906101000a900473ffffffffffffffffffffffffffffffffffffffff1673ffffffffffffffffffffffffffffffffffffffff1614613352576040517f08c379a000000000000000000000000000000000000000000000000000000000815260040161334990614738565b60405180910390fd5b60006001848154811061336857613367614548565b5b90600052602060002090600a020160080154146133ba576040517f08c379a00000000000000000000000000000000000000000000000000000000081526004016133b190614c22565b60405180910390fd5b6001600860003373ffffffffffffffffffffffffffffffffffffffff1673ffffffffffffffffffffffffffffffffffffffff168152602001908152602001600020600085815260200190815260200160002060006101000a81548160ff0219169083151502179055506000839080600181540180825580915050600190039060005260206000200160009091909190915055816001848154811061346157613460614548565b5b90600052602060002090600a0201600901908161347e91906143db565b50806001848154811061349457613493614548565b5b90600052602060002090600a020160080181905550505050565b606060018054905082106134f7576040517f08c379a00000000000000000000000000000000000000000000000000000000081526004016134ee906146cc565b60405180910390fd5b6001828154811061350b5761350a614548565b5b90600052602060002090600a020160060180548060200260200160405190810160405280929190818152602001828054801561359c57602002820191906000526020600020905b8160009054906101000a900473ffffffffffffffffffffffffffffffffffffffff1673ffffffffffffffffffffffffffffffffffffffff1681526020019060010190808311613552575b50505050509050919050565b828054828255906000526020600020908101928215613621579160200282015b828111156136205782518260006101000a81548173ffffffffffffffffffffffffffffffffffffffff021916908373ffffffffffffffffffffffffffffffffffffffff160217905550916020019190600101906135c8565b5b50905061362e91906136dd565b5090565b60405180610140016040528060008152602001606081526020016060815260200160001515815260200160608152602001600073ffffffffffffffffffffffffffffffffffffffff168152602001606081526020016000815260200160008152602001606081525090565b5080546136a9906141fe565b6000825580601f106136bb57506136da565b601f0160209004906000526020600020908101906136d991906136dd565b5b50565b5b808211156136f65760008160009055506001016136de565b5090565b6000604051905090565b600080fd5b600080fd5b600080fd5b600080fd5b6000601f19601f8301169050919050565b7f4e487b7100000000000000000000000000000000000000000000000000000000600052604160045260246000fd5b61376182613718565b810181811067ffffffffffffffff821117156137805761377f613729565b5b80604052505050565b60006137936136fa565b905061379f8282613758565b919050565b600067ffffffffffffffff8211156137bf576137be613729565b5b6137c882613718565b9050602081019050919050565b82818337600083830152505050565b60006137f76137f2846137a4565b613789565b90508281526020810184848401111561381357613812613713565b5b61381e8482856137d5565b509392505050565b600082601f83011261383b5761383a61370e565b5b813561384b8482602086016137e4565b91505092915050565b60008060006060848603121561386d5761386c613704565b5b600084013567ffffffffffffffff81111561388b5761388a613709565b5b61389786828701613826565b935050602084013567ffffffffffffffff8111156138b8576138b7613709565b5b6138c486828701613826565b925050604084013567ffffffffffffffff8111156138e5576138e4613709565b5b6138f186828701613826565b9150509250925092565b6000819050919050565b61390e816138fb565b811461391957600080fd5b50565b60008135905061392b81613905565b92915050565b60006020828403121561394757613946613704565b5b60006139558482850161391c565b91505092915050565b613967816138fb565b82525050565b600081519050919050565b600082825260208201905092915050565b60005b838110156139a757808201518184015260208101905061398c565b60008484015250505050565b60006139be8261396d565b6139c88185613978565b93506139d8818560208601613989565b6139e181613718565b840191505092915050565b60008115159050919050565b613a01816139ec565b82525050565b600073ffffffffffffffffffffffffffffffffffffffff82169050919050565b6000613a3282613a07565b9050919050565b613a4281613a27565b82525050565b600081519050919050565b600082825260208201905092915050565b6000819050602082019050919050565b6000613a808383613a39565b60208301905092915050565b6000602082019050919050565b6000613aa482613a48565b613aae8185613a53565b9350613ab983613a64565b8060005b83811015613aea578151613ad18882613a74565b9750613adc83613a8c565b925050600181019050613abd565b5085935050505092915050565b600061014083016000830151613b10600086018261395e565b5060208301518482036020860152613b2882826139b3565b91505060408301518482036040860152613b4282826139b3565b9150506060830151613b5760608601826139f8565b5060808301518482036080860152613b6f82826139b3565b91505060a0830151613b8460a0860182613a39565b5060c083015184820360c0860152613b9c8282613a99565b91505060e0830151613bb160e086018261395e565b50610100830151613bc661010086018261395e565b50610120830151848203610120860152613be082826139b3565b9150508091505092915050565b60006020820190508181036000830152613c078184613af7565b905092915050565b600082825260208201905092915050565b6000613c2b8261396d565b613c358185613c0f565b9350613c45818560208601613989565b613c4e81613718565b840191505092915050565b613c62816138fb565b82525050565b60006060820190508181036000830152613c828186613c20565b9050613c916020830185613c59565b613c9e6040830184613c59565b949350505050565b613caf81613a27565b8114613cba57600080fd5b50565b600081359050613ccc81613ca6565b92915050565b60008060408385031215613ce957613ce8613704565b5b6000613cf785828601613cbd565b9250506020613d088582860161391c565b9150509250929050565b613d1b816139ec565b82525050565b613d2a81613a27565b82525050565b600061012082019050613d46600083018c613c59565b8181036020830152613d58818b613c20565b90508181036040830152613d6c818a613c20565b9050613d7b6060830189613d12565b8181036080830152613d8d8188613c20565b9050613d9c60a0830187613d21565b613da960c0830186613c59565b613db660e0830185613c59565b818103610100830152613dc98184613c20565b90509a9950505050505050505050565b6000602082019050613dee6000830184613c59565b92915050565b60008060008060808587031215613e0e57613e0d613704565b5b6000613e1c8782880161391c565b945050602085013567ffffffffffffffff811115613e3d57613e3c613709565b5b613e4987828801613826565b9350506040613e5a8782880161391c565b9250506060613e6b8782880161391c565b91505092959194509250565b60006020820190508181036000830152613e918184613c20565b905092915050565b600081519050919050565b600082825260208201905092915050565b6000819050602082019050919050565b600061014083016000830151613ede600086018261395e565b5060208301518482036020860152613ef682826139b3565b91505060408301518482036040860152613f1082826139b3565b9150506060830151613f2560608601826139f8565b5060808301518482036080860152613f3d82826139b3565b91505060a0830151613f5260a0860182613a39565b5060c083015184820360c0860152613f6a8282613a99565b91505060e0830151613f7f60e086018261395e565b50610100830151613f9461010086018261395e565b50610120830151848203610120860152613fae82826139b3565b9150508091505092915050565b6000613fc78383613ec5565b905092915050565b6000602082019050919050565b6000613fe782613e99565b613ff18185613ea4565b93508360208202850161400385613eb5565b8060005b8581101561403f57848403895281516140208582613fbb565b945061402b83613fcf565b925060208a01995050600181019050614007565b50829750879550505050505092915050565b6000602082019050818103600083015261406b8184613fdc565b905092915050565b6000806040838503121561408a57614089613704565b5b60006140988582860161391c565b925050602083013567ffffffffffffffff8111156140b9576140b8613709565b5b6140c585828601613826565b9150509250929050565b6000806000606084860312156140e8576140e7613704565b5b60006140f68682870161391c565b935050602084013567ffffffffffffffff81111561411757614116613709565b5b61412386828701613826565b92505060406141348682870161391c565b9150509250925092565b600082825260208201905092915050565b600061415a82613a48565b614164818561413e565b935061416f83613a64565b8060005b838110156141a05781516141878882613a74565b975061419283613a8c565b925050600181019050614173565b5085935050505092915050565b600060208201905081810360008301526141c7818461414f565b905092915050565b7f4e487b7100000000000000000000000000000000000000000000000000000000600052602260045260246000fd5b6000600282049050600182168061421657607f821691505b602082108103614229576142286141cf565b5b50919050565b60008190508160005260206000209050919050565b60006020601f8301049050919050565b600082821b905092915050565b6000600883026142917fffffffffffffffffffffffffffffffffffffffffffffffffffffffffffffffff82614254565b61429b8683614254565b95508019841693508086168417925050509392505050565b6000819050919050565b60006142d86142d36142ce846138fb565b6142b3565b6138fb565b9050919050565b6000819050919050565b6142f2836142bd565b6143066142fe826142df565b848454614261565b825550505050565b600090565b61431b61430e565b6143268184846142e9565b505050565b5b8181101561434a5761433f600082614313565b60018101905061432c565b5050565b601f82111561438f576143608161422f565b61436984614244565b81016020851015614378578190505b61438c61438485614244565b83018261432b565b50505b505050565b600082821c905092915050565b60006143b260001984600802614394565b1980831691505092915050565b60006143cb83836143a1565b9150826002028217905092915050565b6143e48261396d565b67ffffffffffffffff8111156143fd576143fc613729565b5b61440782546141fe565b61441282828561434e565b600060209050601f8311600181146144455760008415614433578287015190505b61443d85826143bf565b8655506144a5565b601f1984166144538661422f565b60005b8281101561447b57848901518255600182019150602085019450602081019050614456565b868310156144985784890151614494601f8916826143a1565b8355505b6001600288020188555050505b505050505050565b7f4e487b7100000000000000000000000000000000000000000000000000000000600052603160045260246000fd5b7f676976656e2066696c65206964206973206e6f74206578697374730000000000600082015250565b6000614512601b83613c0f565b915061451d826144dc565b602082019050919050565b6000602082019050818103600083015261454181614505565b9050919050565b7f4e487b7100000000000000000000000000000000000000000000000000000000600052603260045260246000fd5b7f4e487b7100000000000000000000000000000000000000000000000000000000600052601160045260246000fd5b60006145b1826138fb565b91507fffffffffffffffffffffffffffffffffffffffffffffffffffffffffffffffff82036145e3576145e2614577565b5b600182019050919050565b7f796f7520646f6e277420686176652061636365737320746f207468697320666960008201527f6c65000000000000000000000000000000000000000000000000000000000000602082015250565b600061464a602283613c0f565b9150614655826145ee565b604082019050919050565b600060208201905081810360008301526146798161463d565b9050919050565b7f676976652066696c6520696420697320696e76616c6964000000000000000000600082015250565b60006146b6601783613c0f565b91506146c182614680565b602082019050919050565b600060208201905081810360008301526146e5816146a9565b9050919050565b7f796f7520617265206e6f74206f776e6572206f6620746869732066696c650000600082015250565b6000614722601e83613c0f565b915061472d826146ec565b602082019050919050565b6000602082019050818103600083015261475181614715565b9050919050565b7f6173206f776e6572206f6620746869732066696c6520796f7520616c7265616460008201527f2068617665206120616363657373000000000000000000000000000000000000602082015250565b60006147b4602e83613c0f565b91506147bf82614758565b604082019050919050565b600060208201905081810360008301526147e3816147a7565b9050919050565b7f74686973206164647265737320616c726561647920686176652061206163636560008201527f737320746f20746869732066696c650000000000000000000000000000000000602082015250565b6000614846602f83613c0f565b9150614851826147ea565b604082019050919050565b6000602082019050818103600083015261487581614839565b9050919050565b6000614887826138fb565b9150614892836138fb565b92508282019050808211156148aa576148a9614577565b5b92915050565b7f796f7520616c726561647920626f7567687420746869732066696c6500000000600082015250565b60006148e6601c83613c0f565b91506148f1826148b0565b602082019050919050565b60006020820190508181036000830152614915816148d9565b9050919050565b7f496e73756666696369656e742062616c616e6365000000000000000000000000600082015250565b6000614952601483613c0f565b915061495d8261491c565b602082019050919050565b6000602082019050818103600083015261498181614945565b9050919050565b7f6e6f207265636f72647300000000000000000000000000000000000000000000600082015250565b60006149be600a83613c0f565b91506149c982614988565b602082019050919050565b600060208201905081810360008301526149ed816149b1565b9050919050565b7f6173206f776e6572206f66207468652066696c6520616e6420796f752063616e60008201527f27742072656d6f766520796f75722073656c662066726f6d206163636573732060208201527f746f20746869732066696c650000000000000000000000000000000000000000604082015250565b6000614a76604c83613c0f565b9150614a81826149f4565b606082019050919050565b60006020820190508181036000830152614aa581614a69565b9050919050565b6000614ab7826138fb565b9150614ac2836138fb565b9250828203905081811115614ada57614ad9614577565b5b92915050565b7f796f7520646f65736e277420676976652061636365737320746f20746869732060008201527f6164647265737320617420616c6c212100000000000000000000000000000000602082015250565b6000614b3c603083613c0f565b9150614b4782614ae0565b604082019050919050565b60006020820190508181036000830152614b6b81614b2f565b9050919050565b60006060820190508181036000830152614b8c8186613c20565b9050614b9b6020830185613d21565b614ba86040830184613c59565b949350505050565b7f796f752061726520616c726561647920616464656420746869732066696c652060008201527f746f2073656c6c00000000000000000000000000000000000000000000000000602082015250565b6000614c0c602783613c0f565b9150614c1782614bb0565b604082019050919050565b60006020820190508181036000830152614c3b81614bff565b905091905056fea264697066735822122034ea48c5a515482150a1e92247e9b19fa3097eb52f3fc097470e6dec1015bbeb64736f6c63430008130033",
  "linkReferences": {},
  "deployedLinkReferences": {}
}