{
  "_format": "hh-sol-artifact-1",
  "contractName": "syncdata",
  "sourceName": "contracts/meddata.sol",
  "abi": [
    {
      "inputs": [],
      "stateMutability": "payable",
      "type": "constructor"
    },
    {
      "anonymous": false,
      "inputs": [
        {
          "indexed": false,
          "internalType": "string",
          "name": "code",
          "type": "string"
        },
        {
          "indexed": false,
          "internalType": "uint256",
          "name": "value",
          "type": "uint256"
        },
        {
          "indexed": false,
          "internalType": "uint256",
          "name": "expiryTime",
          "type": "uint256"
        }
      ],
      "name": "CouponGenerated",
      "type": "event"
    },
    {
      "anonymous": false,
      "inputs": [
        {
          "indexed": false,
          "internalType": "string",
          "name": "code",
          "type": "string"
        },
        {
          "indexed": false,
          "internalType": "address",
          "name": "user",
          "type": "address"
        },
        {
          "indexed": false,
          "internalType": "uint256",
          "name": "redeemedTime",
          "type": "uint256"
        }
      ],
      "name": "CouponRedeemed",
      "type": "event"
    },
    {
      "inputs": [
        {
          "internalType": "string",
          "name": "_title",
          "type": "string"
        },
        {
          "internalType": "string",
          "name": "_description",
          "type": "string"
        },
        {
          "internalType": "string",
          "name": "_imageURL",
          "type": "string"
        }
      ],
      "name": "NewRrecord",
      "outputs": [],
      "stateMutability": "payable",
      "type": "function"
    },
    {
      "inputs": [],
      "name": "addToContractBalance",
      "outputs": [],
      "stateMutability": "payable",
      "type": "function"
    },
    {
      "inputs": [
        {
          "internalType": "uint256",
          "name": "id",
          "type": "uint256"
        }
      ],
      "name": "buyFileId",
      "outputs": [],
      "stateMutability": "payable",
      "type": "function"
    },
    {
      "inputs": [
        {
          "internalType": "uint256",
          "name": "",
          "type": "uint256"
        }
      ],
      "name": "coupons",
      "outputs": [
        {
          "internalType": "string",
          "name": "code",
          "type": "string"
        },
        {
          "internalType": "uint256",
          "name": "value",
          "type": "uint256"
        },
        {
          "internalType": "uint256",
          "name": "expiryTime",
          "type": "uint256"
        }
      ],
      "stateMutability": "view",
      "type": "function"
    },
    {
      "inputs": [
        {
          "internalType": "uint256",
          "name": "id",
          "type": "uint256"
        },
        {
          "internalType": "string",
          "name": "code",
          "type": "string"
        },
        {
          "internalType": "uint256",
          "name": "value",
          "type": "uint256"
        },
        {
          "internalType": "uint256",
          "name": "expiryTime",
          "type": "uint256"
        }
      ],
      "name": "generateCoupon",
      "outputs": [
        {
          "internalType": "string",
          "name": "",
          "type": "string"
        }
      ],
      "stateMutability": "nonpayable",
      "type": "function"
    },
    {
      "inputs": [
        {
          "internalType": "uint256",
          "name": "id",
          "type": "uint256"
        }
      ],
      "name": "getAccessList",
      "outputs": [
        {
          "internalType": "address[]",
          "name": "",
          "type": "address[]"
        }
      ],
      "stateMutability": "view",
      "type": "function"
    },
    {
      "inputs": [],
      "name": "getAllRecords",
      "outputs": [
        {
          "components": [
            {
              "internalType": "uint256",
              "name": "id",
              "type": "uint256"
            },
            {
              "internalType": "string",
              "name": "title",
              "type": "string"
            },
            {
              "internalType": "string",
              "name": "description",
              "type": "string"
            },
            {
              "internalType": "bool",
              "name": "islisted",
              "type": "bool"
            },
            {
              "internalType": "string",
              "name": "imageURL",
              "type": "string"
            },
            {
              "internalType": "address",
              "name": "owner",
              "type": "address"
            },
            {
              "internalType": "address[]",
              "name": "accessibleBy",
              "type": "address[]"
            },
            {
              "internalType": "uint256",
              "name": "timestamp",
              "type": "uint256"
            },
            {
              "internalType": "uint256",
              "name": "price",
              "type": "uint256"
            },
            {
              "internalType": "string",
              "name": "preview",
              "type": "string"
            }
          ],
          "internalType": "struct syncdata.Record[]",
          "name": "",
          "type": "tuple[]"
        }
      ],
      "stateMutability": "view",
      "type": "function"
    },
    {
      "inputs": [
        {
          "internalType": "uint256",
          "name": "_id",
          "type": "uint256"
        }
      ],
      "name": "getOneRecord",
      "outputs": [
        {
          "components": [
            {
              "internalType": "uint256",
              "name": "id",
              "type": "uint256"
            },
            {
              "internalType": "string",
              "name": "title",
              "type": "string"
            },
            {
              "internalType": "string",
              "name": "description",
              "type": "string"
            },
            {
              "internalType": "bool",
              "name": "islisted",
              "type": "bool"
            },
            {
              "internalType": "string",
              "name": "imageURL",
              "type": "string"
            },
            {
              "internalType": "address",
              "name": "owner",
              "type": "address"
            },
            {
              "internalType": "address[]",
              "name": "accessibleBy",
              "type": "address[]"
            },
            {
              "internalType": "uint256",
              "name": "timestamp",
              "type": "uint256"
            },
            {
              "internalType": "uint256",
              "name": "price",
              "type": "uint256"
            },
            {
              "internalType": "string",
              "name": "preview",
              "type": "string"
            }
          ],
          "internalType": "struct syncdata.Record",
          "name": "",
          "type": "tuple"
        }
      ],
      "stateMutability": "view",
      "type": "function"
    },
    {
      "inputs": [],
      "name": "getOwnersRecords",
      "outputs": [
        {
          "components": [
            {
              "internalType": "uint256",
              "name": "id",
              "type": "uint256"
            },
            {
              "internalType": "string",
              "name": "title",
              "type": "string"
            },
            {
              "internalType": "string",
              "name": "description",
              "type": "string"
            },
            {
              "internalType": "bool",
              "name": "islisted",
              "type": "bool"
            },
            {
              "internalType": "string",
              "name": "imageURL",
              "type": "string"
            },
            {
              "internalType": "address",
              "name": "owner",
              "type": "address"
            },
            {
              "internalType": "address[]",
              "name": "accessibleBy",
              "type": "address[]"
            },
            {
              "internalType": "uint256",
              "name": "timestamp",
              "type": "uint256"
            },
            {
              "internalType": "uint256",
              "name": "price",
              "type": "uint256"
            },
            {
              "internalType": "string",
              "name": "preview",
              "type": "string"
            }
          ],
          "internalType": "struct syncdata.Record[]",
          "name": "",
          "type": "tuple[]"
        }
      ],
      "stateMutability": "view",
      "type": "function"
    },
    {
      "inputs": [],
      "name": "getSellingRecord",
      "outputs": [
        {
          "components": [
            {
              "internalType": "uint256",
              "name": "id",
              "type": "uint256"
            },
            {
              "internalType": "string",
              "name": "title",
              "type": "string"
            },
            {
              "internalType": "string",
              "name": "description",
              "type": "string"
            },
            {
              "internalType": "bool",
              "name": "islisted",
              "type": "bool"
            },
            {
              "internalType": "string",
              "name": "imageURL",
              "type": "string"
            },
            {
              "internalType": "address",
              "name": "owner",
              "type": "address"
            },
            {
              "internalType": "address[]",
              "name": "accessibleBy",
              "type": "address[]"
            },
            {
              "internalType": "uint256",
              "name": "timestamp",
              "type": "uint256"
            },
            {
              "internalType": "uint256",
              "name": "price",
              "type": "uint256"
            },
            {
              "internalType": "string",
              "name": "preview",
              "type": "string"
            }
          ],
          "internalType": "struct syncdata.Record[]",
          "name": "",
          "type": "tuple[]"
        }
      ],
      "stateMutability": "view",
      "type": "function"
    },
    {
      "inputs": [],
      "name": "getUserName",
      "outputs": [
        {
          "internalType": "string",
          "name": "",
          "type": "string"
        }
      ],
      "stateMutability": "view",
      "type": "function"
    },
    {
      "inputs": [],
      "name": "giveContractBalance",
      "outputs": [
        {
          "internalType": "uint256",
          "name": "",
          "type": "uint256"
        }
      ],
      "stateMutability": "view",
      "type": "function"
    },
    {
      "inputs": [
        {
          "internalType": "address",
          "name": "_newOwner",
          "type": "address"
        },
        {
          "internalType": "uint256",
          "name": "id",
          "type": "uint256"
        }
      ],
      "name": "newOwner",
      "outputs": [],
      "stateMutability": "nonpayable",
      "type": "function"
    },
    {
      "inputs": [
        {
          "internalType": "uint256",
          "name": "",
          "type": "uint256"
        }
      ],
      "name": "records",
      "outputs": [
        {
          "internalType": "uint256",
          "name": "id",
          "type": "uint256"
        },
        {
          "internalType": "string",
          "name": "title",
          "type": "string"
        },
        {
          "internalType": "string",
          "name": "description",
          "type": "string"
        },
        {
          "internalType": "bool",
          "name": "islisted",
          "type": "bool"
        },
        {
          "internalType": "string",
          "name": "imageURL",
          "type": "string"
        },
        {
          "internalType": "address",
          "name": "owner",
          "type": "address"
        },
        {
          "internalType": "uint256",
          "name": "timestamp",
          "type": "uint256"
        },
        {
          "internalType": "uint256",
          "name": "price",
          "type": "uint256"
        },
        {
          "internalType": "string",
          "name": "preview",
          "type": "string"
        }
      ],
      "stateMutability": "view",
      "type": "function"
    },
    {
      "inputs": [
        {
          "internalType": "uint256",
          "name": "id",
          "type": "uint256"
        },
        {
          "internalType": "string",
          "name": "code",
          "type": "string"
        }
      ],
      "name": "redeemCoupon",
      "outputs": [],
      "stateMutability": "nonpayable",
      "type": "function"
    },
    {
      "inputs": [
        {
          "internalType": "address",
          "name": "_removeOwner",
          "type": "address"
        },
        {
          "internalType": "uint256",
          "name": "id",
          "type": "uint256"
        }
      ],
      "name": "removeOwner",
      "outputs": [],
      "stateMutability": "nonpayable",
      "type": "function"
    },
    {
      "inputs": [
        {
          "internalType": "uint256",
          "name": "id",
          "type": "uint256"
        },
        {
          "internalType": "string",
          "name": "preview",
          "type": "string"
        },
        {
          "internalType": "uint256",
          "name": "price",
          "type": "uint256"
        }
      ],
      "name": "sellTheFile",
      "outputs": [],
      "stateMutability": "nonpayable",
      "type": "function"
    },
    {
      "inputs": [
        {
          "internalType": "uint256",
          "name": "",
          "type": "uint256"
        }
      ],
      "name": "sellingFileId",
      "outputs": [
        {
          "internalType": "uint256",
          "name": "",
          "type": "uint256"
        }
      ],
      "stateMutability": "view",
      "type": "function"
    },
    {
      "inputs": [
        {
          "internalType": "string",
          "name": "userName",
          "type": "string"
        }
      ],
      "name": "storeUserName",
      "outputs": [],
      "stateMutability": "nonpayable",
      "type": "function"
    }
  ],
  "bytecode": "0x6080604052600067ffffffffffffffff811115620000225762000021620002be565b5b604051908082528060200260200182016040528015620000515781602001602082028036833780820191505090505b50600290805190602001906200006992919062000142565b50600067ffffffffffffffff811115620000885762000087620002be565b5b604051908082528060200260200182016040528015620000bd57816020015b6060815260200190600190039081620000a75790505b5060039080519060200190620000d5929190620001d1565b50600067ffffffffffffffff811115620000f457620000f3620002be565b5b604051908082528060200260200182016040528015620001235781602001602082028036833780820191505090505b50600490805190602001906200013b92919062000142565b506200061f565b828054828255906000526020600020908101928215620001be579160200282015b82811115620001bd5782518260006101000a81548173ffffffffffffffffffffffffffffffffffffffff021916908373ffffffffffffffffffffffffffffffffffffffff1602179055509160200191906001019062000163565b5b509050620001cd919062000231565b5090565b8280548282559060005260206000209081019282156200021e579160200282015b828111156200021d5782518290816200020c919062000538565b5091602001919060010190620001f2565b5b5090506200022d919062000250565b5090565b5b808211156200024c57600081600090555060010162000232565b5090565b5b808211156200027457600081816200026a919062000278565b5060010162000251565b5090565b508054620002869062000327565b6000825580601f106200029a5750620002bb565b601f016020900490600052602060002090810190620002ba919062000231565b5b50565b7f4e487b7100000000000000000000000000000000000000000000000000000000600052604160045260246000fd5b600081519050919050565b7f4e487b7100000000000000000000000000000000000000000000000000000000600052602260045260246000fd5b600060028204905060018216806200034057607f821691505b602082108103620003565762000355620002f8565b5b50919050565b60008190508160005260206000209050919050565b60006020601f8301049050919050565b600082821b905092915050565b600060088302620003c07fffffffffffffffffffffffffffffffffffffffffffffffffffffffffffffffff8262000381565b620003cc868362000381565b95508019841693508086168417925050509392505050565b6000819050919050565b6000819050919050565b600062000419620004136200040d84620003e4565b620003ee565b620003e4565b9050919050565b6000819050919050565b6200043583620003f8565b6200044d620004448262000420565b8484546200038e565b825550505050565b600090565b6200046462000455565b620004718184846200042a565b505050565b5b8181101562000499576200048d6000826200045a565b60018101905062000477565b5050565b601f821115620004e857620004b2816200035c565b620004bd8462000371565b81016020851015620004cd578190505b620004e5620004dc8562000371565b83018262000476565b50505b505050565b600082821c905092915050565b60006200050d60001984600802620004ed565b1980831691505092915050565b6000620005288383620004fa565b9150826002028217905092915050565b6200054382620002ed565b67ffffffffffffffff8111156200055f576200055e620002be565b5b6200056b825462000327565b620005788282856200049d565b600060209050601f831160018114620005b057600084156200059b578287015190505b620005a785826200051a565b86555062000617565b601f198416620005c0866200035c565b60005b82811015620005ea57848901518255600182019150602085019450602081019050620005c3565b868310156200060a578489015162000606601f891682620004fa565b8355505b6001600288020188555050505b505050505050565b614f0e806200062f6000396000f3fe6080604052600436106101145760003560e01c8063773d79dc116100a0578063d3a22a8211610064578063d3a22a8214610394578063e1dc63f0146103bd578063e227cf8a146103e6578063e3e18cc514610411578063f31bb1771461043a57610114565b8063773d79dc146102ef578063878e688e1461031a578063a7f9fe7214610336578063bfd2b3a314610361578063c7fb53eb1461038a57610114565b806332be3640116100e757806332be3640146101dc578063344610671461020557806340ed64031461024a578063653467c4146102755780636f587e3b146102b257610114565b806312958f1c146101195780631cda164f14610144578063298ba2be1461016057806330828e921461019d575b600080fd5b34801561012557600080fd5b5061012e610477565b60405161013b919061396b565b60405180910390f35b61015e60048036038101906101599190613ad6565b610546565b005b34801561016c57600080fd5b5061018760048036038101906101829190613bb3565b6108f4565b6040516101949190613e3a565b60405180910390f35b3480156101a957600080fd5b506101c460048036038101906101bf9190613bb3565b610e85565b6040516101d393929190613e6b565b60405180910390f35b3480156101e857600080fd5b5061020360048036038101906101fe9190613ed5565b610f37565b005b34801561021157600080fd5b5061022c60048036038101906102279190613bb3565b6112d9565b60405161024199989796959493929190613f33565b60405180910390f35b34801561025657600080fd5b5061025f611584565b60405161026c9190613fdc565b60405180910390f35b34801561028157600080fd5b5061029c60048036038101906102979190613bb3565b61158c565b6040516102a99190613fdc565b60405180910390f35b3480156102be57600080fd5b506102d960048036038101906102d49190613ff7565b6115b0565b6040516102e6919061396b565b60405180910390f35b3480156102fb57600080fd5b50610304611663565b6040516103119190614232565b60405180910390f35b610334600480360381019061032f9190613bb3565b611c08565b005b34801561034257600080fd5b5061034b611fac565b6040516103589190614232565b60405180910390f35b34801561036d57600080fd5b5061038860048036038101906103839190613ed5565b612541565b005b610392612c43565b005b3480156103a057600080fd5b506103bb60048036038101906103b69190614254565b612c92565b005b3480156103c957600080fd5b506103e460048036038101906103df919061429d565b612ce2565b005b3480156103f257600080fd5b506103fb612f29565b6040516104089190614232565b60405180910390f35b34801561041d57600080fd5b50610438600480360381019061043391906142f9565b613439565b005b34801561044657600080fd5b50610461600480360381019061045c9190613bb3565b61368f565b60405161046e91906143d7565b60405180910390f35b6060600a60003373ffffffffffffffffffffffffffffffffffffffff1673ffffffffffffffffffffffffffffffffffffffff16815260200190815260200160002080546104c390614428565b80601f01602080910402602001604051908101604052809291908181526020018280546104ef90614428565b801561053c5780601f106105115761010080835404028352916020019161053c565b820191906000526020600020905b81548152906001019060200180831161051f57829003601f168201915b5050505050905090565b600760003373ffffffffffffffffffffffffffffffffffffffff1673ffffffffffffffffffffffffffffffffffffffff1681526020019081526020016000206001805490509080600181540180825580915050600190039060005260206000200160009091909190915055600860003373ffffffffffffffffffffffffffffffffffffffff1673ffffffffffffffffffffffffffffffffffffffff1681526020019081526020016000206001805490509080600181540180825580915050600190039060005260206000200160009091909190915055600060018054905090506002339080600181540180825580915050600190039060005260206000200160009091909190916101000a81548173ffffffffffffffffffffffffffffffffffffffff021916908373ffffffffffffffffffffffffffffffffffffffff16021790555060016040518061014001604052808381526020018681526020018581526020016001151581526020018481526020013373ffffffffffffffffffffffffffffffffffffffff168152602001600280548060200260200160405190810160405280929190818152602001828054801561075657602002820191906000526020600020905b8160009054906101000a900473ffffffffffffffffffffffffffffffffffffffff1673ffffffffffffffffffffffffffffffffffffffff168152602001906001019080831161070c575b50505050508152602001428152602001600081526020016040518060200160405280600081525081525090806001815401808255809150506001900390600052602060002090600a02016000909190919091506000820151816000015560208201518160010190816107c89190614605565b5060408201518160020190816107de9190614605565b5060608201518160030160006101000a81548160ff02191690831515021790555060808201518160040190816108149190614605565b5060a08201518160050160006101000a81548173ffffffffffffffffffffffffffffffffffffffff021916908373ffffffffffffffffffffffffffffffffffffffff16021790555060c0820151816006019080519060200190610878929190613789565b5060e0820151816007015561010082015181600801556101208201518160090190816108a49190614605565b50505060028054806108b9576108b86146d7565b5b6001900381819060005260206000200160006101000a81549073ffffffffffffffffffffffffffffffffffffffff0219169055905550505050565b6108fc613813565b6001805490508210610943576040517f08c379a000000000000000000000000000000000000000000000000000000000815260040161093a90614752565b60405180910390fd5b60006001838154811061095957610958614772565b5b90600052602060002090600a0201604051806101400160405290816000820154815260200160018201805461098d90614428565b80601f01602080910402602001604051908101604052809291908181526020018280546109b990614428565b8015610a065780601f106109db57610100808354040283529160200191610a06565b820191906000526020600020905b8154815290600101906020018083116109e957829003601f168201915b50505050508152602001600282018054610a1f90614428565b80601f0160208091040260200160405190810160405280929190818152602001828054610a4b90614428565b8015610a985780601f10610a6d57610100808354040283529160200191610a98565b820191906000526020600020905b815481529060010190602001808311610a7b57829003601f168201915b505050505081526020016003820160009054906101000a900460ff16151515158152602001600482018054610acc90614428565b80601f0160208091040260200160405190810160405280929190818152602001828054610af890614428565b8015610b455780601f10610b1a57610100808354040283529160200191610b45565b820191906000526020600020905b815481529060010190602001808311610b2857829003601f168201915b505050505081526020016005820160009054906101000a900473ffffffffffffffffffffffffffffffffffffffff1673ffffffffffffffffffffffffffffffffffffffff1673ffffffffffffffffffffffffffffffffffffffff16815260200160068201805480602002602001604051908101604052809291908181526020018280548015610c2957602002820191906000526020600020905b8160009054906101000a900473ffffffffffffffffffffffffffffffffffffffff1673ffffffffffffffffffffffffffffffffffffffff1681526020019060010190808311610bdf575b505050505081526020016007820154815260200160088201548152602001600982018054610c5690614428565b80601f0160208091040260200160405190810160405280929190818152602001828054610c8290614428565b8015610ccf5780601f10610ca457610100808354040283529160200191610ccf565b820191906000526020600020905b815481529060010190602001808311610cb257829003601f168201915b50505050508152505090506000805b60018581548110610cf257610cf1614772565b5b90600052602060002090600a020160060180549050811015610dba573373ffffffffffffffffffffffffffffffffffffffff1660018681548110610d3957610d38614772565b5b90600052602060002090600a02016006018281548110610d5c57610d5b614772565b5b9060005260206000200160009054906101000a900473ffffffffffffffffffffffffffffffffffffffff1673ffffffffffffffffffffffffffffffffffffffff1603610da757600191505b8080610db2906147d0565b915050610cde565b5080151560001515148015610dd55750816101000151600014155b15610e3b57600960003373ffffffffffffffffffffffffffffffffffffffff1673ffffffffffffffffffffffffffffffffffffffff168152602001908152602001600020600085815260200190815260200160002060009054906101000a900460ff1690505b80610e7b576040517f08c379a0000000000000000000000000000000000000000000000000000000008152600401610e729061488a565b60405180910390fd5b8192505050919050565b6006602052806000526040600020600091509050806000018054610ea890614428565b80601f0160208091040260200160405190810160405280929190818152602001828054610ed490614428565b8015610f215780601f10610ef657610100808354040283529160200191610f21565b820191906000526020600020905b815481529060010190602001808311610f0457829003601f168201915b5050505050908060010154908060020154905083565b6001805490508110610f7e576040517f08c379a0000000000000000000000000000000000000000000000000000000008152600401610f75906148f6565b60405180910390fd5b60018181548110610f9257610f91614772565b5b90600052602060002090600a020160050160009054906101000a900473ffffffffffffffffffffffffffffffffffffffff1673ffffffffffffffffffffffffffffffffffffffff163373ffffffffffffffffffffffffffffffffffffffff1614611031576040517f08c379a000000000000000000000000000000000000000000000000000000000815260040161102890614962565b60405180910390fd5b6001818154811061104557611044614772565b5b90600052602060002090600a020160050160009054906101000a900473ffffffffffffffffffffffffffffffffffffffff1673ffffffffffffffffffffffffffffffffffffffff168273ffffffffffffffffffffffffffffffffffffffff16036110e4576040517f08c379a00000000000000000000000000000000000000000000000000000000081526004016110db906149f4565b60405180910390fd5b60005b600760008473ffffffffffffffffffffffffffffffffffffffff1673ffffffffffffffffffffffffffffffffffffffff168152602001908152602001600020805490508110156111e857600760008473ffffffffffffffffffffffffffffffffffffffff1673ffffffffffffffffffffffffffffffffffffffff168152602001908152602001600020818154811061118257611181614772565b5b906000526020600020015482036111d55760006111d4576040517f08c379a00000000000000000000000000000000000000000000000000000000081526004016111cb90614a86565b60405180910390fd5b5b80806111e0906147d0565b9150506110e7565b50600760008373ffffffffffffffffffffffffffffffffffffffff1673ffffffffffffffffffffffffffffffffffffffff1681526020019081526020016000208190806001815401808255809150506001900390600052602060002001600090919091909150556001818154811061126357611262614772565b5b90600052602060002090600a0201600601829080600181540180825580915050600190039060005260206000200160009091909190916101000a81548173ffffffffffffffffffffffffffffffffffffffff021916908373ffffffffffffffffffffffffffffffffffffffff1602179055505050565b600181815481106112e957600080fd5b90600052602060002090600a020160009150905080600001549080600101805461131290614428565b80601f016020809104026020016040519081016040528092919081815260200182805461133e90614428565b801561138b5780601f106113605761010080835404028352916020019161138b565b820191906000526020600020905b81548152906001019060200180831161136e57829003601f168201915b5050505050908060020180546113a090614428565b80601f01602080910402602001604051908101604052809291908181526020018280546113cc90614428565b80156114195780601f106113ee57610100808354040283529160200191611419565b820191906000526020600020905b8154815290600101906020018083116113fc57829003601f168201915b5050505050908060030160009054906101000a900460ff169080600401805461144190614428565b80601f016020809104026020016040519081016040528092919081815260200182805461146d90614428565b80156114ba5780601f1061148f576101008083540402835291602001916114ba565b820191906000526020600020905b81548152906001019060200180831161149d57829003601f168201915b5050505050908060050160009054906101000a900473ffffffffffffffffffffffffffffffffffffffff169080600701549080600801549080600901805461150190614428565b80601f016020809104026020016040519081016040528092919081815260200182805461152d90614428565b801561157a5780601f1061154f5761010080835404028352916020019161157a565b820191906000526020600020905b81548152906001019060200180831161155d57829003601f168201915b5050505050905089565b600047905090565b6000818154811061159c57600080fd5b906000526020600020016000915090505481565b6060610e10426115c09190614aa6565b91506040518060600160405280858152602001848152602001838152506006600087815260200190815260200160002060008201518160000190816116059190614605565b5060208201518160010155604082015181600201559050507f506c1c7dd360506da713451f9275b3cfa046b07a1318ba73623d3b27d6acff7d84848460405161165093929190613e6b565b60405180910390a1839050949350505050565b60606000805b60008054905081101561171f57600960003373ffffffffffffffffffffffffffffffffffffffff1673ffffffffffffffffffffffffffffffffffffffff16815260200190815260200160002060008083815481106116ca576116c9614772565b5b9060005260206000200154815260200190815260200160002060009054906101000a900460ff161515600015150361170c576001826117099190614aa6565b91505b8080611717906147d0565b915050611669565b5060008167ffffffffffffffff81111561173c5761173b6139ab565b5b60405190808252806020026020018201604052801561177557816020015b611762613813565b81526020019060019003908161175a5790505b5090506000805b600080549050811015611bfe57600960003373ffffffffffffffffffffffffffffffffffffffff1673ffffffffffffffffffffffffffffffffffffffff16815260200190815260200160002060008083815481106117dd576117dc614772565b5b9060005260206000200154815260200190815260200160002060009054906101000a900460ff1615156000151503611beb5760016000828154811061182557611824614772565b5b90600052602060002001548154811061184157611840614772565b5b90600052602060002090600a0201604051806101400160405290816000820154815260200160018201805461187590614428565b80601f01602080910402602001604051908101604052809291908181526020018280546118a190614428565b80156118ee5780601f106118c3576101008083540402835291602001916118ee565b820191906000526020600020905b8154815290600101906020018083116118d157829003601f168201915b5050505050815260200160028201805461190790614428565b80601f016020809104026020016040519081016040528092919081815260200182805461193390614428565b80156119805780601f1061195557610100808354040283529160200191611980565b820191906000526020600020905b81548152906001019060200180831161196357829003601f168201915b505050505081526020016003820160009054906101000a900460ff161515151581526020016004820180546119b490614428565b80601f01602080910402602001604051908101604052809291908181526020018280546119e090614428565b8015611a2d5780601f10611a0257610100808354040283529160200191611a2d565b820191906000526020600020905b815481529060010190602001808311611a1057829003601f168201915b505050505081526020016005820160009054906101000a900473ffffffffffffffffffffffffffffffffffffffff1673ffffffffffffffffffffffffffffffffffffffff1673ffffffffffffffffffffffffffffffffffffffff16815260200160068201805480602002602001604051908101604052809291908181526020018280548015611b1157602002820191906000526020600020905b8160009054906101000a900473ffffffffffffffffffffffffffffffffffffffff1673ffffffffffffffffffffffffffffffffffffffff1681526020019060010190808311611ac7575b505050505081526020016007820154815260200160088201548152602001600982018054611b3e90614428565b80601f0160208091040260200160405190810160405280929190818152602001828054611b6a90614428565b8015611bb75780601f10611b8c57610100808354040283529160200191611bb7565b820191906000526020600020905b815481529060010190602001808311611b9a57829003601f168201915b505050505081525050838380611bcc906147d0565b945081518110611bdf57611bde614772565b5b60200260200101819052505b8080611bf6906147d0565b91505061177c565b5081935050505090565b6001805490508110611c4f576040517f08c379a0000000000000000000000000000000000000000000000000000000008152600401611c46906148f6565b60405180910390fd5b60005b600080549050811015611fa75760008181548110611c7357611c72614772565b5b90600052602060002001548203611f9457600960003373ffffffffffffffffffffffffffffffffffffffff1673ffffffffffffffffffffffffffffffffffffffff168152602001908152602001600020600083815260200190815260200160002060009054906101000a900460ff1615611d2d576000611d28576040517f08c379a0000000000000000000000000000000000000000000000000000000008152600401611d1f90614b26565b60405180910390fd5b611f93565b60018281548110611d4157611d40614772565b5b90600052602060002090600a0201600801543373ffffffffffffffffffffffffffffffffffffffff16311015611dac576040517f08c379a0000000000000000000000000000000000000000000000000000000008152600401611da390614b92565b60405180910390fd5b60018281548110611dc057611dbf614772565b5b90600052602060002090600a020160050160009054906101000a900473ffffffffffffffffffffffffffffffffffffffff1673ffffffffffffffffffffffffffffffffffffffff166108fc349081150290604051600060405180830381858888f19350505050158015611e37573d6000803e3d6000fd5b506001600960003373ffffffffffffffffffffffffffffffffffffffff1673ffffffffffffffffffffffffffffffffffffffff168152602001908152602001600020600084815260200190815260200160002060006101000a81548160ff02191690831515021790555060018281548110611eb557611eb4614772565b5b90600052602060002090600a0201600601339080600181540180825580915050600190039060005260206000200160009091909190916101000a81548173ffffffffffffffffffffffffffffffffffffffff021916908373ffffffffffffffffffffffffffffffffffffffff160217905550600760003373ffffffffffffffffffffffffffffffffffffffff1673ffffffffffffffffffffffffffffffffffffffff16815260200190815260200160002082908060018154018082558091505060019003906000526020600020016000909190919091505550611fa9565b5b8080611f9f906147d0565b915050611c52565b505b50565b60606000600760003373ffffffffffffffffffffffffffffffffffffffff1673ffffffffffffffffffffffffffffffffffffffff1681526020019081526020016000208054905011612033576040517f08c379a000000000000000000000000000000000000000000000000000000000815260040161202a90614bfe565b60405180910390fd5b6000600760003373ffffffffffffffffffffffffffffffffffffffff1673ffffffffffffffffffffffffffffffffffffffff1681526020019081526020016000208054905067ffffffffffffffff811115612091576120906139ab565b5b6040519080825280602002602001820160405280156120ca57816020015b6120b7613813565b8152602001906001900390816120af5790505b50905060005b600760003373ffffffffffffffffffffffffffffffffffffffff1673ffffffffffffffffffffffffffffffffffffffff16815260200190815260200160002080549050811015612539576001600760003373ffffffffffffffffffffffffffffffffffffffff1673ffffffffffffffffffffffffffffffffffffffff168152602001908152602001600020828154811061216d5761216c614772565b5b90600052602060002001548154811061218957612188614772565b5b90600052602060002090600a020160405180610140016040529081600082015481526020016001820180546121bd90614428565b80601f01602080910402602001604051908101604052809291908181526020018280546121e990614428565b80156122365780601f1061220b57610100808354040283529160200191612236565b820191906000526020600020905b81548152906001019060200180831161221957829003601f168201915b5050505050815260200160028201805461224f90614428565b80601f016020809104026020016040519081016040528092919081815260200182805461227b90614428565b80156122c85780601f1061229d576101008083540402835291602001916122c8565b820191906000526020600020905b8154815290600101906020018083116122ab57829003601f168201915b505050505081526020016003820160009054906101000a900460ff161515151581526020016004820180546122fc90614428565b80601f016020809104026020016040519081016040528092919081815260200182805461232890614428565b80156123755780601f1061234a57610100808354040283529160200191612375565b820191906000526020600020905b81548152906001019060200180831161235857829003601f168201915b505050505081526020016005820160009054906101000a900473ffffffffffffffffffffffffffffffffffffffff1673ffffffffffffffffffffffffffffffffffffffff1673ffffffffffffffffffffffffffffffffffffffff1681526020016006820180548060200260200160405190810160405280929190818152602001828054801561245957602002820191906000526020600020905b8160009054906101000a900473ffffffffffffffffffffffffffffffffffffffff1673ffffffffffffffffffffffffffffffffffffffff168152602001906001019080831161240f575b50505050508152602001600782015481526020016008820154815260200160098201805461248690614428565b80601f01602080910402602001604051908101604052809291908181526020018280546124b290614428565b80156124ff5780601f106124d4576101008083540402835291602001916124ff565b820191906000526020600020905b8154815290600101906020018083116124e257829003601f168201915b50505050508152505082828151811061251b5761251a614772565b5b60200260200101819052508080612531906147d0565b9150506120d0565b508091505090565b6001805490508110612588576040517f08c379a000000000000000000000000000000000000000000000000000000000815260040161257f906148f6565b60405180910390fd5b6001818154811061259c5761259b614772565b5b90600052602060002090600a020160050160009054906101000a900473ffffffffffffffffffffffffffffffffffffffff1673ffffffffffffffffffffffffffffffffffffffff163373ffffffffffffffffffffffffffffffffffffffff161461263b576040517f08c379a000000000000000000000000000000000000000000000000000000000815260040161263290614962565b60405180910390fd5b3373ffffffffffffffffffffffffffffffffffffffff168273ffffffffffffffffffffffffffffffffffffffff16036126a9576040517f08c379a00000000000000000000000000000000000000000000000000000000081526004016126a090614cb6565b60405180910390fd5b6000600760008473ffffffffffffffffffffffffffffffffffffffff1673ffffffffffffffffffffffffffffffffffffffff16815260200190815260200160002080549050905060005b600760008573ffffffffffffffffffffffffffffffffffffffff1673ffffffffffffffffffffffffffffffffffffffff16815260200190815260200160002080549050811015612bfb57600760008573ffffffffffffffffffffffffffffffffffffffff1673ffffffffffffffffffffffffffffffffffffffff168152602001908152602001600020818154811061278e5761278d614772565b5b90600052602060002001548303612be857600760008573ffffffffffffffffffffffffffffffffffffffff1673ffffffffffffffffffffffffffffffffffffffff1681526020019081526020016000208054905060010361285357600760008573ffffffffffffffffffffffffffffffffffffffff1673ffffffffffffffffffffffffffffffffffffffff168152602001908152602001600020805480612838576128376146d7565b5b60019003818190600052602060002001600090559055612980565b600760008573ffffffffffffffffffffffffffffffffffffffff1673ffffffffffffffffffffffffffffffffffffffff16815260200190815260200160002060018361289f9190614cd6565b815481106128b0576128af614772565b5b9060005260206000200154600760008673ffffffffffffffffffffffffffffffffffffffff1673ffffffffffffffffffffffffffffffffffffffff168152602001908152602001600020828154811061290c5761290b614772565b5b9060005260206000200181905550600760008573ffffffffffffffffffffffffffffffffffffffff1673ffffffffffffffffffffffffffffffffffffffff168152602001908152602001600020805480612969576129686146d7565b5b600190038181906000526020600020016000905590555b60006001848154811061299657612995614772565b5b90600052602060002090600a020160060180549050905060005b600185815481106129c4576129c3614772565b5b90600052602060002090600a020160060180549050811015612bdf57600185815481106129f4576129f3614772565b5b90600052602060002090600a02016006018181548110612a1757612a16614772565b5b9060005260206000200160009054906101000a900473ffffffffffffffffffffffffffffffffffffffff1673ffffffffffffffffffffffffffffffffffffffff168673ffffffffffffffffffffffffffffffffffffffff1603612bcc5760018581548110612a8857612a87614772565b5b90600052602060002090600a0201600601600183612aa69190614cd6565b81548110612ab757612ab6614772565b5b9060005260206000200160009054906101000a900473ffffffffffffffffffffffffffffffffffffffff1660018681548110612af657612af5614772565b5b90600052602060002090600a02016006018281548110612b1957612b18614772565b5b9060005260206000200160006101000a81548173ffffffffffffffffffffffffffffffffffffffff021916908373ffffffffffffffffffffffffffffffffffffffff16021790555060018581548110612b7557612b74614772565b5b90600052602060002090600a0201600601805480612b9657612b956146d7565b5b6001900381819060005260206000200160006101000a81549073ffffffffffffffffffffffffffffffffffffffff021916905590555b8080612bd7906147d0565b9150506129b0565b50505050612c3f565b8080612bf3906147d0565b9150506126f3565b506000612c3d576040517f08c379a0000000000000000000000000000000000000000000000000000000008152600401612c3490614d7c565b60405180910390fd5b505b5050565b60003090508073ffffffffffffffffffffffffffffffffffffffff166108fc349081150290604051600060405180830381858888f19350505050158015612c8e573d6000803e3d6000fd5b5050565b80600a60003373ffffffffffffffffffffffffffffffffffffffff1673ffffffffffffffffffffffffffffffffffffffff1681526020019081526020016000209081612cde9190614605565b5050565b42600660008481526020019081526020016000206002015410612d3a576040517f08c379a0000000000000000000000000000000000000000000000000000000008152600401612d3190614de8565b60405180910390fd5b4260066000848152602001908152602001600020600201541115612f25576001600960003373ffffffffffffffffffffffffffffffffffffffff1673ffffffffffffffffffffffffffffffffffffffff168152602001908152602001600020600084815260200190815260200160002060006101000a81548160ff02191690831515021790555060018281548110612dd557612dd4614772565b5b90600052602060002090600a0201600601339080600181540180825580915050600190039060005260206000200160009091909190916101000a81548173ffffffffffffffffffffffffffffffffffffffff021916908373ffffffffffffffffffffffffffffffffffffffff160217905550600760003373ffffffffffffffffffffffffffffffffffffffff1673ffffffffffffffffffffffffffffffffffffffff16815260200190815260200160002082908060018154018082558091505060019003906000526020600020016000909190919091505560004290506006600084815260200190815260200160002060008082016000612ed6919061387e565b6001820160009055600282016000905550507fa7c1773722c3780482de45e0e6cdbb7395909d386fccd19d7b2aac127a796ac3823383604051612f1b93929190614e08565b60405180910390a1505b5050565b60606000600860003373ffffffffffffffffffffffffffffffffffffffff1673ffffffffffffffffffffffffffffffffffffffff1681526020019081526020016000208054905067ffffffffffffffff811115612f8957612f886139ab565b5b604051908082528060200260200182016040528015612fc257816020015b612faf613813565b815260200190600190039081612fa75790505b50905060005b600860003373ffffffffffffffffffffffffffffffffffffffff1673ffffffffffffffffffffffffffffffffffffffff16815260200190815260200160002080549050811015613431576001600860003373ffffffffffffffffffffffffffffffffffffffff1673ffffffffffffffffffffffffffffffffffffffff168152602001908152602001600020828154811061306557613064614772565b5b90600052602060002001548154811061308157613080614772565b5b90600052602060002090600a020160405180610140016040529081600082015481526020016001820180546130b590614428565b80601f01602080910402602001604051908101604052809291908181526020018280546130e190614428565b801561312e5780601f106131035761010080835404028352916020019161312e565b820191906000526020600020905b81548152906001019060200180831161311157829003601f168201915b5050505050815260200160028201805461314790614428565b80601f016020809104026020016040519081016040528092919081815260200182805461317390614428565b80156131c05780601f10613195576101008083540402835291602001916131c0565b820191906000526020600020905b8154815290600101906020018083116131a357829003601f168201915b505050505081526020016003820160009054906101000a900460ff161515151581526020016004820180546131f490614428565b80601f016020809104026020016040519081016040528092919081815260200182805461322090614428565b801561326d5780601f106132425761010080835404028352916020019161326d565b820191906000526020600020905b81548152906001019060200180831161325057829003601f168201915b505050505081526020016005820160009054906101000a900473ffffffffffffffffffffffffffffffffffffffff1673ffffffffffffffffffffffffffffffffffffffff1673ffffffffffffffffffffffffffffffffffffffff1681526020016006820180548060200260200160405190810160405280929190818152602001828054801561335157602002820191906000526020600020905b8160009054906101000a900473ffffffffffffffffffffffffffffffffffffffff1673ffffffffffffffffffffffffffffffffffffffff1681526020019060010190808311613307575b50505050508152602001600782015481526020016008820154815260200160098201805461337e90614428565b80601f01602080910402602001604051908101604052809291908181526020018280546133aa90614428565b80156133f75780601f106133cc576101008083540402835291602001916133f7565b820191906000526020600020905b8154815290600101906020018083116133da57829003601f168201915b50505050508152505082828151811061341357613412614772565b5b60200260200101819052508080613429906147d0565b915050612fc8565b508091505090565b6001805490508310613480576040517f08c379a0000000000000000000000000000000000000000000000000000000008152600401613477906148f6565b60405180910390fd5b3373ffffffffffffffffffffffffffffffffffffffff16600184815481106134ab576134aa614772565b5b90600052602060002090600a020160050160009054906101000a900473ffffffffffffffffffffffffffffffffffffffff1673ffffffffffffffffffffffffffffffffffffffff1614613533576040517f08c379a000000000000000000000000000000000000000000000000000000000815260040161352a90614962565b60405180910390fd5b60006001848154811061354957613548614772565b5b90600052602060002090600a0201600801541461359b576040517f08c379a000000000000000000000000000000000000000000000000000000000815260040161359290614eb8565b60405180910390fd5b6001600960003373ffffffffffffffffffffffffffffffffffffffff1673ffffffffffffffffffffffffffffffffffffffff168152602001908152602001600020600085815260200190815260200160002060006101000a81548160ff0219169083151502179055506000839080600181540180825580915050600190039060005260206000200160009091909190915055816001848154811061364257613641614772565b5b90600052602060002090600a0201600901908161365f9190614605565b50806001848154811061367557613674614772565b5b90600052602060002090600a020160080181905550505050565b606060018054905082106136d8576040517f08c379a00000000000000000000000000000000000000000000000000000000081526004016136cf906148f6565b60405180910390fd5b600182815481106136ec576136eb614772565b5b90600052602060002090600a020160060180548060200260200160405190810160405280929190818152602001828054801561377d57602002820191906000526020600020905b8160009054906101000a900473ffffffffffffffffffffffffffffffffffffffff1673ffffffffffffffffffffffffffffffffffffffff1681526020019060010190808311613733575b50505050509050919050565b828054828255906000526020600020908101928215613802579160200282015b828111156138015782518260006101000a81548173ffffffffffffffffffffffffffffffffffffffff021916908373ffffffffffffffffffffffffffffffffffffffff160217905550916020019190600101906137a9565b5b50905061380f91906138be565b5090565b60405180610140016040528060008152602001606081526020016060815260200160001515815260200160608152602001600073ffffffffffffffffffffffffffffffffffffffff168152602001606081526020016000815260200160008152602001606081525090565b50805461388a90614428565b6000825580601f1061389c57506138bb565b601f0160209004906000526020600020908101906138ba91906138be565b5b50565b5b808211156138d75760008160009055506001016138bf565b5090565b600081519050919050565b600082825260208201905092915050565b60005b838110156139155780820151818401526020810190506138fa565b60008484015250505050565b6000601f19601f8301169050919050565b600061393d826138db565b61394781856138e6565b93506139578185602086016138f7565b61396081613921565b840191505092915050565b600060208201905081810360008301526139858184613932565b905092915050565b6000604051905090565b600080fd5b600080fd5b600080fd5b600080fd5b7f4e487b7100000000000000000000000000000000000000000000000000000000600052604160045260246000fd5b6139e382613921565b810181811067ffffffffffffffff82111715613a0257613a016139ab565b5b80604052505050565b6000613a1561398d565b9050613a2182826139da565b919050565b600067ffffffffffffffff821115613a4157613a406139ab565b5b613a4a82613921565b9050602081019050919050565b82818337600083830152505050565b6000613a79613a7484613a26565b613a0b565b905082815260208101848484011115613a9557613a946139a6565b5b613aa0848285613a57565b509392505050565b600082601f830112613abd57613abc6139a1565b5b8135613acd848260208601613a66565b91505092915050565b600080600060608486031215613aef57613aee613997565b5b600084013567ffffffffffffffff811115613b0d57613b0c61399c565b5b613b1986828701613aa8565b935050602084013567ffffffffffffffff811115613b3a57613b3961399c565b5b613b4686828701613aa8565b925050604084013567ffffffffffffffff811115613b6757613b6661399c565b5b613b7386828701613aa8565b9150509250925092565b6000819050919050565b613b9081613b7d565b8114613b9b57600080fd5b50565b600081359050613bad81613b87565b92915050565b600060208284031215613bc957613bc8613997565b5b6000613bd784828501613b9e565b91505092915050565b613be981613b7d565b82525050565b600082825260208201905092915050565b6000613c0b826138db565b613c158185613bef565b9350613c258185602086016138f7565b613c2e81613921565b840191505092915050565b60008115159050919050565b613c4e81613c39565b82525050565b600073ffffffffffffffffffffffffffffffffffffffff82169050919050565b6000613c7f82613c54565b9050919050565b613c8f81613c74565b82525050565b600081519050919050565b600082825260208201905092915050565b6000819050602082019050919050565b6000613ccd8383613c86565b60208301905092915050565b6000602082019050919050565b6000613cf182613c95565b613cfb8185613ca0565b9350613d0683613cb1565b8060005b83811015613d37578151613d1e8882613cc1565b9750613d2983613cd9565b925050600181019050613d0a565b5085935050505092915050565b600061014083016000830151613d5d6000860182613be0565b5060208301518482036020860152613d758282613c00565b91505060408301518482036040860152613d8f8282613c00565b9150506060830151613da46060860182613c45565b5060808301518482036080860152613dbc8282613c00565b91505060a0830151613dd160a0860182613c86565b5060c083015184820360c0860152613de98282613ce6565b91505060e0830151613dfe60e0860182613be0565b50610100830151613e13610100860182613be0565b50610120830151848203610120860152613e2d8282613c00565b9150508091505092915050565b60006020820190508181036000830152613e548184613d44565b905092915050565b613e6581613b7d565b82525050565b60006060820190508181036000830152613e858186613932565b9050613e946020830185613e5c565b613ea16040830184613e5c565b949350505050565b613eb281613c74565b8114613ebd57600080fd5b50565b600081359050613ecf81613ea9565b92915050565b60008060408385031215613eec57613eeb613997565b5b6000613efa85828601613ec0565b9250506020613f0b85828601613b9e565b9150509250929050565b613f1e81613c39565b82525050565b613f2d81613c74565b82525050565b600061012082019050613f49600083018c613e5c565b8181036020830152613f5b818b613932565b90508181036040830152613f6f818a613932565b9050613f7e6060830189613f15565b8181036080830152613f908188613932565b9050613f9f60a0830187613f24565b613fac60c0830186613e5c565b613fb960e0830185613e5c565b818103610100830152613fcc8184613932565b90509a9950505050505050505050565b6000602082019050613ff16000830184613e5c565b92915050565b6000806000806080858703121561401157614010613997565b5b600061401f87828801613b9e565b945050602085013567ffffffffffffffff8111156140405761403f61399c565b5b61404c87828801613aa8565b935050604061405d87828801613b9e565b925050606061406e87828801613b9e565b91505092959194509250565b600081519050919050565b600082825260208201905092915050565b6000819050602082019050919050565b6000610140830160008301516140bf6000860182613be0565b50602083015184820360208601526140d78282613c00565b915050604083015184820360408601526140f18282613c00565b91505060608301516141066060860182613c45565b506080830151848203608086015261411e8282613c00565b91505060a083015161413360a0860182613c86565b5060c083015184820360c086015261414b8282613ce6565b91505060e083015161416060e0860182613be0565b50610100830151614175610100860182613be0565b5061012083015184820361012086015261418f8282613c00565b9150508091505092915050565b60006141a883836140a6565b905092915050565b6000602082019050919050565b60006141c88261407a565b6141d28185614085565b9350836020820285016141e485614096565b8060005b858110156142205784840389528151614201858261419c565b945061420c836141b0565b925060208a019950506001810190506141e8565b50829750879550505050505092915050565b6000602082019050818103600083015261424c81846141bd565b905092915050565b60006020828403121561426a57614269613997565b5b600082013567ffffffffffffffff8111156142885761428761399c565b5b61429484828501613aa8565b91505092915050565b600080604083850312156142b4576142b3613997565b5b60006142c285828601613b9e565b925050602083013567ffffffffffffffff8111156142e3576142e261399c565b5b6142ef85828601613aa8565b9150509250929050565b60008060006060848603121561431257614311613997565b5b600061432086828701613b9e565b935050602084013567ffffffffffffffff8111156143415761434061399c565b5b61434d86828701613aa8565b925050604061435e86828701613b9e565b9150509250925092565b600082825260208201905092915050565b600061438482613c95565b61438e8185614368565b935061439983613cb1565b8060005b838110156143ca5781516143b18882613cc1565b97506143bc83613cd9565b92505060018101905061439d565b5085935050505092915050565b600060208201905081810360008301526143f18184614379565b905092915050565b7f4e487b7100000000000000000000000000000000000000000000000000000000600052602260045260246000fd5b6000600282049050600182168061444057607f821691505b602082108103614453576144526143f9565b5b50919050565b60008190508160005260206000209050919050565b60006020601f8301049050919050565b600082821b905092915050565b6000600883026144bb7fffffffffffffffffffffffffffffffffffffffffffffffffffffffffffffffff8261447e565b6144c5868361447e565b95508019841693508086168417925050509392505050565b6000819050919050565b60006145026144fd6144f884613b7d565b6144dd565b613b7d565b9050919050565b6000819050919050565b61451c836144e7565b61453061452882614509565b84845461448b565b825550505050565b600090565b614545614538565b614550818484614513565b505050565b5b818110156145745761456960008261453d565b600181019050614556565b5050565b601f8211156145b95761458a81614459565b6145938461446e565b810160208510156145a2578190505b6145b66145ae8561446e565b830182614555565b50505b505050565b600082821c905092915050565b60006145dc600019846008026145be565b1980831691505092915050565b60006145f583836145cb565b9150826002028217905092915050565b61460e826138db565b67ffffffffffffffff811115614627576146266139ab565b5b6146318254614428565b61463c828285614578565b600060209050601f83116001811461466f576000841561465d578287015190505b61466785826145e9565b8655506146cf565b601f19841661467d86614459565b60005b828110156146a557848901518255600182019150602085019450602081019050614680565b868310156146c257848901516146be601f8916826145cb565b8355505b6001600288020188555050505b505050505050565b7f4e487b7100000000000000000000000000000000000000000000000000000000600052603160045260246000fd5b7f676976656e2066696c65206964206973206e6f74206578697374730000000000600082015250565b600061473c601b836138e6565b915061474782614706565b602082019050919050565b6000602082019050818103600083015261476b8161472f565b9050919050565b7f4e487b7100000000000000000000000000000000000000000000000000000000600052603260045260246000fd5b7f4e487b7100000000000000000000000000000000000000000000000000000000600052601160045260246000fd5b60006147db82613b7d565b91507fffffffffffffffffffffffffffffffffffffffffffffffffffffffffffffffff820361480d5761480c6147a1565b5b600182019050919050565b7f796f7520646f6e277420686176652061636365737320746f207468697320666960008201527f6c65000000000000000000000000000000000000000000000000000000000000602082015250565b60006148746022836138e6565b915061487f82614818565b604082019050919050565b600060208201905081810360008301526148a381614867565b9050919050565b7f676976652066696c6520696420697320696e76616c6964000000000000000000600082015250565b60006148e06017836138e6565b91506148eb826148aa565b602082019050919050565b6000602082019050818103600083015261490f816148d3565b9050919050565b7f796f7520617265206e6f74206f776e6572206f6620746869732066696c650000600082015250565b600061494c601e836138e6565b915061495782614916565b602082019050919050565b6000602082019050818103600083015261497b8161493f565b9050919050565b7f6173206f776e6572206f6620746869732066696c6520796f7520616c7265616460008201527f2068617665206120616363657373000000000000000000000000000000000000602082015250565b60006149de602e836138e6565b91506149e982614982565b604082019050919050565b60006020820190508181036000830152614a0d816149d1565b9050919050565b7f74686973206164647265737320616c726561647920686176652061206163636560008201527f737320746f20746869732066696c650000000000000000000000000000000000602082015250565b6000614a70602f836138e6565b9150614a7b82614a14565b604082019050919050565b60006020820190508181036000830152614a9f81614a63565b9050919050565b6000614ab182613b7d565b9150614abc83613b7d565b9250828201905080821115614ad457614ad36147a1565b5b92915050565b7f796f7520616c726561647920626f7567687420746869732066696c6500000000600082015250565b6000614b10601c836138e6565b9150614b1b82614ada565b602082019050919050565b60006020820190508181036000830152614b3f81614b03565b9050919050565b7f496e73756666696369656e742062616c616e6365000000000000000000000000600082015250565b6000614b7c6014836138e6565b9150614b8782614b46565b602082019050919050565b60006020820190508181036000830152614bab81614b6f565b9050919050565b7f6e6f207265636f72647300000000000000000000000000000000000000000000600082015250565b6000614be8600a836138e6565b9150614bf382614bb2565b602082019050919050565b60006020820190508181036000830152614c1781614bdb565b9050919050565b7f6173206f776e6572206f66207468652066696c6520616e6420796f752063616e60008201527f27742072656d6f766520796f75722073656c662066726f6d206163636573732060208201527f746f20746869732066696c650000000000000000000000000000000000000000604082015250565b6000614ca0604c836138e6565b9150614cab82614c1e565b606082019050919050565b60006020820190508181036000830152614ccf81614c93565b9050919050565b6000614ce182613b7d565b9150614cec83613b7d565b9250828203905081811115614d0457614d036147a1565b5b92915050565b7f796f7520646f65736e277420676976652061636365737320746f20746869732060008201527f6164647265737320617420616c6c212100000000000000000000000000000000602082015250565b6000614d666030836138e6565b9150614d7182614d0a565b604082019050919050565b60006020820190508181036000830152614d9581614d59565b9050919050565b7f436f75706f6e20636f6465206861732065787069726564000000000000000000600082015250565b6000614dd26017836138e6565b9150614ddd82614d9c565b602082019050919050565b60006020820190508181036000830152614e0181614dc5565b9050919050565b60006060820190508181036000830152614e228186613932565b9050614e316020830185613f24565b614e3e6040830184613e5c565b949350505050565b7f796f752061726520616c726561647920616464656420746869732066696c652060008201527f746f2073656c6c00000000000000000000000000000000000000000000000000602082015250565b6000614ea26027836138e6565b9150614ead82614e46565b604082019050919050565b60006020820190508181036000830152614ed181614e95565b905091905056fea26469706673582212202e9c70c5519073ffa0bbaceb3b356f1290ac83d7bede3c77513410522e45c7a164736f6c63430008130033",
  "linkReferences": {},
  "deployedLinkReferences": {}
}