{
  "_format": "hh-sol-artifact-1",
  "contractName": "syncdata",
  "sourceName": "contracts/meddata.sol",
  "abi": [
    {
      "inputs": [],
      "stateMutability": "payable",
      "type": "constructor"
    },
    {
      "anonymous": false,
      "inputs": [
        {
          "indexed": false,
          "internalType": "string",
          "name": "code",
          "type": "string"
        },
        {
          "indexed": false,
          "internalType": "uint256",
          "name": "value",
          "type": "uint256"
        },
        {
          "indexed": false,
          "internalType": "uint256",
          "name": "expiryTime",
          "type": "uint256"
        }
      ],
      "name": "CouponGenerated",
      "type": "event"
    },
    {
      "anonymous": false,
      "inputs": [
        {
          "indexed": false,
          "internalType": "string",
          "name": "code",
          "type": "string"
        },
        {
          "indexed": false,
          "internalType": "address",
          "name": "user",
          "type": "address"
        },
        {
          "indexed": false,
          "internalType": "uint256",
          "name": "redeemedTime",
          "type": "uint256"
        }
      ],
      "name": "CouponRedeemed",
      "type": "event"
    },
    {
      "inputs": [
        {
          "internalType": "string",
          "name": "_title",
          "type": "string"
        },
        {
          "internalType": "string",
          "name": "_description",
          "type": "string"
        },
        {
          "internalType": "string",
          "name": "_imageURL",
          "type": "string"
        }
      ],
      "name": "NewRrecord",
      "outputs": [],
      "stateMutability": "payable",
      "type": "function"
    },
    {
      "inputs": [],
      "name": "addToContractBalance",
      "outputs": [],
      "stateMutability": "payable",
      "type": "function"
    },
    {
      "inputs": [
        {
          "internalType": "uint256",
          "name": "id",
          "type": "uint256"
        }
      ],
      "name": "buyFileId",
      "outputs": [],
      "stateMutability": "payable",
      "type": "function"
    },
    {
      "inputs": [
        {
          "internalType": "uint256",
          "name": "",
          "type": "uint256"
        }
      ],
      "name": "coupons",
      "outputs": [
        {
          "internalType": "string",
          "name": "code",
          "type": "string"
        },
        {
          "internalType": "uint256",
          "name": "value",
          "type": "uint256"
        },
        {
          "internalType": "uint256",
          "name": "expiryTime",
          "type": "uint256"
        }
      ],
      "stateMutability": "view",
      "type": "function"
    },
    {
      "inputs": [
        {
          "internalType": "uint256",
          "name": "id",
          "type": "uint256"
        },
        {
          "internalType": "string",
          "name": "code",
          "type": "string"
        },
        {
          "internalType": "uint256",
          "name": "value",
          "type": "uint256"
        },
        {
          "internalType": "uint256",
          "name": "expiryTime",
          "type": "uint256"
        }
      ],
      "name": "generateCoupon",
      "outputs": [
        {
          "internalType": "string",
          "name": "",
          "type": "string"
        }
      ],
      "stateMutability": "nonpayable",
      "type": "function"
    },
    {
      "inputs": [
        {
          "internalType": "uint256",
          "name": "id",
          "type": "uint256"
        }
      ],
      "name": "getAccessList",
      "outputs": [
        {
          "internalType": "address[]",
          "name": "",
          "type": "address[]"
        }
      ],
      "stateMutability": "view",
      "type": "function"
    },
    {
      "inputs": [],
      "name": "getAllRecords",
      "outputs": [
        {
          "components": [
            {
              "internalType": "uint256",
              "name": "id",
              "type": "uint256"
            },
            {
              "internalType": "string",
              "name": "title",
              "type": "string"
            },
            {
              "internalType": "string",
              "name": "description",
              "type": "string"
            },
            {
              "internalType": "bool",
              "name": "islisted",
              "type": "bool"
            },
            {
              "internalType": "string",
              "name": "imageURL",
              "type": "string"
            },
            {
              "internalType": "address",
              "name": "owner",
              "type": "address"
            },
            {
              "internalType": "address[]",
              "name": "accessibleBy",
              "type": "address[]"
            },
            {
              "internalType": "uint256",
              "name": "timestamp",
              "type": "uint256"
            },
            {
              "internalType": "uint256",
              "name": "price",
              "type": "uint256"
            },
            {
              "internalType": "string",
              "name": "preview",
              "type": "string"
            }
          ],
          "internalType": "struct syncdata.Record[]",
          "name": "",
          "type": "tuple[]"
        }
      ],
      "stateMutability": "view",
      "type": "function"
    },
    {
      "inputs": [
        {
          "internalType": "uint256",
          "name": "_id",
          "type": "uint256"
        }
      ],
      "name": "getOneRecord",
      "outputs": [
        {
          "components": [
            {
              "internalType": "uint256",
              "name": "id",
              "type": "uint256"
            },
            {
              "internalType": "string",
              "name": "title",
              "type": "string"
            },
            {
              "internalType": "string",
              "name": "description",
              "type": "string"
            },
            {
              "internalType": "bool",
              "name": "islisted",
              "type": "bool"
            },
            {
              "internalType": "string",
              "name": "imageURL",
              "type": "string"
            },
            {
              "internalType": "address",
              "name": "owner",
              "type": "address"
            },
            {
              "internalType": "address[]",
              "name": "accessibleBy",
              "type": "address[]"
            },
            {
              "internalType": "uint256",
              "name": "timestamp",
              "type": "uint256"
            },
            {
              "internalType": "uint256",
              "name": "price",
              "type": "uint256"
            },
            {
              "internalType": "string",
              "name": "preview",
              "type": "string"
            }
          ],
          "internalType": "struct syncdata.Record",
          "name": "",
          "type": "tuple"
        }
      ],
      "stateMutability": "view",
      "type": "function"
    },
    {
      "inputs": [],
      "name": "getOwnersRecords",
      "outputs": [
        {
          "components": [
            {
              "internalType": "uint256",
              "name": "id",
              "type": "uint256"
            },
            {
              "internalType": "string",
              "name": "title",
              "type": "string"
            },
            {
              "internalType": "string",
              "name": "description",
              "type": "string"
            },
            {
              "internalType": "bool",
              "name": "islisted",
              "type": "bool"
            },
            {
              "internalType": "string",
              "name": "imageURL",
              "type": "string"
            },
            {
              "internalType": "address",
              "name": "owner",
              "type": "address"
            },
            {
              "internalType": "address[]",
              "name": "accessibleBy",
              "type": "address[]"
            },
            {
              "internalType": "uint256",
              "name": "timestamp",
              "type": "uint256"
            },
            {
              "internalType": "uint256",
              "name": "price",
              "type": "uint256"
            },
            {
              "internalType": "string",
              "name": "preview",
              "type": "string"
            }
          ],
          "internalType": "struct syncdata.Record[]",
          "name": "",
          "type": "tuple[]"
        }
      ],
      "stateMutability": "view",
      "type": "function"
    },
    {
      "inputs": [],
      "name": "getSellingRecord",
      "outputs": [
        {
          "components": [
            {
              "internalType": "uint256",
              "name": "id",
              "type": "uint256"
            },
            {
              "internalType": "string",
              "name": "title",
              "type": "string"
            },
            {
              "internalType": "string",
              "name": "description",
              "type": "string"
            },
            {
              "internalType": "bool",
              "name": "islisted",
              "type": "bool"
            },
            {
              "internalType": "string",
              "name": "imageURL",
              "type": "string"
            },
            {
              "internalType": "address",
              "name": "owner",
              "type": "address"
            },
            {
              "internalType": "address[]",
              "name": "accessibleBy",
              "type": "address[]"
            },
            {
              "internalType": "uint256",
              "name": "timestamp",
              "type": "uint256"
            },
            {
              "internalType": "uint256",
              "name": "price",
              "type": "uint256"
            },
            {
              "internalType": "string",
              "name": "preview",
              "type": "string"
            }
          ],
          "internalType": "struct syncdata.Record[]",
          "name": "",
          "type": "tuple[]"
        }
      ],
      "stateMutability": "view",
      "type": "function"
    },
    {
      "inputs": [],
      "name": "getUserName",
      "outputs": [
        {
          "internalType": "string",
          "name": "",
          "type": "string"
        }
      ],
      "stateMutability": "view",
      "type": "function"
    },
    {
      "inputs": [],
      "name": "giveContractBalance",
      "outputs": [
        {
          "internalType": "uint256",
          "name": "",
          "type": "uint256"
        }
      ],
      "stateMutability": "view",
      "type": "function"
    },
    {
      "inputs": [
        {
          "internalType": "address",
          "name": "_newOwner",
          "type": "address"
        },
        {
          "internalType": "uint256",
          "name": "id",
          "type": "uint256"
        }
      ],
      "name": "newOwner",
      "outputs": [],
      "stateMutability": "nonpayable",
      "type": "function"
    },
    {
      "inputs": [
        {
          "internalType": "uint256",
          "name": "",
          "type": "uint256"
        }
      ],
      "name": "records",
      "outputs": [
        {
          "internalType": "uint256",
          "name": "id",
          "type": "uint256"
        },
        {
          "internalType": "string",
          "name": "title",
          "type": "string"
        },
        {
          "internalType": "string",
          "name": "description",
          "type": "string"
        },
        {
          "internalType": "bool",
          "name": "islisted",
          "type": "bool"
        },
        {
          "internalType": "string",
          "name": "imageURL",
          "type": "string"
        },
        {
          "internalType": "address",
          "name": "owner",
          "type": "address"
        },
        {
          "internalType": "uint256",
          "name": "timestamp",
          "type": "uint256"
        },
        {
          "internalType": "uint256",
          "name": "price",
          "type": "uint256"
        },
        {
          "internalType": "string",
          "name": "preview",
          "type": "string"
        }
      ],
      "stateMutability": "view",
      "type": "function"
    },
    {
      "inputs": [
        {
          "internalType": "uint256",
          "name": "id",
          "type": "uint256"
        },
        {
          "internalType": "string",
          "name": "code",
          "type": "string"
        }
      ],
      "name": "redeemCoupon",
      "outputs": [],
      "stateMutability": "nonpayable",
      "type": "function"
    },
    {
      "inputs": [
        {
          "internalType": "address",
          "name": "_removeOwner",
          "type": "address"
        },
        {
          "internalType": "uint256",
          "name": "id",
          "type": "uint256"
        }
      ],
      "name": "removeOwner",
      "outputs": [],
      "stateMutability": "nonpayable",
      "type": "function"
    },
    {
      "inputs": [
        {
          "internalType": "uint256",
          "name": "id",
          "type": "uint256"
        },
        {
          "internalType": "string",
          "name": "preview",
          "type": "string"
        },
        {
          "internalType": "uint256",
          "name": "price",
          "type": "uint256"
        }
      ],
      "name": "sellTheFile",
      "outputs": [],
      "stateMutability": "nonpayable",
      "type": "function"
    },
    {
      "inputs": [
        {
          "internalType": "uint256",
          "name": "",
          "type": "uint256"
        }
      ],
      "name": "sellingFileId",
      "outputs": [
        {
          "internalType": "uint256",
          "name": "",
          "type": "uint256"
        }
      ],
      "stateMutability": "view",
      "type": "function"
    },
    {
      "inputs": [
        {
          "internalType": "string",
          "name": "userName",
          "type": "string"
        }
      ],
      "name": "storeUserName",
      "outputs": [],
      "stateMutability": "nonpayable",
      "type": "function"
    }
  ],
  "bytecode": "0x6080604052600067ffffffffffffffff811115620000225762000021620002be565b5b604051908082528060200260200182016040528015620000515781602001602082028036833780820191505090505b50600290805190602001906200006992919062000142565b50600067ffffffffffffffff811115620000885762000087620002be565b5b604051908082528060200260200182016040528015620000bd57816020015b6060815260200190600190039081620000a75790505b5060039080519060200190620000d5929190620001d1565b50600067ffffffffffffffff811115620000f457620000f3620002be565b5b604051908082528060200260200182016040528015620001235781602001602082028036833780820191505090505b50600490805190602001906200013b92919062000142565b506200061f565b828054828255906000526020600020908101928215620001be579160200282015b82811115620001bd5782518260006101000a81548173ffffffffffffffffffffffffffffffffffffffff021916908373ffffffffffffffffffffffffffffffffffffffff1602179055509160200191906001019062000163565b5b509050620001cd919062000231565b5090565b8280548282559060005260206000209081019282156200021e579160200282015b828111156200021d5782518290816200020c919062000538565b5091602001919060010190620001f2565b5b5090506200022d919062000250565b5090565b5b808211156200024c57600081600090555060010162000232565b5090565b5b808211156200027457600081816200026a919062000278565b5060010162000251565b5090565b508054620002869062000327565b6000825580601f106200029a5750620002bb565b601f016020900490600052602060002090810190620002ba919062000231565b5b50565b7f4e487b7100000000000000000000000000000000000000000000000000000000600052604160045260246000fd5b600081519050919050565b7f4e487b7100000000000000000000000000000000000000000000000000000000600052602260045260246000fd5b600060028204905060018216806200034057607f821691505b602082108103620003565762000355620002f8565b5b50919050565b60008190508160005260206000209050919050565b60006020601f8301049050919050565b600082821b905092915050565b600060088302620003c07fffffffffffffffffffffffffffffffffffffffffffffffffffffffffffffffff8262000381565b620003cc868362000381565b95508019841693508086168417925050509392505050565b6000819050919050565b6000819050919050565b600062000419620004136200040d84620003e4565b620003ee565b620003e4565b9050919050565b6000819050919050565b6200043583620003f8565b6200044d620004448262000420565b8484546200038e565b825550505050565b600090565b6200046462000455565b620004718184846200042a565b505050565b5b8181101562000499576200048d6000826200045a565b60018101905062000477565b5050565b601f821115620004e857620004b2816200035c565b620004bd8462000371565b81016020851015620004cd578190505b620004e5620004dc8562000371565b83018262000476565b50505b505050565b600082821c905092915050565b60006200050d60001984600802620004ed565b1980831691505092915050565b6000620005288383620004fa565b9150826002028217905092915050565b6200054382620002ed565b67ffffffffffffffff8111156200055f576200055e620002be565b5b6200056b825462000327565b620005788282856200049d565b600060209050601f831160018114620005b057600084156200059b578287015190505b620005a785826200051a565b86555062000617565b601f198416620005c0866200035c565b60005b82811015620005ea57848901518255600182019150602085019450602081019050620005c3565b868310156200060a578489015162000606601f891682620004fa565b8355505b6001600288020188555050505b505050505050565b614e3c806200062f6000396000f3fe6080604052600436106101145760003560e01c8063773d79dc116100a0578063d3a22a8211610064578063d3a22a8214610394578063e1dc63f0146103bd578063e227cf8a146103e6578063e3e18cc514610411578063f31bb1771461043a57610114565b8063773d79dc146102ef578063878e688e1461031a578063a7f9fe7214610336578063bfd2b3a314610361578063c7fb53eb1461038a57610114565b806332be3640116100e757806332be3640146101dc578063344610671461020557806340ed64031461024a578063653467c4146102755780636f587e3b146102b257610114565b806312958f1c146101195780631cda164f14610144578063298ba2be1461016057806330828e921461019d575b600080fd5b34801561012557600080fd5b5061012e610477565b60405161013b919061392b565b60405180910390f35b61015e60048036038101906101599190613a96565b610546565b005b34801561016c57600080fd5b5061018760048036038101906101829190613b73565b6108f4565b6040516101949190613dfa565b60405180910390f35b3480156101a957600080fd5b506101c460048036038101906101bf9190613b73565b610e45565b6040516101d393929190613e2b565b60405180910390f35b3480156101e857600080fd5b5061020360048036038101906101fe9190613e95565b610ef7565b005b34801561021157600080fd5b5061022c60048036038101906102279190613b73565b611299565b60405161024199989796959493929190613ef3565b60405180910390f35b34801561025657600080fd5b5061025f611544565b60405161026c9190613f9c565b60405180910390f35b34801561028157600080fd5b5061029c60048036038101906102979190613b73565b61154c565b6040516102a99190613f9c565b60405180910390f35b3480156102be57600080fd5b506102d960048036038101906102d49190613fb7565b611570565b6040516102e6919061392b565b60405180910390f35b3480156102fb57600080fd5b50610304611623565b60405161031191906141f2565b60405180910390f35b610334600480360381019061032f9190613b73565b611bc8565b005b34801561034257600080fd5b5061034b611f6c565b60405161035891906141f2565b60405180910390f35b34801561036d57600080fd5b5061038860048036038101906103839190613e95565b612501565b005b610392612c03565b005b3480156103a057600080fd5b506103bb60048036038101906103b69190614214565b612c52565b005b3480156103c957600080fd5b506103e460048036038101906103df919061425d565b612ca2565b005b3480156103f257600080fd5b506103fb612ee9565b60405161040891906141f2565b60405180910390f35b34801561041d57600080fd5b50610438600480360381019061043391906142b9565b6133f9565b005b34801561044657600080fd5b50610461600480360381019061045c9190613b73565b61364f565b60405161046e9190614397565b60405180910390f35b6060600a60003373ffffffffffffffffffffffffffffffffffffffff1673ffffffffffffffffffffffffffffffffffffffff16815260200190815260200160002080546104c3906143e8565b80601f01602080910402602001604051908101604052809291908181526020018280546104ef906143e8565b801561053c5780601f106105115761010080835404028352916020019161053c565b820191906000526020600020905b81548152906001019060200180831161051f57829003601f168201915b5050505050905090565b600760003373ffffffffffffffffffffffffffffffffffffffff1673ffffffffffffffffffffffffffffffffffffffff1681526020019081526020016000206001805490509080600181540180825580915050600190039060005260206000200160009091909190915055600860003373ffffffffffffffffffffffffffffffffffffffff1673ffffffffffffffffffffffffffffffffffffffff1681526020019081526020016000206001805490509080600181540180825580915050600190039060005260206000200160009091909190915055600060018054905090506002339080600181540180825580915050600190039060005260206000200160009091909190916101000a81548173ffffffffffffffffffffffffffffffffffffffff021916908373ffffffffffffffffffffffffffffffffffffffff16021790555060016040518061014001604052808381526020018681526020018581526020016001151581526020018481526020013373ffffffffffffffffffffffffffffffffffffffff168152602001600280548060200260200160405190810160405280929190818152602001828054801561075657602002820191906000526020600020905b8160009054906101000a900473ffffffffffffffffffffffffffffffffffffffff1673ffffffffffffffffffffffffffffffffffffffff168152602001906001019080831161070c575b50505050508152602001428152602001600081526020016040518060200160405280600081525081525090806001815401808255809150506001900390600052602060002090600a02016000909190919091506000820151816000015560208201518160010190816107c891906145c5565b5060408201518160020190816107de91906145c5565b5060608201518160030160006101000a81548160ff021916908315150217905550608082015181600401908161081491906145c5565b5060a08201518160050160006101000a81548173ffffffffffffffffffffffffffffffffffffffff021916908373ffffffffffffffffffffffffffffffffffffffff16021790555060c0820151816006019080519060200190610878929190613749565b5060e0820151816007015561010082015181600801556101208201518160090190816108a491906145c5565b50505060028054806108b9576108b8614697565b5b6001900381819060005260206000200160006101000a81549073ffffffffffffffffffffffffffffffffffffffff0219169055905550505050565b6108fc6137d3565b6001805490508210610943576040517f08c379a000000000000000000000000000000000000000000000000000000000815260040161093a90614712565b60405180910390fd5b60006001838154811061095957610958614732565b5b90600052602060002090600a0201604051806101400160405290816000820154815260200160018201805461098d906143e8565b80601f01602080910402602001604051908101604052809291908181526020018280546109b9906143e8565b8015610a065780601f106109db57610100808354040283529160200191610a06565b820191906000526020600020905b8154815290600101906020018083116109e957829003601f168201915b50505050508152602001600282018054610a1f906143e8565b80601f0160208091040260200160405190810160405280929190818152602001828054610a4b906143e8565b8015610a985780601f10610a6d57610100808354040283529160200191610a98565b820191906000526020600020905b815481529060010190602001808311610a7b57829003601f168201915b505050505081526020016003820160009054906101000a900460ff16151515158152602001600482018054610acc906143e8565b80601f0160208091040260200160405190810160405280929190818152602001828054610af8906143e8565b8015610b455780601f10610b1a57610100808354040283529160200191610b45565b820191906000526020600020905b815481529060010190602001808311610b2857829003601f168201915b505050505081526020016005820160009054906101000a900473ffffffffffffffffffffffffffffffffffffffff1673ffffffffffffffffffffffffffffffffffffffff1673ffffffffffffffffffffffffffffffffffffffff16815260200160068201805480602002602001604051908101604052809291908181526020018280548015610c2957602002820191906000526020600020905b8160009054906101000a900473ffffffffffffffffffffffffffffffffffffffff1673ffffffffffffffffffffffffffffffffffffffff1681526020019060010190808311610bdf575b505050505081526020016007820154815260200160088201548152602001600982018054610c56906143e8565b80601f0160208091040260200160405190810160405280929190818152602001828054610c82906143e8565b8015610ccf5780601f10610ca457610100808354040283529160200191610ccf565b820191906000526020600020905b815481529060010190602001808311610cb257829003601f168201915b50505050508152505090506000805b60018581548110610cf257610cf1614732565b5b90600052602060002090600a020160060180549050811015610dba573373ffffffffffffffffffffffffffffffffffffffff1660018681548110610d3957610d38614732565b5b90600052602060002090600a02016006018281548110610d5c57610d5b614732565b5b9060005260206000200160009054906101000a900473ffffffffffffffffffffffffffffffffffffffff1673ffffffffffffffffffffffffffffffffffffffff1603610da757600191505b8080610db290614790565b915050610cde565b5080151560001515148015610dd55750816101000151600014155b15610e3b57600960003373ffffffffffffffffffffffffffffffffffffffff1673ffffffffffffffffffffffffffffffffffffffff168152602001908152602001600020600085815260200190815260200160002060009054906101000a900460ff1690505b8192505050919050565b6006602052806000526040600020600091509050806000018054610e68906143e8565b80601f0160208091040260200160405190810160405280929190818152602001828054610e94906143e8565b8015610ee15780601f10610eb657610100808354040283529160200191610ee1565b820191906000526020600020905b815481529060010190602001808311610ec457829003601f168201915b5050505050908060010154908060020154905083565b6001805490508110610f3e576040517f08c379a0000000000000000000000000000000000000000000000000000000008152600401610f3590614824565b60405180910390fd5b60018181548110610f5257610f51614732565b5b90600052602060002090600a020160050160009054906101000a900473ffffffffffffffffffffffffffffffffffffffff1673ffffffffffffffffffffffffffffffffffffffff163373ffffffffffffffffffffffffffffffffffffffff1614610ff1576040517f08c379a0000000000000000000000000000000000000000000000000000000008152600401610fe890614890565b60405180910390fd5b6001818154811061100557611004614732565b5b90600052602060002090600a020160050160009054906101000a900473ffffffffffffffffffffffffffffffffffffffff1673ffffffffffffffffffffffffffffffffffffffff168273ffffffffffffffffffffffffffffffffffffffff16036110a4576040517f08c379a000000000000000000000000000000000000000000000000000000000815260040161109b90614922565b60405180910390fd5b60005b600760008473ffffffffffffffffffffffffffffffffffffffff1673ffffffffffffffffffffffffffffffffffffffff168152602001908152602001600020805490508110156111a857600760008473ffffffffffffffffffffffffffffffffffffffff1673ffffffffffffffffffffffffffffffffffffffff168152602001908152602001600020818154811061114257611141614732565b5b90600052602060002001548203611195576000611194576040517f08c379a000000000000000000000000000000000000000000000000000000000815260040161118b906149b4565b60405180910390fd5b5b80806111a090614790565b9150506110a7565b50600760008373ffffffffffffffffffffffffffffffffffffffff1673ffffffffffffffffffffffffffffffffffffffff1681526020019081526020016000208190806001815401808255809150506001900390600052602060002001600090919091909150556001818154811061122357611222614732565b5b90600052602060002090600a0201600601829080600181540180825580915050600190039060005260206000200160009091909190916101000a81548173ffffffffffffffffffffffffffffffffffffffff021916908373ffffffffffffffffffffffffffffffffffffffff1602179055505050565b600181815481106112a957600080fd5b90600052602060002090600a02016000915090508060000154908060010180546112d2906143e8565b80601f01602080910402602001604051908101604052809291908181526020018280546112fe906143e8565b801561134b5780601f106113205761010080835404028352916020019161134b565b820191906000526020600020905b81548152906001019060200180831161132e57829003601f168201915b505050505090806002018054611360906143e8565b80601f016020809104026020016040519081016040528092919081815260200182805461138c906143e8565b80156113d95780601f106113ae576101008083540402835291602001916113d9565b820191906000526020600020905b8154815290600101906020018083116113bc57829003601f168201915b5050505050908060030160009054906101000a900460ff1690806004018054611401906143e8565b80601f016020809104026020016040519081016040528092919081815260200182805461142d906143e8565b801561147a5780601f1061144f5761010080835404028352916020019161147a565b820191906000526020600020905b81548152906001019060200180831161145d57829003601f168201915b5050505050908060050160009054906101000a900473ffffffffffffffffffffffffffffffffffffffff16908060070154908060080154908060090180546114c1906143e8565b80601f01602080910402602001604051908101604052809291908181526020018280546114ed906143e8565b801561153a5780601f1061150f5761010080835404028352916020019161153a565b820191906000526020600020905b81548152906001019060200180831161151d57829003601f168201915b5050505050905089565b600047905090565b6000818154811061155c57600080fd5b906000526020600020016000915090505481565b6060610e104261158091906149d4565b91506040518060600160405280858152602001848152602001838152506006600087815260200190815260200160002060008201518160000190816115c591906145c5565b5060208201518160010155604082015181600201559050507f506c1c7dd360506da713451f9275b3cfa046b07a1318ba73623d3b27d6acff7d84848460405161161093929190613e2b565b60405180910390a1839050949350505050565b60606000805b6000805490508110156116df57600960003373ffffffffffffffffffffffffffffffffffffffff1673ffffffffffffffffffffffffffffffffffffffff168152602001908152602001600020600080838154811061168a57611689614732565b5b9060005260206000200154815260200190815260200160002060009054906101000a900460ff16151560001515036116cc576001826116c991906149d4565b91505b80806116d790614790565b915050611629565b5060008167ffffffffffffffff8111156116fc576116fb61396b565b5b60405190808252806020026020018201604052801561173557816020015b6117226137d3565b81526020019060019003908161171a5790505b5090506000805b600080549050811015611bbe57600960003373ffffffffffffffffffffffffffffffffffffffff1673ffffffffffffffffffffffffffffffffffffffff168152602001908152602001600020600080838154811061179d5761179c614732565b5b9060005260206000200154815260200190815260200160002060009054906101000a900460ff1615156000151503611bab576001600082815481106117e5576117e4614732565b5b90600052602060002001548154811061180157611800614732565b5b90600052602060002090600a02016040518061014001604052908160008201548152602001600182018054611835906143e8565b80601f0160208091040260200160405190810160405280929190818152602001828054611861906143e8565b80156118ae5780601f10611883576101008083540402835291602001916118ae565b820191906000526020600020905b81548152906001019060200180831161189157829003601f168201915b505050505081526020016002820180546118c7906143e8565b80601f01602080910402602001604051908101604052809291908181526020018280546118f3906143e8565b80156119405780601f1061191557610100808354040283529160200191611940565b820191906000526020600020905b81548152906001019060200180831161192357829003601f168201915b505050505081526020016003820160009054906101000a900460ff16151515158152602001600482018054611974906143e8565b80601f01602080910402602001604051908101604052809291908181526020018280546119a0906143e8565b80156119ed5780601f106119c2576101008083540402835291602001916119ed565b820191906000526020600020905b8154815290600101906020018083116119d057829003601f168201915b505050505081526020016005820160009054906101000a900473ffffffffffffffffffffffffffffffffffffffff1673ffffffffffffffffffffffffffffffffffffffff1673ffffffffffffffffffffffffffffffffffffffff16815260200160068201805480602002602001604051908101604052809291908181526020018280548015611ad157602002820191906000526020600020905b8160009054906101000a900473ffffffffffffffffffffffffffffffffffffffff1673ffffffffffffffffffffffffffffffffffffffff1681526020019060010190808311611a87575b505050505081526020016007820154815260200160088201548152602001600982018054611afe906143e8565b80601f0160208091040260200160405190810160405280929190818152602001828054611b2a906143e8565b8015611b775780601f10611b4c57610100808354040283529160200191611b77565b820191906000526020600020905b815481529060010190602001808311611b5a57829003601f168201915b505050505081525050838380611b8c90614790565b945081518110611b9f57611b9e614732565b5b60200260200101819052505b8080611bb690614790565b91505061173c565b5081935050505090565b6001805490508110611c0f576040517f08c379a0000000000000000000000000000000000000000000000000000000008152600401611c0690614824565b60405180910390fd5b60005b600080549050811015611f675760008181548110611c3357611c32614732565b5b90600052602060002001548203611f5457600960003373ffffffffffffffffffffffffffffffffffffffff1673ffffffffffffffffffffffffffffffffffffffff168152602001908152602001600020600083815260200190815260200160002060009054906101000a900460ff1615611ced576000611ce8576040517f08c379a0000000000000000000000000000000000000000000000000000000008152600401611cdf90614a54565b60405180910390fd5b611f53565b60018281548110611d0157611d00614732565b5b90600052602060002090600a0201600801543373ffffffffffffffffffffffffffffffffffffffff16311015611d6c576040517f08c379a0000000000000000000000000000000000000000000000000000000008152600401611d6390614ac0565b60405180910390fd5b60018281548110611d8057611d7f614732565b5b90600052602060002090600a020160050160009054906101000a900473ffffffffffffffffffffffffffffffffffffffff1673ffffffffffffffffffffffffffffffffffffffff166108fc349081150290604051600060405180830381858888f19350505050158015611df7573d6000803e3d6000fd5b506001600960003373ffffffffffffffffffffffffffffffffffffffff1673ffffffffffffffffffffffffffffffffffffffff168152602001908152602001600020600084815260200190815260200160002060006101000a81548160ff02191690831515021790555060018281548110611e7557611e74614732565b5b90600052602060002090600a0201600601339080600181540180825580915050600190039060005260206000200160009091909190916101000a81548173ffffffffffffffffffffffffffffffffffffffff021916908373ffffffffffffffffffffffffffffffffffffffff160217905550600760003373ffffffffffffffffffffffffffffffffffffffff1673ffffffffffffffffffffffffffffffffffffffff16815260200190815260200160002082908060018154018082558091505060019003906000526020600020016000909190919091505550611f69565b5b8080611f5f90614790565b915050611c12565b505b50565b60606000600760003373ffffffffffffffffffffffffffffffffffffffff1673ffffffffffffffffffffffffffffffffffffffff1681526020019081526020016000208054905011611ff3576040517f08c379a0000000000000000000000000000000000000000000000000000000008152600401611fea90614b2c565b60405180910390fd5b6000600760003373ffffffffffffffffffffffffffffffffffffffff1673ffffffffffffffffffffffffffffffffffffffff1681526020019081526020016000208054905067ffffffffffffffff8111156120515761205061396b565b5b60405190808252806020026020018201604052801561208a57816020015b6120776137d3565b81526020019060019003908161206f5790505b50905060005b600760003373ffffffffffffffffffffffffffffffffffffffff1673ffffffffffffffffffffffffffffffffffffffff168152602001908152602001600020805490508110156124f9576001600760003373ffffffffffffffffffffffffffffffffffffffff1673ffffffffffffffffffffffffffffffffffffffff168152602001908152602001600020828154811061212d5761212c614732565b5b90600052602060002001548154811061214957612148614732565b5b90600052602060002090600a0201604051806101400160405290816000820154815260200160018201805461217d906143e8565b80601f01602080910402602001604051908101604052809291908181526020018280546121a9906143e8565b80156121f65780601f106121cb576101008083540402835291602001916121f6565b820191906000526020600020905b8154815290600101906020018083116121d957829003601f168201915b5050505050815260200160028201805461220f906143e8565b80601f016020809104026020016040519081016040528092919081815260200182805461223b906143e8565b80156122885780601f1061225d57610100808354040283529160200191612288565b820191906000526020600020905b81548152906001019060200180831161226b57829003601f168201915b505050505081526020016003820160009054906101000a900460ff161515151581526020016004820180546122bc906143e8565b80601f01602080910402602001604051908101604052809291908181526020018280546122e8906143e8565b80156123355780601f1061230a57610100808354040283529160200191612335565b820191906000526020600020905b81548152906001019060200180831161231857829003601f168201915b505050505081526020016005820160009054906101000a900473ffffffffffffffffffffffffffffffffffffffff1673ffffffffffffffffffffffffffffffffffffffff1673ffffffffffffffffffffffffffffffffffffffff1681526020016006820180548060200260200160405190810160405280929190818152602001828054801561241957602002820191906000526020600020905b8160009054906101000a900473ffffffffffffffffffffffffffffffffffffffff1673ffffffffffffffffffffffffffffffffffffffff16815260200190600101908083116123cf575b505050505081526020016007820154815260200160088201548152602001600982018054612446906143e8565b80601f0160208091040260200160405190810160405280929190818152602001828054612472906143e8565b80156124bf5780601f10612494576101008083540402835291602001916124bf565b820191906000526020600020905b8154815290600101906020018083116124a257829003601f168201915b5050505050815250508282815181106124db576124da614732565b5b602002602001018190525080806124f190614790565b915050612090565b508091505090565b6001805490508110612548576040517f08c379a000000000000000000000000000000000000000000000000000000000815260040161253f90614824565b60405180910390fd5b6001818154811061255c5761255b614732565b5b90600052602060002090600a020160050160009054906101000a900473ffffffffffffffffffffffffffffffffffffffff1673ffffffffffffffffffffffffffffffffffffffff163373ffffffffffffffffffffffffffffffffffffffff16146125fb576040517f08c379a00000000000000000000000000000000000000000000000000000000081526004016125f290614890565b60405180910390fd5b3373ffffffffffffffffffffffffffffffffffffffff168273ffffffffffffffffffffffffffffffffffffffff1603612669576040517f08c379a000000000000000000000000000000000000000000000000000000000815260040161266090614be4565b60405180910390fd5b6000600760008473ffffffffffffffffffffffffffffffffffffffff1673ffffffffffffffffffffffffffffffffffffffff16815260200190815260200160002080549050905060005b600760008573ffffffffffffffffffffffffffffffffffffffff1673ffffffffffffffffffffffffffffffffffffffff16815260200190815260200160002080549050811015612bbb57600760008573ffffffffffffffffffffffffffffffffffffffff1673ffffffffffffffffffffffffffffffffffffffff168152602001908152602001600020818154811061274e5761274d614732565b5b90600052602060002001548303612ba857600760008573ffffffffffffffffffffffffffffffffffffffff1673ffffffffffffffffffffffffffffffffffffffff1681526020019081526020016000208054905060010361281357600760008573ffffffffffffffffffffffffffffffffffffffff1673ffffffffffffffffffffffffffffffffffffffff1681526020019081526020016000208054806127f8576127f7614697565b5b60019003818190600052602060002001600090559055612940565b600760008573ffffffffffffffffffffffffffffffffffffffff1673ffffffffffffffffffffffffffffffffffffffff16815260200190815260200160002060018361285f9190614c04565b815481106128705761286f614732565b5b9060005260206000200154600760008673ffffffffffffffffffffffffffffffffffffffff1673ffffffffffffffffffffffffffffffffffffffff16815260200190815260200160002082815481106128cc576128cb614732565b5b9060005260206000200181905550600760008573ffffffffffffffffffffffffffffffffffffffff1673ffffffffffffffffffffffffffffffffffffffff16815260200190815260200160002080548061292957612928614697565b5b600190038181906000526020600020016000905590555b60006001848154811061295657612955614732565b5b90600052602060002090600a020160060180549050905060005b6001858154811061298457612983614732565b5b90600052602060002090600a020160060180549050811015612b9f57600185815481106129b4576129b3614732565b5b90600052602060002090600a020160060181815481106129d7576129d6614732565b5b9060005260206000200160009054906101000a900473ffffffffffffffffffffffffffffffffffffffff1673ffffffffffffffffffffffffffffffffffffffff168673ffffffffffffffffffffffffffffffffffffffff1603612b8c5760018581548110612a4857612a47614732565b5b90600052602060002090600a0201600601600183612a669190614c04565b81548110612a7757612a76614732565b5b9060005260206000200160009054906101000a900473ffffffffffffffffffffffffffffffffffffffff1660018681548110612ab657612ab5614732565b5b90600052602060002090600a02016006018281548110612ad957612ad8614732565b5b9060005260206000200160006101000a81548173ffffffffffffffffffffffffffffffffffffffff021916908373ffffffffffffffffffffffffffffffffffffffff16021790555060018581548110612b3557612b34614732565b5b90600052602060002090600a0201600601805480612b5657612b55614697565b5b6001900381819060005260206000200160006101000a81549073ffffffffffffffffffffffffffffffffffffffff021916905590555b8080612b9790614790565b915050612970565b50505050612bff565b8080612bb390614790565b9150506126b3565b506000612bfd576040517f08c379a0000000000000000000000000000000000000000000000000000000008152600401612bf490614caa565b60405180910390fd5b505b5050565b60003090508073ffffffffffffffffffffffffffffffffffffffff166108fc349081150290604051600060405180830381858888f19350505050158015612c4e573d6000803e3d6000fd5b5050565b80600a60003373ffffffffffffffffffffffffffffffffffffffff1673ffffffffffffffffffffffffffffffffffffffff1681526020019081526020016000209081612c9e91906145c5565b5050565b42600660008481526020019081526020016000206002015410612cfa576040517f08c379a0000000000000000000000000000000000000000000000000000000008152600401612cf190614d16565b60405180910390fd5b4260066000848152602001908152602001600020600201541115612ee5576001600960003373ffffffffffffffffffffffffffffffffffffffff1673ffffffffffffffffffffffffffffffffffffffff168152602001908152602001600020600084815260200190815260200160002060006101000a81548160ff02191690831515021790555060018281548110612d9557612d94614732565b5b90600052602060002090600a0201600601339080600181540180825580915050600190039060005260206000200160009091909190916101000a81548173ffffffffffffffffffffffffffffffffffffffff021916908373ffffffffffffffffffffffffffffffffffffffff160217905550600760003373ffffffffffffffffffffffffffffffffffffffff1673ffffffffffffffffffffffffffffffffffffffff16815260200190815260200160002082908060018154018082558091505060019003906000526020600020016000909190919091505560004290506006600084815260200190815260200160002060008082016000612e96919061383e565b6001820160009055600282016000905550507fa7c1773722c3780482de45e0e6cdbb7395909d386fccd19d7b2aac127a796ac3823383604051612edb93929190614d36565b60405180910390a1505b5050565b60606000600860003373ffffffffffffffffffffffffffffffffffffffff1673ffffffffffffffffffffffffffffffffffffffff1681526020019081526020016000208054905067ffffffffffffffff811115612f4957612f4861396b565b5b604051908082528060200260200182016040528015612f8257816020015b612f6f6137d3565b815260200190600190039081612f675790505b50905060005b600860003373ffffffffffffffffffffffffffffffffffffffff1673ffffffffffffffffffffffffffffffffffffffff168152602001908152602001600020805490508110156133f1576001600860003373ffffffffffffffffffffffffffffffffffffffff1673ffffffffffffffffffffffffffffffffffffffff168152602001908152602001600020828154811061302557613024614732565b5b90600052602060002001548154811061304157613040614732565b5b90600052602060002090600a02016040518061014001604052908160008201548152602001600182018054613075906143e8565b80601f01602080910402602001604051908101604052809291908181526020018280546130a1906143e8565b80156130ee5780601f106130c3576101008083540402835291602001916130ee565b820191906000526020600020905b8154815290600101906020018083116130d157829003601f168201915b50505050508152602001600282018054613107906143e8565b80601f0160208091040260200160405190810160405280929190818152602001828054613133906143e8565b80156131805780601f1061315557610100808354040283529160200191613180565b820191906000526020600020905b81548152906001019060200180831161316357829003601f168201915b505050505081526020016003820160009054906101000a900460ff161515151581526020016004820180546131b4906143e8565b80601f01602080910402602001604051908101604052809291908181526020018280546131e0906143e8565b801561322d5780601f106132025761010080835404028352916020019161322d565b820191906000526020600020905b81548152906001019060200180831161321057829003601f168201915b505050505081526020016005820160009054906101000a900473ffffffffffffffffffffffffffffffffffffffff1673ffffffffffffffffffffffffffffffffffffffff1673ffffffffffffffffffffffffffffffffffffffff1681526020016006820180548060200260200160405190810160405280929190818152602001828054801561331157602002820191906000526020600020905b8160009054906101000a900473ffffffffffffffffffffffffffffffffffffffff1673ffffffffffffffffffffffffffffffffffffffff16815260200190600101908083116132c7575b50505050508152602001600782015481526020016008820154815260200160098201805461333e906143e8565b80601f016020809104026020016040519081016040528092919081815260200182805461336a906143e8565b80156133b75780601f1061338c576101008083540402835291602001916133b7565b820191906000526020600020905b81548152906001019060200180831161339a57829003601f168201915b5050505050815250508282815181106133d3576133d2614732565b5b602002602001018190525080806133e990614790565b915050612f88565b508091505090565b6001805490508310613440576040517f08c379a000000000000000000000000000000000000000000000000000000000815260040161343790614824565b60405180910390fd5b3373ffffffffffffffffffffffffffffffffffffffff166001848154811061346b5761346a614732565b5b90600052602060002090600a020160050160009054906101000a900473ffffffffffffffffffffffffffffffffffffffff1673ffffffffffffffffffffffffffffffffffffffff16146134f3576040517f08c379a00000000000000000000000000000000000000000000000000000000081526004016134ea90614890565b60405180910390fd5b60006001848154811061350957613508614732565b5b90600052602060002090600a0201600801541461355b576040517f08c379a000000000000000000000000000000000000000000000000000000000815260040161355290614de6565b60405180910390fd5b6001600960003373ffffffffffffffffffffffffffffffffffffffff1673ffffffffffffffffffffffffffffffffffffffff168152602001908152602001600020600085815260200190815260200160002060006101000a81548160ff0219169083151502179055506000839080600181540180825580915050600190039060005260206000200160009091909190915055816001848154811061360257613601614732565b5b90600052602060002090600a0201600901908161361f91906145c5565b50806001848154811061363557613634614732565b5b90600052602060002090600a020160080181905550505050565b60606001805490508210613698576040517f08c379a000000000000000000000000000000000000000000000000000000000815260040161368f90614824565b60405180910390fd5b600182815481106136ac576136ab614732565b5b90600052602060002090600a020160060180548060200260200160405190810160405280929190818152602001828054801561373d57602002820191906000526020600020905b8160009054906101000a900473ffffffffffffffffffffffffffffffffffffffff1673ffffffffffffffffffffffffffffffffffffffff16815260200190600101908083116136f3575b50505050509050919050565b8280548282559060005260206000209081019282156137c2579160200282015b828111156137c15782518260006101000a81548173ffffffffffffffffffffffffffffffffffffffff021916908373ffffffffffffffffffffffffffffffffffffffff16021790555091602001919060010190613769565b5b5090506137cf919061387e565b5090565b60405180610140016040528060008152602001606081526020016060815260200160001515815260200160608152602001600073ffffffffffffffffffffffffffffffffffffffff168152602001606081526020016000815260200160008152602001606081525090565b50805461384a906143e8565b6000825580601f1061385c575061387b565b601f01602090049060005260206000209081019061387a919061387e565b5b50565b5b8082111561389757600081600090555060010161387f565b5090565b600081519050919050565b600082825260208201905092915050565b60005b838110156138d55780820151818401526020810190506138ba565b60008484015250505050565b6000601f19601f8301169050919050565b60006138fd8261389b565b61390781856138a6565b93506139178185602086016138b7565b613920816138e1565b840191505092915050565b6000602082019050818103600083015261394581846138f2565b905092915050565b6000604051905090565b600080fd5b600080fd5b600080fd5b600080fd5b7f4e487b7100000000000000000000000000000000000000000000000000000000600052604160045260246000fd5b6139a3826138e1565b810181811067ffffffffffffffff821117156139c2576139c161396b565b5b80604052505050565b60006139d561394d565b90506139e1828261399a565b919050565b600067ffffffffffffffff821115613a0157613a0061396b565b5b613a0a826138e1565b9050602081019050919050565b82818337600083830152505050565b6000613a39613a34846139e6565b6139cb565b905082815260208101848484011115613a5557613a54613966565b5b613a60848285613a17565b509392505050565b600082601f830112613a7d57613a7c613961565b5b8135613a8d848260208601613a26565b91505092915050565b600080600060608486031215613aaf57613aae613957565b5b600084013567ffffffffffffffff811115613acd57613acc61395c565b5b613ad986828701613a68565b935050602084013567ffffffffffffffff811115613afa57613af961395c565b5b613b0686828701613a68565b925050604084013567ffffffffffffffff811115613b2757613b2661395c565b5b613b3386828701613a68565b9150509250925092565b6000819050919050565b613b5081613b3d565b8114613b5b57600080fd5b50565b600081359050613b6d81613b47565b92915050565b600060208284031215613b8957613b88613957565b5b6000613b9784828501613b5e565b91505092915050565b613ba981613b3d565b82525050565b600082825260208201905092915050565b6000613bcb8261389b565b613bd58185613baf565b9350613be58185602086016138b7565b613bee816138e1565b840191505092915050565b60008115159050919050565b613c0e81613bf9565b82525050565b600073ffffffffffffffffffffffffffffffffffffffff82169050919050565b6000613c3f82613c14565b9050919050565b613c4f81613c34565b82525050565b600081519050919050565b600082825260208201905092915050565b6000819050602082019050919050565b6000613c8d8383613c46565b60208301905092915050565b6000602082019050919050565b6000613cb182613c55565b613cbb8185613c60565b9350613cc683613c71565b8060005b83811015613cf7578151613cde8882613c81565b9750613ce983613c99565b925050600181019050613cca565b5085935050505092915050565b600061014083016000830151613d1d6000860182613ba0565b5060208301518482036020860152613d358282613bc0565b91505060408301518482036040860152613d4f8282613bc0565b9150506060830151613d646060860182613c05565b5060808301518482036080860152613d7c8282613bc0565b91505060a0830151613d9160a0860182613c46565b5060c083015184820360c0860152613da98282613ca6565b91505060e0830151613dbe60e0860182613ba0565b50610100830151613dd3610100860182613ba0565b50610120830151848203610120860152613ded8282613bc0565b9150508091505092915050565b60006020820190508181036000830152613e148184613d04565b905092915050565b613e2581613b3d565b82525050565b60006060820190508181036000830152613e4581866138f2565b9050613e546020830185613e1c565b613e616040830184613e1c565b949350505050565b613e7281613c34565b8114613e7d57600080fd5b50565b600081359050613e8f81613e69565b92915050565b60008060408385031215613eac57613eab613957565b5b6000613eba85828601613e80565b9250506020613ecb85828601613b5e565b9150509250929050565b613ede81613bf9565b82525050565b613eed81613c34565b82525050565b600061012082019050613f09600083018c613e1c565b8181036020830152613f1b818b6138f2565b90508181036040830152613f2f818a6138f2565b9050613f3e6060830189613ed5565b8181036080830152613f5081886138f2565b9050613f5f60a0830187613ee4565b613f6c60c0830186613e1c565b613f7960e0830185613e1c565b818103610100830152613f8c81846138f2565b90509a9950505050505050505050565b6000602082019050613fb16000830184613e1c565b92915050565b60008060008060808587031215613fd157613fd0613957565b5b6000613fdf87828801613b5e565b945050602085013567ffffffffffffffff81111561400057613fff61395c565b5b61400c87828801613a68565b935050604061401d87828801613b5e565b925050606061402e87828801613b5e565b91505092959194509250565b600081519050919050565b600082825260208201905092915050565b6000819050602082019050919050565b60006101408301600083015161407f6000860182613ba0565b50602083015184820360208601526140978282613bc0565b915050604083015184820360408601526140b18282613bc0565b91505060608301516140c66060860182613c05565b50608083015184820360808601526140de8282613bc0565b91505060a08301516140f360a0860182613c46565b5060c083015184820360c086015261410b8282613ca6565b91505060e083015161412060e0860182613ba0565b50610100830151614135610100860182613ba0565b5061012083015184820361012086015261414f8282613bc0565b9150508091505092915050565b60006141688383614066565b905092915050565b6000602082019050919050565b60006141888261403a565b6141928185614045565b9350836020820285016141a485614056565b8060005b858110156141e057848403895281516141c1858261415c565b94506141cc83614170565b925060208a019950506001810190506141a8565b50829750879550505050505092915050565b6000602082019050818103600083015261420c818461417d565b905092915050565b60006020828403121561422a57614229613957565b5b600082013567ffffffffffffffff8111156142485761424761395c565b5b61425484828501613a68565b91505092915050565b6000806040838503121561427457614273613957565b5b600061428285828601613b5e565b925050602083013567ffffffffffffffff8111156142a3576142a261395c565b5b6142af85828601613a68565b9150509250929050565b6000806000606084860312156142d2576142d1613957565b5b60006142e086828701613b5e565b935050602084013567ffffffffffffffff8111156143015761430061395c565b5b61430d86828701613a68565b925050604061431e86828701613b5e565b9150509250925092565b600082825260208201905092915050565b600061434482613c55565b61434e8185614328565b935061435983613c71565b8060005b8381101561438a5781516143718882613c81565b975061437c83613c99565b92505060018101905061435d565b5085935050505092915050565b600060208201905081810360008301526143b18184614339565b905092915050565b7f4e487b7100000000000000000000000000000000000000000000000000000000600052602260045260246000fd5b6000600282049050600182168061440057607f821691505b602082108103614413576144126143b9565b5b50919050565b60008190508160005260206000209050919050565b60006020601f8301049050919050565b600082821b905092915050565b60006008830261447b7fffffffffffffffffffffffffffffffffffffffffffffffffffffffffffffffff8261443e565b614485868361443e565b95508019841693508086168417925050509392505050565b6000819050919050565b60006144c26144bd6144b884613b3d565b61449d565b613b3d565b9050919050565b6000819050919050565b6144dc836144a7565b6144f06144e8826144c9565b84845461444b565b825550505050565b600090565b6145056144f8565b6145108184846144d3565b505050565b5b81811015614534576145296000826144fd565b600181019050614516565b5050565b601f8211156145795761454a81614419565b6145538461442e565b81016020851015614562578190505b61457661456e8561442e565b830182614515565b50505b505050565b600082821c905092915050565b600061459c6000198460080261457e565b1980831691505092915050565b60006145b5838361458b565b9150826002028217905092915050565b6145ce8261389b565b67ffffffffffffffff8111156145e7576145e661396b565b5b6145f182546143e8565b6145fc828285614538565b600060209050601f83116001811461462f576000841561461d578287015190505b61462785826145a9565b86555061468f565b601f19841661463d86614419565b60005b8281101561466557848901518255600182019150602085019450602081019050614640565b86831015614682578489015161467e601f89168261458b565b8355505b6001600288020188555050505b505050505050565b7f4e487b7100000000000000000000000000000000000000000000000000000000600052603160045260246000fd5b7f676976656e2066696c65206964206973206e6f74206578697374730000000000600082015250565b60006146fc601b836138a6565b9150614707826146c6565b602082019050919050565b6000602082019050818103600083015261472b816146ef565b9050919050565b7f4e487b7100000000000000000000000000000000000000000000000000000000600052603260045260246000fd5b7f4e487b7100000000000000000000000000000000000000000000000000000000600052601160045260246000fd5b600061479b82613b3d565b91507fffffffffffffffffffffffffffffffffffffffffffffffffffffffffffffffff82036147cd576147cc614761565b5b600182019050919050565b7f676976652066696c6520696420697320696e76616c6964000000000000000000600082015250565b600061480e6017836138a6565b9150614819826147d8565b602082019050919050565b6000602082019050818103600083015261483d81614801565b9050919050565b7f796f7520617265206e6f74206f776e6572206f6620746869732066696c650000600082015250565b600061487a601e836138a6565b915061488582614844565b602082019050919050565b600060208201905081810360008301526148a98161486d565b9050919050565b7f6173206f776e6572206f6620746869732066696c6520796f7520616c7265616460008201527f2068617665206120616363657373000000000000000000000000000000000000602082015250565b600061490c602e836138a6565b9150614917826148b0565b604082019050919050565b6000602082019050818103600083015261493b816148ff565b9050919050565b7f74686973206164647265737320616c726561647920686176652061206163636560008201527f737320746f20746869732066696c650000000000000000000000000000000000602082015250565b600061499e602f836138a6565b91506149a982614942565b604082019050919050565b600060208201905081810360008301526149cd81614991565b9050919050565b60006149df82613b3d565b91506149ea83613b3d565b9250828201905080821115614a0257614a01614761565b5b92915050565b7f796f7520616c726561647920626f7567687420746869732066696c6500000000600082015250565b6000614a3e601c836138a6565b9150614a4982614a08565b602082019050919050565b60006020820190508181036000830152614a6d81614a31565b9050919050565b7f496e73756666696369656e742062616c616e6365000000000000000000000000600082015250565b6000614aaa6014836138a6565b9150614ab582614a74565b602082019050919050565b60006020820190508181036000830152614ad981614a9d565b9050919050565b7f6e6f207265636f72647300000000000000000000000000000000000000000000600082015250565b6000614b16600a836138a6565b9150614b2182614ae0565b602082019050919050565b60006020820190508181036000830152614b4581614b09565b9050919050565b7f6173206f776e6572206f66207468652066696c6520616e6420796f752063616e60008201527f27742072656d6f766520796f75722073656c662066726f6d206163636573732060208201527f746f20746869732066696c650000000000000000000000000000000000000000604082015250565b6000614bce604c836138a6565b9150614bd982614b4c565b606082019050919050565b60006020820190508181036000830152614bfd81614bc1565b9050919050565b6000614c0f82613b3d565b9150614c1a83613b3d565b9250828203905081811115614c3257614c31614761565b5b92915050565b7f796f7520646f65736e277420676976652061636365737320746f20746869732060008201527f6164647265737320617420616c6c212100000000000000000000000000000000602082015250565b6000614c946030836138a6565b9150614c9f82614c38565b604082019050919050565b60006020820190508181036000830152614cc381614c87565b9050919050565b7f436f75706f6e20636f6465206861732065787069726564000000000000000000600082015250565b6000614d006017836138a6565b9150614d0b82614cca565b602082019050919050565b60006020820190508181036000830152614d2f81614cf3565b9050919050565b60006060820190508181036000830152614d5081866138f2565b9050614d5f6020830185613ee4565b614d6c6040830184613e1c565b949350505050565b7f796f752061726520616c726561647920616464656420746869732066696c652060008201527f746f2073656c6c00000000000000000000000000000000000000000000000000602082015250565b6000614dd06027836138a6565b9150614ddb82614d74565b604082019050919050565b60006020820190508181036000830152614dff81614dc3565b905091905056fea2646970667358221220fa7ad5553569a4cf6d8c17f381966c4c3787571b8e64a04f5e33b04afb91362d64736f6c63430008130033",
  "linkReferences": {},
  "deployedLinkReferences": {}
}