{
  "_format": "hh-sol-artifact-1",
  "contractName": "syncdata",
  "sourceName": "contracts/meddata.sol",
  "abi": [
    {
      "inputs": [],
      "stateMutability": "payable",
      "type": "constructor"
    },
    {
      "anonymous": false,
      "inputs": [
        {
          "indexed": false,
          "internalType": "string",
          "name": "code",
          "type": "string"
        },
        {
          "indexed": false,
          "internalType": "uint256",
          "name": "value",
          "type": "uint256"
        },
        {
          "indexed": false,
          "internalType": "uint256",
          "name": "expiryTime",
          "type": "uint256"
        }
      ],
      "name": "CouponGenerated",
      "type": "event"
    },
    {
      "anonymous": false,
      "inputs": [
        {
          "indexed": false,
          "internalType": "string",
          "name": "code",
          "type": "string"
        },
        {
          "indexed": false,
          "internalType": "address",
          "name": "user",
          "type": "address"
        },
        {
          "indexed": false,
          "internalType": "uint256",
          "name": "redeemedTime",
          "type": "uint256"
        }
      ],
      "name": "CouponRedeemed",
      "type": "event"
    },
    {
      "inputs": [
        {
          "internalType": "string",
          "name": "_title",
          "type": "string"
        },
        {
          "internalType": "string",
          "name": "_description",
          "type": "string"
        },
        {
          "internalType": "string",
          "name": "_imageURL",
          "type": "string"
        }
      ],
      "name": "NewRrecord",
      "outputs": [],
      "stateMutability": "payable",
      "type": "function"
    },
    {
      "inputs": [],
      "name": "addToContractBalance",
      "outputs": [],
      "stateMutability": "payable",
      "type": "function"
    },
    {
      "inputs": [
        {
          "internalType": "uint256",
          "name": "id",
          "type": "uint256"
        }
      ],
      "name": "buyFileId",
      "outputs": [],
      "stateMutability": "payable",
      "type": "function"
    },
    {
      "inputs": [
        {
          "internalType": "uint256",
          "name": "",
          "type": "uint256"
        }
      ],
      "name": "coupons",
      "outputs": [
        {
          "internalType": "string",
          "name": "code",
          "type": "string"
        },
        {
          "internalType": "uint256",
          "name": "value",
          "type": "uint256"
        },
        {
          "internalType": "uint256",
          "name": "expiryTime",
          "type": "uint256"
        }
      ],
      "stateMutability": "view",
      "type": "function"
    },
    {
      "inputs": [
        {
          "internalType": "uint256",
          "name": "id",
          "type": "uint256"
        },
        {
          "internalType": "string",
          "name": "code",
          "type": "string"
        },
        {
          "internalType": "uint256",
          "name": "value",
          "type": "uint256"
        },
        {
          "internalType": "uint256",
          "name": "expiryTime",
          "type": "uint256"
        }
      ],
      "name": "generateCoupon",
      "outputs": [
        {
          "internalType": "string",
          "name": "",
          "type": "string"
        }
      ],
      "stateMutability": "nonpayable",
      "type": "function"
    },
    {
      "inputs": [
        {
          "internalType": "uint256",
          "name": "id",
          "type": "uint256"
        }
      ],
      "name": "getAccessList",
      "outputs": [
        {
          "internalType": "address[]",
          "name": "",
          "type": "address[]"
        }
      ],
      "stateMutability": "view",
      "type": "function"
    },
    {
      "inputs": [],
      "name": "getAllRecords",
      "outputs": [
        {
          "components": [
            {
              "internalType": "uint256",
              "name": "id",
              "type": "uint256"
            },
            {
              "internalType": "string",
              "name": "title",
              "type": "string"
            },
            {
              "internalType": "string",
              "name": "description",
              "type": "string"
            },
            {
              "internalType": "bool",
              "name": "islisted",
              "type": "bool"
            },
            {
              "internalType": "string",
              "name": "imageURL",
              "type": "string"
            },
            {
              "internalType": "address",
              "name": "owner",
              "type": "address"
            },
            {
              "internalType": "address[]",
              "name": "accessibleBy",
              "type": "address[]"
            },
            {
              "internalType": "uint256",
              "name": "timestamp",
              "type": "uint256"
            },
            {
              "internalType": "uint256",
              "name": "price",
              "type": "uint256"
            },
            {
              "internalType": "string",
              "name": "preview",
              "type": "string"
            }
          ],
          "internalType": "struct syncdata.Record[]",
          "name": "",
          "type": "tuple[]"
        }
      ],
      "stateMutability": "view",
      "type": "function"
    },
    {
      "inputs": [],
      "name": "getOwnersRecords",
      "outputs": [
        {
          "components": [
            {
              "internalType": "uint256",
              "name": "id",
              "type": "uint256"
            },
            {
              "internalType": "string",
              "name": "title",
              "type": "string"
            },
            {
              "internalType": "string",
              "name": "description",
              "type": "string"
            },
            {
              "internalType": "bool",
              "name": "islisted",
              "type": "bool"
            },
            {
              "internalType": "string",
              "name": "imageURL",
              "type": "string"
            },
            {
              "internalType": "address",
              "name": "owner",
              "type": "address"
            },
            {
              "internalType": "address[]",
              "name": "accessibleBy",
              "type": "address[]"
            },
            {
              "internalType": "uint256",
              "name": "timestamp",
              "type": "uint256"
            },
            {
              "internalType": "uint256",
              "name": "price",
              "type": "uint256"
            },
            {
              "internalType": "string",
              "name": "preview",
              "type": "string"
            }
          ],
          "internalType": "struct syncdata.Record[]",
          "name": "",
          "type": "tuple[]"
        }
      ],
      "stateMutability": "view",
      "type": "function"
    },
    {
      "inputs": [],
      "name": "getSellingRecord",
      "outputs": [
        {
          "components": [
            {
              "internalType": "uint256",
              "name": "id",
              "type": "uint256"
            },
            {
              "internalType": "string",
              "name": "title",
              "type": "string"
            },
            {
              "internalType": "string",
              "name": "description",
              "type": "string"
            },
            {
              "internalType": "bool",
              "name": "islisted",
              "type": "bool"
            },
            {
              "internalType": "string",
              "name": "imageURL",
              "type": "string"
            },
            {
              "internalType": "address",
              "name": "owner",
              "type": "address"
            },
            {
              "internalType": "address[]",
              "name": "accessibleBy",
              "type": "address[]"
            },
            {
              "internalType": "uint256",
              "name": "timestamp",
              "type": "uint256"
            },
            {
              "internalType": "uint256",
              "name": "price",
              "type": "uint256"
            },
            {
              "internalType": "string",
              "name": "preview",
              "type": "string"
            }
          ],
          "internalType": "struct syncdata.Record[]",
          "name": "",
          "type": "tuple[]"
        }
      ],
      "stateMutability": "view",
      "type": "function"
    },
    {
      "inputs": [],
      "name": "getUserName",
      "outputs": [
        {
          "internalType": "string",
          "name": "",
          "type": "string"
        }
      ],
      "stateMutability": "view",
      "type": "function"
    },
    {
      "inputs": [],
      "name": "giveContractBalance",
      "outputs": [
        {
          "internalType": "uint256",
          "name": "",
          "type": "uint256"
        }
      ],
      "stateMutability": "view",
      "type": "function"
    },
    {
      "inputs": [
        {
          "internalType": "string",
          "name": "_newOwnerUserName",
          "type": "string"
        },
        {
          "internalType": "uint256",
          "name": "id",
          "type": "uint256"
        }
      ],
      "name": "newOwner",
      "outputs": [],
      "stateMutability": "nonpayable",
      "type": "function"
    },
    {
      "inputs": [
        {
          "internalType": "uint256",
          "name": "",
          "type": "uint256"
        }
      ],
      "name": "records",
      "outputs": [
        {
          "internalType": "uint256",
          "name": "id",
          "type": "uint256"
        },
        {
          "internalType": "string",
          "name": "title",
          "type": "string"
        },
        {
          "internalType": "string",
          "name": "description",
          "type": "string"
        },
        {
          "internalType": "bool",
          "name": "islisted",
          "type": "bool"
        },
        {
          "internalType": "string",
          "name": "imageURL",
          "type": "string"
        },
        {
          "internalType": "address",
          "name": "owner",
          "type": "address"
        },
        {
          "internalType": "uint256",
          "name": "timestamp",
          "type": "uint256"
        },
        {
          "internalType": "uint256",
          "name": "price",
          "type": "uint256"
        },
        {
          "internalType": "string",
          "name": "preview",
          "type": "string"
        }
      ],
      "stateMutability": "view",
      "type": "function"
    },
    {
      "inputs": [
        {
          "internalType": "uint256",
          "name": "id",
          "type": "uint256"
        },
        {
          "internalType": "string",
          "name": "code",
          "type": "string"
        }
      ],
      "name": "redeemCoupon",
      "outputs": [],
      "stateMutability": "nonpayable",
      "type": "function"
    },
    {
      "inputs": [
        {
          "internalType": "string",
          "name": "_removeOwnerUserName",
          "type": "string"
        },
        {
          "internalType": "uint256",
          "name": "id",
          "type": "uint256"
        }
      ],
      "name": "removeOwner",
      "outputs": [],
      "stateMutability": "nonpayable",
      "type": "function"
    },
    {
      "inputs": [
        {
          "internalType": "uint256",
          "name": "id",
          "type": "uint256"
        },
        {
          "internalType": "string",
          "name": "preview",
          "type": "string"
        },
        {
          "internalType": "uint256",
          "name": "price",
          "type": "uint256"
        }
      ],
      "name": "sellTheFile",
      "outputs": [],
      "stateMutability": "nonpayable",
      "type": "function"
    },
    {
      "inputs": [
        {
          "internalType": "uint256",
          "name": "",
          "type": "uint256"
        }
      ],
      "name": "sellingFileId",
      "outputs": [
        {
          "internalType": "uint256",
          "name": "",
          "type": "uint256"
        }
      ],
      "stateMutability": "view",
      "type": "function"
    },
    {
      "inputs": [
        {
          "internalType": "string",
          "name": "userName",
          "type": "string"
        }
      ],
      "name": "storeUserName",
      "outputs": [],
      "stateMutability": "nonpayable",
      "type": "function"
    }
  ],
  "bytecode": "0x6080604052600067ffffffffffffffff811115620000225762000021620002be565b5b604051908082528060200260200182016040528015620000515781602001602082028036833780820191505090505b50600290805190602001906200006992919062000142565b50600067ffffffffffffffff811115620000885762000087620002be565b5b604051908082528060200260200182016040528015620000bd57816020015b6060815260200190600190039081620000a75790505b5060039080519060200190620000d5929190620001d1565b50600067ffffffffffffffff811115620000f457620000f3620002be565b5b604051908082528060200260200182016040528015620001235781602001602082028036833780820191505090505b50600490805190602001906200013b92919062000142565b506200061f565b828054828255906000526020600020908101928215620001be579160200282015b82811115620001bd5782518260006101000a81548173ffffffffffffffffffffffffffffffffffffffff021916908373ffffffffffffffffffffffffffffffffffffffff1602179055509160200191906001019062000163565b5b509050620001cd919062000231565b5090565b8280548282559060005260206000209081019282156200021e579160200282015b828111156200021d5782518290816200020c919062000538565b5091602001919060010190620001f2565b5b5090506200022d919062000250565b5090565b5b808211156200024c57600081600090555060010162000232565b5090565b5b808211156200027457600081816200026a919062000278565b5060010162000251565b5090565b508054620002869062000327565b6000825580601f106200029a5750620002bb565b601f016020900490600052602060002090810190620002ba919062000231565b5b50565b7f4e487b7100000000000000000000000000000000000000000000000000000000600052604160045260246000fd5b600081519050919050565b7f4e487b7100000000000000000000000000000000000000000000000000000000600052602260045260246000fd5b600060028204905060018216806200034057607f821691505b602082108103620003565762000355620002f8565b5b50919050565b60008190508160005260206000209050919050565b60006020601f8301049050919050565b600082821b905092915050565b600060088302620003c07fffffffffffffffffffffffffffffffffffffffffffffffffffffffffffffffff8262000381565b620003cc868362000381565b95508019841693508086168417925050509392505050565b6000819050919050565b6000819050919050565b600062000419620004136200040d84620003e4565b620003ee565b620003e4565b9050919050565b6000819050919050565b6200043583620003f8565b6200044d620004448262000420565b8484546200038e565b825550505050565b600090565b6200046462000455565b620004718184846200042a565b505050565b5b8181101562000499576200048d6000826200045a565b60018101905062000477565b5050565b601f821115620004e857620004b2816200035c565b620004bd8462000371565b81016020851015620004cd578190505b620004e5620004dc8562000371565b83018262000476565b50505b505050565b600082821c905092915050565b60006200050d60001984600802620004ed565b1980831691505092915050565b6000620005288383620004fa565b9150826002028217905092915050565b6200054382620002ed565b67ffffffffffffffff8111156200055f576200055e620002be565b5b6200056b825462000327565b620005788282856200049d565b600060209050601f831160018114620005b057600084156200059b578287015190505b620005a785826200051a565b86555062000617565b601f198416620005c0866200035c565b60005b82811015620005ea57848901518255600182019150602085019450602081019050620005c3565b868310156200060a578489015162000606601f891682620004fa565b8355505b6001600288020188555050505b505050505050565b61468b806200062f6000396000f3fe6080604052600436106101145760003560e01c8063773d79dc116100a0578063d3a22a8211610064578063d3a22a8214610394578063e1dc63f0146103bd578063e227cf8a146103e6578063e3e18cc514610411578063f31bb1771461043a57610114565b8063773d79dc146102ef578063878e688e1461031a578063a7f9fe7214610336578063af205ea314610361578063c7fb53eb1461038a57610114565b806334461067116100e757806334461067146101dc57806340ed6403146102215780634efb8a4b1461024c578063653467c4146102755780636f587e3b146102b257610114565b806312958f1c146101195780631cda164f14610144578063298ba2be1461016057806330828e921461019d575b600080fd5b34801561012557600080fd5b5061012e610477565b60405161013b9190613457565b60405180910390f35b61015e600480360381019061015991906135c2565b610546565b005b34801561016c57600080fd5b506101876004803603810190610182919061369f565b6108f4565b6040516101949190613926565b60405180910390f35b3480156101a957600080fd5b506101c460048036038101906101bf919061369f565b610e45565b6040516101d393929190613957565b60405180910390f35b3480156101e857600080fd5b5061020360048036038101906101fe919061369f565b610ef7565b604051610218999897969594939291906139b3565b60405180910390f35b34801561022d57600080fd5b506102366111a2565b6040516102439190613a5c565b60405180910390f35b34801561025857600080fd5b50610273600480360381019061026e9190613a77565b6111aa565b005b34801561028157600080fd5b5061029c6004803603810190610297919061369f565b611789565b6040516102a99190613a5c565b60405180910390f35b3480156102be57600080fd5b506102d960048036038101906102d49190613ad3565b6117ad565b6040516102e69190613457565b60405180910390f35b3480156102fb57600080fd5b50610304611860565b6040516103119190613d0e565b60405180910390f35b610334600480360381019061032f919061369f565b611e05565b005b34801561034257600080fd5b5061034b612162565b6040516103589190613d0e565b60405180910390f35b34801561036d57600080fd5b5061038860048036038101906103839190613a77565b6126f7565b005b610392612930565b005b3480156103a057600080fd5b506103bb60048036038101906103b69190613d30565b61297f565b005b3480156103c957600080fd5b506103e460048036038101906103df9190613d79565b6129cf565b005b3480156103f257600080fd5b506103fb612bbe565b6040516104089190613d0e565b60405180910390f35b34801561041d57600080fd5b5061043860048036038101906104339190613dd5565b6130ce565b005b34801561044657600080fd5b50610461600480360381019061045c919061369f565b6131c2565b60405161046e9190613eb3565b60405180910390f35b6060600a60003373ffffffffffffffffffffffffffffffffffffffff1673ffffffffffffffffffffffffffffffffffffffff16815260200190815260200160002080546104c390613f04565b80601f01602080910402602001604051908101604052809291908181526020018280546104ef90613f04565b801561053c5780601f106105115761010080835404028352916020019161053c565b820191906000526020600020905b81548152906001019060200180831161051f57829003601f168201915b5050505050905090565b600760003373ffffffffffffffffffffffffffffffffffffffff1673ffffffffffffffffffffffffffffffffffffffff1681526020019081526020016000206001805490509080600181540180825580915050600190039060005260206000200160009091909190915055600860003373ffffffffffffffffffffffffffffffffffffffff1673ffffffffffffffffffffffffffffffffffffffff1681526020019081526020016000206001805490509080600181540180825580915050600190039060005260206000200160009091909190915055600060018054905090506002339080600181540180825580915050600190039060005260206000200160009091909190916101000a81548173ffffffffffffffffffffffffffffffffffffffff021916908373ffffffffffffffffffffffffffffffffffffffff16021790555060016040518061014001604052808381526020018681526020018581526020016001151581526020018481526020013373ffffffffffffffffffffffffffffffffffffffff168152602001600280548060200260200160405190810160405280929190818152602001828054801561075657602002820191906000526020600020905b8160009054906101000a900473ffffffffffffffffffffffffffffffffffffffff1673ffffffffffffffffffffffffffffffffffffffff168152602001906001019080831161070c575b50505050508152602001428152602001600081526020016040518060200160405280600081525081525090806001815401808255809150506001900390600052602060002090600a02016000909190919091506000820151816000015560208201518160010190816107c891906140e1565b5060408201518160020190816107de91906140e1565b5060608201518160030160006101000a81548160ff021916908315150217905550608082015181600401908161081491906140e1565b5060a08201518160050160006101000a81548173ffffffffffffffffffffffffffffffffffffffff021916908373ffffffffffffffffffffffffffffffffffffffff16021790555060c0820151816006019080519060200190610878929190613275565b5060e0820151816007015561010082015181600801556101208201518160090190816108a491906140e1565b50505060028054806108b9576108b86141b3565b5b6001900381819060005260206000200160006101000a81549073ffffffffffffffffffffffffffffffffffffffff0219169055905550505050565b6108fc6132ff565b6001805490508210610943576040517f08c379a000000000000000000000000000000000000000000000000000000000815260040161093a9061422e565b60405180910390fd5b6000600183815481106109595761095861424e565b5b90600052602060002090600a0201604051806101400160405290816000820154815260200160018201805461098d90613f04565b80601f01602080910402602001604051908101604052809291908181526020018280546109b990613f04565b8015610a065780601f106109db57610100808354040283529160200191610a06565b820191906000526020600020905b8154815290600101906020018083116109e957829003601f168201915b50505050508152602001600282018054610a1f90613f04565b80601f0160208091040260200160405190810160405280929190818152602001828054610a4b90613f04565b8015610a985780601f10610a6d57610100808354040283529160200191610a98565b820191906000526020600020905b815481529060010190602001808311610a7b57829003601f168201915b505050505081526020016003820160009054906101000a900460ff16151515158152602001600482018054610acc90613f04565b80601f0160208091040260200160405190810160405280929190818152602001828054610af890613f04565b8015610b455780601f10610b1a57610100808354040283529160200191610b45565b820191906000526020600020905b815481529060010190602001808311610b2857829003601f168201915b505050505081526020016005820160009054906101000a900473ffffffffffffffffffffffffffffffffffffffff1673ffffffffffffffffffffffffffffffffffffffff1673ffffffffffffffffffffffffffffffffffffffff16815260200160068201805480602002602001604051908101604052809291908181526020018280548015610c2957602002820191906000526020600020905b8160009054906101000a900473ffffffffffffffffffffffffffffffffffffffff1673ffffffffffffffffffffffffffffffffffffffff1681526020019060010190808311610bdf575b505050505081526020016007820154815260200160088201548152602001600982018054610c5690613f04565b80601f0160208091040260200160405190810160405280929190818152602001828054610c8290613f04565b8015610ccf5780601f10610ca457610100808354040283529160200191610ccf565b820191906000526020600020905b815481529060010190602001808311610cb257829003601f168201915b50505050508152505090506000805b60018581548110610cf257610cf161424e565b5b90600052602060002090600a020160060180549050811015610dba573373ffffffffffffffffffffffffffffffffffffffff1660018681548110610d3957610d3861424e565b5b90600052602060002090600a02016006018281548110610d5c57610d5b61424e565b5b9060005260206000200160009054906101000a900473ffffffffffffffffffffffffffffffffffffffff1673ffffffffffffffffffffffffffffffffffffffff1603610da757600191505b8080610db2906142ac565b915050610cde565b5080151560001515148015610dd55750816101000151600014155b15610e3b57600960003373ffffffffffffffffffffffffffffffffffffffff1673ffffffffffffffffffffffffffffffffffffffff168152602001908152602001600020600085815260200190815260200160002060009054906101000a900460ff1690505b8192505050919050565b6006602052806000526040600020600091509050806000018054610e6890613f04565b80601f0160208091040260200160405190810160405280929190818152602001828054610e9490613f04565b8015610ee15780601f10610eb657610100808354040283529160200191610ee1565b820191906000526020600020905b815481529060010190602001808311610ec457829003601f168201915b5050505050908060010154908060020154905083565b60018181548110610f0757600080fd5b90600052602060002090600a0201600091509050806000015490806001018054610f3090613f04565b80601f0160208091040260200160405190810160405280929190818152602001828054610f5c90613f04565b8015610fa95780601f10610f7e57610100808354040283529160200191610fa9565b820191906000526020600020905b815481529060010190602001808311610f8c57829003601f168201915b505050505090806002018054610fbe90613f04565b80601f0160208091040260200160405190810160405280929190818152602001828054610fea90613f04565b80156110375780601f1061100c57610100808354040283529160200191611037565b820191906000526020600020905b81548152906001019060200180831161101a57829003601f168201915b5050505050908060030160009054906101000a900460ff169080600401805461105f90613f04565b80601f016020809104026020016040519081016040528092919081815260200182805461108b90613f04565b80156110d85780601f106110ad576101008083540402835291602001916110d8565b820191906000526020600020905b8154815290600101906020018083116110bb57829003601f168201915b5050505050908060050160009054906101000a900473ffffffffffffffffffffffffffffffffffffffff169080600701549080600801549080600901805461111f90613f04565b80601f016020809104026020016040519081016040528092919081815260200182805461114b90613f04565b80156111985780601f1061116d57610100808354040283529160200191611198565b820191906000526020600020905b81548152906001019060200180831161117b57829003601f168201915b5050505050905089565b600047905090565b6000600b836040516111bc9190614330565b908152602001604051809103902060009054906101000a900473ffffffffffffffffffffffffffffffffffffffff1690506000600760008373ffffffffffffffffffffffffffffffffffffffff1673ffffffffffffffffffffffffffffffffffffffff16815260200190815260200160002080549050905060005b600760008473ffffffffffffffffffffffffffffffffffffffff1673ffffffffffffffffffffffffffffffffffffffff1681526020019081526020016000208054905081101561174057600760008473ffffffffffffffffffffffffffffffffffffffff1673ffffffffffffffffffffffffffffffffffffffff16815260200190815260200160002081815481106112d2576112d161424e565b5b9060005260206000200154840361172d57600760008473ffffffffffffffffffffffffffffffffffffffff1673ffffffffffffffffffffffffffffffffffffffff1681526020019081526020016000208054905060010361139757600760008473ffffffffffffffffffffffffffffffffffffffff1673ffffffffffffffffffffffffffffffffffffffff16815260200190815260200160002080548061137c5761137b6141b3565b5b600190038181906000526020600020016000905590556114c4565b600760008473ffffffffffffffffffffffffffffffffffffffff1673ffffffffffffffffffffffffffffffffffffffff1681526020019081526020016000206001836113e39190614347565b815481106113f4576113f361424e565b5b9060005260206000200154600760008573ffffffffffffffffffffffffffffffffffffffff1673ffffffffffffffffffffffffffffffffffffffff16815260200190815260200160002082815481106114505761144f61424e565b5b9060005260206000200181905550600760008473ffffffffffffffffffffffffffffffffffffffff1673ffffffffffffffffffffffffffffffffffffffff1681526020019081526020016000208054806114ad576114ac6141b3565b5b600190038181906000526020600020016000905590555b6000600185815481106114da576114d961424e565b5b90600052602060002090600a020160060180549050905060005b600186815481106115085761150761424e565b5b90600052602060002090600a02016006018054905081101561172357600186815481106115385761153761424e565b5b90600052602060002090600a0201600601818154811061155b5761155a61424e565b5b9060005260206000200160009054906101000a900473ffffffffffffffffffffffffffffffffffffffff1673ffffffffffffffffffffffffffffffffffffffff168573ffffffffffffffffffffffffffffffffffffffff160361171057600186815481106115cc576115cb61424e565b5b90600052602060002090600a02016006016001836115ea9190614347565b815481106115fb576115fa61424e565b5b9060005260206000200160009054906101000a900473ffffffffffffffffffffffffffffffffffffffff166001878154811061163a5761163961424e565b5b90600052602060002090600a0201600601828154811061165d5761165c61424e565b5b9060005260206000200160006101000a81548173ffffffffffffffffffffffffffffffffffffffff021916908373ffffffffffffffffffffffffffffffffffffffff160217905550600186815481106116b9576116b861424e565b5b90600052602060002090600a02016006018054806116da576116d96141b3565b5b6001900381819060005260206000200160006101000a81549073ffffffffffffffffffffffffffffffffffffffff021916905590555b808061171b906142ac565b9150506114f4565b5050505050611785565b8080611738906142ac565b915050611237565b506000611782576040517f08c379a0000000000000000000000000000000000000000000000000000000008152600401611779906143ed565b60405180910390fd5b50505b5050565b6000818154811061179957600080fd5b906000526020600020016000915090505481565b6060610e10426117bd919061440d565b915060405180606001604052808581526020018481526020018381525060066000878152602001908152602001600020600082015181600001908161180291906140e1565b5060208201518160010155604082015181600201559050507f506c1c7dd360506da713451f9275b3cfa046b07a1318ba73623d3b27d6acff7d84848460405161184d93929190613957565b60405180910390a1839050949350505050565b60606000805b60008054905081101561191c57600960003373ffffffffffffffffffffffffffffffffffffffff1673ffffffffffffffffffffffffffffffffffffffff16815260200190815260200160002060008083815481106118c7576118c661424e565b5b9060005260206000200154815260200190815260200160002060009054906101000a900460ff161515600015150361190957600182611906919061440d565b91505b8080611914906142ac565b915050611866565b5060008167ffffffffffffffff81111561193957611938613497565b5b60405190808252806020026020018201604052801561197257816020015b61195f6132ff565b8152602001906001900390816119575790505b5090506000805b600080549050811015611dfb57600960003373ffffffffffffffffffffffffffffffffffffffff1673ffffffffffffffffffffffffffffffffffffffff16815260200190815260200160002060008083815481106119da576119d961424e565b5b9060005260206000200154815260200190815260200160002060009054906101000a900460ff1615156000151503611de857600160008281548110611a2257611a2161424e565b5b906000526020600020015481548110611a3e57611a3d61424e565b5b90600052602060002090600a02016040518061014001604052908160008201548152602001600182018054611a7290613f04565b80601f0160208091040260200160405190810160405280929190818152602001828054611a9e90613f04565b8015611aeb5780601f10611ac057610100808354040283529160200191611aeb565b820191906000526020600020905b815481529060010190602001808311611ace57829003601f168201915b50505050508152602001600282018054611b0490613f04565b80601f0160208091040260200160405190810160405280929190818152602001828054611b3090613f04565b8015611b7d5780601f10611b5257610100808354040283529160200191611b7d565b820191906000526020600020905b815481529060010190602001808311611b6057829003601f168201915b505050505081526020016003820160009054906101000a900460ff16151515158152602001600482018054611bb190613f04565b80601f0160208091040260200160405190810160405280929190818152602001828054611bdd90613f04565b8015611c2a5780601f10611bff57610100808354040283529160200191611c2a565b820191906000526020600020905b815481529060010190602001808311611c0d57829003601f168201915b505050505081526020016005820160009054906101000a900473ffffffffffffffffffffffffffffffffffffffff1673ffffffffffffffffffffffffffffffffffffffff1673ffffffffffffffffffffffffffffffffffffffff16815260200160068201805480602002602001604051908101604052809291908181526020018280548015611d0e57602002820191906000526020600020905b8160009054906101000a900473ffffffffffffffffffffffffffffffffffffffff1673ffffffffffffffffffffffffffffffffffffffff1681526020019060010190808311611cc4575b505050505081526020016007820154815260200160088201548152602001600982018054611d3b90613f04565b80601f0160208091040260200160405190810160405280929190818152602001828054611d6790613f04565b8015611db45780601f10611d8957610100808354040283529160200191611db4565b820191906000526020600020905b815481529060010190602001808311611d9757829003601f168201915b505050505081525050838380611dc9906142ac565b945081518110611ddc57611ddb61424e565b5b60200260200101819052505b8080611df3906142ac565b915050611979565b5081935050505090565b60005b60008054905081101561215d5760008181548110611e2957611e2861424e565b5b9060005260206000200154820361214a57600960003373ffffffffffffffffffffffffffffffffffffffff1673ffffffffffffffffffffffffffffffffffffffff168152602001908152602001600020600083815260200190815260200160002060009054906101000a900460ff1615611ee3576000611ede576040517f08c379a0000000000000000000000000000000000000000000000000000000008152600401611ed59061448d565b60405180910390fd5b612149565b60018281548110611ef757611ef661424e565b5b90600052602060002090600a0201600801543373ffffffffffffffffffffffffffffffffffffffff16311015611f62576040517f08c379a0000000000000000000000000000000000000000000000000000000008152600401611f59906144f9565b60405180910390fd5b60018281548110611f7657611f7561424e565b5b90600052602060002090600a020160050160009054906101000a900473ffffffffffffffffffffffffffffffffffffffff1673ffffffffffffffffffffffffffffffffffffffff166108fc349081150290604051600060405180830381858888f19350505050158015611fed573d6000803e3d6000fd5b506001600960003373ffffffffffffffffffffffffffffffffffffffff1673ffffffffffffffffffffffffffffffffffffffff168152602001908152602001600020600084815260200190815260200160002060006101000a81548160ff0219169083151502179055506001828154811061206b5761206a61424e565b5b90600052602060002090600a0201600601339080600181540180825580915050600190039060005260206000200160009091909190916101000a81548173ffffffffffffffffffffffffffffffffffffffff021916908373ffffffffffffffffffffffffffffffffffffffff160217905550600760003373ffffffffffffffffffffffffffffffffffffffff1673ffffffffffffffffffffffffffffffffffffffff1681526020019081526020016000208290806001815401808255809150506001900390600052602060002001600090919091909150555061215f565b5b8080612155906142ac565b915050611e08565b505b50565b60606000600760003373ffffffffffffffffffffffffffffffffffffffff1673ffffffffffffffffffffffffffffffffffffffff16815260200190815260200160002080549050116121e9576040517f08c379a00000000000000000000000000000000000000000000000000000000081526004016121e090614565565b60405180910390fd5b6000600760003373ffffffffffffffffffffffffffffffffffffffff1673ffffffffffffffffffffffffffffffffffffffff1681526020019081526020016000208054905067ffffffffffffffff81111561224757612246613497565b5b60405190808252806020026020018201604052801561228057816020015b61226d6132ff565b8152602001906001900390816122655790505b50905060005b600760003373ffffffffffffffffffffffffffffffffffffffff1673ffffffffffffffffffffffffffffffffffffffff168152602001908152602001600020805490508110156126ef576001600760003373ffffffffffffffffffffffffffffffffffffffff1673ffffffffffffffffffffffffffffffffffffffff16815260200190815260200160002082815481106123235761232261424e565b5b90600052602060002001548154811061233f5761233e61424e565b5b90600052602060002090600a0201604051806101400160405290816000820154815260200160018201805461237390613f04565b80601f016020809104026020016040519081016040528092919081815260200182805461239f90613f04565b80156123ec5780601f106123c1576101008083540402835291602001916123ec565b820191906000526020600020905b8154815290600101906020018083116123cf57829003601f168201915b5050505050815260200160028201805461240590613f04565b80601f016020809104026020016040519081016040528092919081815260200182805461243190613f04565b801561247e5780601f106124535761010080835404028352916020019161247e565b820191906000526020600020905b81548152906001019060200180831161246157829003601f168201915b505050505081526020016003820160009054906101000a900460ff161515151581526020016004820180546124b290613f04565b80601f01602080910402602001604051908101604052809291908181526020018280546124de90613f04565b801561252b5780601f106125005761010080835404028352916020019161252b565b820191906000526020600020905b81548152906001019060200180831161250e57829003601f168201915b505050505081526020016005820160009054906101000a900473ffffffffffffffffffffffffffffffffffffffff1673ffffffffffffffffffffffffffffffffffffffff1673ffffffffffffffffffffffffffffffffffffffff1681526020016006820180548060200260200160405190810160405280929190818152602001828054801561260f57602002820191906000526020600020905b8160009054906101000a900473ffffffffffffffffffffffffffffffffffffffff1673ffffffffffffffffffffffffffffffffffffffff16815260200190600101908083116125c5575b50505050508152602001600782015481526020016008820154815260200160098201805461263c90613f04565b80601f016020809104026020016040519081016040528092919081815260200182805461266890613f04565b80156126b55780601f1061268a576101008083540402835291602001916126b5565b820191906000526020600020905b81548152906001019060200180831161269857829003601f168201915b5050505050815250508282815181106126d1576126d061424e565b5b602002602001018190525080806126e7906142ac565b915050612286565b508091505090565b6000600b836040516127099190614330565b908152602001604051809103902060009054906101000a900473ffffffffffffffffffffffffffffffffffffffff16905060005b600760008373ffffffffffffffffffffffffffffffffffffffff1673ffffffffffffffffffffffffffffffffffffffff1681526020019081526020016000208054905081101561283e57600760008373ffffffffffffffffffffffffffffffffffffffff1673ffffffffffffffffffffffffffffffffffffffff16815260200190815260200160002081815481106127d8576127d761424e565b5b9060005260206000200154830361282b57600061282a576040517f08c379a0000000000000000000000000000000000000000000000000000000008152600401612821906145f7565b60405180910390fd5b5b8080612836906142ac565b91505061273d565b50600760008273ffffffffffffffffffffffffffffffffffffffff1673ffffffffffffffffffffffffffffffffffffffff168152602001908152602001600020829080600181540180825580915050600190039060005260206000200160009091909190915055600182815481106128b9576128b861424e565b5b90600052602060002090600a0201600601819080600181540180825580915050600190039060005260206000200160009091909190916101000a81548173ffffffffffffffffffffffffffffffffffffffff021916908373ffffffffffffffffffffffffffffffffffffffff160217905550505050565b60003090508073ffffffffffffffffffffffffffffffffffffffff166108fc349081150290604051600060405180830381858888f1935050505015801561297b573d6000803e3d6000fd5b5050565b80600a60003373ffffffffffffffffffffffffffffffffffffffff1673ffffffffffffffffffffffffffffffffffffffff16815260200190815260200160002090816129cb91906140e1565b5050565b4260066000848152602001908152602001600020600201541115612bba576001600960003373ffffffffffffffffffffffffffffffffffffffff1673ffffffffffffffffffffffffffffffffffffffff168152602001908152602001600020600084815260200190815260200160002060006101000a81548160ff02191690831515021790555060018281548110612a6a57612a6961424e565b5b90600052602060002090600a0201600601339080600181540180825580915050600190039060005260206000200160009091909190916101000a81548173ffffffffffffffffffffffffffffffffffffffff021916908373ffffffffffffffffffffffffffffffffffffffff160217905550600760003373ffffffffffffffffffffffffffffffffffffffff1673ffffffffffffffffffffffffffffffffffffffff16815260200190815260200160002082908060018154018082558091505060019003906000526020600020016000909190919091505560004290506006600084815260200190815260200160002060008082016000612b6b919061336a565b6001820160009055600282016000905550507fa7c1773722c3780482de45e0e6cdbb7395909d386fccd19d7b2aac127a796ac3823383604051612bb093929190614617565b60405180910390a1505b5050565b60606000600860003373ffffffffffffffffffffffffffffffffffffffff1673ffffffffffffffffffffffffffffffffffffffff1681526020019081526020016000208054905067ffffffffffffffff811115612c1e57612c1d613497565b5b604051908082528060200260200182016040528015612c5757816020015b612c446132ff565b815260200190600190039081612c3c5790505b50905060005b600860003373ffffffffffffffffffffffffffffffffffffffff1673ffffffffffffffffffffffffffffffffffffffff168152602001908152602001600020805490508110156130c6576001600860003373ffffffffffffffffffffffffffffffffffffffff1673ffffffffffffffffffffffffffffffffffffffff1681526020019081526020016000208281548110612cfa57612cf961424e565b5b906000526020600020015481548110612d1657612d1561424e565b5b90600052602060002090600a02016040518061014001604052908160008201548152602001600182018054612d4a90613f04565b80601f0160208091040260200160405190810160405280929190818152602001828054612d7690613f04565b8015612dc35780601f10612d9857610100808354040283529160200191612dc3565b820191906000526020600020905b815481529060010190602001808311612da657829003601f168201915b50505050508152602001600282018054612ddc90613f04565b80601f0160208091040260200160405190810160405280929190818152602001828054612e0890613f04565b8015612e555780601f10612e2a57610100808354040283529160200191612e55565b820191906000526020600020905b815481529060010190602001808311612e3857829003601f168201915b505050505081526020016003820160009054906101000a900460ff16151515158152602001600482018054612e8990613f04565b80601f0160208091040260200160405190810160405280929190818152602001828054612eb590613f04565b8015612f025780601f10612ed757610100808354040283529160200191612f02565b820191906000526020600020905b815481529060010190602001808311612ee557829003601f168201915b505050505081526020016005820160009054906101000a900473ffffffffffffffffffffffffffffffffffffffff1673ffffffffffffffffffffffffffffffffffffffff1673ffffffffffffffffffffffffffffffffffffffff16815260200160068201805480602002602001604051908101604052809291908181526020018280548015612fe657602002820191906000526020600020905b8160009054906101000a900473ffffffffffffffffffffffffffffffffffffffff1673ffffffffffffffffffffffffffffffffffffffff1681526020019060010190808311612f9c575b50505050508152602001600782015481526020016008820154815260200160098201805461301390613f04565b80601f016020809104026020016040519081016040528092919081815260200182805461303f90613f04565b801561308c5780601f106130615761010080835404028352916020019161308c565b820191906000526020600020905b81548152906001019060200180831161306f57829003601f168201915b5050505050815250508282815181106130a8576130a761424e565b5b602002602001018190525080806130be906142ac565b915050612c5d565b508091505090565b6001600960003373ffffffffffffffffffffffffffffffffffffffff1673ffffffffffffffffffffffffffffffffffffffff168152602001908152602001600020600085815260200190815260200160002060006101000a81548160ff021916908315150217905550600083908060018154018082558091505060019003906000526020600020016000909190919091505581600184815481106131755761317461424e565b5b90600052602060002090600a0201600901908161319291906140e1565b5080600184815481106131a8576131a761424e565b5b90600052602060002090600a020160080181905550505050565b6060600182815481106131d8576131d761424e565b5b90600052602060002090600a020160060180548060200260200160405190810160405280929190818152602001828054801561326957602002820191906000526020600020905b8160009054906101000a900473ffffffffffffffffffffffffffffffffffffffff1673ffffffffffffffffffffffffffffffffffffffff168152602001906001019080831161321f575b50505050509050919050565b8280548282559060005260206000209081019282156132ee579160200282015b828111156132ed5782518260006101000a81548173ffffffffffffffffffffffffffffffffffffffff021916908373ffffffffffffffffffffffffffffffffffffffff16021790555091602001919060010190613295565b5b5090506132fb91906133aa565b5090565b60405180610140016040528060008152602001606081526020016060815260200160001515815260200160608152602001600073ffffffffffffffffffffffffffffffffffffffff168152602001606081526020016000815260200160008152602001606081525090565b50805461337690613f04565b6000825580601f1061338857506133a7565b601f0160209004906000526020600020908101906133a691906133aa565b5b50565b5b808211156133c35760008160009055506001016133ab565b5090565b600081519050919050565b600082825260208201905092915050565b60005b838110156134015780820151818401526020810190506133e6565b60008484015250505050565b6000601f19601f8301169050919050565b6000613429826133c7565b61343381856133d2565b93506134438185602086016133e3565b61344c8161340d565b840191505092915050565b60006020820190508181036000830152613471818461341e565b905092915050565b6000604051905090565b600080fd5b600080fd5b600080fd5b600080fd5b7f4e487b7100000000000000000000000000000000000000000000000000000000600052604160045260246000fd5b6134cf8261340d565b810181811067ffffffffffffffff821117156134ee576134ed613497565b5b80604052505050565b6000613501613479565b905061350d82826134c6565b919050565b600067ffffffffffffffff82111561352d5761352c613497565b5b6135368261340d565b9050602081019050919050565b82818337600083830152505050565b600061356561356084613512565b6134f7565b90508281526020810184848401111561358157613580613492565b5b61358c848285613543565b509392505050565b600082601f8301126135a9576135a861348d565b5b81356135b9848260208601613552565b91505092915050565b6000806000606084860312156135db576135da613483565b5b600084013567ffffffffffffffff8111156135f9576135f8613488565b5b61360586828701613594565b935050602084013567ffffffffffffffff81111561362657613625613488565b5b61363286828701613594565b925050604084013567ffffffffffffffff81111561365357613652613488565b5b61365f86828701613594565b9150509250925092565b6000819050919050565b61367c81613669565b811461368757600080fd5b50565b60008135905061369981613673565b92915050565b6000602082840312156136b5576136b4613483565b5b60006136c38482850161368a565b91505092915050565b6136d581613669565b82525050565b600082825260208201905092915050565b60006136f7826133c7565b61370181856136db565b93506137118185602086016133e3565b61371a8161340d565b840191505092915050565b60008115159050919050565b61373a81613725565b82525050565b600073ffffffffffffffffffffffffffffffffffffffff82169050919050565b600061376b82613740565b9050919050565b61377b81613760565b82525050565b600081519050919050565b600082825260208201905092915050565b6000819050602082019050919050565b60006137b98383613772565b60208301905092915050565b6000602082019050919050565b60006137dd82613781565b6137e7818561378c565b93506137f28361379d565b8060005b8381101561382357815161380a88826137ad565b9750613815836137c5565b9250506001810190506137f6565b5085935050505092915050565b60006101408301600083015161384960008601826136cc565b506020830151848203602086015261386182826136ec565b9150506040830151848203604086015261387b82826136ec565b91505060608301516138906060860182613731565b50608083015184820360808601526138a882826136ec565b91505060a08301516138bd60a0860182613772565b5060c083015184820360c08601526138d582826137d2565b91505060e08301516138ea60e08601826136cc565b506101008301516138ff6101008601826136cc565b5061012083015184820361012086015261391982826136ec565b9150508091505092915050565b600060208201905081810360008301526139408184613830565b905092915050565b61395181613669565b82525050565b60006060820190508181036000830152613971818661341e565b90506139806020830185613948565b61398d6040830184613948565b949350505050565b61399e81613725565b82525050565b6139ad81613760565b82525050565b6000610120820190506139c9600083018c613948565b81810360208301526139db818b61341e565b905081810360408301526139ef818a61341e565b90506139fe6060830189613995565b8181036080830152613a10818861341e565b9050613a1f60a08301876139a4565b613a2c60c0830186613948565b613a3960e0830185613948565b818103610100830152613a4c818461341e565b90509a9950505050505050505050565b6000602082019050613a716000830184613948565b92915050565b60008060408385031215613a8e57613a8d613483565b5b600083013567ffffffffffffffff811115613aac57613aab613488565b5b613ab885828601613594565b9250506020613ac98582860161368a565b9150509250929050565b60008060008060808587031215613aed57613aec613483565b5b6000613afb8782880161368a565b945050602085013567ffffffffffffffff811115613b1c57613b1b613488565b5b613b2887828801613594565b9350506040613b398782880161368a565b9250506060613b4a8782880161368a565b91505092959194509250565b600081519050919050565b600082825260208201905092915050565b6000819050602082019050919050565b600061014083016000830151613b9b60008601826136cc565b5060208301518482036020860152613bb382826136ec565b91505060408301518482036040860152613bcd82826136ec565b9150506060830151613be26060860182613731565b5060808301518482036080860152613bfa82826136ec565b91505060a0830151613c0f60a0860182613772565b5060c083015184820360c0860152613c2782826137d2565b91505060e0830151613c3c60e08601826136cc565b50610100830151613c516101008601826136cc565b50610120830151848203610120860152613c6b82826136ec565b9150508091505092915050565b6000613c848383613b82565b905092915050565b6000602082019050919050565b6000613ca482613b56565b613cae8185613b61565b935083602082028501613cc085613b72565b8060005b85811015613cfc5784840389528151613cdd8582613c78565b9450613ce883613c8c565b925060208a01995050600181019050613cc4565b50829750879550505050505092915050565b60006020820190508181036000830152613d288184613c99565b905092915050565b600060208284031215613d4657613d45613483565b5b600082013567ffffffffffffffff811115613d6457613d63613488565b5b613d7084828501613594565b91505092915050565b60008060408385031215613d9057613d8f613483565b5b6000613d9e8582860161368a565b925050602083013567ffffffffffffffff811115613dbf57613dbe613488565b5b613dcb85828601613594565b9150509250929050565b600080600060608486031215613dee57613ded613483565b5b6000613dfc8682870161368a565b935050602084013567ffffffffffffffff811115613e1d57613e1c613488565b5b613e2986828701613594565b9250506040613e3a8682870161368a565b9150509250925092565b600082825260208201905092915050565b6000613e6082613781565b613e6a8185613e44565b9350613e758361379d565b8060005b83811015613ea6578151613e8d88826137ad565b9750613e98836137c5565b925050600181019050613e79565b5085935050505092915050565b60006020820190508181036000830152613ecd8184613e55565b905092915050565b7f4e487b7100000000000000000000000000000000000000000000000000000000600052602260045260246000fd5b60006002820490506001821680613f1c57607f821691505b602082108103613f2f57613f2e613ed5565b5b50919050565b60008190508160005260206000209050919050565b60006020601f8301049050919050565b600082821b905092915050565b600060088302613f977fffffffffffffffffffffffffffffffffffffffffffffffffffffffffffffffff82613f5a565b613fa18683613f5a565b95508019841693508086168417925050509392505050565b6000819050919050565b6000613fde613fd9613fd484613669565b613fb9565b613669565b9050919050565b6000819050919050565b613ff883613fc3565b61400c61400482613fe5565b848454613f67565b825550505050565b600090565b614021614014565b61402c818484613fef565b505050565b5b8181101561405057614045600082614019565b600181019050614032565b5050565b601f8211156140955761406681613f35565b61406f84613f4a565b8101602085101561407e578190505b61409261408a85613f4a565b830182614031565b50505b505050565b600082821c905092915050565b60006140b86000198460080261409a565b1980831691505092915050565b60006140d183836140a7565b9150826002028217905092915050565b6140ea826133c7565b67ffffffffffffffff81111561410357614102613497565b5b61410d8254613f04565b614118828285614054565b600060209050601f83116001811461414b5760008415614139578287015190505b61414385826140c5565b8655506141ab565b601f19841661415986613f35565b60005b828110156141815784890151825560018201915060208501945060208101905061415c565b8683101561419e578489015161419a601f8916826140a7565b8355505b6001600288020188555050505b505050505050565b7f4e487b7100000000000000000000000000000000000000000000000000000000600052603160045260246000fd5b7f676976656e2066696c65206964206973206e6f74206578697374730000000000600082015250565b6000614218601b836133d2565b9150614223826141e2565b602082019050919050565b600060208201905081810360008301526142478161420b565b9050919050565b7f4e487b7100000000000000000000000000000000000000000000000000000000600052603260045260246000fd5b7f4e487b7100000000000000000000000000000000000000000000000000000000600052601160045260246000fd5b60006142b782613669565b91507fffffffffffffffffffffffffffffffffffffffffffffffffffffffffffffffff82036142e9576142e861427d565b5b600182019050919050565b600081905092915050565b600061430a826133c7565b61431481856142f4565b93506143248185602086016133e3565b80840191505092915050565b600061433c82846142ff565b915081905092915050565b600061435282613669565b915061435d83613669565b92508282039050818111156143755761437461427d565b5b92915050565b7f796f7520646f65736e277420676976652061636365737320746f20746869732060008201527f6164647265737320617420616c6c212100000000000000000000000000000000602082015250565b60006143d76030836133d2565b91506143e28261437b565b604082019050919050565b60006020820190508181036000830152614406816143ca565b9050919050565b600061441882613669565b915061442383613669565b925082820190508082111561443b5761443a61427d565b5b92915050565b7f796f7520616c726561647920626f7567687420746869732066696c6500000000600082015250565b6000614477601c836133d2565b915061448282614441565b602082019050919050565b600060208201905081810360008301526144a68161446a565b9050919050565b7f496e73756666696369656e742062616c616e6365000000000000000000000000600082015250565b60006144e36014836133d2565b91506144ee826144ad565b602082019050919050565b60006020820190508181036000830152614512816144d6565b9050919050565b7f6e6f207265636f72647300000000000000000000000000000000000000000000600082015250565b600061454f600a836133d2565b915061455a82614519565b602082019050919050565b6000602082019050818103600083015261457e81614542565b9050919050565b7f74686973206164647265737320616c726561647920686176652061206163636560008201527f737320746f20746869732066696c650000000000000000000000000000000000602082015250565b60006145e1602f836133d2565b91506145ec82614585565b604082019050919050565b60006020820190508181036000830152614610816145d4565b9050919050565b60006060820190508181036000830152614631818661341e565b905061464060208301856139a4565b61464d6040830184613948565b94935050505056fea2646970667358221220a3dd62200ea19b7caa5e58eb936508aaf464857a252f76bf8f5e0b50209705ce64736f6c63430008130033",
  "linkReferences": {},
  "deployedLinkReferences": {}
}